{
  "_format": "hh-sol-artifact-1",
  "contractName": "Upload",
  "sourceName": "contracts/Upload.sol",
  "abi": [
    {
      "inputs": [
        {
          "internalType": "address",
          "name": "_user",
          "type": "address"
        },
        {
          "internalType": "string",
          "name": "url",
          "type": "string"
        }
      ],
      "name": "add",
      "outputs": [],
      "stateMutability": "nonpayable",
      "type": "function"
    },
    {
      "inputs": [
        {
          "internalType": "address",
          "name": "user",
          "type": "address"
        },
        {
          "internalType": "address",
          "name": "caller",
          "type": "address"
        }
      ],
      "name": "allow",
      "outputs": [],
      "stateMutability": "nonpayable",
      "type": "function"
    },
    {
      "inputs": [
        {
          "internalType": "address",
          "name": "user",
          "type": "address"
        },
        {
          "internalType": "address",
          "name": "caller",
          "type": "address"
        }
      ],
      "name": "disallow",
      "outputs": [],
      "stateMutability": "nonpayable",
      "type": "function"
    },
    {
      "inputs": [
        {
          "internalType": "address",
          "name": "_user",
          "type": "address"
        },
        {
          "internalType": "address",
          "name": "caller",
          "type": "address"
        }
      ],
      "name": "display",
      "outputs": [
        {
          "internalType": "string[]",
          "name": "",
          "type": "string[]"
        }
      ],
      "stateMutability": "view",
      "type": "function"
    },
    {
      "inputs": [
        {
          "internalType": "address",
          "name": "caller",
          "type": "address"
        }
      ],
      "name": "shareAccess",
      "outputs": [
        {
          "components": [
            {
              "internalType": "address",
              "name": "user",
              "type": "address"
            },
            {
              "internalType": "bool",
              "name": "access",
              "type": "bool"
            }
          ],
          "internalType": "struct Upload.Access[]",
          "name": "",
          "type": "tuple[]"
        }
      ],
      "stateMutability": "view",
      "type": "function"
    }
  ],
  "bytecode": "0x608060405234801561001057600080fd5b50611299806100206000396000f3fe608060405234801561001057600080fd5b50600436106100575760003560e01c806327d59f251461005c57806336d6da551461008c578063775ad527146100a8578063c55ae038146100c4578063d4f37530146100e0575b600080fd5b61007660048036038101906100719190610c2f565b610110565b6040516100839190610dca565b60405180910390f35b6100a660048036038101906100a19190610f21565b610327565b005b6100c260048036038101906100bd9190610c2f565b6103a3565b005b6100de60048036038101906100d99190610c2f565b6107eb565b005b6100fa60048036038101906100f59190610f7d565b610a0f565b60405161010791906110b2565b60405180910390f35b60608173ffffffffffffffffffffffffffffffffffffffff168373ffffffffffffffffffffffffffffffffffffffff1614806101d25750600160008473ffffffffffffffffffffffffffffffffffffffff1673ffffffffffffffffffffffffffffffffffffffff16815260200190815260200160002060008373ffffffffffffffffffffffffffffffffffffffff1673ffffffffffffffffffffffffffffffffffffffff16815260200190815260200160002060009054906101000a900460ff165b610211576040517f08c379a000000000000000000000000000000000000000000000000000000000815260040161020890611131565b60405180910390fd5b6000808473ffffffffffffffffffffffffffffffffffffffff1673ffffffffffffffffffffffffffffffffffffffff168152602001908152602001600020805480602002602001604051908101604052809291908181526020016000905b8282101561031b57838290600052602060002001805461028e90611180565b80601f01602080910402602001604051908101604052809291908181526020018280546102ba90611180565b80156103075780601f106102dc57610100808354040283529160200191610307565b820191906000526020600020905b8154815290600101906020018083116102ea57829003601f168201915b50505050508152602001906001019061026f565b50505050905092915050565b6000808373ffffffffffffffffffffffffffffffffffffffff1673ffffffffffffffffffffffffffffffffffffffff1681526020019081526020016000208190806001815401808255809150506001900390600052602060002001600090919091909150908051906020019061039e929190610b1a565b505050565b60018060008373ffffffffffffffffffffffffffffffffffffffff1673ffffffffffffffffffffffffffffffffffffffff16815260200190815260200160002060008473ffffffffffffffffffffffffffffffffffffffff1673ffffffffffffffffffffffffffffffffffffffff16815260200190815260200160002060006101000a81548160ff021916908315150217905550600360008273ffffffffffffffffffffffffffffffffffffffff1673ffffffffffffffffffffffffffffffffffffffff16815260200190815260200160002060008373ffffffffffffffffffffffffffffffffffffffff1673ffffffffffffffffffffffffffffffffffffffff16815260200190815260200160002060009054906101000a900460ff16156106565760005b600260008373ffffffffffffffffffffffffffffffffffffffff1673ffffffffffffffffffffffffffffffffffffffff16815260200190815260200160002080549050811015610650578273ffffffffffffffffffffffffffffffffffffffff16600260008473ffffffffffffffffffffffffffffffffffffffff1673ffffffffffffffffffffffffffffffffffffffff168152602001908152602001600020828154811061057b5761057a6111b2565b5b9060005260206000200160000160009054906101000a900473ffffffffffffffffffffffffffffffffffffffff1673ffffffffffffffffffffffffffffffffffffffff16141561063d576001600260008473ffffffffffffffffffffffffffffffffffffffff1673ffffffffffffffffffffffffffffffffffffffff1681526020019081526020016000208281548110610618576106176111b2565b5b9060005260206000200160000160146101000a81548160ff0219169083151502179055505b80806106489061121a565b9150506104c9565b506107e7565b600260008273ffffffffffffffffffffffffffffffffffffffff1673ffffffffffffffffffffffffffffffffffffffff16815260200190815260200160002060405180604001604052808473ffffffffffffffffffffffffffffffffffffffff168152602001600115158152509080600181540180825580915050600190039060005260206000200160009091909190915060008201518160000160006101000a81548173ffffffffffffffffffffffffffffffffffffffff021916908373ffffffffffffffffffffffffffffffffffffffff16021790555060208201518160000160146101000a81548160ff02191690831515021790555050506001600360008373ffffffffffffffffffffffffffffffffffffffff1673ffffffffffffffffffffffffffffffffffffffff16815260200190815260200160002060008473ffffffffffffffffffffffffffffffffffffffff1673ffffffffffffffffffffffffffffffffffffffff16815260200190815260200160002060006101000a81548160ff0219169083151502179055505b5050565b6000600160008373ffffffffffffffffffffffffffffffffffffffff1673ffffffffffffffffffffffffffffffffffffffff16815260200190815260200160002060008473ffffffffffffffffffffffffffffffffffffffff1673ffffffffffffffffffffffffffffffffffffffff16815260200190815260200160002060006101000a81548160ff02191690831515021790555060005b600260008373ffffffffffffffffffffffffffffffffffffffff1673ffffffffffffffffffffffffffffffffffffffff16815260200190815260200160002080549050811015610a0a578273ffffffffffffffffffffffffffffffffffffffff16600260008473ffffffffffffffffffffffffffffffffffffffff1673ffffffffffffffffffffffffffffffffffffffff1681526020019081526020016000208281548110610935576109346111b2565b5b9060005260206000200160000160009054906101000a900473ffffffffffffffffffffffffffffffffffffffff1673ffffffffffffffffffffffffffffffffffffffff1614156109f7576000600260008473ffffffffffffffffffffffffffffffffffffffff1673ffffffffffffffffffffffffffffffffffffffff16815260200190815260200160002082815481106109d2576109d16111b2565b5b9060005260206000200160000160146101000a81548160ff0219169083151502179055505b8080610a029061121a565b915050610883565b505050565b6060600260008373ffffffffffffffffffffffffffffffffffffffff1673ffffffffffffffffffffffffffffffffffffffff168152602001908152602001600020805480602002602001604051908101604052809291908181526020016000905b82821015610b0f578382906000526020600020016040518060400160405290816000820160009054906101000a900473ffffffffffffffffffffffffffffffffffffffff1673ffffffffffffffffffffffffffffffffffffffff1673ffffffffffffffffffffffffffffffffffffffff1681526020016000820160149054906101000a900460ff16151515158152505081526020019060010190610a70565b505050509050919050565b828054610b2690611180565b90600052602060002090601f016020900481019282610b485760008555610b8f565b82601f10610b6157805160ff1916838001178555610b8f565b82800160010185558215610b8f579182015b82811115610b8e578251825591602001919060010190610b73565b5b509050610b9c9190610ba0565b5090565b5b80821115610bb9576000816000905550600101610ba1565b5090565b6000604051905090565b600080fd5b600080fd5b600073ffffffffffffffffffffffffffffffffffffffff82169050919050565b6000610bfc82610bd1565b9050919050565b610c0c81610bf1565b8114610c1757600080fd5b50565b600081359050610c2981610c03565b92915050565b60008060408385031215610c4657610c45610bc7565b5b6000610c5485828601610c1a565b9250506020610c6585828601610c1a565b9150509250929050565b600081519050919050565b600082825260208201905092915050565b6000819050602082019050919050565b600081519050919050565b600082825260208201905092915050565b60005b83811015610cd5578082015181840152602081019050610cba565b83811115610ce4576000848401525b50505050565b6000601f19601f8301169050919050565b6000610d0682610c9b565b610d108185610ca6565b9350610d20818560208601610cb7565b610d2981610cea565b840191505092915050565b6000610d408383610cfb565b905092915050565b6000602082019050919050565b6000610d6082610c6f565b610d6a8185610c7a565b935083602082028501610d7c85610c8b565b8060005b85811015610db85784840389528151610d998582610d34565b9450610da483610d48565b925060208a01995050600181019050610d80565b50829750879550505050505092915050565b60006020820190508181036000830152610de48184610d55565b905092915050565b600080fd5b600080fd5b7f4e487b7100000000000000000000000000000000000000000000000000000000600052604160045260246000fd5b610e2e82610cea565b810181811067ffffffffffffffff82111715610e4d57610e4c610df6565b5b80604052505050565b6000610e60610bbd565b9050610e6c8282610e25565b919050565b600067ffffffffffffffff821115610e8c57610e8b610df6565b5b610e9582610cea565b9050602081019050919050565b82818337600083830152505050565b6000610ec4610ebf84610e71565b610e56565b905082815260208101848484011115610ee057610edf610df1565b5b610eeb848285610ea2565b509392505050565b600082601f830112610f0857610f07610dec565b5b8135610f18848260208601610eb1565b91505092915050565b60008060408385031215610f3857610f37610bc7565b5b6000610f4685828601610c1a565b925050602083013567ffffffffffffffff811115610f6757610f66610bcc565b5b610f7385828601610ef3565b9150509250929050565b600060208284031215610f9357610f92610bc7565b5b6000610fa184828501610c1a565b91505092915050565b600081519050919050565b600082825260208201905092915050565b6000819050602082019050919050565b610fdf81610bf1565b82525050565b60008115159050919050565b610ffa81610fe5565b82525050565b6040820160008201516110166000850182610fd6565b5060208201516110296020850182610ff1565b50505050565b600061103b8383611000565b60408301905092915050565b6000602082019050919050565b600061105f82610faa565b6110698185610fb5565b935061107483610fc6565b8060005b838110156110a557815161108c888261102f565b975061109783611047565b925050600181019050611078565b5085935050505092915050565b600060208201905081810360008301526110cc8184611054565b905092915050565b600082825260208201905092915050565b7f596f7520646f6e27742068617665206163636573730000000000000000000000600082015250565b600061111b6015836110d4565b9150611126826110e5565b602082019050919050565b6000602082019050818103600083015261114a8161110e565b9050919050565b7f4e487b7100000000000000000000000000000000000000000000000000000000600052602260045260246000fd5b6000600282049050600182168061119857607f821691505b602082108114156111ac576111ab611151565b5b50919050565b7f4e487b7100000000000000000000000000000000000000000000000000000000600052603260045260246000fd5b7f4e487b7100000000000000000000000000000000000000000000000000000000600052601160045260246000fd5b6000819050919050565b600061122582611210565b91507fffffffffffffffffffffffffffffffffffffffffffffffffffffffffffffffff821415611258576112576111e1565b5b60018201905091905056fea264697066735822122003c3800800c9634c6c047f52e7c6d176d83a7029e1a887854c29130b51924db364736f6c63430008090033",
  "linkReferences": {},
  "deployedLinkReferences": {}
}