{
  "_format": "hh-sol-artifact-1",
  "contractName": "Messenger",
  "sourceName": "contracts/Messenger.sol",
  "abi": [
    {
      "anonymous": false,
      "inputs": [
        {
          "indexed": true,
          "internalType": "address",
          "name": "_receiver",
          "type": "address"
        },
        {
          "components": [
            {
              "internalType": "address",
              "name": "from",
              "type": "address"
            },
            {
              "internalType": "address",
              "name": "to",
              "type": "address"
            },
            {
              "internalType": "string",
              "name": "message",
              "type": "string"
            },
            {
              "internalType": "bool",
              "name": "file",
              "type": "bool"
            },
            {
              "internalType": "uint256",
              "name": "timestamp",
              "type": "uint256"
            }
          ],
          "indexed": false,
          "internalType": "struct Message",
          "name": "_message",
          "type": "tuple"
        }
      ],
      "name": "newMessage",
      "type": "event"
    },
    {
      "inputs": [
        {
          "internalType": "string",
          "name": "_plainPass",
          "type": "string"
        }
      ],
      "name": "checkPass",
      "outputs": [
        {
          "internalType": "bool",
          "name": "",
          "type": "bool"
        }
      ],
      "stateMutability": "view",
      "type": "function"
    },
    {
      "inputs": [
        {
          "internalType": "address",
          "name": "_address",
          "type": "address"
        }
      ],
      "name": "deleteContact",
      "outputs": [
        {
          "internalType": "bool",
          "name": "",
          "type": "bool"
        }
      ],
      "stateMutability": "nonpayable",
      "type": "function"
    },
    {
      "inputs": [],
      "name": "getAllConnectedContacts",
      "outputs": [
        {
          "components": [
            {
              "internalType": "string",
              "name": "Name",
              "type": "string"
            },
            {
              "internalType": "address",
              "name": "Address",
              "type": "address"
            },
            {
              "internalType": "string",
              "name": "proPic",
              "type": "string"
            },
            {
              "internalType": "bytes32",
              "name": "passwordHash",
              "type": "bytes32"
            }
          ],
          "internalType": "struct Account[]",
          "name": "",
          "type": "tuple[]"
        }
      ],
      "stateMutability": "view",
      "type": "function"
    },
    {
      "inputs": [
        {
          "internalType": "address",
          "name": "_address",
          "type": "address"
        }
      ],
      "name": "getHashedPass",
      "outputs": [
        {
          "internalType": "bytes32",
          "name": "",
          "type": "bytes32"
        }
      ],
      "stateMutability": "view",
      "type": "function"
    },
    {
      "inputs": [
        {
          "internalType": "address",
          "name": "_msgOf",
          "type": "address"
        }
      ],
      "name": "getMessages",
      "outputs": [
        {
          "components": [
            {
              "internalType": "address",
              "name": "from",
              "type": "address"
            },
            {
              "internalType": "address",
              "name": "to",
              "type": "address"
            },
            {
              "internalType": "string",
              "name": "message",
              "type": "string"
            },
            {
              "internalType": "bool",
              "name": "file",
              "type": "bool"
            },
            {
              "internalType": "uint256",
              "name": "timestamp",
              "type": "uint256"
            }
          ],
          "internalType": "struct Message[]",
          "name": "",
          "type": "tuple[]"
        }
      ],
      "stateMutability": "view",
      "type": "function"
    },
    {
      "inputs": [],
      "name": "isRegistered",
      "outputs": [
        {
          "internalType": "string",
          "name": "",
          "type": "string"
        }
      ],
      "stateMutability": "view",
      "type": "function"
    },
    {
      "inputs": [
        {
          "internalType": "string",
          "name": "_name",
          "type": "string"
        },
        {
          "internalType": "string",
          "name": "_plainPass",
          "type": "string"
        }
      ],
      "name": "register",
      "outputs": [],
      "stateMutability": "nonpayable",
      "type": "function"
    },
    {
      "inputs": [
        {
          "internalType": "string",
          "name": "_name",
          "type": "string"
        }
      ],
      "name": "searchUser",
      "outputs": [
        {
          "components": [
            {
              "internalType": "string",
              "name": "Name",
              "type": "string"
            },
            {
              "internalType": "address",
              "name": "Address",
              "type": "address"
            },
            {
              "internalType": "string",
              "name": "proPic",
              "type": "string"
            },
            {
              "internalType": "bytes32",
              "name": "passwordHash",
              "type": "bytes32"
            }
          ],
          "internalType": "struct Account",
          "name": "",
          "type": "tuple"
        }
      ],
      "stateMutability": "view",
      "type": "function"
    },
    {
      "inputs": [
        {
          "internalType": "address",
          "name": "_to",
          "type": "address"
        },
        {
          "internalType": "string",
          "name": "_data",
          "type": "string"
        }
      ],
      "name": "send",
      "outputs": [
        {
          "internalType": "bool",
          "name": "",
          "type": "bool"
        }
      ],
      "stateMutability": "nonpayable",
      "type": "function"
    }
  ],
  "bytecode": "0x608060405234801561001057600080fd5b50612f4c806100206000396000f3fe608060405234801561001057600080fd5b50600436106100935760003560e01c806351ac59a91161006657806351ac59a91461013257806399142b5f14610162578063b2f7132214610192578063b3fae5fb146101c2578063e0e30eba146101f257610093565b80631046bc681461009857806322366844146100c85780633531eb1e146100e65780633ffbd47f14610116575b600080fd5b6100b260048036038101906100ad919061216e565b610210565b6040516100bf91906121b6565b60405180910390f35b6100d06105d4565b6040516100dd919061226a565b60405180910390f35b61010060048036038101906100fb91906123c1565b610735565b60405161010d91906121b6565b60405180910390f35b610130600480360381019061012b919061246a565b6107a6565b005b61014c6004803603810190610147919061216e565b610bd2565b6040516101599190612504565b60405180910390f35b61017c6004803603810190610177919061251f565b610cae565b60405161018991906121b6565b60405180910390f35b6101ac60048036038101906101a7919061216e565b61147f565b6040516101b99190612738565b60405180910390f35b6101dc60048036038101906101d7919061275a565b6116bd565b6040516101e99190612820565b60405180910390f35b6101fa611990565b604051610207919061296e565b60405180910390f35b600060011515600560003373ffffffffffffffffffffffffffffffffffffffff1673ffffffffffffffffffffffffffffffffffffffff16815260200190815260200160002060008473ffffffffffffffffffffffffffffffffffffffff1673ffffffffffffffffffffffffffffffffffffffff16815260200190815260200160002060009054906101000a900460ff161515146102e2576040517f08c379a00000000000000000000000000000000000000000000000000000000081526004016102d9906129dc565b60405180910390fd5b6000600560003373ffffffffffffffffffffffffffffffffffffffff1673ffffffffffffffffffffffffffffffffffffffff16815260200190815260200160002060008473ffffffffffffffffffffffffffffffffffffffff1673ffffffffffffffffffffffffffffffffffffffff16815260200190815260200160002060006101000a81548160ff0219169083151502179055506000600460003373ffffffffffffffffffffffffffffffffffffffff1673ffffffffffffffffffffffffffffffffffffffff168152602001908152602001600020905060005b8180549050811015610541578373ffffffffffffffffffffffffffffffffffffffff168282815481106103f3576103f26129fc565b5b9060005260206000200160009054906101000a900473ffffffffffffffffffffffffffffffffffffffff1673ffffffffffffffffffffffffffffffffffffffff16141561052e57816001838054905061044c9190612a5a565b8154811061045d5761045c6129fc565b5b9060005260206000200160009054906101000a900473ffffffffffffffffffffffffffffffffffffffff1682828154811061049b5761049a6129fc565b5b9060005260206000200160006101000a81548173ffffffffffffffffffffffffffffffffffffffff021916908373ffffffffffffffffffffffffffffffffffffffff160217905550818054806104f4576104f3612a8e565b5b6001900381819060005260206000200160006101000a81549073ffffffffffffffffffffffffffffffffffffffff02191690559055610541565b808061053990612abd565b9150506103bd565b50600160003373ffffffffffffffffffffffffffffffffffffffff1673ffffffffffffffffffffffffffffffffffffffff16815260200190815260200160002060008473ffffffffffffffffffffffffffffffffffffffff1673ffffffffffffffffffffffffffffffffffffffff16815260200190815260200160002060006105ca9190611f19565b6001915050919050565b6060600260003373ffffffffffffffffffffffffffffffffffffffff1673ffffffffffffffffffffffffffffffffffffffff16815260200190815260200160002060009054906101000a900460ff16156106f9576000803373ffffffffffffffffffffffffffffffffffffffff1673ffffffffffffffffffffffffffffffffffffffff168152602001908152602001600020600001805461067490612b35565b80601f01602080910402602001604051908101604052809291908181526020018280546106a090612b35565b80156106ed5780601f106106c2576101008083540402835291602001916106ed565b820191906000526020600020905b8154815290600101906020018083116106d057829003601f168201915b50505050509050610732565b6040518060400160405280600481526020017f4e4f4e450000000000000000000000000000000000000000000000000000000081525090505b90565b6000816040516020016107489190612ba3565b60405160208183030381529060405280519060200120600360003373ffffffffffffffffffffffffffffffffffffffff1673ffffffffffffffffffffffffffffffffffffffff16815260200190815260200160002054149050919050565b600073ffffffffffffffffffffffffffffffffffffffff166000803373ffffffffffffffffffffffffffffffffffffffff1673ffffffffffffffffffffffffffffffffffffffff16815260200190815260200160002060010160009054906101000a900473ffffffffffffffffffffffffffffffffffffffff1673ffffffffffffffffffffffffffffffffffffffff1614610876576040517f08c379a000000000000000000000000000000000000000000000000000000000815260040161086d90612c06565b60405180910390fd5b600073ffffffffffffffffffffffffffffffffffffffff16600685856040516108a0929190612c4b565b908152602001604051809103902060009054906101000a900473ffffffffffffffffffffffffffffffffffffffff1673ffffffffffffffffffffffffffffffffffffffff1614610925576040517f08c379a000000000000000000000000000000000000000000000000000000000815260040161091c90612cb0565b60405180910390fd5b6000604051806080016040528086868080601f016020809104026020016040519081016040528093929190818152602001838380828437600081840152601f19601f8201169050808301925050505050505081526020013373ffffffffffffffffffffffffffffffffffffffff16815260200160405180602001604052806000815250815260200184846040516020016109c0929190612c4b565b60405160208183030381529060405280519060200120815250905082826040516020016109ee929190612c4b565b60405160208183030381529060405280519060200120600360003373ffffffffffffffffffffffffffffffffffffffff1673ffffffffffffffffffffffffffffffffffffffff16815260200190815260200160002081905550806000803373ffffffffffffffffffffffffffffffffffffffff1673ffffffffffffffffffffffffffffffffffffffff1681526020019081526020016000206000820151816000019080519060200190610aa2929190611f3d565b5060208201518160010160006101000a81548173ffffffffffffffffffffffffffffffffffffffff021916908373ffffffffffffffffffffffffffffffffffffffff1602179055506040820151816002019080519060200190610b06929190611f3d565b50606082015181600301559050506001600260003373ffffffffffffffffffffffffffffffffffffffff1673ffffffffffffffffffffffffffffffffffffffff16815260200190815260200160002060006101000a81548160ff0219169083151502179055503360068686604051610b7f929190612c4b565b908152602001604051809103902060006101000a81548173ffffffffffffffffffffffffffffffffffffffff021916908373ffffffffffffffffffffffffffffffffffffffff1602179055505050505050565b600060011515600260008473ffffffffffffffffffffffffffffffffffffffff1673ffffffffffffffffffffffffffffffffffffffff16815260200190815260200160002060009054906101000a900460ff16151514610c67576040517f08c379a0000000000000000000000000000000000000000000000000000000008152600401610c5e90612d1c565b60405180910390fd5b600360008373ffffffffffffffffffffffffffffffffffffffff1673ffffffffffffffffffffffffffffffffffffffff168152602001908152602001600020549050919050565b6000610cfd83838080601f016020809104026020016040519081016040528093929190818152602001838380828437600081840152601f19601f82011690508083019250505050505050611e3a565b604051602001610d0c90612d62565b604051602081830303815290604052805190602001208383604051602001610d35929190612c4b565b604051602081830303815290604052805190602001201415610d8c576040517f08c379a0000000000000000000000000000000000000000000000000000000008152600401610d8390612dc3565b60405180910390fd5b60006040518060a001604052803373ffffffffffffffffffffffffffffffffffffffff1681526020018673ffffffffffffffffffffffffffffffffffffffff16815260200185858080601f016020809104026020016040519081016040528093929190818152602001838380828437600081840152601f19601f82011690508083019250505050505050815260200160001515815260200142815250905060001515600560003373ffffffffffffffffffffffffffffffffffffffff1673ffffffffffffffffffffffffffffffffffffffff16815260200190815260200160002060008773ffffffffffffffffffffffffffffffffffffffff1673ffffffffffffffffffffffffffffffffffffffff16815260200190815260200160002060009054906101000a900460ff161515141561100157600460003373ffffffffffffffffffffffffffffffffffffffff1673ffffffffffffffffffffffffffffffffffffffff168152602001908152602001600020859080600181540180825580915050600190039060005260206000200160009091909190916101000a81548173ffffffffffffffffffffffffffffffffffffffff021916908373ffffffffffffffffffffffffffffffffffffffff160217905550600460008673ffffffffffffffffffffffffffffffffffffffff1673ffffffffffffffffffffffffffffffffffffffff168152602001908152602001600020339080600181540180825580915050600190039060005260206000200160009091909190916101000a81548173ffffffffffffffffffffffffffffffffffffffff021916908373ffffffffffffffffffffffffffffffffffffffff1602179055505b6001600560003373ffffffffffffffffffffffffffffffffffffffff1673ffffffffffffffffffffffffffffffffffffffff16815260200190815260200160002060008773ffffffffffffffffffffffffffffffffffffffff1673ffffffffffffffffffffffffffffffffffffffff16815260200190815260200160002060006101000a81548160ff0219169083151502179055506001600560008773ffffffffffffffffffffffffffffffffffffffff1673ffffffffffffffffffffffffffffffffffffffff16815260200190815260200160002060003373ffffffffffffffffffffffffffffffffffffffff1673ffffffffffffffffffffffffffffffffffffffff16815260200190815260200160002060006101000a81548160ff021916908315150217905550600160003373ffffffffffffffffffffffffffffffffffffffff1673ffffffffffffffffffffffffffffffffffffffff16815260200190815260200160002060008673ffffffffffffffffffffffffffffffffffffffff1673ffffffffffffffffffffffffffffffffffffffff16815260200190815260200160002081908060018154018082558091505060019003906000526020600020906005020160009091909190915060008201518160000160006101000a81548173ffffffffffffffffffffffffffffffffffffffff021916908373ffffffffffffffffffffffffffffffffffffffff16021790555060208201518160010160006101000a81548173ffffffffffffffffffffffffffffffffffffffff021916908373ffffffffffffffffffffffffffffffffffffffff160217905550604082015181600201908051906020019061127b929190611f3d565b5060608201518160030160006101000a81548160ff021916908315150217905550608082015181600401555050600160008673ffffffffffffffffffffffffffffffffffffffff1673ffffffffffffffffffffffffffffffffffffffff16815260200190815260200160002060003373ffffffffffffffffffffffffffffffffffffffff1673ffffffffffffffffffffffffffffffffffffffff16815260200190815260200160002081908060018154018082558091505060019003906000526020600020906005020160009091909190915060008201518160000160006101000a81548173ffffffffffffffffffffffffffffffffffffffff021916908373ffffffffffffffffffffffffffffffffffffffff16021790555060208201518160010160006101000a81548173ffffffffffffffffffffffffffffffffffffffff021916908373ffffffffffffffffffffffffffffffffffffffff16021790555060408201518160020190805190602001906113f8929190611f3d565b5060608201518160030160006101000a81548160ff0219169083151502179055506080820151816004015550508473ffffffffffffffffffffffffffffffffffffffff167f2954c6667dce9c64f1406803b65f9d33a05719ad15a7ab324e52ed005e5211598260405161146b9190612e59565b60405180910390a260019150509392505050565b6060600160003373ffffffffffffffffffffffffffffffffffffffff1673ffffffffffffffffffffffffffffffffffffffff16815260200190815260200160002060008373ffffffffffffffffffffffffffffffffffffffff1673ffffffffffffffffffffffffffffffffffffffff168152602001908152602001600020805480602002602001604051908101604052809291908181526020016000905b828210156116b257838290600052602060002090600502016040518060a00160405290816000820160009054906101000a900473ffffffffffffffffffffffffffffffffffffffff1673ffffffffffffffffffffffffffffffffffffffff1673ffffffffffffffffffffffffffffffffffffffff1681526020016001820160009054906101000a900473ffffffffffffffffffffffffffffffffffffffff1673ffffffffffffffffffffffffffffffffffffffff1673ffffffffffffffffffffffffffffffffffffffff1681526020016002820180546115fc90612b35565b80601f016020809104026020016040519081016040528092919081815260200182805461162890612b35565b80156116755780601f1061164a57610100808354040283529160200191611675565b820191906000526020600020905b81548152906001019060200180831161165857829003601f168201915b505050505081526020016003820160009054906101000a900460ff161515151581526020016004820154815250508152602001906001019061151d565b505050509050919050565b6116c5611fc3565b600073ffffffffffffffffffffffffffffffffffffffff16600684846040516116ef929190612c4b565b908152602001604051809103902060009054906101000a900473ffffffffffffffffffffffffffffffffffffffff1673ffffffffffffffffffffffffffffffffffffffff161415611775576040517f08c379a000000000000000000000000000000000000000000000000000000000815260040161176c90612ec7565b60405180910390fd5b600060068484604051611789929190612c4b565b908152602001604051809103902060009054906101000a900473ffffffffffffffffffffffffffffffffffffffff1690506000808273ffffffffffffffffffffffffffffffffffffffff1673ffffffffffffffffffffffffffffffffffffffff16815260200190815260200160002060405180608001604052908160008201805461181390612b35565b80601f016020809104026020016040519081016040528092919081815260200182805461183f90612b35565b801561188c5780601f106118615761010080835404028352916020019161188c565b820191906000526020600020905b81548152906001019060200180831161186f57829003601f168201915b505050505081526020016001820160009054906101000a900473ffffffffffffffffffffffffffffffffffffffff1673ffffffffffffffffffffffffffffffffffffffff1673ffffffffffffffffffffffffffffffffffffffff1681526020016002820180546118fb90612b35565b80601f016020809104026020016040519081016040528092919081815260200182805461192790612b35565b80156119745780601f1061194957610100808354040283529160200191611974565b820191906000526020600020905b81548152906001019060200180831161195757829003601f168201915b5050505050815260200160038201548152505091505092915050565b6060600080600460003373ffffffffffffffffffffffffffffffffffffffff1673ffffffffffffffffffffffffffffffffffffffff1681526020019081526020016000208054905067ffffffffffffffff8111156119f1576119f0612296565b5b604051908082528060200260200182016040528015611a2a57816020015b611a17611fc3565b815260200190600190039081611a0f5790505b50905060005b600460003373ffffffffffffffffffffffffffffffffffffffff1673ffffffffffffffffffffffffffffffffffffffff16815260200190815260200160002080549050811015611e31576000600460003373ffffffffffffffffffffffffffffffffffffffff1673ffffffffffffffffffffffffffffffffffffffff1681526020019081526020016000208281548110611acd57611acc6129fc565b5b9060005260206000200160009054906101000a900473ffffffffffffffffffffffffffffffffffffffff169050600560003373ffffffffffffffffffffffffffffffffffffffff1673ffffffffffffffffffffffffffffffffffffffff16815260200190815260200160002060008273ffffffffffffffffffffffffffffffffffffffff1673ffffffffffffffffffffffffffffffffffffffff16815260200190815260200160002060009054906101000a900460ff168015611c1e5750600073ffffffffffffffffffffffffffffffffffffffff166000808373ffffffffffffffffffffffffffffffffffffffff1673ffffffffffffffffffffffffffffffffffffffff16815260200190815260200160002060010160009054906101000a900473ffffffffffffffffffffffffffffffffffffffff1673ffffffffffffffffffffffffffffffffffffffff1614155b15611e1d576000808273ffffffffffffffffffffffffffffffffffffffff1673ffffffffffffffffffffffffffffffffffffffff168152602001908152602001600020604051806080016040529081600082018054611c7c90612b35565b80601f0160208091040260200160405190810160405280929190818152602001828054611ca890612b35565b8015611cf55780601f10611cca57610100808354040283529160200191611cf5565b820191906000526020600020905b815481529060010190602001808311611cd857829003601f168201915b505050505081526020016001820160009054906101000a900473ffffffffffffffffffffffffffffffffffffffff1673ffffffffffffffffffffffffffffffffffffffff1673ffffffffffffffffffffffffffffffffffffffff168152602001600282018054611d6490612b35565b80601f0160208091040260200160405190810160405280929190818152602001828054611d9090612b35565b8015611ddd5780601f10611db257610100808354040283529160200191611ddd565b820191906000526020600020905b815481529060010190602001808311611dc057829003601f168201915b50505050508152602001600382015481525050838581518110611e0357611e026129fc565b5b60200260200101819052508380611e1990612abd565b9450505b508080611e2990612abd565b915050611a30565b50809250505090565b611ed081604051602401611e4e919061226a565b6040516020818303038152906040527f41304fac000000000000000000000000000000000000000000000000000000007bffffffffffffffffffffffffffffffffffffffffffffffffffffffff19166020820180517bffffffffffffffffffffffffffffffffffffffffffffffffffffffff8381831617835250505050611ed3565b50565b611eea81611ee2611eed611f0e565b63ffffffff16565b50565b60006a636f6e736f6c652e6c6f679050600080835160208501845afa505050565b612004819050919050565b5080546000825560050290600052602060002090810190611f3a919061200e565b50565b828054611f4990612b35565b90600052602060002090601f016020900481019282611f6b5760008555611fb2565b82601f10611f8457805160ff1916838001178555611fb2565b82800160010185558215611fb2579182015b82811115611fb1578251825591602001919060010190611f96565b5b509050611fbf919061209f565b5090565b604051806080016040528060608152602001600073ffffffffffffffffffffffffffffffffffffffff16815260200160608152602001600080191681525090565b61200c612ee7565b565b5b8082111561209b57600080820160006101000a81549073ffffffffffffffffffffffffffffffffffffffff02191690556001820160006101000a81549073ffffffffffffffffffffffffffffffffffffffff021916905560028201600061207691906120bc565b6003820160006101000a81549060ff021916905560048201600090555060050161200f565b5090565b5b808211156120b85760008160009055506001016120a0565b5090565b5080546120c890612b35565b6000825580601f106120da57506120f9565b601f0160209004906000526020600020908101906120f8919061209f565b5b50565b6000604051905090565b600080fd5b600080fd5b600073ffffffffffffffffffffffffffffffffffffffff82169050919050565b600061213b82612110565b9050919050565b61214b81612130565b811461215657600080fd5b50565b60008135905061216881612142565b92915050565b60006020828403121561218457612183612106565b5b600061219284828501612159565b91505092915050565b60008115159050919050565b6121b08161219b565b82525050565b60006020820190506121cb60008301846121a7565b92915050565b600081519050919050565b600082825260208201905092915050565b60005b8381101561220b5780820151818401526020810190506121f0565b8381111561221a576000848401525b50505050565b6000601f19601f8301169050919050565b600061223c826121d1565b61224681856121dc565b93506122568185602086016121ed565b61225f81612220565b840191505092915050565b600060208201905081810360008301526122848184612231565b905092915050565b600080fd5b600080fd5b7f4e487b7100000000000000000000000000000000000000000000000000000000600052604160045260246000fd5b6122ce82612220565b810181811067ffffffffffffffff821117156122ed576122ec612296565b5b80604052505050565b60006123006120fc565b905061230c82826122c5565b919050565b600067ffffffffffffffff82111561232c5761232b612296565b5b61233582612220565b9050602081019050919050565b82818337600083830152505050565b600061236461235f84612311565b6122f6565b9050828152602081018484840111156123805761237f612291565b5b61238b848285612342565b509392505050565b600082601f8301126123a8576123a761228c565b5b81356123b8848260208601612351565b91505092915050565b6000602082840312156123d7576123d6612106565b5b600082013567ffffffffffffffff8111156123f5576123f461210b565b5b61240184828501612393565b91505092915050565b600080fd5b600080fd5b60008083601f84011261242a5761242961228c565b5b8235905067ffffffffffffffff8111156124475761244661240a565b5b6020830191508360018202830111156124635761246261240f565b5b9250929050565b6000806000806040858703121561248457612483612106565b5b600085013567ffffffffffffffff8111156124a2576124a161210b565b5b6124ae87828801612414565b9450945050602085013567ffffffffffffffff8111156124d1576124d061210b565b5b6124dd87828801612414565b925092505092959194509250565b6000819050919050565b6124fe816124eb565b82525050565b600060208201905061251960008301846124f5565b92915050565b60008060006040848603121561253857612537612106565b5b600061254686828701612159565b935050602084013567ffffffffffffffff8111156125675761256661210b565b5b61257386828701612414565b92509250509250925092565b600081519050919050565b600082825260208201905092915050565b6000819050602082019050919050565b6125b481612130565b82525050565b600082825260208201905092915050565b60006125d6826121d1565b6125e081856125ba565b93506125f08185602086016121ed565b6125f981612220565b840191505092915050565b61260d8161219b565b82525050565b6000819050919050565b61262681612613565b82525050565b600060a08301600083015161264460008601826125ab565b50602083015161265760208601826125ab565b506040830151848203604086015261266f82826125cb565b91505060608301516126846060860182612604565b506080830151612697608086018261261d565b508091505092915050565b60006126ae838361262c565b905092915050565b6000602082019050919050565b60006126ce8261257f565b6126d8818561258a565b9350836020820285016126ea8561259b565b8060005b85811015612726578484038952815161270785826126a2565b9450612712836126b6565b925060208a019950506001810190506126ee565b50829750879550505050505092915050565b6000602082019050818103600083015261275281846126c3565b905092915050565b6000806020838503121561277157612770612106565b5b600083013567ffffffffffffffff81111561278f5761278e61210b565b5b61279b85828601612414565b92509250509250929050565b6127b0816124eb565b82525050565b600060808301600083015184820360008601526127d382826125cb565b91505060208301516127e860208601826125ab565b506040830151848203604086015261280082826125cb565b915050606083015161281560608601826127a7565b508091505092915050565b6000602082019050818103600083015261283a81846127b6565b905092915050565b600081519050919050565b600082825260208201905092915050565b6000819050602082019050919050565b6000608083016000830151848203600086015261288b82826125cb565b91505060208301516128a060208601826125ab565b50604083015184820360408601526128b882826125cb565b91505060608301516128cd60608601826127a7565b508091505092915050565b60006128e4838361286e565b905092915050565b6000602082019050919050565b600061290482612842565b61290e818561284d565b9350836020820285016129208561285e565b8060005b8581101561295c578484038952815161293d85826128d8565b9450612948836128ec565b925060208a01995050600181019050612924565b50829750879550505050505092915050565b6000602082019050818103600083015261298881846128f9565b905092915050565b7f55736572206e6f7420436f6e6e65637465642079657400000000000000000000600082015250565b60006129c66016836121dc565b91506129d182612990565b602082019050919050565b600060208201905081810360008301526129f5816129b9565b9050919050565b7f4e487b7100000000000000000000000000000000000000000000000000000000600052603260045260246000fd5b7f4e487b7100000000000000000000000000000000000000000000000000000000600052601160045260246000fd5b6000612a6582612613565b9150612a7083612613565b925082821015612a8357612a82612a2b565b5b828203905092915050565b7f4e487b7100000000000000000000000000000000000000000000000000000000600052603160045260246000fd5b6000612ac882612613565b91507fffffffffffffffffffffffffffffffffffffffffffffffffffffffffffffffff821415612afb57612afa612a2b565b5b600182019050919050565b7f4e487b7100000000000000000000000000000000000000000000000000000000600052602260045260246000fd5b60006002820490506001821680612b4d57607f821691505b60208210811415612b6157612b60612b06565b5b50919050565b600081905092915050565b6000612b7d826121d1565b612b878185612b67565b9350612b978185602086016121ed565b80840191505092915050565b6000612baf8284612b72565b915081905092915050565b7f5573657220616c72656164792072656769737465726564000000000000000000600082015250565b6000612bf06017836121dc565b9150612bfb82612bba565b602082019050919050565b60006020820190508181036000830152612c1f81612be3565b9050919050565b6000612c328385612b67565b9350612c3f838584612342565b82840190509392505050565b6000612c58828486612c26565b91508190509392505050565b7f557365726e616d65206e6f7420617661696c61626c6500000000000000000000600082015250565b6000612c9a6016836121dc565b9150612ca582612c64565b602082019050919050565b60006020820190508181036000830152612cc981612c8d565b9050919050565b7f4163636f756e74206e6f74207265676973746572656400000000000000000000600082015250565b6000612d066016836121dc565b9150612d1182612cd0565b602082019050919050565b60006020820190508181036000830152612d3581612cf9565b9050919050565b50565b6000612d4c600083612b67565b9150612d5782612d3c565b600082019050919050565b6000612d6d82612d3f565b9150819050919050565b7f4e6f206d6573736167652069732073656e740000000000000000000000000000600082015250565b6000612dad6012836121dc565b9150612db882612d77565b602082019050919050565b60006020820190508181036000830152612ddc81612da0565b9050919050565b600060a083016000830151612dfb60008601826125ab565b506020830151612e0e60208601826125ab565b5060408301518482036040860152612e2682826125cb565b9150506060830151612e3b6060860182612604565b506080830151612e4e608086018261261d565b508091505092915050565b60006020820190508181036000830152612e738184612de3565b905092915050565b7f4e6f207573657220666f756e6400000000000000000000000000000000000000600082015250565b6000612eb1600d836121dc565b9150612ebc82612e7b565b602082019050919050565b60006020820190508181036000830152612ee081612ea4565b9050919050565b7f4e487b7100000000000000000000000000000000000000000000000000000000600052605160045260246000fdfea2646970667358221220925d668cc324e691fa2a571553f55367b2cc1bb7a53cc6a26397796938dc7ce064736f6c63430008090033",
  "linkReferences": {},
  "deployedLinkReferences": {}
}