{
  "_format": "hh-sol-artifact-1",
  "contractName": "Messenger",
  "sourceName": "contracts/Messenger.sol",
  "abi": [
    {
      "anonymous": false,
      "inputs": [
        {
          "indexed": true,
          "internalType": "address",
          "name": "_receiver",
          "type": "address"
        },
        {
          "components": [
            {
              "internalType": "address",
              "name": "from",
              "type": "address"
            },
            {
              "internalType": "address",
              "name": "to",
              "type": "address"
            },
            {
              "internalType": "string",
              "name": "message",
              "type": "string"
            },
            {
              "internalType": "bool",
              "name": "file",
              "type": "bool"
            },
            {
              "internalType": "uint256",
              "name": "timestamp",
              "type": "uint256"
            }
          ],
          "indexed": false,
          "internalType": "struct Message",
          "name": "_message",
          "type": "tuple"
        }
      ],
      "name": "newMessage",
      "type": "event"
    },
    {
      "inputs": [
        {
          "internalType": "address",
          "name": "msg_sender",
          "type": "address"
        },
        {
          "internalType": "string",
          "name": "_plainPass",
          "type": "string"
        }
      ],
      "name": "checkPass",
      "outputs": [
        {
          "internalType": "bool",
          "name": "",
          "type": "bool"
        }
      ],
      "stateMutability": "view",
      "type": "function"
    },
    {
      "inputs": [
        {
          "internalType": "address",
          "name": "msg_sender",
          "type": "address"
        },
        {
          "internalType": "address",
          "name": "_address",
          "type": "address"
        }
      ],
      "name": "deleteContact",
      "outputs": [
        {
          "internalType": "bool",
          "name": "",
          "type": "bool"
        }
      ],
      "stateMutability": "nonpayable",
      "type": "function"
    },
    {
      "inputs": [
        {
          "internalType": "address",
          "name": "msg_sender",
          "type": "address"
        }
      ],
      "name": "getAllConnectedContacts",
      "outputs": [
        {
          "components": [
            {
              "internalType": "string",
              "name": "Name",
              "type": "string"
            },
            {
              "internalType": "address",
              "name": "Address",
              "type": "address"
            },
            {
              "internalType": "string",
              "name": "proPic",
              "type": "string"
            },
            {
              "internalType": "bytes32",
              "name": "passwordHash",
              "type": "bytes32"
            }
          ],
          "internalType": "struct Account[]",
          "name": "",
          "type": "tuple[]"
        }
      ],
      "stateMutability": "view",
      "type": "function"
    },
    {
      "inputs": [
        {
          "internalType": "address",
          "name": "_address",
          "type": "address"
        }
      ],
      "name": "getHashedPass",
      "outputs": [
        {
          "internalType": "bytes32",
          "name": "",
          "type": "bytes32"
        }
      ],
      "stateMutability": "view",
      "type": "function"
    },
    {
      "inputs": [
        {
          "internalType": "address",
          "name": "msg_sender",
          "type": "address"
        },
        {
          "internalType": "address",
          "name": "_msgOf",
          "type": "address"
        }
      ],
      "name": "getMessages",
      "outputs": [
        {
          "components": [
            {
              "internalType": "address",
              "name": "from",
              "type": "address"
            },
            {
              "internalType": "address",
              "name": "to",
              "type": "address"
            },
            {
              "internalType": "string",
              "name": "message",
              "type": "string"
            },
            {
              "internalType": "bool",
              "name": "file",
              "type": "bool"
            },
            {
              "internalType": "uint256",
              "name": "timestamp",
              "type": "uint256"
            }
          ],
          "internalType": "struct Message[]",
          "name": "",
          "type": "tuple[]"
        }
      ],
      "stateMutability": "view",
      "type": "function"
    },
    {
      "inputs": [
        {
          "internalType": "address",
          "name": "msg_sender",
          "type": "address"
        }
      ],
      "name": "isRegistered",
      "outputs": [
        {
          "internalType": "string",
          "name": "",
          "type": "string"
        }
      ],
      "stateMutability": "view",
      "type": "function"
    },
    {
      "inputs": [
        {
          "internalType": "address",
          "name": "msg_sender",
          "type": "address"
        },
        {
          "internalType": "string",
          "name": "_name",
          "type": "string"
        },
        {
          "internalType": "string",
          "name": "_plainPass",
          "type": "string"
        }
      ],
      "name": "register",
      "outputs": [],
      "stateMutability": "nonpayable",
      "type": "function"
    },
    {
      "inputs": [
        {
          "internalType": "string",
          "name": "_name",
          "type": "string"
        }
      ],
      "name": "searchUser",
      "outputs": [
        {
          "components": [
            {
              "internalType": "string",
              "name": "Name",
              "type": "string"
            },
            {
              "internalType": "address",
              "name": "Address",
              "type": "address"
            },
            {
              "internalType": "string",
              "name": "proPic",
              "type": "string"
            },
            {
              "internalType": "bytes32",
              "name": "passwordHash",
              "type": "bytes32"
            }
          ],
          "internalType": "struct Account",
          "name": "",
          "type": "tuple"
        }
      ],
      "stateMutability": "view",
      "type": "function"
    },
    {
      "inputs": [
        {
          "internalType": "address",
          "name": "msg_sender",
          "type": "address"
        },
        {
          "internalType": "address",
          "name": "_to",
          "type": "address"
        },
        {
          "internalType": "string",
          "name": "_data",
          "type": "string"
        }
      ],
      "name": "send",
      "outputs": [
        {
          "internalType": "bool",
          "name": "",
          "type": "bool"
        }
      ],
      "stateMutability": "nonpayable",
      "type": "function"
    }
  ],
  "bytecode": "0x608060405234801561001057600080fd5b50612ff4806100206000396000f3fe608060405234801561001057600080fd5b50600436106100935760003560e01c80638d59cc02116100665780638d59cc0214610158578063aa3ef80e14610174578063b3fae5fb146101a4578063c3c5a547146101d4578063d11771af1461020457610093565b806328db861b146100985780633cee1575146100c85780634a346238146100f857806351ac59a914610128575b600080fd5b6100b260048036038101906100ad9190612200565b610234565b6040516100bf919061228f565b60405180910390f35b6100e260048036038101906100dd91906122aa565b610a06565b6040516100ef91906124c4565b60405180910390f35b610112600480360381019061010d9190612616565b610eb2565b60405161011f919061228f565b60405180910390f35b610142600480360381019061013d91906122aa565b610f24565b60405161014f9190612681565b60405180910390f35b610172600480360381019061016d919061269c565b611000565b005b61018e60048036038101906101899190612731565b61142d565b60405161019b91906128d1565b60405180910390f35b6101be60048036038101906101b991906128f3565b61166c565b6040516101cb91906129aa565b60405180910390f35b6101ee60048036038101906101e991906122aa565b61193f565b6040516101fb9190612a16565b60405180910390f35b61021e60048036038101906102199190612731565b611aa2565b60405161022b919061228f565b60405180910390f35b600061028383838080601f016020809104026020016040519081016040528093929190818152602001838380828437600081840152601f19601f82011690508083019250505050505050611e67565b60405160200161029290612a69565b6040516020818303038152906040528051906020012083836040516020016102bb929190612aa3565b604051602081830303815290604052805190602001201415610312576040517f08c379a000000000000000000000000000000000000000000000000000000000815260040161030990612b08565b60405180910390fd5b60006040518060a001604052808773ffffffffffffffffffffffffffffffffffffffff1681526020018673ffffffffffffffffffffffffffffffffffffffff16815260200185858080601f016020809104026020016040519081016040528093929190818152602001838380828437600081840152601f19601f82011690508083019250505050505050815260200160001515815260200142815250905060001515600560008873ffffffffffffffffffffffffffffffffffffffff1673ffffffffffffffffffffffffffffffffffffffff16815260200190815260200160002060008773ffffffffffffffffffffffffffffffffffffffff1673ffffffffffffffffffffffffffffffffffffffff16815260200190815260200160002060009054906101000a900460ff161515141561058757600460008773ffffffffffffffffffffffffffffffffffffffff1673ffffffffffffffffffffffffffffffffffffffff168152602001908152602001600020859080600181540180825580915050600190039060005260206000200160009091909190916101000a81548173ffffffffffffffffffffffffffffffffffffffff021916908373ffffffffffffffffffffffffffffffffffffffff160217905550600460008673ffffffffffffffffffffffffffffffffffffffff1673ffffffffffffffffffffffffffffffffffffffff168152602001908152602001600020869080600181540180825580915050600190039060005260206000200160009091909190916101000a81548173ffffffffffffffffffffffffffffffffffffffff021916908373ffffffffffffffffffffffffffffffffffffffff1602179055505b6001600560008873ffffffffffffffffffffffffffffffffffffffff1673ffffffffffffffffffffffffffffffffffffffff16815260200190815260200160002060008773ffffffffffffffffffffffffffffffffffffffff1673ffffffffffffffffffffffffffffffffffffffff16815260200190815260200160002060006101000a81548160ff0219169083151502179055506001600560008773ffffffffffffffffffffffffffffffffffffffff1673ffffffffffffffffffffffffffffffffffffffff16815260200190815260200160002060008873ffffffffffffffffffffffffffffffffffffffff1673ffffffffffffffffffffffffffffffffffffffff16815260200190815260200160002060006101000a81548160ff021916908315150217905550600160008773ffffffffffffffffffffffffffffffffffffffff1673ffffffffffffffffffffffffffffffffffffffff16815260200190815260200160002060008673ffffffffffffffffffffffffffffffffffffffff1673ffffffffffffffffffffffffffffffffffffffff16815260200190815260200160002081908060018154018082558091505060019003906000526020600020906005020160009091909190915060008201518160000160006101000a81548173ffffffffffffffffffffffffffffffffffffffff021916908373ffffffffffffffffffffffffffffffffffffffff16021790555060208201518160010160006101000a81548173ffffffffffffffffffffffffffffffffffffffff021916908373ffffffffffffffffffffffffffffffffffffffff1602179055506040820151816002019080519060200190610801929190611f46565b5060608201518160030160006101000a81548160ff021916908315150217905550608082015181600401555050600160008673ffffffffffffffffffffffffffffffffffffffff1673ffffffffffffffffffffffffffffffffffffffff16815260200190815260200160002060008773ffffffffffffffffffffffffffffffffffffffff1673ffffffffffffffffffffffffffffffffffffffff16815260200190815260200160002081908060018154018082558091505060019003906000526020600020906005020160009091909190915060008201518160000160006101000a81548173ffffffffffffffffffffffffffffffffffffffff021916908373ffffffffffffffffffffffffffffffffffffffff16021790555060208201518160010160006101000a81548173ffffffffffffffffffffffffffffffffffffffff021916908373ffffffffffffffffffffffffffffffffffffffff160217905550604082015181600201908051906020019061097e929190611f46565b5060608201518160030160006101000a81548160ff0219169083151502179055506080820151816004015550508473ffffffffffffffffffffffffffffffffffffffff167f2954c6667dce9c64f1406803b65f9d33a05719ad15a7ab324e52ed005e521159826040516109f19190612b9e565b60405180910390a26001915050949350505050565b6060600080600460008573ffffffffffffffffffffffffffffffffffffffff1673ffffffffffffffffffffffffffffffffffffffff1681526020019081526020016000208054905067ffffffffffffffff811115610a6757610a666124eb565b5b604051908082528060200260200182016040528015610aa057816020015b610a8d611fcc565b815260200190600190039081610a855790505b50905060005b600460008673ffffffffffffffffffffffffffffffffffffffff1673ffffffffffffffffffffffffffffffffffffffff16815260200190815260200160002080549050811015610ea7576000600460008773ffffffffffffffffffffffffffffffffffffffff1673ffffffffffffffffffffffffffffffffffffffff1681526020019081526020016000208281548110610b4357610b42612bc0565b5b9060005260206000200160009054906101000a900473ffffffffffffffffffffffffffffffffffffffff169050600560008773ffffffffffffffffffffffffffffffffffffffff1673ffffffffffffffffffffffffffffffffffffffff16815260200190815260200160002060008273ffffffffffffffffffffffffffffffffffffffff1673ffffffffffffffffffffffffffffffffffffffff16815260200190815260200160002060009054906101000a900460ff168015610c945750600073ffffffffffffffffffffffffffffffffffffffff166000808373ffffffffffffffffffffffffffffffffffffffff1673ffffffffffffffffffffffffffffffffffffffff16815260200190815260200160002060010160009054906101000a900473ffffffffffffffffffffffffffffffffffffffff1673ffffffffffffffffffffffffffffffffffffffff1614155b15610e93576000808273ffffffffffffffffffffffffffffffffffffffff1673ffffffffffffffffffffffffffffffffffffffff168152602001908152602001600020604051806080016040529081600082018054610cf290612c1e565b80601f0160208091040260200160405190810160405280929190818152602001828054610d1e90612c1e565b8015610d6b5780601f10610d4057610100808354040283529160200191610d6b565b820191906000526020600020905b815481529060010190602001808311610d4e57829003601f168201915b505050505081526020016001820160009054906101000a900473ffffffffffffffffffffffffffffffffffffffff1673ffffffffffffffffffffffffffffffffffffffff1673ffffffffffffffffffffffffffffffffffffffff168152602001600282018054610dda90612c1e565b80601f0160208091040260200160405190810160405280929190818152602001828054610e0690612c1e565b8015610e535780601f10610e2857610100808354040283529160200191610e53565b820191906000526020600020905b815481529060010190602001808311610e3657829003601f168201915b50505050508152602001600382015481525050838581518110610e7957610e78612bc0565b5b60200260200101819052508380610e8f90612c7f565b9450505b508080610e9f90612c7f565b915050610aa6565b508092505050919050565b600081604051602001610ec59190612cf9565b60405160208183030381529060405280519060200120600360008573ffffffffffffffffffffffffffffffffffffffff1673ffffffffffffffffffffffffffffffffffffffff1681526020019081526020016000205414905092915050565b600060011515600260008473ffffffffffffffffffffffffffffffffffffffff1673ffffffffffffffffffffffffffffffffffffffff16815260200190815260200160002060009054906101000a900460ff16151514610fb9576040517f08c379a0000000000000000000000000000000000000000000000000000000008152600401610fb090612d5c565b60405180910390fd5b600360008373ffffffffffffffffffffffffffffffffffffffff1673ffffffffffffffffffffffffffffffffffffffff168152602001908152602001600020549050919050565b600073ffffffffffffffffffffffffffffffffffffffff166000808773ffffffffffffffffffffffffffffffffffffffff1673ffffffffffffffffffffffffffffffffffffffff16815260200190815260200160002060010160009054906101000a900473ffffffffffffffffffffffffffffffffffffffff1673ffffffffffffffffffffffffffffffffffffffff16146110d0576040517f08c379a00000000000000000000000000000000000000000000000000000000081526004016110c790612dc8565b60405180910390fd5b600073ffffffffffffffffffffffffffffffffffffffff16600685856040516110fa929190612aa3565b908152602001604051809103902060009054906101000a900473ffffffffffffffffffffffffffffffffffffffff1673ffffffffffffffffffffffffffffffffffffffff161461117f576040517f08c379a000000000000000000000000000000000000000000000000000000000815260040161117690612e34565b60405180910390fd5b6000604051806080016040528086868080601f016020809104026020016040519081016040528093929190818152602001838380828437600081840152601f19601f8201169050808301925050505050505081526020018773ffffffffffffffffffffffffffffffffffffffff168152602001604051806020016040528060008152508152602001848460405160200161121a929190612aa3565b6040516020818303038152906040528051906020012081525090508282604051602001611248929190612aa3565b60405160208183030381529060405280519060200120600360008873ffffffffffffffffffffffffffffffffffffffff1673ffffffffffffffffffffffffffffffffffffffff16815260200190815260200160002081905550806000808873ffffffffffffffffffffffffffffffffffffffff1673ffffffffffffffffffffffffffffffffffffffff16815260200190815260200160002060008201518160000190805190602001906112fc929190611f46565b5060208201518160010160006101000a81548173ffffffffffffffffffffffffffffffffffffffff021916908373ffffffffffffffffffffffffffffffffffffffff1602179055506040820151816002019080519060200190611360929190611f46565b50606082015181600301559050506001600260008873ffffffffffffffffffffffffffffffffffffffff1673ffffffffffffffffffffffffffffffffffffffff16815260200190815260200160002060006101000a81548160ff02191690831515021790555085600686866040516113d9929190612aa3565b908152602001604051809103902060006101000a81548173ffffffffffffffffffffffffffffffffffffffff021916908373ffffffffffffffffffffffffffffffffffffffff160217905550505050505050565b6060600160008473ffffffffffffffffffffffffffffffffffffffff1673ffffffffffffffffffffffffffffffffffffffff16815260200190815260200160002060008373ffffffffffffffffffffffffffffffffffffffff1673ffffffffffffffffffffffffffffffffffffffff168152602001908152602001600020805480602002602001604051908101604052809291908181526020016000905b8282101561166057838290600052602060002090600502016040518060a00160405290816000820160009054906101000a900473ffffffffffffffffffffffffffffffffffffffff1673ffffffffffffffffffffffffffffffffffffffff1673ffffffffffffffffffffffffffffffffffffffff1681526020016001820160009054906101000a900473ffffffffffffffffffffffffffffffffffffffff1673ffffffffffffffffffffffffffffffffffffffff1673ffffffffffffffffffffffffffffffffffffffff1681526020016002820180546115aa90612c1e565b80601f01602080910402602001604051908101604052809291908181526020018280546115d690612c1e565b80156116235780601f106115f857610100808354040283529160200191611623565b820191906000526020600020905b81548152906001019060200180831161160657829003601f168201915b505050505081526020016003820160009054906101000a900460ff16151515158152602001600482015481525050815260200190600101906114cb565b50505050905092915050565b611674611fcc565b600073ffffffffffffffffffffffffffffffffffffffff166006848460405161169e929190612aa3565b908152602001604051809103902060009054906101000a900473ffffffffffffffffffffffffffffffffffffffff1673ffffffffffffffffffffffffffffffffffffffff161415611724576040517f08c379a000000000000000000000000000000000000000000000000000000000815260040161171b90612ea0565b60405180910390fd5b600060068484604051611738929190612aa3565b908152602001604051809103902060009054906101000a900473ffffffffffffffffffffffffffffffffffffffff1690506000808273ffffffffffffffffffffffffffffffffffffffff1673ffffffffffffffffffffffffffffffffffffffff1681526020019081526020016000206040518060800160405290816000820180546117c290612c1e565b80601f01602080910402602001604051908101604052809291908181526020018280546117ee90612c1e565b801561183b5780601f106118105761010080835404028352916020019161183b565b820191906000526020600020905b81548152906001019060200180831161181e57829003601f168201915b505050505081526020016001820160009054906101000a900473ffffffffffffffffffffffffffffffffffffffff1673ffffffffffffffffffffffffffffffffffffffff1673ffffffffffffffffffffffffffffffffffffffff1681526020016002820180546118aa90612c1e565b80601f01602080910402602001604051908101604052809291908181526020018280546118d690612c1e565b80156119235780601f106118f857610100808354040283529160200191611923565b820191906000526020600020905b81548152906001019060200180831161190657829003601f168201915b5050505050815260200160038201548152505091505092915050565b6060600260008373ffffffffffffffffffffffffffffffffffffffff1673ffffffffffffffffffffffffffffffffffffffff16815260200190815260200160002060009054906101000a900460ff1615611a64576000808373ffffffffffffffffffffffffffffffffffffffff1673ffffffffffffffffffffffffffffffffffffffff16815260200190815260200160002060000180546119df90612c1e565b80601f0160208091040260200160405190810160405280929190818152602001828054611a0b90612c1e565b8015611a585780601f10611a2d57610100808354040283529160200191611a58565b820191906000526020600020905b815481529060010190602001808311611a3b57829003601f168201915b50505050509050611a9d565b6040518060400160405280600481526020017f4e4f4e450000000000000000000000000000000000000000000000000000000081525090505b919050565b600060011515600560008573ffffffffffffffffffffffffffffffffffffffff1673ffffffffffffffffffffffffffffffffffffffff16815260200190815260200160002060008473ffffffffffffffffffffffffffffffffffffffff1673ffffffffffffffffffffffffffffffffffffffff16815260200190815260200160002060009054906101000a900460ff16151514611b74576040517f08c379a0000000000000000000000000000000000000000000000000000000008152600401611b6b90612f0c565b60405180910390fd5b6000600560008573ffffffffffffffffffffffffffffffffffffffff1673ffffffffffffffffffffffffffffffffffffffff16815260200190815260200160002060008473ffffffffffffffffffffffffffffffffffffffff1673ffffffffffffffffffffffffffffffffffffffff16815260200190815260200160002060006101000a81548160ff0219169083151502179055506000600460008573ffffffffffffffffffffffffffffffffffffffff1673ffffffffffffffffffffffffffffffffffffffff168152602001908152602001600020905060005b8180549050811015611dd3578373ffffffffffffffffffffffffffffffffffffffff16828281548110611c8557611c84612bc0565b5b9060005260206000200160009054906101000a900473ffffffffffffffffffffffffffffffffffffffff1673ffffffffffffffffffffffffffffffffffffffff161415611dc0578160018380549050611cde9190612f2c565b81548110611cef57611cee612bc0565b5b9060005260206000200160009054906101000a900473ffffffffffffffffffffffffffffffffffffffff16828281548110611d2d57611d2c612bc0565b5b9060005260206000200160006101000a81548173ffffffffffffffffffffffffffffffffffffffff021916908373ffffffffffffffffffffffffffffffffffffffff16021790555081805480611d8657611d85612f60565b5b6001900381819060005260206000200160006101000a81549073ffffffffffffffffffffffffffffffffffffffff02191690559055611dd3565b8080611dcb90612c7f565b915050611c4f565b50600160008573ffffffffffffffffffffffffffffffffffffffff1673ffffffffffffffffffffffffffffffffffffffff16815260200190815260200160002060008473ffffffffffffffffffffffffffffffffffffffff1673ffffffffffffffffffffffffffffffffffffffff1681526020019081526020016000206000611e5c919061200d565b600191505092915050565b611efd81604051602401611e7b9190612a16565b6040516020818303038152906040527f41304fac000000000000000000000000000000000000000000000000000000007bffffffffffffffffffffffffffffffffffffffffffffffffffffffff19166020820180517bffffffffffffffffffffffffffffffffffffffffffffffffffffffff8381831617835250505050611f00565b50565b611f1781611f0f611f1a611f3b565b63ffffffff16565b50565b60006a636f6e736f6c652e6c6f679050600080835160208501845afa505050565b612031819050919050565b828054611f5290612c1e565b90600052602060002090601f016020900481019282611f745760008555611fbb565b82601f10611f8d57805160ff1916838001178555611fbb565b82800160010185558215611fbb579182015b82811115611fba578251825591602001919060010190611f9f565b5b509050611fc8919061203b565b5090565b604051806080016040528060608152602001600073ffffffffffffffffffffffffffffffffffffffff16815260200160608152602001600080191681525090565b508054600082556005029060005260206000209081019061202e9190612058565b50565b612039612f8f565b565b5b8082111561205457600081600090555060010161203c565b5090565b5b808211156120e557600080820160006101000a81549073ffffffffffffffffffffffffffffffffffffffff02191690556001820160006101000a81549073ffffffffffffffffffffffffffffffffffffffff02191690556002820160006120c091906120e9565b6003820160006101000a81549060ff0219169055600482016000905550600501612059565b5090565b5080546120f590612c1e565b6000825580601f106121075750612126565b601f016020900490600052602060002090810190612125919061203b565b5b50565b6000604051905090565b600080fd5b600080fd5b600073ffffffffffffffffffffffffffffffffffffffff82169050919050565b60006121688261213d565b9050919050565b6121788161215d565b811461218357600080fd5b50565b6000813590506121958161216f565b92915050565b600080fd5b600080fd5b600080fd5b60008083601f8401126121c0576121bf61219b565b5b8235905067ffffffffffffffff8111156121dd576121dc6121a0565b5b6020830191508360018202830111156121f9576121f86121a5565b5b9250929050565b6000806000806060858703121561221a57612219612133565b5b600061222887828801612186565b945050602061223987828801612186565b935050604085013567ffffffffffffffff81111561225a57612259612138565b5b612266878288016121aa565b925092505092959194509250565b60008115159050919050565b61228981612274565b82525050565b60006020820190506122a46000830184612280565b92915050565b6000602082840312156122c0576122bf612133565b5b60006122ce84828501612186565b91505092915050565b600081519050919050565b600082825260208201905092915050565b6000819050602082019050919050565b600081519050919050565b600082825260208201905092915050565b60005b8381101561233d578082015181840152602081019050612322565b8381111561234c576000848401525b50505050565b6000601f19601f8301169050919050565b600061236e82612303565b612378818561230e565b935061238881856020860161231f565b61239181612352565b840191505092915050565b6123a58161215d565b82525050565b6000819050919050565b6123be816123ab565b82525050565b600060808301600083015184820360008601526123e18282612363565b91505060208301516123f6602086018261239c565b506040830151848203604086015261240e8282612363565b915050606083015161242360608601826123b5565b508091505092915050565b600061243a83836123c4565b905092915050565b6000602082019050919050565b600061245a826122d7565b61246481856122e2565b935083602082028501612476856122f3565b8060005b858110156124b25784840389528151612493858261242e565b945061249e83612442565b925060208a0199505060018101905061247a565b50829750879550505050505092915050565b600060208201905081810360008301526124de818461244f565b905092915050565b600080fd5b7f4e487b7100000000000000000000000000000000000000000000000000000000600052604160045260246000fd5b61252382612352565b810181811067ffffffffffffffff82111715612542576125416124eb565b5b80604052505050565b6000612555612129565b9050612561828261251a565b919050565b600067ffffffffffffffff821115612581576125806124eb565b5b61258a82612352565b9050602081019050919050565b82818337600083830152505050565b60006125b96125b484612566565b61254b565b9050828152602081018484840111156125d5576125d46124e6565b5b6125e0848285612597565b509392505050565b600082601f8301126125fd576125fc61219b565b5b813561260d8482602086016125a6565b91505092915050565b6000806040838503121561262d5761262c612133565b5b600061263b85828601612186565b925050602083013567ffffffffffffffff81111561265c5761265b612138565b5b612668858286016125e8565b9150509250929050565b61267b816123ab565b82525050565b60006020820190506126966000830184612672565b92915050565b6000806000806000606086880312156126b8576126b7612133565b5b60006126c688828901612186565b955050602086013567ffffffffffffffff8111156126e7576126e6612138565b5b6126f3888289016121aa565b9450945050604086013567ffffffffffffffff81111561271657612715612138565b5b612722888289016121aa565b92509250509295509295909350565b6000806040838503121561274857612747612133565b5b600061275685828601612186565b925050602061276785828601612186565b9150509250929050565b600081519050919050565b600082825260208201905092915050565b6000819050602082019050919050565b6127a681612274565b82525050565b6000819050919050565b6127bf816127ac565b82525050565b600060a0830160008301516127dd600086018261239c565b5060208301516127f0602086018261239c565b50604083015184820360408601526128088282612363565b915050606083015161281d606086018261279d565b50608083015161283060808601826127b6565b508091505092915050565b600061284783836127c5565b905092915050565b6000602082019050919050565b600061286782612771565b612871818561277c565b9350836020820285016128838561278d565b8060005b858110156128bf57848403895281516128a0858261283b565b94506128ab8361284f565b925060208a01995050600181019050612887565b50829750879550505050505092915050565b600060208201905081810360008301526128eb818461285c565b905092915050565b6000806020838503121561290a57612909612133565b5b600083013567ffffffffffffffff81111561292857612927612138565b5b612934858286016121aa565b92509250509250929050565b6000608083016000830151848203600086015261295d8282612363565b9150506020830151612972602086018261239c565b506040830151848203604086015261298a8282612363565b915050606083015161299f60608601826123b5565b508091505092915050565b600060208201905081810360008301526129c48184612940565b905092915050565b600082825260208201905092915050565b60006129e882612303565b6129f281856129cc565b9350612a0281856020860161231f565b612a0b81612352565b840191505092915050565b60006020820190508181036000830152612a3081846129dd565b905092915050565b600081905092915050565b50565b6000612a53600083612a38565b9150612a5e82612a43565b600082019050919050565b6000612a7482612a46565b9150819050919050565b6000612a8a8385612a38565b9350612a97838584612597565b82840190509392505050565b6000612ab0828486612a7e565b91508190509392505050565b7f4e6f206d6573736167652069732073656e740000000000000000000000000000600082015250565b6000612af26012836129cc565b9150612afd82612abc565b602082019050919050565b60006020820190508181036000830152612b2181612ae5565b9050919050565b600060a083016000830151612b40600086018261239c565b506020830151612b53602086018261239c565b5060408301518482036040860152612b6b8282612363565b9150506060830151612b80606086018261279d565b506080830151612b9360808601826127b6565b508091505092915050565b60006020820190508181036000830152612bb88184612b28565b905092915050565b7f4e487b7100000000000000000000000000000000000000000000000000000000600052603260045260246000fd5b7f4e487b7100000000000000000000000000000000000000000000000000000000600052602260045260246000fd5b60006002820490506001821680612c3657607f821691505b60208210811415612c4a57612c49612bef565b5b50919050565b7f4e487b7100000000000000000000000000000000000000000000000000000000600052601160045260246000fd5b6000612c8a826127ac565b91507fffffffffffffffffffffffffffffffffffffffffffffffffffffffffffffffff821415612cbd57612cbc612c50565b5b600182019050919050565b6000612cd382612303565b612cdd8185612a38565b9350612ced81856020860161231f565b80840191505092915050565b6000612d058284612cc8565b915081905092915050565b7f4163636f756e74206e6f74207265676973746572656400000000000000000000600082015250565b6000612d466016836129cc565b9150612d5182612d10565b602082019050919050565b60006020820190508181036000830152612d7581612d39565b9050919050565b7f5573657220616c72656164792072656769737465726564000000000000000000600082015250565b6000612db26017836129cc565b9150612dbd82612d7c565b602082019050919050565b60006020820190508181036000830152612de181612da5565b9050919050565b7f557365726e616d65206e6f7420617661696c61626c6500000000000000000000600082015250565b6000612e1e6016836129cc565b9150612e2982612de8565b602082019050919050565b60006020820190508181036000830152612e4d81612e11565b9050919050565b7f4e6f207573657220666f756e6400000000000000000000000000000000000000600082015250565b6000612e8a600d836129cc565b9150612e9582612e54565b602082019050919050565b60006020820190508181036000830152612eb981612e7d565b9050919050565b7f55736572206e6f7420436f6e6e65637465642079657400000000000000000000600082015250565b6000612ef66016836129cc565b9150612f0182612ec0565b602082019050919050565b60006020820190508181036000830152612f2581612ee9565b9050919050565b6000612f37826127ac565b9150612f42836127ac565b925082821015612f5557612f54612c50565b5b828203905092915050565b7f4e487b7100000000000000000000000000000000000000000000000000000000600052603160045260246000fd5b7f4e487b7100000000000000000000000000000000000000000000000000000000600052605160045260246000fdfea2646970667358221220ed9eeb625d6f6da8f652cbeaafced7915719ebc0c3d008d7c0771ae8314a1db564736f6c63430008090033",
  "linkReferences": {},
  "deployedLinkReferences": {}
}