{
  "_format": "hh-sol-artifact-1",
  "contractName": "Messenger",
  "sourceName": "contracts/Messenger.sol",
  "abi": [
    {
      "anonymous": false,
      "inputs": [
        {
          "indexed": true,
          "internalType": "address",
          "name": "_receiver",
          "type": "address"
        },
        {
          "components": [
            {
              "internalType": "address",
              "name": "from",
              "type": "address"
            },
            {
              "internalType": "address",
              "name": "to",
              "type": "address"
            },
            {
              "internalType": "string",
              "name": "message",
              "type": "string"
            },
            {
              "internalType": "bool",
              "name": "file",
              "type": "bool"
            },
            {
              "internalType": "uint256",
              "name": "timestamp",
              "type": "uint256"
            }
          ],
          "indexed": false,
          "internalType": "struct Message",
          "name": "_message",
          "type": "tuple"
        }
      ],
      "name": "newMessage",
      "type": "event"
    },
    {
      "inputs": [
        {
          "internalType": "string",
          "name": "_plainPass",
          "type": "string"
        }
      ],
      "name": "checkPass",
      "outputs": [
        {
          "internalType": "bool",
          "name": "",
          "type": "bool"
        }
      ],
      "stateMutability": "view",
      "type": "function"
    },
    {
      "inputs": [
        {
          "internalType": "address",
          "name": "_address",
          "type": "address"
        }
      ],
      "name": "deleteContact",
      "outputs": [
        {
          "internalType": "bool",
          "name": "",
          "type": "bool"
        }
      ],
      "stateMutability": "nonpayable",
      "type": "function"
    },
    {
      "inputs": [],
      "name": "getAllConnectedContacts",
      "outputs": [
        {
          "components": [
            {
              "internalType": "string",
              "name": "Name",
              "type": "string"
            },
            {
              "internalType": "address",
              "name": "Address",
              "type": "address"
            },
            {
              "internalType": "string",
              "name": "proPic",
              "type": "string"
            },
            {
              "internalType": "bytes32",
              "name": "passwordHash",
              "type": "bytes32"
            }
          ],
          "internalType": "struct Account[]",
          "name": "",
          "type": "tuple[]"
        }
      ],
      "stateMutability": "view",
      "type": "function"
    },
    {
      "inputs": [
        {
          "internalType": "address",
          "name": "_address",
          "type": "address"
        }
      ],
      "name": "getHashedPass",
      "outputs": [
        {
          "internalType": "bytes32",
          "name": "",
          "type": "bytes32"
        }
      ],
      "stateMutability": "view",
      "type": "function"
    },
    {
      "inputs": [
        {
          "internalType": "address",
          "name": "_msgOf",
          "type": "address"
        }
      ],
      "name": "getMessages",
      "outputs": [
        {
          "components": [
            {
              "internalType": "address",
              "name": "from",
              "type": "address"
            },
            {
              "internalType": "address",
              "name": "to",
              "type": "address"
            },
            {
              "internalType": "string",
              "name": "message",
              "type": "string"
            },
            {
              "internalType": "bool",
              "name": "file",
              "type": "bool"
            },
            {
              "internalType": "uint256",
              "name": "timestamp",
              "type": "uint256"
            }
          ],
          "internalType": "struct Message[]",
          "name": "",
          "type": "tuple[]"
        }
      ],
      "stateMutability": "view",
      "type": "function"
    },
    {
      "inputs": [],
      "name": "isRegistered",
      "outputs": [
        {
          "internalType": "string",
          "name": "",
          "type": "string"
        }
      ],
      "stateMutability": "view",
      "type": "function"
    },
    {
      "inputs": [
        {
          "internalType": "string",
          "name": "_name",
          "type": "string"
        },
        {
          "internalType": "string",
          "name": "_plainPass",
          "type": "string"
        }
      ],
      "name": "register",
      "outputs": [],
      "stateMutability": "nonpayable",
      "type": "function"
    },
    {
      "inputs": [
        {
          "internalType": "address",
          "name": "_to",
          "type": "address"
        },
        {
          "internalType": "string",
          "name": "_data",
          "type": "string"
        }
      ],
      "name": "send",
      "outputs": [
        {
          "internalType": "bool",
          "name": "",
          "type": "bool"
        }
      ],
      "stateMutability": "nonpayable",
      "type": "function"
    }
  ],
  "bytecode": "0x608060405234801561001057600080fd5b5061297f806100206000396000f3fe608060405234801561001057600080fd5b50600436106100885760003560e01c806351ac59a91161005b57806351ac59a91461012757806399142b5f14610157578063b2f7132214610187578063e0e30eba146101b757610088565b80631046bc681461008d57806322366844146100bd5780633531eb1e146100db5780633ffbd47f1461010b575b600080fd5b6100a760048036038101906100a29190611d52565b6101d5565b6040516100b49190611d9a565b60405180910390f35b6100c5610599565b6040516100d29190611e4e565b60405180910390f35b6100f560048036038101906100f09190611fa5565b6106fa565b6040516101029190611d9a565b60405180910390f35b6101256004803603810190610120919061204e565b61076b565b005b610141600480360381019061013c9190611d52565b610a89565b60405161014e91906120e8565b60405180910390f35b610171600480360381019061016c9190612103565b610b65565b60405161017e9190611d9a565b60405180910390f35b6101a1600480360381019061019c9190611d52565b611336565b6040516101ae919061231c565b60405180910390f35b6101bf611574565b6040516101cc9190612479565b60405180910390f35b600060011515600560003373ffffffffffffffffffffffffffffffffffffffff1673ffffffffffffffffffffffffffffffffffffffff16815260200190815260200160002060008473ffffffffffffffffffffffffffffffffffffffff1673ffffffffffffffffffffffffffffffffffffffff16815260200190815260200160002060009054906101000a900460ff161515146102a7576040517f08c379a000000000000000000000000000000000000000000000000000000000815260040161029e906124e7565b60405180910390fd5b6000600560003373ffffffffffffffffffffffffffffffffffffffff1673ffffffffffffffffffffffffffffffffffffffff16815260200190815260200160002060008473ffffffffffffffffffffffffffffffffffffffff1673ffffffffffffffffffffffffffffffffffffffff16815260200190815260200160002060006101000a81548160ff0219169083151502179055506000600460003373ffffffffffffffffffffffffffffffffffffffff1673ffffffffffffffffffffffffffffffffffffffff168152602001908152602001600020905060005b8180549050811015610506578373ffffffffffffffffffffffffffffffffffffffff168282815481106103b8576103b7612507565b5b9060005260206000200160009054906101000a900473ffffffffffffffffffffffffffffffffffffffff1673ffffffffffffffffffffffffffffffffffffffff1614156104f35781600183805490506104119190612565565b8154811061042257610421612507565b5b9060005260206000200160009054906101000a900473ffffffffffffffffffffffffffffffffffffffff168282815481106104605761045f612507565b5b9060005260206000200160006101000a81548173ffffffffffffffffffffffffffffffffffffffff021916908373ffffffffffffffffffffffffffffffffffffffff160217905550818054806104b9576104b8612599565b5b6001900381819060005260206000200160006101000a81549073ffffffffffffffffffffffffffffffffffffffff02191690559055610506565b80806104fe906125c8565b915050610382565b50600160003373ffffffffffffffffffffffffffffffffffffffff1673ffffffffffffffffffffffffffffffffffffffff16815260200190815260200160002060008473ffffffffffffffffffffffffffffffffffffffff1673ffffffffffffffffffffffffffffffffffffffff168152602001908152602001600020600061058f9190611afd565b6001915050919050565b6060600260003373ffffffffffffffffffffffffffffffffffffffff1673ffffffffffffffffffffffffffffffffffffffff16815260200190815260200160002060009054906101000a900460ff16156106be576000803373ffffffffffffffffffffffffffffffffffffffff1673ffffffffffffffffffffffffffffffffffffffff168152602001908152602001600020600001805461063990612640565b80601f016020809104026020016040519081016040528092919081815260200182805461066590612640565b80156106b25780601f10610687576101008083540402835291602001916106b2565b820191906000526020600020905b81548152906001019060200180831161069557829003601f168201915b505050505090506106f7565b6040518060400160405280600481526020017f4e4f4e450000000000000000000000000000000000000000000000000000000081525090505b90565b60008160405160200161070d91906126ae565b60405160208183030381529060405280519060200120600360003373ffffffffffffffffffffffffffffffffffffffff1673ffffffffffffffffffffffffffffffffffffffff16815260200190815260200160002054149050919050565b600073ffffffffffffffffffffffffffffffffffffffff166000803373ffffffffffffffffffffffffffffffffffffffff1673ffffffffffffffffffffffffffffffffffffffff16815260200190815260200160002060010160009054906101000a900473ffffffffffffffffffffffffffffffffffffffff1673ffffffffffffffffffffffffffffffffffffffff161461083b576040517f08c379a000000000000000000000000000000000000000000000000000000000815260040161083290612711565b60405180910390fd5b6000604051806080016040528086868080601f016020809104026020016040519081016040528093929190818152602001838380828437600081840152601f19601f8201169050808301925050505050505081526020013373ffffffffffffffffffffffffffffffffffffffff16815260200160405180602001604052806000815250815260200184846040516020016108d6929190612756565b6040516020818303038152906040528051906020012081525090508282604051602001610904929190612756565b60405160208183030381529060405280519060200120600360003373ffffffffffffffffffffffffffffffffffffffff1673ffffffffffffffffffffffffffffffffffffffff16815260200190815260200160002081905550806000803373ffffffffffffffffffffffffffffffffffffffff1673ffffffffffffffffffffffffffffffffffffffff16815260200190815260200160002060008201518160000190805190602001906109b8929190611b21565b5060208201518160010160006101000a81548173ffffffffffffffffffffffffffffffffffffffff021916908373ffffffffffffffffffffffffffffffffffffffff1602179055506040820151816002019080519060200190610a1c929190611b21565b50606082015181600301559050506001600260003373ffffffffffffffffffffffffffffffffffffffff1673ffffffffffffffffffffffffffffffffffffffff16815260200190815260200160002060006101000a81548160ff0219169083151502179055505050505050565b600060011515600260008473ffffffffffffffffffffffffffffffffffffffff1673ffffffffffffffffffffffffffffffffffffffff16815260200190815260200160002060009054906101000a900460ff16151514610b1e576040517f08c379a0000000000000000000000000000000000000000000000000000000008152600401610b15906127bb565b60405180910390fd5b600360008373ffffffffffffffffffffffffffffffffffffffff1673ffffffffffffffffffffffffffffffffffffffff168152602001908152602001600020549050919050565b6000610bb483838080601f016020809104026020016040519081016040528093929190818152602001838380828437600081840152601f19601f82011690508083019250505050505050611a1e565b604051602001610bc390612801565b604051602081830303815290604052805190602001208383604051602001610bec929190612756565b604051602081830303815290604052805190602001201415610c43576040517f08c379a0000000000000000000000000000000000000000000000000000000008152600401610c3a90612862565b60405180910390fd5b60006040518060a001604052803373ffffffffffffffffffffffffffffffffffffffff1681526020018673ffffffffffffffffffffffffffffffffffffffff16815260200185858080601f016020809104026020016040519081016040528093929190818152602001838380828437600081840152601f19601f82011690508083019250505050505050815260200160001515815260200142815250905060001515600560003373ffffffffffffffffffffffffffffffffffffffff1673ffffffffffffffffffffffffffffffffffffffff16815260200190815260200160002060008773ffffffffffffffffffffffffffffffffffffffff1673ffffffffffffffffffffffffffffffffffffffff16815260200190815260200160002060009054906101000a900460ff1615151415610eb857600460003373ffffffffffffffffffffffffffffffffffffffff1673ffffffffffffffffffffffffffffffffffffffff168152602001908152602001600020859080600181540180825580915050600190039060005260206000200160009091909190916101000a81548173ffffffffffffffffffffffffffffffffffffffff021916908373ffffffffffffffffffffffffffffffffffffffff160217905550600460008673ffffffffffffffffffffffffffffffffffffffff1673ffffffffffffffffffffffffffffffffffffffff168152602001908152602001600020339080600181540180825580915050600190039060005260206000200160009091909190916101000a81548173ffffffffffffffffffffffffffffffffffffffff021916908373ffffffffffffffffffffffffffffffffffffffff1602179055505b6001600560003373ffffffffffffffffffffffffffffffffffffffff1673ffffffffffffffffffffffffffffffffffffffff16815260200190815260200160002060008773ffffffffffffffffffffffffffffffffffffffff1673ffffffffffffffffffffffffffffffffffffffff16815260200190815260200160002060006101000a81548160ff0219169083151502179055506001600560008773ffffffffffffffffffffffffffffffffffffffff1673ffffffffffffffffffffffffffffffffffffffff16815260200190815260200160002060003373ffffffffffffffffffffffffffffffffffffffff1673ffffffffffffffffffffffffffffffffffffffff16815260200190815260200160002060006101000a81548160ff021916908315150217905550600160003373ffffffffffffffffffffffffffffffffffffffff1673ffffffffffffffffffffffffffffffffffffffff16815260200190815260200160002060008673ffffffffffffffffffffffffffffffffffffffff1673ffffffffffffffffffffffffffffffffffffffff16815260200190815260200160002081908060018154018082558091505060019003906000526020600020906005020160009091909190915060008201518160000160006101000a81548173ffffffffffffffffffffffffffffffffffffffff021916908373ffffffffffffffffffffffffffffffffffffffff16021790555060208201518160010160006101000a81548173ffffffffffffffffffffffffffffffffffffffff021916908373ffffffffffffffffffffffffffffffffffffffff1602179055506040820151816002019080519060200190611132929190611b21565b5060608201518160030160006101000a81548160ff021916908315150217905550608082015181600401555050600160008673ffffffffffffffffffffffffffffffffffffffff1673ffffffffffffffffffffffffffffffffffffffff16815260200190815260200160002060003373ffffffffffffffffffffffffffffffffffffffff1673ffffffffffffffffffffffffffffffffffffffff16815260200190815260200160002081908060018154018082558091505060019003906000526020600020906005020160009091909190915060008201518160000160006101000a81548173ffffffffffffffffffffffffffffffffffffffff021916908373ffffffffffffffffffffffffffffffffffffffff16021790555060208201518160010160006101000a81548173ffffffffffffffffffffffffffffffffffffffff021916908373ffffffffffffffffffffffffffffffffffffffff16021790555060408201518160020190805190602001906112af929190611b21565b5060608201518160030160006101000a81548160ff0219169083151502179055506080820151816004015550508473ffffffffffffffffffffffffffffffffffffffff167f2954c6667dce9c64f1406803b65f9d33a05719ad15a7ab324e52ed005e5211598260405161132291906128f8565b60405180910390a260019150509392505050565b6060600160003373ffffffffffffffffffffffffffffffffffffffff1673ffffffffffffffffffffffffffffffffffffffff16815260200190815260200160002060008373ffffffffffffffffffffffffffffffffffffffff1673ffffffffffffffffffffffffffffffffffffffff168152602001908152602001600020805480602002602001604051908101604052809291908181526020016000905b8282101561156957838290600052602060002090600502016040518060a00160405290816000820160009054906101000a900473ffffffffffffffffffffffffffffffffffffffff1673ffffffffffffffffffffffffffffffffffffffff1673ffffffffffffffffffffffffffffffffffffffff1681526020016001820160009054906101000a900473ffffffffffffffffffffffffffffffffffffffff1673ffffffffffffffffffffffffffffffffffffffff1673ffffffffffffffffffffffffffffffffffffffff1681526020016002820180546114b390612640565b80601f01602080910402602001604051908101604052809291908181526020018280546114df90612640565b801561152c5780601f106115015761010080835404028352916020019161152c565b820191906000526020600020905b81548152906001019060200180831161150f57829003601f168201915b505050505081526020016003820160009054906101000a900460ff16151515158152602001600482015481525050815260200190600101906113d4565b505050509050919050565b6060600080600460003373ffffffffffffffffffffffffffffffffffffffff1673ffffffffffffffffffffffffffffffffffffffff1681526020019081526020016000208054905067ffffffffffffffff8111156115d5576115d4611e7a565b5b60405190808252806020026020018201604052801561160e57816020015b6115fb611ba7565b8152602001906001900390816115f35790505b50905060005b600460003373ffffffffffffffffffffffffffffffffffffffff1673ffffffffffffffffffffffffffffffffffffffff16815260200190815260200160002080549050811015611a15576000600460003373ffffffffffffffffffffffffffffffffffffffff1673ffffffffffffffffffffffffffffffffffffffff16815260200190815260200160002082815481106116b1576116b0612507565b5b9060005260206000200160009054906101000a900473ffffffffffffffffffffffffffffffffffffffff169050600560003373ffffffffffffffffffffffffffffffffffffffff1673ffffffffffffffffffffffffffffffffffffffff16815260200190815260200160002060008273ffffffffffffffffffffffffffffffffffffffff1673ffffffffffffffffffffffffffffffffffffffff16815260200190815260200160002060009054906101000a900460ff1680156118025750600073ffffffffffffffffffffffffffffffffffffffff166000808373ffffffffffffffffffffffffffffffffffffffff1673ffffffffffffffffffffffffffffffffffffffff16815260200190815260200160002060010160009054906101000a900473ffffffffffffffffffffffffffffffffffffffff1673ffffffffffffffffffffffffffffffffffffffff1614155b15611a01576000808273ffffffffffffffffffffffffffffffffffffffff1673ffffffffffffffffffffffffffffffffffffffff16815260200190815260200160002060405180608001604052908160008201805461186090612640565b80601f016020809104026020016040519081016040528092919081815260200182805461188c90612640565b80156118d95780601f106118ae576101008083540402835291602001916118d9565b820191906000526020600020905b8154815290600101906020018083116118bc57829003601f168201915b505050505081526020016001820160009054906101000a900473ffffffffffffffffffffffffffffffffffffffff1673ffffffffffffffffffffffffffffffffffffffff1673ffffffffffffffffffffffffffffffffffffffff16815260200160028201805461194890612640565b80601f016020809104026020016040519081016040528092919081815260200182805461197490612640565b80156119c15780601f10611996576101008083540402835291602001916119c1565b820191906000526020600020905b8154815290600101906020018083116119a457829003601f168201915b505050505081526020016003820154815250508385815181106119e7576119e6612507565b5b602002602001018190525083806119fd906125c8565b9450505b508080611a0d906125c8565b915050611614565b50809250505090565b611ab481604051602401611a329190611e4e565b6040516020818303038152906040527f41304fac000000000000000000000000000000000000000000000000000000007bffffffffffffffffffffffffffffffffffffffffffffffffffffffff19166020820180517bffffffffffffffffffffffffffffffffffffffffffffffffffffffff8381831617835250505050611ab7565b50565b611ace81611ac6611ad1611af2565b63ffffffff16565b50565b60006a636f6e736f6c652e6c6f679050600080835160208501845afa505050565b611be8819050919050565b5080546000825560050290600052602060002090810190611b1e9190611bf2565b50565b828054611b2d90612640565b90600052602060002090601f016020900481019282611b4f5760008555611b96565b82601f10611b6857805160ff1916838001178555611b96565b82800160010185558215611b96579182015b82811115611b95578251825591602001919060010190611b7a565b5b509050611ba39190611c83565b5090565b604051806080016040528060608152602001600073ffffffffffffffffffffffffffffffffffffffff16815260200160608152602001600080191681525090565b611bf061291a565b565b5b80821115611c7f57600080820160006101000a81549073ffffffffffffffffffffffffffffffffffffffff02191690556001820160006101000a81549073ffffffffffffffffffffffffffffffffffffffff0219169055600282016000611c5a9190611ca0565b6003820160006101000a81549060ff0219169055600482016000905550600501611bf3565b5090565b5b80821115611c9c576000816000905550600101611c84565b5090565b508054611cac90612640565b6000825580601f10611cbe5750611cdd565b601f016020900490600052602060002090810190611cdc9190611c83565b5b50565b6000604051905090565b600080fd5b600080fd5b600073ffffffffffffffffffffffffffffffffffffffff82169050919050565b6000611d1f82611cf4565b9050919050565b611d2f81611d14565b8114611d3a57600080fd5b50565b600081359050611d4c81611d26565b92915050565b600060208284031215611d6857611d67611cea565b5b6000611d7684828501611d3d565b91505092915050565b60008115159050919050565b611d9481611d7f565b82525050565b6000602082019050611daf6000830184611d8b565b92915050565b600081519050919050565b600082825260208201905092915050565b60005b83811015611def578082015181840152602081019050611dd4565b83811115611dfe576000848401525b50505050565b6000601f19601f8301169050919050565b6000611e2082611db5565b611e2a8185611dc0565b9350611e3a818560208601611dd1565b611e4381611e04565b840191505092915050565b60006020820190508181036000830152611e688184611e15565b905092915050565b600080fd5b600080fd5b7f4e487b7100000000000000000000000000000000000000000000000000000000600052604160045260246000fd5b611eb282611e04565b810181811067ffffffffffffffff82111715611ed157611ed0611e7a565b5b80604052505050565b6000611ee4611ce0565b9050611ef08282611ea9565b919050565b600067ffffffffffffffff821115611f1057611f0f611e7a565b5b611f1982611e04565b9050602081019050919050565b82818337600083830152505050565b6000611f48611f4384611ef5565b611eda565b905082815260208101848484011115611f6457611f63611e75565b5b611f6f848285611f26565b509392505050565b600082601f830112611f8c57611f8b611e70565b5b8135611f9c848260208601611f35565b91505092915050565b600060208284031215611fbb57611fba611cea565b5b600082013567ffffffffffffffff811115611fd957611fd8611cef565b5b611fe584828501611f77565b91505092915050565b600080fd5b600080fd5b60008083601f84011261200e5761200d611e70565b5b8235905067ffffffffffffffff81111561202b5761202a611fee565b5b60208301915083600182028301111561204757612046611ff3565b5b9250929050565b6000806000806040858703121561206857612067611cea565b5b600085013567ffffffffffffffff81111561208657612085611cef565b5b61209287828801611ff8565b9450945050602085013567ffffffffffffffff8111156120b5576120b4611cef565b5b6120c187828801611ff8565b925092505092959194509250565b6000819050919050565b6120e2816120cf565b82525050565b60006020820190506120fd60008301846120d9565b92915050565b60008060006040848603121561211c5761211b611cea565b5b600061212a86828701611d3d565b935050602084013567ffffffffffffffff81111561214b5761214a611cef565b5b61215786828701611ff8565b92509250509250925092565b600081519050919050565b600082825260208201905092915050565b6000819050602082019050919050565b61219881611d14565b82525050565b600082825260208201905092915050565b60006121ba82611db5565b6121c4818561219e565b93506121d4818560208601611dd1565b6121dd81611e04565b840191505092915050565b6121f181611d7f565b82525050565b6000819050919050565b61220a816121f7565b82525050565b600060a083016000830151612228600086018261218f565b50602083015161223b602086018261218f565b506040830151848203604086015261225382826121af565b915050606083015161226860608601826121e8565b50608083015161227b6080860182612201565b508091505092915050565b60006122928383612210565b905092915050565b6000602082019050919050565b60006122b282612163565b6122bc818561216e565b9350836020820285016122ce8561217f565b8060005b8581101561230a57848403895281516122eb8582612286565b94506122f68361229a565b925060208a019950506001810190506122d2565b50829750879550505050505092915050565b6000602082019050818103600083015261233681846122a7565b905092915050565b600081519050919050565b600082825260208201905092915050565b6000819050602082019050919050565b612373816120cf565b82525050565b6000608083016000830151848203600086015261239682826121af565b91505060208301516123ab602086018261218f565b50604083015184820360408601526123c382826121af565b91505060608301516123d8606086018261236a565b508091505092915050565b60006123ef8383612379565b905092915050565b6000602082019050919050565b600061240f8261233e565b6124198185612349565b93508360208202850161242b8561235a565b8060005b85811015612467578484038952815161244885826123e3565b9450612453836123f7565b925060208a0199505060018101905061242f565b50829750879550505050505092915050565b600060208201905081810360008301526124938184612404565b905092915050565b7f55736572206e6f7420436f6e6e65637465642079657400000000000000000000600082015250565b60006124d1601683611dc0565b91506124dc8261249b565b602082019050919050565b60006020820190508181036000830152612500816124c4565b9050919050565b7f4e487b7100000000000000000000000000000000000000000000000000000000600052603260045260246000fd5b7f4e487b7100000000000000000000000000000000000000000000000000000000600052601160045260246000fd5b6000612570826121f7565b915061257b836121f7565b92508282101561258e5761258d612536565b5b828203905092915050565b7f4e487b7100000000000000000000000000000000000000000000000000000000600052603160045260246000fd5b60006125d3826121f7565b91507fffffffffffffffffffffffffffffffffffffffffffffffffffffffffffffffff82141561260657612605612536565b5b600182019050919050565b7f4e487b7100000000000000000000000000000000000000000000000000000000600052602260045260246000fd5b6000600282049050600182168061265857607f821691505b6020821081141561266c5761266b612611565b5b50919050565b600081905092915050565b600061268882611db5565b6126928185612672565b93506126a2818560208601611dd1565b80840191505092915050565b60006126ba828461267d565b915081905092915050565b7f5573657220616c72656164792072656769737465726564000000000000000000600082015250565b60006126fb601783611dc0565b9150612706826126c5565b602082019050919050565b6000602082019050818103600083015261272a816126ee565b9050919050565b600061273d8385612672565b935061274a838584611f26565b82840190509392505050565b6000612763828486612731565b91508190509392505050565b7f4163636f756e74206e6f74207265676973746572656400000000000000000000600082015250565b60006127a5601683611dc0565b91506127b08261276f565b602082019050919050565b600060208201905081810360008301526127d481612798565b9050919050565b50565b60006127eb600083612672565b91506127f6826127db565b600082019050919050565b600061280c826127de565b9150819050919050565b7f4e6f206d6573736167652069732073656e740000000000000000000000000000600082015250565b600061284c601283611dc0565b915061285782612816565b602082019050919050565b6000602082019050818103600083015261287b8161283f565b9050919050565b600060a08301600083015161289a600086018261218f565b5060208301516128ad602086018261218f565b50604083015184820360408601526128c582826121af565b91505060608301516128da60608601826121e8565b5060808301516128ed6080860182612201565b508091505092915050565b600060208201905081810360008301526129128184612882565b905092915050565b7f4e487b7100000000000000000000000000000000000000000000000000000000600052605160045260246000fdfea26469706673582212204d05c1575d478f8c299bc9030c29e199b6d4aee671b37d8b1099fb21505d01f764736f6c63430008090033",
  "linkReferences": {},
  "deployedLinkReferences": {}
}