{
  "_format": "hh-sol-artifact-1",
  "contractName": "Messenger",
  "sourceName": "contracts/Messenger.sol",
  "abi": [
    {
      "anonymous": false,
      "inputs": [
        {
          "indexed": true,
          "internalType": "address",
          "name": "_receiver",
          "type": "address"
        },
        {
          "components": [
            {
              "internalType": "address",
              "name": "from",
              "type": "address"
            },
            {
              "internalType": "address",
              "name": "to",
              "type": "address"
            },
            {
              "internalType": "string",
              "name": "message",
              "type": "string"
            },
            {
              "internalType": "bool",
              "name": "file",
              "type": "bool"
            },
            {
              "internalType": "uint256",
              "name": "timestamp",
              "type": "uint256"
            }
          ],
          "indexed": false,
          "internalType": "struct Message",
          "name": "_message",
          "type": "tuple"
        }
      ],
      "name": "newMessage",
      "type": "event"
    },
    {
      "inputs": [
        {
          "internalType": "string",
          "name": "_plainPass",
          "type": "string"
        }
      ],
      "name": "checkPass",
      "outputs": [
        {
          "internalType": "bool",
          "name": "",
          "type": "bool"
        }
      ],
      "stateMutability": "view",
      "type": "function"
    },
    {
      "inputs": [
        {
          "internalType": "address",
          "name": "_address",
          "type": "address"
        }
      ],
      "name": "deleteContact",
      "outputs": [
        {
          "internalType": "bool",
          "name": "",
          "type": "bool"
        }
      ],
      "stateMutability": "nonpayable",
      "type": "function"
    },
    {
      "inputs": [],
      "name": "getAllConnectedContacts",
      "outputs": [
        {
          "components": [
            {
              "internalType": "string",
              "name": "Name",
              "type": "string"
            },
            {
              "internalType": "address",
              "name": "Address",
              "type": "address"
            },
            {
              "internalType": "string",
              "name": "proPic",
              "type": "string"
            },
            {
              "internalType": "bytes32",
              "name": "passwordHash",
              "type": "bytes32"
            }
          ],
          "internalType": "struct Account[]",
          "name": "",
          "type": "tuple[]"
        }
      ],
      "stateMutability": "view",
      "type": "function"
    },
    {
      "inputs": [
        {
          "internalType": "address",
          "name": "_address",
          "type": "address"
        }
      ],
      "name": "getHashedPass",
      "outputs": [
        {
          "internalType": "bytes32",
          "name": "",
          "type": "bytes32"
        }
      ],
      "stateMutability": "view",
      "type": "function"
    },
    {
      "inputs": [
        {
          "internalType": "address",
          "name": "_msgOf",
          "type": "address"
        }
      ],
      "name": "getMessages",
      "outputs": [
        {
          "components": [
            {
              "internalType": "address",
              "name": "from",
              "type": "address"
            },
            {
              "internalType": "address",
              "name": "to",
              "type": "address"
            },
            {
              "internalType": "string",
              "name": "message",
              "type": "string"
            },
            {
              "internalType": "bool",
              "name": "file",
              "type": "bool"
            },
            {
              "internalType": "uint256",
              "name": "timestamp",
              "type": "uint256"
            }
          ],
          "internalType": "struct Message[]",
          "name": "",
          "type": "tuple[]"
        }
      ],
      "stateMutability": "view",
      "type": "function"
    },
    {
      "inputs": [],
      "name": "isRegistered",
      "outputs": [
        {
          "internalType": "string",
          "name": "",
          "type": "string"
        }
      ],
      "stateMutability": "view",
      "type": "function"
    },
    {
      "inputs": [
        {
          "internalType": "string",
          "name": "_name",
          "type": "string"
        },
        {
          "internalType": "string",
          "name": "_plainPass",
          "type": "string"
        }
      ],
      "name": "register",
      "outputs": [],
      "stateMutability": "nonpayable",
      "type": "function"
    },
    {
      "inputs": [
        {
          "internalType": "string",
          "name": "_name",
          "type": "string"
        }
      ],
      "name": "searchUser",
      "outputs": [
        {
          "components": [
            {
              "internalType": "string",
              "name": "Name",
              "type": "string"
            },
            {
              "internalType": "address",
              "name": "Address",
              "type": "address"
            },
            {
              "internalType": "string",
              "name": "proPic",
              "type": "string"
            },
            {
              "internalType": "bytes32",
              "name": "passwordHash",
              "type": "bytes32"
            }
          ],
          "internalType": "struct Account",
          "name": "",
          "type": "tuple"
        }
      ],
      "stateMutability": "view",
      "type": "function"
    },
    {
      "inputs": [
        {
          "internalType": "address",
          "name": "_to",
          "type": "address"
        },
        {
          "internalType": "string",
          "name": "_data",
          "type": "string"
        }
      ],
      "name": "send",
      "outputs": [
        {
          "internalType": "bool",
          "name": "",
          "type": "bool"
        }
      ],
      "stateMutability": "nonpayable",
      "type": "function"
    }
  ],
  "bytecode": "0x608060405234801561001057600080fd5b5061303d806100206000396000f3fe608060405234801561001057600080fd5b50600436106100935760003560e01c806351ac59a91161006657806351ac59a91461013257806399142b5f14610162578063b2f7132214610192578063b3fae5fb146101c2578063e0e30eba146101f257610093565b80631046bc681461009857806322366844146100c85780633531eb1e146100e65780633ffbd47f14610116575b600080fd5b6100b260048036038101906100ad91906121f3565b610210565b6040516100bf919061223b565b60405180910390f35b6100d06105d4565b6040516100dd91906122ef565b60405180910390f35b61010060048036038101906100fb9190612446565b610735565b60405161010d919061223b565b60405180910390f35b610130600480360381019061012b91906124ef565b6107a6565b005b61014c600480360381019061014791906121f3565b610bd2565b6040516101599190612589565b60405180910390f35b61017c600480360381019061017791906125a4565b610cae565b604051610189919061223b565b60405180910390f35b6101ac60048036038101906101a791906121f3565b61147f565b6040516101b991906127bd565b60405180910390f35b6101dc60048036038101906101d791906127df565b6116bd565b6040516101e991906128a5565b60405180910390f35b6101fa611990565b60405161020791906129f3565b60405180910390f35b600060011515600560003373ffffffffffffffffffffffffffffffffffffffff1673ffffffffffffffffffffffffffffffffffffffff16815260200190815260200160002060008473ffffffffffffffffffffffffffffffffffffffff1673ffffffffffffffffffffffffffffffffffffffff16815260200190815260200160002060009054906101000a900460ff161515146102e2576040517f08c379a00000000000000000000000000000000000000000000000000000000081526004016102d990612a61565b60405180910390fd5b6000600560003373ffffffffffffffffffffffffffffffffffffffff1673ffffffffffffffffffffffffffffffffffffffff16815260200190815260200160002060008473ffffffffffffffffffffffffffffffffffffffff1673ffffffffffffffffffffffffffffffffffffffff16815260200190815260200160002060006101000a81548160ff0219169083151502179055506000600460003373ffffffffffffffffffffffffffffffffffffffff1673ffffffffffffffffffffffffffffffffffffffff168152602001908152602001600020905060005b8180549050811015610541578373ffffffffffffffffffffffffffffffffffffffff168282815481106103f3576103f2612a81565b5b9060005260206000200160009054906101000a900473ffffffffffffffffffffffffffffffffffffffff1673ffffffffffffffffffffffffffffffffffffffff16141561052e57816001838054905061044c9190612adf565b8154811061045d5761045c612a81565b5b9060005260206000200160009054906101000a900473ffffffffffffffffffffffffffffffffffffffff1682828154811061049b5761049a612a81565b5b9060005260206000200160006101000a81548173ffffffffffffffffffffffffffffffffffffffff021916908373ffffffffffffffffffffffffffffffffffffffff160217905550818054806104f4576104f3612b13565b5b6001900381819060005260206000200160006101000a81549073ffffffffffffffffffffffffffffffffffffffff02191690559055610541565b808061053990612b42565b9150506103bd565b50600160003373ffffffffffffffffffffffffffffffffffffffff1673ffffffffffffffffffffffffffffffffffffffff16815260200190815260200160002060008473ffffffffffffffffffffffffffffffffffffffff1673ffffffffffffffffffffffffffffffffffffffff16815260200190815260200160002060006105ca9190611f9e565b6001915050919050565b6060600260003373ffffffffffffffffffffffffffffffffffffffff1673ffffffffffffffffffffffffffffffffffffffff16815260200190815260200160002060009054906101000a900460ff16156106f9576000803373ffffffffffffffffffffffffffffffffffffffff1673ffffffffffffffffffffffffffffffffffffffff168152602001908152602001600020600001805461067490612bba565b80601f01602080910402602001604051908101604052809291908181526020018280546106a090612bba565b80156106ed5780601f106106c2576101008083540402835291602001916106ed565b820191906000526020600020905b8154815290600101906020018083116106d057829003601f168201915b50505050509050610732565b6040518060400160405280600481526020017f4e4f4e450000000000000000000000000000000000000000000000000000000081525090505b90565b6000816040516020016107489190612c28565b60405160208183030381529060405280519060200120600360003373ffffffffffffffffffffffffffffffffffffffff1673ffffffffffffffffffffffffffffffffffffffff16815260200190815260200160002054149050919050565b600073ffffffffffffffffffffffffffffffffffffffff166000803373ffffffffffffffffffffffffffffffffffffffff1673ffffffffffffffffffffffffffffffffffffffff16815260200190815260200160002060010160009054906101000a900473ffffffffffffffffffffffffffffffffffffffff1673ffffffffffffffffffffffffffffffffffffffff1614610876576040517f08c379a000000000000000000000000000000000000000000000000000000000815260040161086d90612c8b565b60405180910390fd5b600073ffffffffffffffffffffffffffffffffffffffff16600685856040516108a0929190612cd0565b908152602001604051809103902060009054906101000a900473ffffffffffffffffffffffffffffffffffffffff1673ffffffffffffffffffffffffffffffffffffffff1614610925576040517f08c379a000000000000000000000000000000000000000000000000000000000815260040161091c90612d35565b60405180910390fd5b6000604051806080016040528086868080601f016020809104026020016040519081016040528093929190818152602001838380828437600081840152601f19601f8201169050808301925050505050505081526020013373ffffffffffffffffffffffffffffffffffffffff16815260200160405180602001604052806000815250815260200184846040516020016109c0929190612cd0565b60405160208183030381529060405280519060200120815250905082826040516020016109ee929190612cd0565b60405160208183030381529060405280519060200120600360003373ffffffffffffffffffffffffffffffffffffffff1673ffffffffffffffffffffffffffffffffffffffff16815260200190815260200160002081905550806000803373ffffffffffffffffffffffffffffffffffffffff1673ffffffffffffffffffffffffffffffffffffffff1681526020019081526020016000206000820151816000019080519060200190610aa2929190611fc2565b5060208201518160010160006101000a81548173ffffffffffffffffffffffffffffffffffffffff021916908373ffffffffffffffffffffffffffffffffffffffff1602179055506040820151816002019080519060200190610b06929190611fc2565b50606082015181600301559050506001600260003373ffffffffffffffffffffffffffffffffffffffff1673ffffffffffffffffffffffffffffffffffffffff16815260200190815260200160002060006101000a81548160ff0219169083151502179055503360068686604051610b7f929190612cd0565b908152602001604051809103902060006101000a81548173ffffffffffffffffffffffffffffffffffffffff021916908373ffffffffffffffffffffffffffffffffffffffff1602179055505050505050565b600060011515600260008473ffffffffffffffffffffffffffffffffffffffff1673ffffffffffffffffffffffffffffffffffffffff16815260200190815260200160002060009054906101000a900460ff16151514610c67576040517f08c379a0000000000000000000000000000000000000000000000000000000008152600401610c5e90612da1565b60405180910390fd5b600360008373ffffffffffffffffffffffffffffffffffffffff1673ffffffffffffffffffffffffffffffffffffffff168152602001908152602001600020549050919050565b6000610cfd83838080601f016020809104026020016040519081016040528093929190818152602001838380828437600081840152601f19601f82011690508083019250505050505050611ebf565b604051602001610d0c90612de7565b604051602081830303815290604052805190602001208383604051602001610d35929190612cd0565b604051602081830303815290604052805190602001201415610d8c576040517f08c379a0000000000000000000000000000000000000000000000000000000008152600401610d8390612e48565b60405180910390fd5b60006040518060a001604052803373ffffffffffffffffffffffffffffffffffffffff1681526020018673ffffffffffffffffffffffffffffffffffffffff16815260200185858080601f016020809104026020016040519081016040528093929190818152602001838380828437600081840152601f19601f82011690508083019250505050505050815260200160001515815260200142815250905060001515600560003373ffffffffffffffffffffffffffffffffffffffff1673ffffffffffffffffffffffffffffffffffffffff16815260200190815260200160002060008773ffffffffffffffffffffffffffffffffffffffff1673ffffffffffffffffffffffffffffffffffffffff16815260200190815260200160002060009054906101000a900460ff161515141561100157600460003373ffffffffffffffffffffffffffffffffffffffff1673ffffffffffffffffffffffffffffffffffffffff168152602001908152602001600020859080600181540180825580915050600190039060005260206000200160009091909190916101000a81548173ffffffffffffffffffffffffffffffffffffffff021916908373ffffffffffffffffffffffffffffffffffffffff160217905550600460008673ffffffffffffffffffffffffffffffffffffffff1673ffffffffffffffffffffffffffffffffffffffff168152602001908152602001600020339080600181540180825580915050600190039060005260206000200160009091909190916101000a81548173ffffffffffffffffffffffffffffffffffffffff021916908373ffffffffffffffffffffffffffffffffffffffff1602179055505b6001600560003373ffffffffffffffffffffffffffffffffffffffff1673ffffffffffffffffffffffffffffffffffffffff16815260200190815260200160002060008773ffffffffffffffffffffffffffffffffffffffff1673ffffffffffffffffffffffffffffffffffffffff16815260200190815260200160002060006101000a81548160ff0219169083151502179055506001600560008773ffffffffffffffffffffffffffffffffffffffff1673ffffffffffffffffffffffffffffffffffffffff16815260200190815260200160002060003373ffffffffffffffffffffffffffffffffffffffff1673ffffffffffffffffffffffffffffffffffffffff16815260200190815260200160002060006101000a81548160ff021916908315150217905550600160003373ffffffffffffffffffffffffffffffffffffffff1673ffffffffffffffffffffffffffffffffffffffff16815260200190815260200160002060008673ffffffffffffffffffffffffffffffffffffffff1673ffffffffffffffffffffffffffffffffffffffff16815260200190815260200160002081908060018154018082558091505060019003906000526020600020906005020160009091909190915060008201518160000160006101000a81548173ffffffffffffffffffffffffffffffffffffffff021916908373ffffffffffffffffffffffffffffffffffffffff16021790555060208201518160010160006101000a81548173ffffffffffffffffffffffffffffffffffffffff021916908373ffffffffffffffffffffffffffffffffffffffff160217905550604082015181600201908051906020019061127b929190611fc2565b5060608201518160030160006101000a81548160ff021916908315150217905550608082015181600401555050600160008673ffffffffffffffffffffffffffffffffffffffff1673ffffffffffffffffffffffffffffffffffffffff16815260200190815260200160002060003373ffffffffffffffffffffffffffffffffffffffff1673ffffffffffffffffffffffffffffffffffffffff16815260200190815260200160002081908060018154018082558091505060019003906000526020600020906005020160009091909190915060008201518160000160006101000a81548173ffffffffffffffffffffffffffffffffffffffff021916908373ffffffffffffffffffffffffffffffffffffffff16021790555060208201518160010160006101000a81548173ffffffffffffffffffffffffffffffffffffffff021916908373ffffffffffffffffffffffffffffffffffffffff16021790555060408201518160020190805190602001906113f8929190611fc2565b5060608201518160030160006101000a81548160ff0219169083151502179055506080820151816004015550508473ffffffffffffffffffffffffffffffffffffffff167f2954c6667dce9c64f1406803b65f9d33a05719ad15a7ab324e52ed005e5211598260405161146b9190612ede565b60405180910390a260019150509392505050565b6060600160003373ffffffffffffffffffffffffffffffffffffffff1673ffffffffffffffffffffffffffffffffffffffff16815260200190815260200160002060008373ffffffffffffffffffffffffffffffffffffffff1673ffffffffffffffffffffffffffffffffffffffff168152602001908152602001600020805480602002602001604051908101604052809291908181526020016000905b828210156116b257838290600052602060002090600502016040518060a00160405290816000820160009054906101000a900473ffffffffffffffffffffffffffffffffffffffff1673ffffffffffffffffffffffffffffffffffffffff1673ffffffffffffffffffffffffffffffffffffffff1681526020016001820160009054906101000a900473ffffffffffffffffffffffffffffffffffffffff1673ffffffffffffffffffffffffffffffffffffffff1673ffffffffffffffffffffffffffffffffffffffff1681526020016002820180546115fc90612bba565b80601f016020809104026020016040519081016040528092919081815260200182805461162890612bba565b80156116755780601f1061164a57610100808354040283529160200191611675565b820191906000526020600020905b81548152906001019060200180831161165857829003601f168201915b505050505081526020016003820160009054906101000a900460ff161515151581526020016004820154815250508152602001906001019061151d565b505050509050919050565b6116c5612048565b600073ffffffffffffffffffffffffffffffffffffffff16600684846040516116ef929190612cd0565b908152602001604051809103902060009054906101000a900473ffffffffffffffffffffffffffffffffffffffff1673ffffffffffffffffffffffffffffffffffffffff161415611775576040517f08c379a000000000000000000000000000000000000000000000000000000000815260040161176c90612f4c565b60405180910390fd5b600060068484604051611789929190612cd0565b908152602001604051809103902060009054906101000a900473ffffffffffffffffffffffffffffffffffffffff1690506000808273ffffffffffffffffffffffffffffffffffffffff1673ffffffffffffffffffffffffffffffffffffffff16815260200190815260200160002060405180608001604052908160008201805461181390612bba565b80601f016020809104026020016040519081016040528092919081815260200182805461183f90612bba565b801561188c5780601f106118615761010080835404028352916020019161188c565b820191906000526020600020905b81548152906001019060200180831161186f57829003601f168201915b505050505081526020016001820160009054906101000a900473ffffffffffffffffffffffffffffffffffffffff1673ffffffffffffffffffffffffffffffffffffffff1673ffffffffffffffffffffffffffffffffffffffff1681526020016002820180546118fb90612bba565b80601f016020809104026020016040519081016040528092919081815260200182805461192790612bba565b80156119745780601f1061194957610100808354040283529160200191611974565b820191906000526020600020905b81548152906001019060200180831161195757829003601f168201915b5050505050815260200160038201548152505091505092915050565b60606000600460003373ffffffffffffffffffffffffffffffffffffffff1673ffffffffffffffffffffffffffffffffffffffff1681526020019081526020016000208054905011611a17576040517f08c379a0000000000000000000000000000000000000000000000000000000008152600401611a0e90612fb8565b60405180910390fd5b600080600460003373ffffffffffffffffffffffffffffffffffffffff1673ffffffffffffffffffffffffffffffffffffffff1681526020019081526020016000208054905067ffffffffffffffff811115611a7657611a7561231b565b5b604051908082528060200260200182016040528015611aaf57816020015b611a9c612048565b815260200190600190039081611a945790505b50905060005b600460003373ffffffffffffffffffffffffffffffffffffffff1673ffffffffffffffffffffffffffffffffffffffff16815260200190815260200160002080549050811015611eb6576000600460003373ffffffffffffffffffffffffffffffffffffffff1673ffffffffffffffffffffffffffffffffffffffff1681526020019081526020016000208281548110611b5257611b51612a81565b5b9060005260206000200160009054906101000a900473ffffffffffffffffffffffffffffffffffffffff169050600560003373ffffffffffffffffffffffffffffffffffffffff1673ffffffffffffffffffffffffffffffffffffffff16815260200190815260200160002060008273ffffffffffffffffffffffffffffffffffffffff1673ffffffffffffffffffffffffffffffffffffffff16815260200190815260200160002060009054906101000a900460ff168015611ca35750600073ffffffffffffffffffffffffffffffffffffffff166000808373ffffffffffffffffffffffffffffffffffffffff1673ffffffffffffffffffffffffffffffffffffffff16815260200190815260200160002060010160009054906101000a900473ffffffffffffffffffffffffffffffffffffffff1673ffffffffffffffffffffffffffffffffffffffff1614155b15611ea2576000808273ffffffffffffffffffffffffffffffffffffffff1673ffffffffffffffffffffffffffffffffffffffff168152602001908152602001600020604051806080016040529081600082018054611d0190612bba565b80601f0160208091040260200160405190810160405280929190818152602001828054611d2d90612bba565b8015611d7a5780601f10611d4f57610100808354040283529160200191611d7a565b820191906000526020600020905b815481529060010190602001808311611d5d57829003601f168201915b505050505081526020016001820160009054906101000a900473ffffffffffffffffffffffffffffffffffffffff1673ffffffffffffffffffffffffffffffffffffffff1673ffffffffffffffffffffffffffffffffffffffff168152602001600282018054611de990612bba565b80601f0160208091040260200160405190810160405280929190818152602001828054611e1590612bba565b8015611e625780601f10611e3757610100808354040283529160200191611e62565b820191906000526020600020905b815481529060010190602001808311611e4557829003601f168201915b50505050508152602001600382015481525050838581518110611e8857611e87612a81565b5b60200260200101819052508380611e9e90612b42565b9450505b508080611eae90612b42565b915050611ab5565b50809250505090565b611f5581604051602401611ed391906122ef565b6040516020818303038152906040527f41304fac000000000000000000000000000000000000000000000000000000007bffffffffffffffffffffffffffffffffffffffffffffffffffffffff19166020820180517bffffffffffffffffffffffffffffffffffffffffffffffffffffffff8381831617835250505050611f58565b50565b611f6f81611f67611f72611f93565b63ffffffff16565b50565b60006a636f6e736f6c652e6c6f679050600080835160208501845afa505050565b612089819050919050565b5080546000825560050290600052602060002090810190611fbf9190612093565b50565b828054611fce90612bba565b90600052602060002090601f016020900481019282611ff05760008555612037565b82601f1061200957805160ff1916838001178555612037565b82800160010185558215612037579182015b8281111561203657825182559160200191906001019061201b565b5b5090506120449190612124565b5090565b604051806080016040528060608152602001600073ffffffffffffffffffffffffffffffffffffffff16815260200160608152602001600080191681525090565b612091612fd8565b565b5b8082111561212057600080820160006101000a81549073ffffffffffffffffffffffffffffffffffffffff02191690556001820160006101000a81549073ffffffffffffffffffffffffffffffffffffffff02191690556002820160006120fb9190612141565b6003820160006101000a81549060ff0219169055600482016000905550600501612094565b5090565b5b8082111561213d576000816000905550600101612125565b5090565b50805461214d90612bba565b6000825580601f1061215f575061217e565b601f01602090049060005260206000209081019061217d9190612124565b5b50565b6000604051905090565b600080fd5b600080fd5b600073ffffffffffffffffffffffffffffffffffffffff82169050919050565b60006121c082612195565b9050919050565b6121d0816121b5565b81146121db57600080fd5b50565b6000813590506121ed816121c7565b92915050565b6000602082840312156122095761220861218b565b5b6000612217848285016121de565b91505092915050565b60008115159050919050565b61223581612220565b82525050565b6000602082019050612250600083018461222c565b92915050565b600081519050919050565b600082825260208201905092915050565b60005b83811015612290578082015181840152602081019050612275565b8381111561229f576000848401525b50505050565b6000601f19601f8301169050919050565b60006122c182612256565b6122cb8185612261565b93506122db818560208601612272565b6122e4816122a5565b840191505092915050565b6000602082019050818103600083015261230981846122b6565b905092915050565b600080fd5b600080fd5b7f4e487b7100000000000000000000000000000000000000000000000000000000600052604160045260246000fd5b612353826122a5565b810181811067ffffffffffffffff821117156123725761237161231b565b5b80604052505050565b6000612385612181565b9050612391828261234a565b919050565b600067ffffffffffffffff8211156123b1576123b061231b565b5b6123ba826122a5565b9050602081019050919050565b82818337600083830152505050565b60006123e96123e484612396565b61237b565b90508281526020810184848401111561240557612404612316565b5b6124108482856123c7565b509392505050565b600082601f83011261242d5761242c612311565b5b813561243d8482602086016123d6565b91505092915050565b60006020828403121561245c5761245b61218b565b5b600082013567ffffffffffffffff81111561247a57612479612190565b5b61248684828501612418565b91505092915050565b600080fd5b600080fd5b60008083601f8401126124af576124ae612311565b5b8235905067ffffffffffffffff8111156124cc576124cb61248f565b5b6020830191508360018202830111156124e8576124e7612494565b5b9250929050565b600080600080604085870312156125095761250861218b565b5b600085013567ffffffffffffffff81111561252757612526612190565b5b61253387828801612499565b9450945050602085013567ffffffffffffffff81111561255657612555612190565b5b61256287828801612499565b925092505092959194509250565b6000819050919050565b61258381612570565b82525050565b600060208201905061259e600083018461257a565b92915050565b6000806000604084860312156125bd576125bc61218b565b5b60006125cb868287016121de565b935050602084013567ffffffffffffffff8111156125ec576125eb612190565b5b6125f886828701612499565b92509250509250925092565b600081519050919050565b600082825260208201905092915050565b6000819050602082019050919050565b612639816121b5565b82525050565b600082825260208201905092915050565b600061265b82612256565b612665818561263f565b9350612675818560208601612272565b61267e816122a5565b840191505092915050565b61269281612220565b82525050565b6000819050919050565b6126ab81612698565b82525050565b600060a0830160008301516126c96000860182612630565b5060208301516126dc6020860182612630565b50604083015184820360408601526126f48282612650565b91505060608301516127096060860182612689565b50608083015161271c60808601826126a2565b508091505092915050565b600061273383836126b1565b905092915050565b6000602082019050919050565b600061275382612604565b61275d818561260f565b93508360208202850161276f85612620565b8060005b858110156127ab578484038952815161278c8582612727565b94506127978361273b565b925060208a01995050600181019050612773565b50829750879550505050505092915050565b600060208201905081810360008301526127d78184612748565b905092915050565b600080602083850312156127f6576127f561218b565b5b600083013567ffffffffffffffff81111561281457612813612190565b5b61282085828601612499565b92509250509250929050565b61283581612570565b82525050565b600060808301600083015184820360008601526128588282612650565b915050602083015161286d6020860182612630565b50604083015184820360408601526128858282612650565b915050606083015161289a606086018261282c565b508091505092915050565b600060208201905081810360008301526128bf818461283b565b905092915050565b600081519050919050565b600082825260208201905092915050565b6000819050602082019050919050565b600060808301600083015184820360008601526129108282612650565b91505060208301516129256020860182612630565b506040830151848203604086015261293d8282612650565b9150506060830151612952606086018261282c565b508091505092915050565b600061296983836128f3565b905092915050565b6000602082019050919050565b6000612989826128c7565b61299381856128d2565b9350836020820285016129a5856128e3565b8060005b858110156129e157848403895281516129c2858261295d565b94506129cd83612971565b925060208a019950506001810190506129a9565b50829750879550505050505092915050565b60006020820190508181036000830152612a0d818461297e565b905092915050565b7f55736572206e6f7420436f6e6e65637465642079657400000000000000000000600082015250565b6000612a4b601683612261565b9150612a5682612a15565b602082019050919050565b60006020820190508181036000830152612a7a81612a3e565b9050919050565b7f4e487b7100000000000000000000000000000000000000000000000000000000600052603260045260246000fd5b7f4e487b7100000000000000000000000000000000000000000000000000000000600052601160045260246000fd5b6000612aea82612698565b9150612af583612698565b925082821015612b0857612b07612ab0565b5b828203905092915050565b7f4e487b7100000000000000000000000000000000000000000000000000000000600052603160045260246000fd5b6000612b4d82612698565b91507fffffffffffffffffffffffffffffffffffffffffffffffffffffffffffffffff821415612b8057612b7f612ab0565b5b600182019050919050565b7f4e487b7100000000000000000000000000000000000000000000000000000000600052602260045260246000fd5b60006002820490506001821680612bd257607f821691505b60208210811415612be657612be5612b8b565b5b50919050565b600081905092915050565b6000612c0282612256565b612c0c8185612bec565b9350612c1c818560208601612272565b80840191505092915050565b6000612c348284612bf7565b915081905092915050565b7f5573657220616c72656164792072656769737465726564000000000000000000600082015250565b6000612c75601783612261565b9150612c8082612c3f565b602082019050919050565b60006020820190508181036000830152612ca481612c68565b9050919050565b6000612cb78385612bec565b9350612cc48385846123c7565b82840190509392505050565b6000612cdd828486612cab565b91508190509392505050565b7f557365726e616d65206e6f7420617661696c61626c6500000000000000000000600082015250565b6000612d1f601683612261565b9150612d2a82612ce9565b602082019050919050565b60006020820190508181036000830152612d4e81612d12565b9050919050565b7f4163636f756e74206e6f74207265676973746572656400000000000000000000600082015250565b6000612d8b601683612261565b9150612d9682612d55565b602082019050919050565b60006020820190508181036000830152612dba81612d7e565b9050919050565b50565b6000612dd1600083612bec565b9150612ddc82612dc1565b600082019050919050565b6000612df282612dc4565b9150819050919050565b7f4e6f206d6573736167652069732073656e740000000000000000000000000000600082015250565b6000612e32601283612261565b9150612e3d82612dfc565b602082019050919050565b60006020820190508181036000830152612e6181612e25565b9050919050565b600060a083016000830151612e806000860182612630565b506020830151612e936020860182612630565b5060408301518482036040860152612eab8282612650565b9150506060830151612ec06060860182612689565b506080830151612ed360808601826126a2565b508091505092915050565b60006020820190508181036000830152612ef88184612e68565b905092915050565b7f4e6f207573657220666f756e6400000000000000000000000000000000000000600082015250565b6000612f36600d83612261565b9150612f4182612f00565b602082019050919050565b60006020820190508181036000830152612f6581612f29565b9050919050565b7f4e6f7420636f6e6e656374696f6e206d616465206265666f7265000000000000600082015250565b6000612fa2601a83612261565b9150612fad82612f6c565b602082019050919050565b60006020820190508181036000830152612fd181612f95565b9050919050565b7f4e487b7100000000000000000000000000000000000000000000000000000000600052605160045260246000fdfea264697066735822122093c9e9d56ff3100dced441fc2ebaca1150d532a225b10bf9d88ed3a06d98c02664736f6c63430008090033",
  "linkReferences": {},
  "deployedLinkReferences": {}
}