{
  "_format": "hh-sol-artifact-1",
  "contractName": "Dacebook",
  "sourceName": "contracts/Dacebook.sol",
  "abi": [
    {
      "anonymous": false,
      "inputs": [
        {
          "indexed": true,
          "internalType": "address",
          "name": "user",
          "type": "address"
        },
        {
          "indexed": false,
          "internalType": "string",
          "name": "fileUrl",
          "type": "string"
        }
      ],
      "name": "FileUploaded",
      "type": "event"
    },
    {
      "anonymous": false,
      "inputs": [
        {
          "indexed": true,
          "internalType": "address",
          "name": "sender",
          "type": "address"
        },
        {
          "indexed": true,
          "internalType": "address",
          "name": "receiver",
          "type": "address"
        },
        {
          "indexed": false,
          "internalType": "string",
          "name": "content",
          "type": "string"
        }
      ],
      "name": "NewMessage",
      "type": "event"
    },
    {
      "anonymous": false,
      "inputs": [
        {
          "indexed": true,
          "internalType": "address",
          "name": "author",
          "type": "address"
        },
        {
          "indexed": false,
          "internalType": "uint256",
          "name": "postId",
          "type": "uint256"
        }
      ],
      "name": "NewPost",
      "type": "event"
    },
    {
      "anonymous": false,
      "inputs": [
        {
          "indexed": true,
          "internalType": "address",
          "name": "user",
          "type": "address"
        },
        {
          "indexed": false,
          "internalType": "string",
          "name": "name",
          "type": "string"
        }
      ],
      "name": "UserRegistered",
      "type": "event"
    },
    {
      "inputs": [
        {
          "internalType": "address",
          "name": "_user1",
          "type": "address"
        },
        {
          "internalType": "address",
          "name": "_user2",
          "type": "address"
        }
      ],
      "name": "areFriends",
      "outputs": [
        {
          "internalType": "bool",
          "name": "",
          "type": "bool"
        }
      ],
      "stateMutability": "view",
      "type": "function"
    },
    {
      "inputs": [
        {
          "internalType": "address",
          "name": "_author",
          "type": "address"
        },
        {
          "internalType": "uint256",
          "name": "_postId",
          "type": "uint256"
        },
        {
          "internalType": "string",
          "name": "_comment",
          "type": "string"
        },
        {
          "internalType": "address",
          "name": "_commenter",
          "type": "address"
        }
      ],
      "name": "commentOnPost",
      "outputs": [],
      "stateMutability": "nonpayable",
      "type": "function"
    },
    {
      "inputs": [
        {
          "internalType": "string",
          "name": "_content",
          "type": "string"
        },
        {
          "internalType": "string[]",
          "name": "_uploads",
          "type": "string[]"
        }
      ],
      "name": "createPost",
      "outputs": [],
      "stateMutability": "nonpayable",
      "type": "function"
    },
    {
      "inputs": [],
      "name": "getFeed",
      "outputs": [
        {
          "components": [
            {
              "internalType": "uint256",
              "name": "id",
              "type": "uint256"
            },
            {
              "internalType": "address",
              "name": "author",
              "type": "address"
            },
            {
              "internalType": "string",
              "name": "content",
              "type": "string"
            },
            {
              "internalType": "uint256",
              "name": "timestamp",
              "type": "uint256"
            },
            {
              "internalType": "uint256",
              "name": "likes",
              "type": "uint256"
            },
            {
              "components": [
                {
                  "internalType": "string",
                  "name": "text",
                  "type": "string"
                },
                {
                  "internalType": "address",
                  "name": "userAddress",
                  "type": "address"
                }
              ],
              "internalType": "struct Dacebook.Comment[]",
              "name": "comments",
              "type": "tuple[]"
            },
            {
              "internalType": "string[]",
              "name": "uploads",
              "type": "string[]"
            }
          ],
          "internalType": "struct Dacebook.Post[]",
          "name": "",
          "type": "tuple[]"
        }
      ],
      "stateMutability": "view",
      "type": "function"
    },
    {
      "inputs": [],
      "name": "getFriends",
      "outputs": [
        {
          "internalType": "address[]",
          "name": "",
          "type": "address[]"
        }
      ],
      "stateMutability": "view",
      "type": "function"
    },
    {
      "inputs": [
        {
          "internalType": "address",
          "name": "_user",
          "type": "address"
        }
      ],
      "name": "getUserPosts",
      "outputs": [
        {
          "components": [
            {
              "internalType": "uint256",
              "name": "id",
              "type": "uint256"
            },
            {
              "internalType": "address",
              "name": "author",
              "type": "address"
            },
            {
              "internalType": "string",
              "name": "content",
              "type": "string"
            },
            {
              "internalType": "uint256",
              "name": "timestamp",
              "type": "uint256"
            },
            {
              "internalType": "uint256",
              "name": "likes",
              "type": "uint256"
            },
            {
              "components": [
                {
                  "internalType": "string",
                  "name": "text",
                  "type": "string"
                },
                {
                  "internalType": "address",
                  "name": "userAddress",
                  "type": "address"
                }
              ],
              "internalType": "struct Dacebook.Comment[]",
              "name": "comments",
              "type": "tuple[]"
            },
            {
              "internalType": "string[]",
              "name": "uploads",
              "type": "string[]"
            }
          ],
          "internalType": "struct Dacebook.Post[]",
          "name": "",
          "type": "tuple[]"
        }
      ],
      "stateMutability": "view",
      "type": "function"
    },
    {
      "inputs": [
        {
          "internalType": "address",
          "name": "_user",
          "type": "address"
        }
      ],
      "name": "getUserProfile",
      "outputs": [
        {
          "components": [
            {
              "internalType": "string",
              "name": "name",
              "type": "string"
            },
            {
              "internalType": "string",
              "name": "profilePic",
              "type": "string"
            },
            {
              "internalType": "address",
              "name": "userAddress",
              "type": "address"
            },
            {
              "internalType": "string",
              "name": "bio",
              "type": "string"
            },
            {
              "internalType": "bytes32",
              "name": "passwordHash",
              "type": "bytes32"
            },
            {
              "internalType": "address[]",
              "name": "friends",
              "type": "address[]"
            }
          ],
          "internalType": "struct Dacebook.User",
          "name": "",
          "type": "tuple"
        }
      ],
      "stateMutability": "view",
      "type": "function"
    },
    {
      "inputs": [
        {
          "internalType": "address",
          "name": "",
          "type": "address"
        },
        {
          "internalType": "uint256",
          "name": "",
          "type": "uint256"
        },
        {
          "internalType": "address",
          "name": "",
          "type": "address"
        }
      ],
      "name": "isLiked",
      "outputs": [
        {
          "internalType": "bool",
          "name": "",
          "type": "bool"
        }
      ],
      "stateMutability": "view",
      "type": "function"
    },
    {
      "inputs": [
        {
          "internalType": "string",
          "name": "_name",
          "type": "string"
        },
        {
          "internalType": "string",
          "name": "_profilePic",
          "type": "string"
        },
        {
          "internalType": "string",
          "name": "_bio",
          "type": "string"
        },
        {
          "internalType": "string",
          "name": "_password",
          "type": "string"
        }
      ],
      "name": "register",
      "outputs": [],
      "stateMutability": "nonpayable",
      "type": "function"
    },
    {
      "inputs": [
        {
          "internalType": "address",
          "name": "_friend",
          "type": "address"
        }
      ],
      "name": "toggleFriend",
      "outputs": [],
      "stateMutability": "nonpayable",
      "type": "function"
    },
    {
      "inputs": [
        {
          "internalType": "address",
          "name": "_author",
          "type": "address"
        },
        {
          "internalType": "uint256",
          "name": "_postId",
          "type": "uint256"
        }
      ],
      "name": "toggleLikeonPost",
      "outputs": [],
      "stateMutability": "nonpayable",
      "type": "function"
    }
  ],
  "bytecode": "0x6080604052600060065534801561001557600080fd5b5061463f806100256000396000f3fe608060405234801561001057600080fd5b50600436106100a95760003560e01c80639a2194a9116100715780639a2194a914610164578063b0ed7a7f14610194578063c8266683146101c4578063d9806cd5146101e0578063db2598f0146101fc578063dbadb1d114610218576100a9565b80630e24c52c146100ae5780631f8f7270146100ca57806352374f7a146100e85780638110a80014610104578063987ee15614610134575b600080fd5b6100c860048036038101906100c39190613689565b610236565b005b6100d2610549565b6040516100df9190613850565b60405180910390f35b61010260048036038101906100fd9190613958565b6109b4565b005b61011e600480360381019061011991906139fc565b610bcd565b60405161012b9190613a57565b60405180910390f35b61014e60048036038101906101499190613a72565b610c61565b60405161015b9190613c4d565b60405180910390f35b61017e60048036038101906101799190613a72565b6110bb565b60405161018b9190613fb5565b60405180910390f35b6101ae60048036038101906101a99190614003565b6115db565b6040516101bb9190613a57565b60405180910390f35b6101de60048036038101906101d99190614056565b611617565b005b6101fa60048036038101906101f59190613a72565b611852565b005b610216600480360381019061021191906140d9565b611ce0565b005b6102206120ca565b60405161022d9190613fb5565b60405180910390f35b600160003373ffffffffffffffffffffffffffffffffffffffff1673ffffffffffffffffffffffffffffffffffffffff16815260200190815260200160002060009054906101000a900460ff16156102c3576040517f08c379a00000000000000000000000000000000000000000000000000000000081526004016102ba90614176565b60405180910390fd5b600660008154809291906102d6906141c5565b91905055506102e660065461308d565b6040518060c001604052808581526020018481526020013373ffffffffffffffffffffffffffffffffffffffff16815260200183815260200182604051602001610330919061424a565b604051602081830303815290604052805190602001208152602001600067ffffffffffffffff8111156103665761036561355e565b5b6040519080825280602002602001820160405280156103945781602001602082028036833780820191505090505b508152506000803373ffffffffffffffffffffffffffffffffffffffff1673ffffffffffffffffffffffffffffffffffffffff16815260200190815260200160002060008201518160000190805190602001906103f2929190613292565b50602082015181600101908051906020019061040f929190613292565b5060408201518160020160006101000a81548173ffffffffffffffffffffffffffffffffffffffff021916908373ffffffffffffffffffffffffffffffffffffffff1602179055506060820151816003019080519060200190610473929190613292565b506080820151816004015560a082015181600501908051906020019061049a929190613318565b5090505060018060003373ffffffffffffffffffffffffffffffffffffffff1673ffffffffffffffffffffffffffffffffffffffff16815260200190815260200160002060006101000a81548160ff0219169083151502179055503373ffffffffffffffffffffffffffffffffffffffff167f48cac28ad4dc618e15f4c2dd5e97751182f166de97b25618318b2112aa951a2f8560405161053b919061429a565b60405180910390a250505050565b606060008060003373ffffffffffffffffffffffffffffffffffffffff1673ffffffffffffffffffffffffffffffffffffffff1681526020019081526020016000206040518060c00160405290816000820180546105a6906142eb565b80601f01602080910402602001604051908101604052809291908181526020018280546105d2906142eb565b801561061f5780601f106105f45761010080835404028352916020019161061f565b820191906000526020600020905b81548152906001019060200180831161060257829003601f168201915b50505050508152602001600182018054610638906142eb565b80601f0160208091040260200160405190810160405280929190818152602001828054610664906142eb565b80156106b15780601f10610686576101008083540402835291602001916106b1565b820191906000526020600020905b81548152906001019060200180831161069457829003601f168201915b505050505081526020016002820160009054906101000a900473ffffffffffffffffffffffffffffffffffffffff1673ffffffffffffffffffffffffffffffffffffffff1673ffffffffffffffffffffffffffffffffffffffff168152602001600382018054610720906142eb565b80601f016020809104026020016040519081016040528092919081815260200182805461074c906142eb565b80156107995780601f1061076e57610100808354040283529160200191610799565b820191906000526020600020905b81548152906001019060200180831161077c57829003601f168201915b50505050508152602001600482015481526020016005820180548060200260200160405190810160405280929190818152602001828054801561083157602002820191906000526020600020905b8160009054906101000a900473ffffffffffffffffffffffffffffffffffffffff1673ffffffffffffffffffffffffffffffffffffffff16815260200190600101908083116107e7575b50505050508152505090506000805b8260a001515181101561089c57610875338460a0015183815181106108685761086761431d565b5b6020026020010151610bcd565b15610889578180610885906141c5565b9250505b8080610894906141c5565b915050610840565b5060008167ffffffffffffffff8111156108b9576108b861355e565b5b6040519080825280602002602001820160405280156108e75781602001602082028036833780820191505090505b50905060005b828110156109a25761091d338560a0015183815181106109105761090f61431d565b5b6020026020010151610bcd565b1561098f578360a0015181815181106109395761093861431d565b5b60200260200101518282815181106109545761095361431d565b5b602002602001019073ffffffffffffffffffffffffffffffffffffffff16908173ffffffffffffffffffffffffffffffffffffffff16815250505b808061099a906141c5565b9150506108ed565b506109ab613126565b80935050505090565b600160003373ffffffffffffffffffffffffffffffffffffffff1673ffffffffffffffffffffffffffffffffffffffff16815260200190815260200160002060009054906101000a900460ff16610a40576040517f08c379a0000000000000000000000000000000000000000000000000000000008152600401610a3790614398565b60405180910390fd5b6000600260003373ffffffffffffffffffffffffffffffffffffffff1673ffffffffffffffffffffffffffffffffffffffff1681526020019081526020016000208054905090506000600260003373ffffffffffffffffffffffffffffffffffffffff1673ffffffffffffffffffffffffffffffffffffffff1681526020019081526020016000206001816001815401808255809150500390600052602060002090600702019050818160000181905550338160010160006101000a81548173ffffffffffffffffffffffffffffffffffffffff021916908373ffffffffffffffffffffffffffffffffffffffff16021790555083816002019080519060200190610b4c929190613292565b504281600301819055506000816004018190555082816006019080519060200190610b789291906133a2565b503373ffffffffffffffffffffffffffffffffffffffff167f227d44868fd91794465aa9733e53308aaf7503a80920f790d5060691fe03a3e783604051610bbf91906143c7565b60405180910390a250505050565b6000600360008473ffffffffffffffffffffffffffffffffffffffff1673ffffffffffffffffffffffffffffffffffffffff16815260200190815260200160002060008373ffffffffffffffffffffffffffffffffffffffff1673ffffffffffffffffffffffffffffffffffffffff16815260200190815260200160002060009054906101000a900460ff16905092915050565b610c69613402565b600160008373ffffffffffffffffffffffffffffffffffffffff1673ffffffffffffffffffffffffffffffffffffffff16815260200190815260200160002060009054906101000a900460ff16610cf5576040517f08c379a0000000000000000000000000000000000000000000000000000000008152600401610cec90614398565b60405180910390fd5b610dc76000808473ffffffffffffffffffffffffffffffffffffffff1673ffffffffffffffffffffffffffffffffffffffff1681526020019081526020016000206000018054610d44906142eb565b80601f0160208091040260200160405190810160405280929190818152602001828054610d70906142eb565b8015610dbd5780601f10610d9257610100808354040283529160200191610dbd565b820191906000526020600020905b815481529060010190602001808311610da057829003601f168201915b50505050506131b3565b6000808373ffffffffffffffffffffffffffffffffffffffff1673ffffffffffffffffffffffffffffffffffffffff1681526020019081526020016000206040518060c0016040529081600082018054610e20906142eb565b80601f0160208091040260200160405190810160405280929190818152602001828054610e4c906142eb565b8015610e995780601f10610e6e57610100808354040283529160200191610e99565b820191906000526020600020905b815481529060010190602001808311610e7c57829003601f168201915b50505050508152602001600182018054610eb2906142eb565b80601f0160208091040260200160405190810160405280929190818152602001828054610ede906142eb565b8015610f2b5780601f10610f0057610100808354040283529160200191610f2b565b820191906000526020600020905b815481529060010190602001808311610f0e57829003601f168201915b505050505081526020016002820160009054906101000a900473ffffffffffffffffffffffffffffffffffffffff1673ffffffffffffffffffffffffffffffffffffffff1673ffffffffffffffffffffffffffffffffffffffff168152602001600382018054610f9a906142eb565b80601f0160208091040260200160405190810160405280929190818152602001828054610fc6906142eb565b80156110135780601f10610fe857610100808354040283529160200191611013565b820191906000526020600020905b815481529060010190602001808311610ff657829003601f168201915b5050505050815260200160048201548152602001600582018054806020026020016040519081016040528092919081815260200182805480156110ab57602002820191906000526020600020905b8160009054906101000a900473ffffffffffffffffffffffffffffffffffffffff1673ffffffffffffffffffffffffffffffffffffffff1681526020019060010190808311611061575b5050505050815250509050919050565b6060611108600260008473ffffffffffffffffffffffffffffffffffffffff1673ffffffffffffffffffffffffffffffffffffffff1681526020019081526020016000208054905061308d565b600160008373ffffffffffffffffffffffffffffffffffffffff1673ffffffffffffffffffffffffffffffffffffffff16815260200190815260200160002060009054906101000a900460ff16611194576040517f08c379a000000000000000000000000000000000000000000000000000000000815260040161118b90614398565b60405180910390fd5b6000600260008473ffffffffffffffffffffffffffffffffffffffff1673ffffffffffffffffffffffffffffffffffffffff1681526020019081526020016000208054905011611219576040517f08c379a00000000000000000000000000000000000000000000000000000000081526004016112109061442e565b60405180910390fd5b600260008373ffffffffffffffffffffffffffffffffffffffff1673ffffffffffffffffffffffffffffffffffffffff168152602001908152602001600020805480602002602001604051908101604052809291908181526020016000905b828210156115d057838290600052602060002090600702016040518060e0016040529081600082015481526020016001820160009054906101000a900473ffffffffffffffffffffffffffffffffffffffff1673ffffffffffffffffffffffffffffffffffffffff1673ffffffffffffffffffffffffffffffffffffffff16815260200160028201805461130b906142eb565b80601f0160208091040260200160405190810160405280929190818152602001828054611337906142eb565b80156113845780601f1061135957610100808354040283529160200191611384565b820191906000526020600020905b81548152906001019060200180831161136757829003601f168201915b50505050508152602001600382015481526020016004820154815260200160058201805480602002602001604051908101604052809291908181526020016000905b828210156114e057838290600052602060002090600202016040518060400160405290816000820180546113f9906142eb565b80601f0160208091040260200160405190810160405280929190818152602001828054611425906142eb565b80156114725780601f1061144757610100808354040283529160200191611472565b820191906000526020600020905b81548152906001019060200180831161145557829003601f168201915b505050505081526020016001820160009054906101000a900473ffffffffffffffffffffffffffffffffffffffff1673ffffffffffffffffffffffffffffffffffffffff1673ffffffffffffffffffffffffffffffffffffffff1681525050815260200190600101906113c6565b50505050815260200160068201805480602002602001604051908101604052809291908181526020016000905b828210156115b957838290600052602060002001805461152c906142eb565b80601f0160208091040260200160405190810160405280929190818152602001828054611558906142eb565b80156115a55780601f1061157a576101008083540402835291602001916115a5565b820191906000526020600020905b81548152906001019060200180831161158857829003601f168201915b50505050508152602001906001019061150d565b505050508152505081526020019060010190611278565b505050509050919050565b6005602052826000526040600020602052816000526040600020602052806000526040600020600092509250509054906101000a900460ff1681565b6116208361308d565b600160003373ffffffffffffffffffffffffffffffffffffffff1673ffffffffffffffffffffffffffffffffffffffff16815260200190815260200160002060009054906101000a900460ff166116ac576040517f08c379a00000000000000000000000000000000000000000000000000000000081526004016116a390614398565b60405180910390fd5b600260008573ffffffffffffffffffffffffffffffffffffffff1673ffffffffffffffffffffffffffffffffffffffff168152602001908152602001600020805490508310611730576040517f08c379a00000000000000000000000000000000000000000000000000000000081526004016117279061449a565b60405180910390fd5b600260008573ffffffffffffffffffffffffffffffffffffffff1673ffffffffffffffffffffffffffffffffffffffff16815260200190815260200160002083815481106117815761178061431d565b5b906000526020600020906007020160050160405180604001604052808481526020018373ffffffffffffffffffffffffffffffffffffffff1681525090806001815401808255809150506001900390600052602060002090600202016000909190919091506000820151816000019080519060200190611802929190613292565b5060208201518160010160006101000a81548173ffffffffffffffffffffffffffffffffffffffff021916908373ffffffffffffffffffffffffffffffffffffffff160217905550505050505050565b600160003373ffffffffffffffffffffffffffffffffffffffff1673ffffffffffffffffffffffffffffffffffffffff16815260200190815260200160002060009054906101000a900460ff166118de576040517f08c379a00000000000000000000000000000000000000000000000000000000081526004016118d590614398565b60405180910390fd5b600160008273ffffffffffffffffffffffffffffffffffffffff1673ffffffffffffffffffffffffffffffffffffffff16815260200190815260200160002060009054906101000a900460ff1661196a576040517f08c379a000000000000000000000000000000000000000000000000000000000815260040161196190614506565b60405180910390fd5b600360003373ffffffffffffffffffffffffffffffffffffffff1673ffffffffffffffffffffffffffffffffffffffff16815260200190815260200160002060008273ffffffffffffffffffffffffffffffffffffffff1673ffffffffffffffffffffffffffffffffffffffff16815260200190815260200160002060009054906101000a900460ff16611bbf57600460003373ffffffffffffffffffffffffffffffffffffffff1673ffffffffffffffffffffffffffffffffffffffff16815260200190815260200160002060008273ffffffffffffffffffffffffffffffffffffffff1673ffffffffffffffffffffffffffffffffffffffff16815260200190815260200160002060009054906101000a900460ff16611bbe576001600460003373ffffffffffffffffffffffffffffffffffffffff1673ffffffffffffffffffffffffffffffffffffffff16815260200190815260200160002060008373ffffffffffffffffffffffffffffffffffffffff1673ffffffffffffffffffffffffffffffffffffffff16815260200190815260200160002060006101000a81548160ff0219169083151502179055506000803373ffffffffffffffffffffffffffffffffffffffff1673ffffffffffffffffffffffffffffffffffffffff168152602001908152602001600020600501819080600181540180825580915050600190039060005260206000200160009091909190916101000a81548173ffffffffffffffffffffffffffffffffffffffff021916908373ffffffffffffffffffffffffffffffffffffffff1602179055505b5b600360003373ffffffffffffffffffffffffffffffffffffffff1673ffffffffffffffffffffffffffffffffffffffff16815260200190815260200160002060008273ffffffffffffffffffffffffffffffffffffffff1673ffffffffffffffffffffffffffffffffffffffff16815260200190815260200160002060009054906101000a900460ff1615600360003373ffffffffffffffffffffffffffffffffffffffff1673ffffffffffffffffffffffffffffffffffffffff16815260200190815260200160002060008373ffffffffffffffffffffffffffffffffffffffff1673ffffffffffffffffffffffffffffffffffffffff16815260200190815260200160002060006101000a81548160ff02191690831515021790555050565b600160003373ffffffffffffffffffffffffffffffffffffffff1673ffffffffffffffffffffffffffffffffffffffff16815260200190815260200160002060009054906101000a900460ff16611d6c576040517f08c379a0000000000000000000000000000000000000000000000000000000008152600401611d6390614398565b60405180910390fd5b600260008373ffffffffffffffffffffffffffffffffffffffff1673ffffffffffffffffffffffffffffffffffffffff168152602001908152602001600020805490508110611df0576040517f08c379a0000000000000000000000000000000000000000000000000000000008152600401611de79061449a565b60405180910390fd5b600560008373ffffffffffffffffffffffffffffffffffffffff1673ffffffffffffffffffffffffffffffffffffffff168152602001908152602001600020600082815260200190815260200160002060003373ffffffffffffffffffffffffffffffffffffffff1673ffffffffffffffffffffffffffffffffffffffff16815260200190815260200160002060009054906101000a900460ff1615611f0d57600260008373ffffffffffffffffffffffffffffffffffffffff1673ffffffffffffffffffffffffffffffffffffffff1681526020019081526020016000208181548110611ee157611ee061431d565b5b90600052602060002090600702016004016000815480929190611f0390614526565b9190505550611f86565b600260008373ffffffffffffffffffffffffffffffffffffffff1673ffffffffffffffffffffffffffffffffffffffff1681526020019081526020016000208181548110611f5e57611f5d61431d565b5b90600052602060002090600702016004016000815480929190611f80906141c5565b91905055505b600560008373ffffffffffffffffffffffffffffffffffffffff1673ffffffffffffffffffffffffffffffffffffffff168152602001908152602001600020600082815260200190815260200160002060003373ffffffffffffffffffffffffffffffffffffffff1673ffffffffffffffffffffffffffffffffffffffff16815260200190815260200160002060009054906101000a900460ff1615600560008473ffffffffffffffffffffffffffffffffffffffff1673ffffffffffffffffffffffffffffffffffffffff168152602001908152602001600020600083815260200190815260200160002060003373ffffffffffffffffffffffffffffffffffffffff1673ffffffffffffffffffffffffffffffffffffffff16815260200190815260200160002060006101000a81548160ff0219169083151502179055505050565b6060600160003373ffffffffffffffffffffffffffffffffffffffff1673ffffffffffffffffffffffffffffffffffffffff16815260200190815260200160002060009054906101000a900460ff16612158576040517f08c379a000000000000000000000000000000000000000000000000000000000815260040161214f90614398565b60405180910390fd5b60008060003373ffffffffffffffffffffffffffffffffffffffff1673ffffffffffffffffffffffffffffffffffffffff1681526020019081526020016000206040518060c00160405290816000820180546121b3906142eb565b80601f01602080910402602001604051908101604052809291908181526020018280546121df906142eb565b801561222c5780601f106122015761010080835404028352916020019161222c565b820191906000526020600020905b81548152906001019060200180831161220f57829003601f168201915b50505050508152602001600182018054612245906142eb565b80601f0160208091040260200160405190810160405280929190818152602001828054612271906142eb565b80156122be5780601f10612293576101008083540402835291602001916122be565b820191906000526020600020905b8154815290600101906020018083116122a157829003601f168201915b505050505081526020016002820160009054906101000a900473ffffffffffffffffffffffffffffffffffffffff1673ffffffffffffffffffffffffffffffffffffffff1673ffffffffffffffffffffffffffffffffffffffff16815260200160038201805461232d906142eb565b80601f0160208091040260200160405190810160405280929190818152602001828054612359906142eb565b80156123a65780601f1061237b576101008083540402835291602001916123a6565b820191906000526020600020905b81548152906001019060200180831161238957829003601f168201915b50505050508152602001600482015481526020016005820180548060200260200160405190810160405280929190818152602001828054801561243e57602002820191906000526020600020905b8160009054906101000a900473ffffffffffffffffffffffffffffffffffffffff1673ffffffffffffffffffffffffffffffffffffffff16815260200190600101908083116123f4575b50505050508152505090506000600260003373ffffffffffffffffffffffffffffffffffffffff1673ffffffffffffffffffffffffffffffffffffffff16815260200190815260200160002080549050905060005b8260a00151518110156125cf57600360003373ffffffffffffffffffffffffffffffffffffffff1673ffffffffffffffffffffffffffffffffffffffff16815260200190815260200160002060008460a0015183815181106124f8576124f761431d565b5b602002602001015173ffffffffffffffffffffffffffffffffffffffff1673ffffffffffffffffffffffffffffffffffffffff16815260200190815260200160002060009054906101000a900460ff16156125bc57600260008460a0015183815181106125685761256761431d565b5b602002602001015173ffffffffffffffffffffffffffffffffffffffff1673ffffffffffffffffffffffffffffffffffffffff16815260200190815260200160002080549050826125b99190614550565b91505b80806125c7906141c5565b915050612493565b5060008167ffffffffffffffff8111156125ec576125eb61355e565b5b60405190808252806020026020018201604052801561262557816020015b612612613451565b81526020019060019003908161260a5790505b5090506000805b600260003373ffffffffffffffffffffffffffffffffffffffff1673ffffffffffffffffffffffffffffffffffffffff16815260200190815260200160002080549050811015612a4357600260003373ffffffffffffffffffffffffffffffffffffffff1673ffffffffffffffffffffffffffffffffffffffff16815260200190815260200160002081815481106126c7576126c661431d565b5b90600052602060002090600702016040518060e0016040529081600082015481526020016001820160009054906101000a900473ffffffffffffffffffffffffffffffffffffffff1673ffffffffffffffffffffffffffffffffffffffff1673ffffffffffffffffffffffffffffffffffffffff168152602001600282018054612750906142eb565b80601f016020809104026020016040519081016040528092919081815260200182805461277c906142eb565b80156127c95780601f1061279e576101008083540402835291602001916127c9565b820191906000526020600020905b8154815290600101906020018083116127ac57829003601f168201915b50505050508152602001600382015481526020016004820154815260200160058201805480602002602001604051908101604052809291908181526020016000905b82821015612925578382906000526020600020906002020160405180604001604052908160008201805461283e906142eb565b80601f016020809104026020016040519081016040528092919081815260200182805461286a906142eb565b80156128b75780601f1061288c576101008083540402835291602001916128b7565b820191906000526020600020905b81548152906001019060200180831161289a57829003601f168201915b505050505081526020016001820160009054906101000a900473ffffffffffffffffffffffffffffffffffffffff1673ffffffffffffffffffffffffffffffffffffffff1673ffffffffffffffffffffffffffffffffffffffff16815250508152602001906001019061280b565b50505050815260200160068201805480602002602001604051908101604052809291908181526020016000905b828210156129fe578382906000526020600020018054612971906142eb565b80601f016020809104026020016040519081016040528092919081815260200182805461299d906142eb565b80156129ea5780601f106129bf576101008083540402835291602001916129ea565b820191906000526020600020905b8154815290600101906020018083116129cd57829003601f168201915b505050505081526020019060010190612952565b5050505081525050838380612a12906141c5565b945081518110612a2557612a2461431d565b5b60200260200101819052508080612a3b906141c5565b91505061262c565b5060005b8460a0015151811015612f6c57600360003373ffffffffffffffffffffffffffffffffffffffff1673ffffffffffffffffffffffffffffffffffffffff16815260200190815260200160002060008660a001518381518110612aac57612aab61431d565b5b602002602001015173ffffffffffffffffffffffffffffffffffffffff1673ffffffffffffffffffffffffffffffffffffffff16815260200190815260200160002060009054906101000a900460ff1615612f595760005b600260008760a001518481518110612b1f57612b1e61431d565b5b602002602001015173ffffffffffffffffffffffffffffffffffffffff1673ffffffffffffffffffffffffffffffffffffffff16815260200190815260200160002080549050811015612f5757600260008760a001518481518110612b8757612b8661431d565b5b602002602001015173ffffffffffffffffffffffffffffffffffffffff1673ffffffffffffffffffffffffffffffffffffffff1681526020019081526020016000208181548110612bdb57612bda61431d565b5b90600052602060002090600702016040518060e0016040529081600082015481526020016001820160009054906101000a900473ffffffffffffffffffffffffffffffffffffffff1673ffffffffffffffffffffffffffffffffffffffff1673ffffffffffffffffffffffffffffffffffffffff168152602001600282018054612c64906142eb565b80601f0160208091040260200160405190810160405280929190818152602001828054612c90906142eb565b8015612cdd5780601f10612cb257610100808354040283529160200191612cdd565b820191906000526020600020905b815481529060010190602001808311612cc057829003601f168201915b50505050508152602001600382015481526020016004820154815260200160058201805480602002602001604051908101604052809291908181526020016000905b82821015612e395783829060005260206000209060020201604051806040016040529081600082018054612d52906142eb565b80601f0160208091040260200160405190810160405280929190818152602001828054612d7e906142eb565b8015612dcb5780601f10612da057610100808354040283529160200191612dcb565b820191906000526020600020905b815481529060010190602001808311612dae57829003601f168201915b505050505081526020016001820160009054906101000a900473ffffffffffffffffffffffffffffffffffffffff1673ffffffffffffffffffffffffffffffffffffffff1673ffffffffffffffffffffffffffffffffffffffff168152505081526020019060010190612d1f565b50505050815260200160068201805480602002602001604051908101604052809291908181526020016000905b82821015612f12578382906000526020600020018054612e85906142eb565b80601f0160208091040260200160405190810160405280929190818152602001828054612eb1906142eb565b8015612efe5780601f10612ed357610100808354040283529160200191612efe565b820191906000526020600020905b815481529060010190602001808311612ee157829003601f168201915b505050505081526020019060010190612e66565b5050505081525050848480612f26906141c5565b955081518110612f3957612f3861431d565b5b60200260200101819052508080612f4f906141c5565b915050612b04565b505b8080612f64906141c5565b915050612a47565b5060005b600184612f7d91906145a6565b811015613082576000600182612f939190614550565b90505b8481101561306e57838181518110612fb157612fb061431d565b5b602002602001015160600151848381518110612fd057612fcf61431d565b5b602002602001015160600151101561305b576000848381518110612ff757612ff661431d565b5b602002602001015190508482815181106130145761301361431d565b5b602002602001015185848151811061302f5761302e61431d565b5b60200260200101819052508085838151811061304e5761304d61431d565b5b6020026020010181905250505b8080613066906141c5565b915050612f96565b50808061307a906141c5565b915050612f70565b508194505050505090565b613123816040516024016130a191906143c7565b6040516020818303038152906040527ff82c50f1000000000000000000000000000000000000000000000000000000007bffffffffffffffffffffffffffffffffffffffffffffffffffffffff19166020820180517bffffffffffffffffffffffffffffffffffffffffffffffffffffffff838183161783525050505061324c565b50565b6131b16040516024016040516020818303038152906040527f51973ec9000000000000000000000000000000000000000000000000000000007bffffffffffffffffffffffffffffffffffffffffffffffffffffffff19166020820180517bffffffffffffffffffffffffffffffffffffffffffffffffffffffff838183161783525050505061324c565b565b613249816040516024016131c7919061429a565b6040516020818303038152906040527f41304fac000000000000000000000000000000000000000000000000000000007bffffffffffffffffffffffffffffffffffffffffffffffffffffffff19166020820180517bffffffffffffffffffffffffffffffffffffffffffffffffffffffff838183161783525050505061324c565b50565b6132638161325b613266613287565b63ffffffff16565b50565b60006a636f6e736f6c652e6c6f679050600080835160208501845afa505050565b6134a4819050919050565b82805461329e906142eb565b90600052602060002090601f0160209004810192826132c05760008555613307565b82601f106132d957805160ff1916838001178555613307565b82800160010185558215613307579182015b828111156133065782518255916020019190600101906132eb565b5b50905061331491906134ae565b5090565b828054828255906000526020600020908101928215613391579160200282015b828111156133905782518260006101000a81548173ffffffffffffffffffffffffffffffffffffffff021916908373ffffffffffffffffffffffffffffffffffffffff16021790555091602001919060010190613338565b5b50905061339e91906134ae565b5090565b8280548282559060005260206000209081019282156133f1579160200282015b828111156133f05782518290805190602001906133e0929190613292565b50916020019190600101906133c2565b5b5090506133fe91906134cb565b5090565b6040518060c001604052806060815260200160608152602001600073ffffffffffffffffffffffffffffffffffffffff1681526020016060815260200160008019168152602001606081525090565b6040518060e0016040528060008152602001600073ffffffffffffffffffffffffffffffffffffffff16815260200160608152602001600081526020016000815260200160608152602001606081525090565b6134ac6145da565b565b5b808211156134c75760008160009055506001016134af565b5090565b5b808211156134eb57600081816134e291906134ef565b506001016134cc565b5090565b5080546134fb906142eb565b6000825580601f1061350d575061352c565b601f01602090049060005260206000209081019061352b91906134ae565b5b50565b6000604051905090565b600080fd5b600080fd5b600080fd5b600080fd5b6000601f19601f8301169050919050565b7f4e487b7100000000000000000000000000000000000000000000000000000000600052604160045260246000fd5b6135968261354d565b810181811067ffffffffffffffff821117156135b5576135b461355e565b5b80604052505050565b60006135c861352f565b90506135d4828261358d565b919050565b600067ffffffffffffffff8211156135f4576135f361355e565b5b6135fd8261354d565b9050602081019050919050565b82818337600083830152505050565b600061362c613627846135d9565b6135be565b90508281526020810184848401111561364857613647613548565b5b61365384828561360a565b509392505050565b600082601f8301126136705761366f613543565b5b8135613680848260208601613619565b91505092915050565b600080600080608085870312156136a3576136a2613539565b5b600085013567ffffffffffffffff8111156136c1576136c061353e565b5b6136cd8782880161365b565b945050602085013567ffffffffffffffff8111156136ee576136ed61353e565b5b6136fa8782880161365b565b935050604085013567ffffffffffffffff81111561371b5761371a61353e565b5b6137278782880161365b565b925050606085013567ffffffffffffffff8111156137485761374761353e565b5b6137548782880161365b565b91505092959194509250565b600081519050919050565b600082825260208201905092915050565b6000819050602082019050919050565b600073ffffffffffffffffffffffffffffffffffffffff82169050919050565b60006137b78261378c565b9050919050565b6137c7816137ac565b82525050565b60006137d983836137be565b60208301905092915050565b6000602082019050919050565b60006137fd82613760565b613807818561376b565b93506138128361377c565b8060005b8381101561384357815161382a88826137cd565b9750613835836137e5565b925050600181019050613816565b5085935050505092915050565b6000602082019050818103600083015261386a81846137f2565b905092915050565b600067ffffffffffffffff82111561388d5761388c61355e565b5b602082029050602081019050919050565b600080fd5b60006138b66138b184613872565b6135be565b905080838252602082019050602084028301858111156138d9576138d861389e565b5b835b8181101561392057803567ffffffffffffffff8111156138fe576138fd613543565b5b80860161390b898261365b565b855260208501945050506020810190506138db565b5050509392505050565b600082601f83011261393f5761393e613543565b5b813561394f8482602086016138a3565b91505092915050565b6000806040838503121561396f5761396e613539565b5b600083013567ffffffffffffffff81111561398d5761398c61353e565b5b6139998582860161365b565b925050602083013567ffffffffffffffff8111156139ba576139b961353e565b5b6139c68582860161392a565b9150509250929050565b6139d9816137ac565b81146139e457600080fd5b50565b6000813590506139f6816139d0565b92915050565b60008060408385031215613a1357613a12613539565b5b6000613a21858286016139e7565b9250506020613a32858286016139e7565b9150509250929050565b60008115159050919050565b613a5181613a3c565b82525050565b6000602082019050613a6c6000830184613a48565b92915050565b600060208284031215613a8857613a87613539565b5b6000613a96848285016139e7565b91505092915050565b600081519050919050565b600082825260208201905092915050565b60005b83811015613ad9578082015181840152602081019050613abe565b83811115613ae8576000848401525b50505050565b6000613af982613a9f565b613b038185613aaa565b9350613b13818560208601613abb565b613b1c8161354d565b840191505092915050565b6000819050919050565b613b3a81613b27565b82525050565b600082825260208201905092915050565b6000613b5c82613760565b613b668185613b40565b9350613b718361377c565b8060005b83811015613ba2578151613b8988826137cd565b9750613b94836137e5565b925050600181019050613b75565b5085935050505092915050565b600060c0830160008301518482036000860152613bcc8282613aee565b91505060208301518482036020860152613be68282613aee565b9150506040830151613bfb60408601826137be565b5060608301518482036060860152613c138282613aee565b9150506080830151613c286080860182613b31565b5060a083015184820360a0860152613c408282613b51565b9150508091505092915050565b60006020820190508181036000830152613c678184613baf565b905092915050565b600081519050919050565b600082825260208201905092915050565b6000819050602082019050919050565b6000819050919050565b613cae81613c9b565b82525050565b600081519050919050565b600082825260208201905092915050565b6000819050602082019050919050565b60006040830160008301518482036000860152613cfd8282613aee565b9150506020830151613d1260208601826137be565b508091505092915050565b6000613d298383613ce0565b905092915050565b6000602082019050919050565b6000613d4982613cb4565b613d538185613cbf565b935083602082028501613d6585613cd0565b8060005b85811015613da15784840389528151613d828582613d1d565b9450613d8d83613d31565b925060208a01995050600181019050613d69565b50829750879550505050505092915050565b600081519050919050565b600082825260208201905092915050565b6000819050602082019050919050565b6000613deb8383613aee565b905092915050565b6000602082019050919050565b6000613e0b82613db3565b613e158185613dbe565b935083602082028501613e2785613dcf565b8060005b85811015613e635784840389528151613e448582613ddf565b9450613e4f83613df3565b925060208a01995050600181019050613e2b565b50829750879550505050505092915050565b600060e083016000830151613e8d6000860182613ca5565b506020830151613ea060208601826137be565b5060408301518482036040860152613eb88282613aee565b9150506060830151613ecd6060860182613ca5565b506080830151613ee06080860182613ca5565b5060a083015184820360a0860152613ef88282613d3e565b91505060c083015184820360c0860152613f128282613e00565b9150508091505092915050565b6000613f2b8383613e75565b905092915050565b6000602082019050919050565b6000613f4b82613c6f565b613f558185613c7a565b935083602082028501613f6785613c8b565b8060005b85811015613fa35784840389528151613f848582613f1f565b9450613f8f83613f33565b925060208a01995050600181019050613f6b565b50829750879550505050505092915050565b60006020820190508181036000830152613fcf8184613f40565b905092915050565b613fe081613c9b565b8114613feb57600080fd5b50565b600081359050613ffd81613fd7565b92915050565b60008060006060848603121561401c5761401b613539565b5b600061402a868287016139e7565b935050602061403b86828701613fee565b925050604061404c868287016139e7565b9150509250925092565b600080600080608085870312156140705761406f613539565b5b600061407e878288016139e7565b945050602061408f87828801613fee565b935050604085013567ffffffffffffffff8111156140b0576140af61353e565b5b6140bc8782880161365b565b92505060606140cd878288016139e7565b91505092959194509250565b600080604083850312156140f0576140ef613539565b5b60006140fe858286016139e7565b925050602061410f85828601613fee565b9150509250929050565b600082825260208201905092915050565b7f5573657220616c72656164792072656769737465726564000000000000000000600082015250565b6000614160601783614119565b915061416b8261412a565b602082019050919050565b6000602082019050818103600083015261418f81614153565b9050919050565b7f4e487b7100000000000000000000000000000000000000000000000000000000600052601160045260246000fd5b60006141d082613c9b565b91507fffffffffffffffffffffffffffffffffffffffffffffffffffffffffffffffff82141561420357614202614196565b5b600182019050919050565b600081905092915050565b600061422482613a9f565b61422e818561420e565b935061423e818560208601613abb565b80840191505092915050565b60006142568284614219565b915081905092915050565b600061426c82613a9f565b6142768185614119565b9350614286818560208601613abb565b61428f8161354d565b840191505092915050565b600060208201905081810360008301526142b48184614261565b905092915050565b7f4e487b7100000000000000000000000000000000000000000000000000000000600052602260045260246000fd5b6000600282049050600182168061430357607f821691505b60208210811415614317576143166142bc565b5b50919050565b7f4e487b7100000000000000000000000000000000000000000000000000000000600052603260045260246000fd5b7f55736572206e6f74207265676973746572656400000000000000000000000000600082015250565b6000614382601383614119565b915061438d8261434c565b602082019050919050565b600060208201905081810360008301526143b181614375565b9050919050565b6143c181613c9b565b82525050565b60006020820190506143dc60008301846143b8565b92915050565b7f4e6f7468696e6720706f73746564207965740000000000000000000000000000600082015250565b6000614418601283614119565b9150614423826143e2565b602082019050919050565b600060208201905081810360008301526144478161440b565b9050919050565b7f496e76616c696420706f73742049440000000000000000000000000000000000600082015250565b6000614484600f83614119565b915061448f8261444e565b602082019050919050565b600060208201905081810360008301526144b381614477565b9050919050565b7f467269656e64206e6f7420726567697374657265640000000000000000000000600082015250565b60006144f0601583614119565b91506144fb826144ba565b602082019050919050565b6000602082019050818103600083015261451f816144e3565b9050919050565b600061453182613c9b565b9150600082141561454557614544614196565b5b600182039050919050565b600061455b82613c9b565b915061456683613c9b565b9250827fffffffffffffffffffffffffffffffffffffffffffffffffffffffffffffffff0382111561459b5761459a614196565b5b828201905092915050565b60006145b182613c9b565b91506145bc83613c9b565b9250828210156145cf576145ce614196565b5b828203905092915050565b7f4e487b7100000000000000000000000000000000000000000000000000000000600052605160045260246000fdfea2646970667358221220e6b3b29c9c7e3cf561db51ad2f5ff887109963053b9b198d02ec777bbee9aa3b64736f6c63430008090033",
  "linkReferences": {},
  "deployedLinkReferences": {}
}