{
  "_format": "hh-sol-artifact-1",
  "contractName": "Dacebook",
  "sourceName": "contracts/Dacebook.sol",
  "abi": [
    {
      "anonymous": false,
      "inputs": [
        {
          "indexed": true,
          "internalType": "address",
          "name": "user",
          "type": "address"
        },
        {
          "indexed": true,
          "internalType": "address",
          "name": "friend",
          "type": "address"
        },
        {
          "indexed": false,
          "internalType": "bool",
          "name": "isNowFriend",
          "type": "bool"
        }
      ],
      "name": "FriendshipToggled",
      "type": "event"
    },
    {
      "anonymous": false,
      "inputs": [
        {
          "indexed": true,
          "internalType": "address",
          "name": "sender",
          "type": "address"
        },
        {
          "indexed": true,
          "internalType": "address",
          "name": "receiver",
          "type": "address"
        },
        {
          "indexed": false,
          "internalType": "string",
          "name": "content",
          "type": "string"
        }
      ],
      "name": "NewMessage",
      "type": "event"
    },
    {
      "anonymous": false,
      "inputs": [
        {
          "indexed": true,
          "internalType": "address",
          "name": "author",
          "type": "address"
        },
        {
          "indexed": false,
          "internalType": "uint256",
          "name": "postId",
          "type": "uint256"
        }
      ],
      "name": "NewPost",
      "type": "event"
    },
    {
      "anonymous": false,
      "inputs": [
        {
          "indexed": true,
          "internalType": "address",
          "name": "author",
          "type": "address"
        },
        {
          "indexed": false,
          "internalType": "uint256",
          "name": "postId",
          "type": "uint256"
        }
      ],
      "name": "PostDeleted",
      "type": "event"
    },
    {
      "anonymous": false,
      "inputs": [
        {
          "indexed": true,
          "internalType": "address",
          "name": "user",
          "type": "address"
        },
        {
          "indexed": false,
          "internalType": "uint256",
          "name": "postId",
          "type": "uint256"
        },
        {
          "indexed": false,
          "internalType": "bool",
          "name": "liked",
          "type": "bool"
        }
      ],
      "name": "PostLiked",
      "type": "event"
    },
    {
      "anonymous": false,
      "inputs": [
        {
          "indexed": true,
          "internalType": "address",
          "name": "userAddress",
          "type": "address"
        },
        {
          "indexed": false,
          "internalType": "string",
          "name": "profilePic",
          "type": "string"
        },
        {
          "indexed": false,
          "internalType": "string",
          "name": "bio",
          "type": "string"
        }
      ],
      "name": "ProfileUpdated",
      "type": "event"
    },
    {
      "anonymous": false,
      "inputs": [
        {
          "indexed": true,
          "internalType": "address",
          "name": "userAddress",
          "type": "address"
        },
        {
          "indexed": false,
          "internalType": "string",
          "name": "name",
          "type": "string"
        }
      ],
      "name": "UserRegistered",
      "type": "event"
    },
    {
      "inputs": [
        {
          "internalType": "address",
          "name": "_author",
          "type": "address"
        },
        {
          "internalType": "uint256",
          "name": "_postId",
          "type": "uint256"
        },
        {
          "internalType": "string",
          "name": "_comment",
          "type": "string"
        }
      ],
      "name": "commentOnPost",
      "outputs": [],
      "stateMutability": "nonpayable",
      "type": "function"
    },
    {
      "inputs": [
        {
          "internalType": "string",
          "name": "_content",
          "type": "string"
        },
        {
          "internalType": "string[]",
          "name": "_uploads",
          "type": "string[]"
        }
      ],
      "name": "createPost",
      "outputs": [],
      "stateMutability": "nonpayable",
      "type": "function"
    },
    {
      "inputs": [
        {
          "internalType": "address",
          "name": "msg_sender",
          "type": "address"
        }
      ],
      "name": "getAllUsers",
      "outputs": [
        {
          "components": [
            {
              "internalType": "string",
              "name": "name",
              "type": "string"
            },
            {
              "internalType": "string",
              "name": "profilePic",
              "type": "string"
            },
            {
              "internalType": "address",
              "name": "userAddress",
              "type": "address"
            },
            {
              "internalType": "string",
              "name": "bio",
              "type": "string"
            },
            {
              "internalType": "bytes32",
              "name": "passwordHash",
              "type": "bytes32"
            },
            {
              "internalType": "address[]",
              "name": "friends",
              "type": "address[]"
            }
          ],
          "internalType": "struct Dacebook.User[]",
          "name": "",
          "type": "tuple[]"
        }
      ],
      "stateMutability": "view",
      "type": "function"
    },
    {
      "inputs": [
        {
          "internalType": "address",
          "name": "msg_sender",
          "type": "address"
        },
        {
          "internalType": "address",
          "name": "_with",
          "type": "address"
        }
      ],
      "name": "getConversation",
      "outputs": [
        {
          "components": [
            {
              "internalType": "address",
              "name": "sender",
              "type": "address"
            },
            {
              "internalType": "string",
              "name": "content",
              "type": "string"
            },
            {
              "internalType": "bool",
              "name": "file",
              "type": "bool"
            },
            {
              "internalType": "uint256",
              "name": "timestamp",
              "type": "uint256"
            }
          ],
          "internalType": "struct Dacebook.Message[]",
          "name": "sentMessages",
          "type": "tuple[]"
        },
        {
          "components": [
            {
              "internalType": "address",
              "name": "sender",
              "type": "address"
            },
            {
              "internalType": "string",
              "name": "content",
              "type": "string"
            },
            {
              "internalType": "bool",
              "name": "file",
              "type": "bool"
            },
            {
              "internalType": "uint256",
              "name": "timestamp",
              "type": "uint256"
            }
          ],
          "internalType": "struct Dacebook.Message[]",
          "name": "receivedMessages",
          "type": "tuple[]"
        }
      ],
      "stateMutability": "view",
      "type": "function"
    },
    {
      "inputs": [
        {
          "internalType": "address",
          "name": "msg_sender",
          "type": "address"
        }
      ],
      "name": "getFriends",
      "outputs": [
        {
          "internalType": "address[]",
          "name": "",
          "type": "address[]"
        }
      ],
      "stateMutability": "view",
      "type": "function"
    },
    {
      "inputs": [
        {
          "internalType": "address",
          "name": "_user",
          "type": "address"
        }
      ],
      "name": "getPostCount",
      "outputs": [
        {
          "internalType": "uint256",
          "name": "",
          "type": "uint256"
        }
      ],
      "stateMutability": "view",
      "type": "function"
    },
    {
      "inputs": [
        {
          "internalType": "address",
          "name": "_user",
          "type": "address"
        }
      ],
      "name": "getPosts",
      "outputs": [
        {
          "components": [
            {
              "internalType": "uint256",
              "name": "id",
              "type": "uint256"
            },
            {
              "components": [
                {
                  "internalType": "string",
                  "name": "name",
                  "type": "string"
                },
                {
                  "internalType": "string",
                  "name": "profilePic",
                  "type": "string"
                },
                {
                  "internalType": "address",
                  "name": "userAddress",
                  "type": "address"
                },
                {
                  "internalType": "string",
                  "name": "bio",
                  "type": "string"
                },
                {
                  "internalType": "bytes32",
                  "name": "passwordHash",
                  "type": "bytes32"
                },
                {
                  "internalType": "address[]",
                  "name": "friends",
                  "type": "address[]"
                }
              ],
              "internalType": "struct Dacebook.User",
              "name": "author",
              "type": "tuple"
            },
            {
              "internalType": "string",
              "name": "content",
              "type": "string"
            },
            {
              "internalType": "uint256",
              "name": "timestamp",
              "type": "uint256"
            },
            {
              "internalType": "uint256",
              "name": "likes",
              "type": "uint256"
            },
            {
              "components": [
                {
                  "internalType": "string",
                  "name": "text",
                  "type": "string"
                },
                {
                  "internalType": "address",
                  "name": "userAddress",
                  "type": "address"
                }
              ],
              "internalType": "struct Dacebook.Comment[]",
              "name": "comments",
              "type": "tuple[]"
            },
            {
              "internalType": "string[]",
              "name": "uploads",
              "type": "string[]"
            }
          ],
          "internalType": "struct Dacebook.Post[]",
          "name": "",
          "type": "tuple[]"
        }
      ],
      "stateMutability": "view",
      "type": "function"
    },
    {
      "inputs": [],
      "name": "getTotalPostCount",
      "outputs": [
        {
          "internalType": "uint256",
          "name": "",
          "type": "uint256"
        }
      ],
      "stateMutability": "view",
      "type": "function"
    },
    {
      "inputs": [
        {
          "internalType": "address",
          "name": "_user",
          "type": "address"
        }
      ],
      "name": "getUserPosts",
      "outputs": [
        {
          "components": [
            {
              "internalType": "uint256",
              "name": "id",
              "type": "uint256"
            },
            {
              "components": [
                {
                  "internalType": "string",
                  "name": "name",
                  "type": "string"
                },
                {
                  "internalType": "string",
                  "name": "profilePic",
                  "type": "string"
                },
                {
                  "internalType": "address",
                  "name": "userAddress",
                  "type": "address"
                },
                {
                  "internalType": "string",
                  "name": "bio",
                  "type": "string"
                },
                {
                  "internalType": "bytes32",
                  "name": "passwordHash",
                  "type": "bytes32"
                },
                {
                  "internalType": "address[]",
                  "name": "friends",
                  "type": "address[]"
                }
              ],
              "internalType": "struct Dacebook.User",
              "name": "author",
              "type": "tuple"
            },
            {
              "internalType": "string",
              "name": "content",
              "type": "string"
            },
            {
              "internalType": "uint256",
              "name": "timestamp",
              "type": "uint256"
            },
            {
              "internalType": "uint256",
              "name": "likes",
              "type": "uint256"
            },
            {
              "components": [
                {
                  "internalType": "string",
                  "name": "text",
                  "type": "string"
                },
                {
                  "internalType": "address",
                  "name": "userAddress",
                  "type": "address"
                }
              ],
              "internalType": "struct Dacebook.Comment[]",
              "name": "comments",
              "type": "tuple[]"
            },
            {
              "internalType": "string[]",
              "name": "uploads",
              "type": "string[]"
            }
          ],
          "internalType": "struct Dacebook.Post[]",
          "name": "",
          "type": "tuple[]"
        }
      ],
      "stateMutability": "view",
      "type": "function"
    },
    {
      "inputs": [
        {
          "internalType": "address",
          "name": "_user",
          "type": "address"
        }
      ],
      "name": "getUserProfile",
      "outputs": [
        {
          "components": [
            {
              "internalType": "string",
              "name": "name",
              "type": "string"
            },
            {
              "internalType": "string",
              "name": "profilePic",
              "type": "string"
            },
            {
              "internalType": "address",
              "name": "userAddress",
              "type": "address"
            },
            {
              "internalType": "string",
              "name": "bio",
              "type": "string"
            },
            {
              "internalType": "bytes32",
              "name": "passwordHash",
              "type": "bytes32"
            },
            {
              "internalType": "address[]",
              "name": "friends",
              "type": "address[]"
            }
          ],
          "internalType": "struct Dacebook.User",
          "name": "",
          "type": "tuple"
        }
      ],
      "stateMutability": "view",
      "type": "function"
    },
    {
      "inputs": [
        {
          "internalType": "address",
          "name": "",
          "type": "address"
        },
        {
          "internalType": "uint256",
          "name": "",
          "type": "uint256"
        },
        {
          "internalType": "address",
          "name": "",
          "type": "address"
        }
      ],
      "name": "isLiked",
      "outputs": [
        {
          "internalType": "bool",
          "name": "",
          "type": "bool"
        }
      ],
      "stateMutability": "view",
      "type": "function"
    },
    {
      "inputs": [
        {
          "internalType": "string",
          "name": "_name",
          "type": "string"
        },
        {
          "internalType": "string",
          "name": "_password",
          "type": "string"
        }
      ],
      "name": "register",
      "outputs": [],
      "stateMutability": "nonpayable",
      "type": "function"
    },
    {
      "inputs": [
        {
          "internalType": "address",
          "name": "_to",
          "type": "address"
        },
        {
          "internalType": "string",
          "name": "_content",
          "type": "string"
        },
        {
          "internalType": "bool",
          "name": "_file",
          "type": "bool"
        }
      ],
      "name": "sendMessage",
      "outputs": [],
      "stateMutability": "nonpayable",
      "type": "function"
    },
    {
      "inputs": [
        {
          "internalType": "address",
          "name": "_friend",
          "type": "address"
        }
      ],
      "name": "toggleFriend",
      "outputs": [],
      "stateMutability": "nonpayable",
      "type": "function"
    },
    {
      "inputs": [
        {
          "internalType": "address",
          "name": "_author",
          "type": "address"
        },
        {
          "internalType": "uint256",
          "name": "_postId",
          "type": "uint256"
        }
      ],
      "name": "toggleLikeonPost",
      "outputs": [],
      "stateMutability": "nonpayable",
      "type": "function"
    },
    {
      "inputs": [
        {
          "internalType": "string",
          "name": "_profilePic",
          "type": "string"
        },
        {
          "internalType": "string",
          "name": "_bio",
          "type": "string"
        }
      ],
      "name": "updateProfile",
      "outputs": [],
      "stateMutability": "nonpayable",
      "type": "function"
    }
  ],
  "bytecode": "0x6080604052600060075534801561001557600080fd5b50615f0d80620000266000396000f3fe608060405234801561001057600080fd5b50600436106101005760003560e01c8063987ee15611610097578063c9d3cc6a11610066578063c9d3cc6a146102f6578063d9806cd514610312578063db2598f01461032e578063efbe84691461034a57610100565b8063987ee156146102365780639a2194a914610266578063a4c7fafa14610296578063b0ed7a7f146102c657610100565b80634674f060116100d35780634674f0601461019e5780634caf9d0b146101ba57806352374f7a146101ea5780635cbb7caa1461020657610100565b8063012d18b91461010557806314b419c914610121578063375eed27146101515780633ffbd47f14610182575b600080fd5b61011f600480360381019061011a9190614a74565b610368565b005b61013b60048036038101906101369190614ae3565b6105dd565b6040516101489190614dcf565b60405180910390f35b61016b60048036038101906101669190614df1565b610a25565b604051610179929190614f80565b60405180910390f35b61019c60048036038101906101979190614fb7565b610df7565b005b6101b860048036038101906101b391906150bb565b61116f565b005b6101d460048036038101906101cf9190614ae3565b6116d7565b6040516101e19190615463565b60405180910390f35b61020460048036038101906101ff9190615566565b612bb6565b005b610220600480360381019061021b9190614ae3565b612ed1565b60405161022d919061564d565b60405180910390f35b610250600480360381019061024b9190614ae3565b61320e565b60405161025d919061570d565b60405180910390f35b610280600480360381019061027b9190614ae3565b613596565b60405161028d9190615463565b60405180910390f35b6102b060048036038101906102ab9190614ae3565b613c48565b6040516102bd919061573e565b60405180910390f35b6102e060048036038101906102db9190615759565b613d20565b6040516102ed91906157bb565b60405180910390f35b610310600480360381019061030b9190614fb7565b613d5c565b005b61032c60048036038101906103279190614ae3565b613ef7565b005b610348600480360381019061034391906157d6565b614130565b005b61035261451a565b60405161035f919061573e565b60405180910390f35b600160003373ffffffffffffffffffffffffffffffffffffffff1673ffffffffffffffffffffffffffffffffffffffff16815260200190815260200160002060009054906101000a900460ff166103f4576040517f08c379a00000000000000000000000000000000000000000000000000000000081526004016103eb90615873565b60405180910390fd5b600360008473ffffffffffffffffffffffffffffffffffffffff1673ffffffffffffffffffffffffffffffffffffffff168152602001908152602001600020805490508210610478576040517f08c379a000000000000000000000000000000000000000000000000000000000815260040161046f906158df565b60405180910390fd5b60008151116104bc576040517f08c379a00000000000000000000000000000000000000000000000000000000081526004016104b39061594b565b60405180910390fd5b600360008473ffffffffffffffffffffffffffffffffffffffff1673ffffffffffffffffffffffffffffffffffffffff168152602001908152602001600020828154811061050d5761050c61596b565b5b90600052602060002090600c0201600a0160405180604001604052808381526020013373ffffffffffffffffffffffffffffffffffffffff168152509080600181540180825580915050600190039060005260206000209060020201600090919091909150600082015181600001908051906020019061058e929190614524565b5060208201518160010160006101000a81548173ffffffffffffffffffffffffffffffffffffffff021916908373ffffffffffffffffffffffffffffffffffffffff1602179055505050505050565b60606000600880549050905060008167ffffffffffffffff81111561060557610604614949565b5b60405190808252806020026020018201604052801561063e57816020015b61062b6145aa565b8152602001906001900390816106235790505b50905060005b82811015610a1a578473ffffffffffffffffffffffffffffffffffffffff16600882815481106106775761067661596b565b5b9060005260206000200160009054906101000a900473ffffffffffffffffffffffffffffffffffffffff1673ffffffffffffffffffffffffffffffffffffffff1614610a0757600080600883815481106106d4576106d361596b565b5b9060005260206000200160009054906101000a900473ffffffffffffffffffffffffffffffffffffffff1673ffffffffffffffffffffffffffffffffffffffff1673ffffffffffffffffffffffffffffffffffffffff1681526020019081526020016000206040518060c0016040529081600082018054610754906159c9565b80601f0160208091040260200160405190810160405280929190818152602001828054610780906159c9565b80156107cd5780601f106107a2576101008083540402835291602001916107cd565b820191906000526020600020905b8154815290600101906020018083116107b057829003601f168201915b505050505081526020016001820180546107e6906159c9565b80601f0160208091040260200160405190810160405280929190818152602001828054610812906159c9565b801561085f5780601f106108345761010080835404028352916020019161085f565b820191906000526020600020905b81548152906001019060200180831161084257829003601f168201915b505050505081526020016002820160009054906101000a900473ffffffffffffffffffffffffffffffffffffffff1673ffffffffffffffffffffffffffffffffffffffff1673ffffffffffffffffffffffffffffffffffffffff1681526020016003820180546108ce906159c9565b80601f01602080910402602001604051908101604052809291908181526020018280546108fa906159c9565b80156109475780601f1061091c57610100808354040283529160200191610947565b820191906000526020600020905b81548152906001019060200180831161092a57829003601f168201915b5050505050815260200160048201548152602001600582018054806020026020016040519081016040528092919081815260200182805480156109df57602002820191906000526020600020905b8160009054906101000a900473ffffffffffffffffffffffffffffffffffffffff1673ffffffffffffffffffffffffffffffffffffffff1681526020019060010190808311610995575b5050505050815250508282815181106109fb576109fa61596b565b5b60200260200101819052505b8080610a1290615a2a565b915050610644565b508092505050919050565b606080600260008573ffffffffffffffffffffffffffffffffffffffff1673ffffffffffffffffffffffffffffffffffffffff16815260200190815260200160002060008473ffffffffffffffffffffffffffffffffffffffff1673ffffffffffffffffffffffffffffffffffffffff168152602001908152602001600020600201805480602002602001604051908101604052809291908181526020016000905b82821015610c0657838290600052602060002090600402016040518060800160405290816000820160009054906101000a900473ffffffffffffffffffffffffffffffffffffffff1673ffffffffffffffffffffffffffffffffffffffff1673ffffffffffffffffffffffffffffffffffffffff168152602001600182018054610b50906159c9565b80601f0160208091040260200160405190810160405280929190818152602001828054610b7c906159c9565b8015610bc95780601f10610b9e57610100808354040283529160200191610bc9565b820191906000526020600020905b815481529060010190602001808311610bac57829003601f168201915b505050505081526020016002820160009054906101000a900460ff1615151515815260200160038201548152505081526020019060010190610ac7565b505050509150600260008473ffffffffffffffffffffffffffffffffffffffff1673ffffffffffffffffffffffffffffffffffffffff16815260200190815260200160002060008573ffffffffffffffffffffffffffffffffffffffff1673ffffffffffffffffffffffffffffffffffffffff168152602001908152602001600020600201805480602002602001604051908101604052809291908181526020016000905b82821015610dea57838290600052602060002090600402016040518060800160405290816000820160009054906101000a900473ffffffffffffffffffffffffffffffffffffffff1673ffffffffffffffffffffffffffffffffffffffff1673ffffffffffffffffffffffffffffffffffffffff168152602001600182018054610d34906159c9565b80601f0160208091040260200160405190810160405280929190818152602001828054610d60906159c9565b8015610dad5780601f10610d8257610100808354040283529160200191610dad565b820191906000526020600020905b815481529060010190602001808311610d9057829003601f168201915b505050505081526020016002820160009054906101000a900460ff1615151515815260200160038201548152505081526020019060010190610cab565b5050505090509250929050565b600160003373ffffffffffffffffffffffffffffffffffffffff1673ffffffffffffffffffffffffffffffffffffffff16815260200190815260200160002060009054906101000a900460ff1615610e84576040517f08c379a0000000000000000000000000000000000000000000000000000000008152600401610e7b90615abf565b60405180910390fd5b6040518060c001604052808381526020016040518060800160405280605e8152602001615e7a605e913981526020013373ffffffffffffffffffffffffffffffffffffffff16815260200160405180602001604052806000815250815260200182604051602001610ef59190615b1b565b604051602081830303815290604052805190602001208152602001600067ffffffffffffffff811115610f2b57610f2a614949565b5b604051908082528060200260200182016040528015610f595781602001602082028036833780820191505090505b508152506000803373ffffffffffffffffffffffffffffffffffffffff1673ffffffffffffffffffffffffffffffffffffffff1681526020019081526020016000206000820151816000019080519060200190610fb7929190614524565b506020820151816001019080519060200190610fd4929190614524565b5060408201518160020160006101000a81548173ffffffffffffffffffffffffffffffffffffffff021916908373ffffffffffffffffffffffffffffffffffffffff1602179055506060820151816003019080519060200190611038929190614524565b506080820151816004015560a082015181600501908051906020019061105f9291906145f9565b5090505060018060003373ffffffffffffffffffffffffffffffffffffffff1673ffffffffffffffffffffffffffffffffffffffff16815260200190815260200160002060006101000a81548160ff0219169083151502179055506008339080600181540180825580915050600190039060005260206000200160009091909190916101000a81548173ffffffffffffffffffffffffffffffffffffffff021916908373ffffffffffffffffffffffffffffffffffffffff1602179055503373ffffffffffffffffffffffffffffffffffffffff167f48cac28ad4dc618e15f4c2dd5e97751182f166de97b25618318b2112aa951a2f836040516111639190615b6b565b60405180910390a25050565b600160008573ffffffffffffffffffffffffffffffffffffffff1673ffffffffffffffffffffffffffffffffffffffff16815260200190815260200160002060009054906101000a900460ff166111fb576040517f08c379a00000000000000000000000000000000000000000000000000000000081526004016111f290615bd9565b60405180910390fd5b60008383905011611241576040517f08c379a000000000000000000000000000000000000000000000000000000000815260040161123890615c45565b60405180910390fd5b600060405180608001604052803373ffffffffffffffffffffffffffffffffffffffff16815260200185858080601f016020809104026020016040519081016040528093929190818152602001838380828437600081840152601f19601f82011690508083019250505050505050815260200183151581526020014281525090506001600460003373ffffffffffffffffffffffffffffffffffffffff1673ffffffffffffffffffffffffffffffffffffffff16815260200190815260200160002060008773ffffffffffffffffffffffffffffffffffffffff1673ffffffffffffffffffffffffffffffffffffffff16815260200190815260200160002060006101000a81548160ff0219169083151502179055506001600460008773ffffffffffffffffffffffffffffffffffffffff1673ffffffffffffffffffffffffffffffffffffffff16815260200190815260200160002060003373ffffffffffffffffffffffffffffffffffffffff1673ffffffffffffffffffffffffffffffffffffffff16815260200190815260200160002060006101000a81548160ff0219169083151502179055506000803373ffffffffffffffffffffffffffffffffffffffff1673ffffffffffffffffffffffffffffffffffffffff168152602001908152602001600020600501859080600181540180825580915050600190039060005260206000200160009091909190916101000a81548173ffffffffffffffffffffffffffffffffffffffff021916908373ffffffffffffffffffffffffffffffffffffffff1602179055506000808673ffffffffffffffffffffffffffffffffffffffff1673ffffffffffffffffffffffffffffffffffffffff168152602001908152602001600020600501339080600181540180825580915050600190039060005260206000200160009091909190916101000a81548173ffffffffffffffffffffffffffffffffffffffff021916908373ffffffffffffffffffffffffffffffffffffffff160217905550600260003373ffffffffffffffffffffffffffffffffffffffff1673ffffffffffffffffffffffffffffffffffffffff16815260200190815260200160002060008673ffffffffffffffffffffffffffffffffffffffff1673ffffffffffffffffffffffffffffffffffffffff16815260200190815260200160002060020181908060018154018082558091505060019003906000526020600020906004020160009091909190915060008201518160000160006101000a81548173ffffffffffffffffffffffffffffffffffffffff021916908373ffffffffffffffffffffffffffffffffffffffff160217905550602082015181600101908051906020019061163c929190614524565b5060408201518160020160006101000a81548160ff0219169083151502179055506060820151816003015550508473ffffffffffffffffffffffffffffffffffffffff163373ffffffffffffffffffffffffffffffffffffffff167fc0e964a89ae4af54eaf553b02f07849ce6ddc028e52aec665236032bdd33a52286866040516116c8929190615c92565b60405180910390a35050505050565b6060600160008373ffffffffffffffffffffffffffffffffffffffff1673ffffffffffffffffffffffffffffffffffffffff16815260200190815260200160002060009054906101000a900460ff16611765576040517f08c379a000000000000000000000000000000000000000000000000000000000815260040161175c90615873565b60405180910390fd5b60008060008473ffffffffffffffffffffffffffffffffffffffff1673ffffffffffffffffffffffffffffffffffffffff1681526020019081526020016000206040518060c00160405290816000820180546117c0906159c9565b80601f01602080910402602001604051908101604052809291908181526020018280546117ec906159c9565b80156118395780601f1061180e57610100808354040283529160200191611839565b820191906000526020600020905b81548152906001019060200180831161181c57829003601f168201915b50505050508152602001600182018054611852906159c9565b80601f016020809104026020016040519081016040528092919081815260200182805461187e906159c9565b80156118cb5780601f106118a0576101008083540402835291602001916118cb565b820191906000526020600020905b8154815290600101906020018083116118ae57829003601f168201915b505050505081526020016002820160009054906101000a900473ffffffffffffffffffffffffffffffffffffffff1673ffffffffffffffffffffffffffffffffffffffff1673ffffffffffffffffffffffffffffffffffffffff16815260200160038201805461193a906159c9565b80601f0160208091040260200160405190810160405280929190818152602001828054611966906159c9565b80156119b35780601f10611988576101008083540402835291602001916119b3565b820191906000526020600020905b81548152906001019060200180831161199657829003601f168201915b505050505081526020016004820154815260200160058201805480602002602001604051908101604052809291908181526020018280548015611a4b57602002820191906000526020600020905b8160009054906101000a900473ffffffffffffffffffffffffffffffffffffffff1673ffffffffffffffffffffffffffffffffffffffff1681526020019060010190808311611a01575b50505050508152505090506000600360008573ffffffffffffffffffffffffffffffffffffffff1673ffffffffffffffffffffffffffffffffffffffff16815260200190815260200160002080549050905060005b8260a0015151811015611bdc57600460008673ffffffffffffffffffffffffffffffffffffffff1673ffffffffffffffffffffffffffffffffffffffff16815260200190815260200160002060008460a001518381518110611b0557611b0461596b565b5b602002602001015173ffffffffffffffffffffffffffffffffffffffff1673ffffffffffffffffffffffffffffffffffffffff16815260200190815260200160002060009054906101000a900460ff1615611bc957600360008460a001518381518110611b7557611b7461596b565b5b602002602001015173ffffffffffffffffffffffffffffffffffffffff1673ffffffffffffffffffffffffffffffffffffffff1681526020019081526020016000208054905082611bc69190615cb6565b91505b8080611bd490615a2a565b915050611aa0565b5060008167ffffffffffffffff811115611bf957611bf8614949565b5b604051908082528060200260200182016040528015611c3257816020015b611c1f614683565b815260200190600190039081611c175790505b5090506000805b600360008873ffffffffffffffffffffffffffffffffffffffff1673ffffffffffffffffffffffffffffffffffffffff168152602001908152602001600020805490508110156122b257600360008873ffffffffffffffffffffffffffffffffffffffff1673ffffffffffffffffffffffffffffffffffffffff1681526020019081526020016000208181548110611cd457611cd361596b565b5b90600052602060002090600c02016040518060e001604052908160008201548152602001600182016040518060c0016040529081600082018054611d17906159c9565b80601f0160208091040260200160405190810160405280929190818152602001828054611d43906159c9565b8015611d905780601f10611d6557610100808354040283529160200191611d90565b820191906000526020600020905b815481529060010190602001808311611d7357829003601f168201915b50505050508152602001600182018054611da9906159c9565b80601f0160208091040260200160405190810160405280929190818152602001828054611dd5906159c9565b8015611e225780601f10611df757610100808354040283529160200191611e22565b820191906000526020600020905b815481529060010190602001808311611e0557829003601f168201915b505050505081526020016002820160009054906101000a900473ffffffffffffffffffffffffffffffffffffffff1673ffffffffffffffffffffffffffffffffffffffff1673ffffffffffffffffffffffffffffffffffffffff168152602001600382018054611e91906159c9565b80601f0160208091040260200160405190810160405280929190818152602001828054611ebd906159c9565b8015611f0a5780601f10611edf57610100808354040283529160200191611f0a565b820191906000526020600020905b815481529060010190602001808311611eed57829003601f168201915b505050505081526020016004820154815260200160058201805480602002602001604051908101604052809291908181526020018280548015611fa257602002820191906000526020600020905b8160009054906101000a900473ffffffffffffffffffffffffffffffffffffffff1673ffffffffffffffffffffffffffffffffffffffff1681526020019060010190808311611f58575b5050505050815250508152602001600782018054611fbf906159c9565b80601f0160208091040260200160405190810160405280929190818152602001828054611feb906159c9565b80156120385780601f1061200d57610100808354040283529160200191612038565b820191906000526020600020905b81548152906001019060200180831161201b57829003601f168201915b505050505081526020016008820154815260200160098201548152602001600a8201805480602002602001604051908101604052809291908181526020016000905b8282101561219457838290600052602060002090600202016040518060400160405290816000820180546120ad906159c9565b80601f01602080910402602001604051908101604052809291908181526020018280546120d9906159c9565b80156121265780601f106120fb57610100808354040283529160200191612126565b820191906000526020600020905b81548152906001019060200180831161210957829003601f168201915b505050505081526020016001820160009054906101000a900473ffffffffffffffffffffffffffffffffffffffff1673ffffffffffffffffffffffffffffffffffffffff1673ffffffffffffffffffffffffffffffffffffffff16815250508152602001906001019061207a565b505050508152602001600b8201805480602002602001604051908101604052809291908181526020016000905b8282101561226d5783829060005260206000200180546121e0906159c9565b80601f016020809104026020016040519081016040528092919081815260200182805461220c906159c9565b80156122595780601f1061222e57610100808354040283529160200191612259565b820191906000526020600020905b81548152906001019060200180831161223c57829003601f168201915b5050505050815260200190600101906121c1565b505050508152505083838061228190615a2a565b9450815181106122945761229361596b565b5b602002602001018190525080806122aa90615a2a565b915050611c39565b5060005b8460a0015151811015612a9357600460008873ffffffffffffffffffffffffffffffffffffffff1673ffffffffffffffffffffffffffffffffffffffff16815260200190815260200160002060008660a00151838151811061231b5761231a61596b565b5b602002602001015173ffffffffffffffffffffffffffffffffffffffff1673ffffffffffffffffffffffffffffffffffffffff16815260200190815260200160002060009054906101000a900460ff1680156123c157508673ffffffffffffffffffffffffffffffffffffffff168560a0015182815181106123a05761239f61596b565b5b602002602001015173ffffffffffffffffffffffffffffffffffffffff1614155b15612a805760005b600360008760a0015184815181106123e4576123e361596b565b5b602002602001015173ffffffffffffffffffffffffffffffffffffffff1673ffffffffffffffffffffffffffffffffffffffff16815260200190815260200160002080549050811015612a7e57600360008760a00151848151811061244c5761244b61596b565b5b602002602001015173ffffffffffffffffffffffffffffffffffffffff1673ffffffffffffffffffffffffffffffffffffffff16815260200190815260200160002081815481106124a05761249f61596b565b5b90600052602060002090600c02016040518060e001604052908160008201548152602001600182016040518060c00160405290816000820180546124e3906159c9565b80601f016020809104026020016040519081016040528092919081815260200182805461250f906159c9565b801561255c5780601f106125315761010080835404028352916020019161255c565b820191906000526020600020905b81548152906001019060200180831161253f57829003601f168201915b50505050508152602001600182018054612575906159c9565b80601f01602080910402602001604051908101604052809291908181526020018280546125a1906159c9565b80156125ee5780601f106125c3576101008083540402835291602001916125ee565b820191906000526020600020905b8154815290600101906020018083116125d157829003601f168201915b505050505081526020016002820160009054906101000a900473ffffffffffffffffffffffffffffffffffffffff1673ffffffffffffffffffffffffffffffffffffffff1673ffffffffffffffffffffffffffffffffffffffff16815260200160038201805461265d906159c9565b80601f0160208091040260200160405190810160405280929190818152602001828054612689906159c9565b80156126d65780601f106126ab576101008083540402835291602001916126d6565b820191906000526020600020905b8154815290600101906020018083116126b957829003601f168201915b50505050508152602001600482015481526020016005820180548060200260200160405190810160405280929190818152602001828054801561276e57602002820191906000526020600020905b8160009054906101000a900473ffffffffffffffffffffffffffffffffffffffff1673ffffffffffffffffffffffffffffffffffffffff1681526020019060010190808311612724575b505050505081525050815260200160078201805461278b906159c9565b80601f01602080910402602001604051908101604052809291908181526020018280546127b7906159c9565b80156128045780601f106127d957610100808354040283529160200191612804565b820191906000526020600020905b8154815290600101906020018083116127e757829003601f168201915b505050505081526020016008820154815260200160098201548152602001600a8201805480602002602001604051908101604052809291908181526020016000905b828210156129605783829060005260206000209060020201604051806040016040529081600082018054612879906159c9565b80601f01602080910402602001604051908101604052809291908181526020018280546128a5906159c9565b80156128f25780601f106128c7576101008083540402835291602001916128f2565b820191906000526020600020905b8154815290600101906020018083116128d557829003601f168201915b505050505081526020016001820160009054906101000a900473ffffffffffffffffffffffffffffffffffffffff1673ffffffffffffffffffffffffffffffffffffffff1673ffffffffffffffffffffffffffffffffffffffff168152505081526020019060010190612846565b505050508152602001600b8201805480602002602001604051908101604052809291908181526020016000905b82821015612a395783829060005260206000200180546129ac906159c9565b80601f01602080910402602001604051908101604052809291908181526020018280546129d8906159c9565b8015612a255780601f106129fa57610100808354040283529160200191612a25565b820191906000526020600020905b815481529060010190602001808311612a0857829003601f168201915b50505050508152602001906001019061298d565b5050505081525050848480612a4d90615a2a565b955081518110612a6057612a5f61596b565b5b60200260200101819052508080612a7690615a2a565b9150506123c9565b505b8080612a8b90615a2a565b9150506122b6565b5060005b600184612aa49190615d0c565b811015612ba9576000600182612aba9190615cb6565b90505b84811015612b9557838181518110612ad857612ad761596b565b5b602002602001015160600151848381518110612af757612af661596b565b5b6020026020010151606001511015612b82576000848381518110612b1e57612b1d61596b565b5b60200260200101519050848281518110612b3b57612b3a61596b565b5b6020026020010151858481518110612b5657612b5561596b565b5b602002602001018190525080858381518110612b7557612b7461596b565b5b6020026020010181905250505b8080612b8d90615a2a565b915050612abd565b508080612ba190615a2a565b915050612a97565b5081945050505050919050565b600160003373ffffffffffffffffffffffffffffffffffffffff1673ffffffffffffffffffffffffffffffffffffffff16815260200190815260200160002060009054906101000a900460ff16612c42576040517f08c379a0000000000000000000000000000000000000000000000000000000008152600401612c3990615873565b60405180910390fd5b6000600360003373ffffffffffffffffffffffffffffffffffffffff1673ffffffffffffffffffffffffffffffffffffffff1681526020019081526020016000208054905090506000600360003373ffffffffffffffffffffffffffffffffffffffff1673ffffffffffffffffffffffffffffffffffffffff1681526020019081526020016000206001816001815401808255809150500390600052602060002090600c020190508181600001819055506000803373ffffffffffffffffffffffffffffffffffffffff1673ffffffffffffffffffffffffffffffffffffffff168152602001908152602001600020816001016000820181600001908054612d49906159c9565b612d549291906146c6565b506001820181600101908054612d69906159c9565b612d749291906146c6565b506002820160009054906101000a900473ffffffffffffffffffffffffffffffffffffffff168160020160006101000a81548173ffffffffffffffffffffffffffffffffffffffff021916908373ffffffffffffffffffffffffffffffffffffffff1602179055506003820181600301908054612df0906159c9565b612dfb9291906146c6565b50600482015481600401556005820181600501908054612e1c929190614753565b5090505083816007019080519060200190612e38929190614524565b50428160080181905550600081600901819055508281600b019080519060200190612e649291906147a5565b5060076000815480929190612e7890615a2a565b91905055503373ffffffffffffffffffffffffffffffffffffffff167f227d44868fd91794465aa9733e53308aaf7503a80920f790d5060691fe03a3e783604051612ec3919061573e565b60405180910390a250505050565b606060008060008473ffffffffffffffffffffffffffffffffffffffff1673ffffffffffffffffffffffffffffffffffffffff168152602001908152602001600020600501805480602002602001604051908101604052809291908181526020018280548015612f9657602002820191906000526020600020905b8160009054906101000a900473ffffffffffffffffffffffffffffffffffffffff1673ffffffffffffffffffffffffffffffffffffffff1681526020019060010190808311612f4c575b505050505090506000805b825181101561307557600460008673ffffffffffffffffffffffffffffffffffffffff1673ffffffffffffffffffffffffffffffffffffffff1681526020019081526020016000206000848381518110612ffe57612ffd61596b565b5b602002602001015173ffffffffffffffffffffffffffffffffffffffff1673ffffffffffffffffffffffffffffffffffffffff16815260200190815260200160002060009054906101000a900460ff161561306257818061305e90615a2a565b9250505b808061306d90615a2a565b915050612fa1565b5060008167ffffffffffffffff81111561309257613091614949565b5b6040519080825280602002602001820160405280156130c05781602001602082028036833780820191505090505b5090506000805b845181101561320157600460008873ffffffffffffffffffffffffffffffffffffffff1673ffffffffffffffffffffffffffffffffffffffff16815260200190815260200160002060008683815181106131245761312361596b565b5b602002602001015173ffffffffffffffffffffffffffffffffffffffff1673ffffffffffffffffffffffffffffffffffffffff16815260200190815260200160002060009054906101000a900460ff16156131ee5784818151811061318c5761318b61596b565b5b60200260200101518383806131a090615a2a565b9450815181106131b3576131b261596b565b5b602002602001019073ffffffffffffffffffffffffffffffffffffffff16908173ffffffffffffffffffffffffffffffffffffffff16815250505b80806131f990615a2a565b9150506130c7565b5081945050505050919050565b6132166145aa565b600160008373ffffffffffffffffffffffffffffffffffffffff1673ffffffffffffffffffffffffffffffffffffffff16815260200190815260200160002060009054906101000a900460ff166132a2576040517f08c379a000000000000000000000000000000000000000000000000000000000815260040161329990615873565b60405180910390fd5b6000808373ffffffffffffffffffffffffffffffffffffffff1673ffffffffffffffffffffffffffffffffffffffff1681526020019081526020016000206040518060c00160405290816000820180546132fb906159c9565b80601f0160208091040260200160405190810160405280929190818152602001828054613327906159c9565b80156133745780601f1061334957610100808354040283529160200191613374565b820191906000526020600020905b81548152906001019060200180831161335757829003601f168201915b5050505050815260200160018201805461338d906159c9565b80601f01602080910402602001604051908101604052809291908181526020018280546133b9906159c9565b80156134065780601f106133db57610100808354040283529160200191613406565b820191906000526020600020905b8154815290600101906020018083116133e957829003601f168201915b505050505081526020016002820160009054906101000a900473ffffffffffffffffffffffffffffffffffffffff1673ffffffffffffffffffffffffffffffffffffffff1673ffffffffffffffffffffffffffffffffffffffff168152602001600382018054613475906159c9565b80601f01602080910402602001604051908101604052809291908181526020018280546134a1906159c9565b80156134ee5780601f106134c3576101008083540402835291602001916134ee565b820191906000526020600020905b8154815290600101906020018083116134d157829003601f168201915b50505050508152602001600482015481526020016005820180548060200260200160405190810160405280929190818152602001828054801561358657602002820191906000526020600020905b8160009054906101000a900473ffffffffffffffffffffffffffffffffffffffff1673ffffffffffffffffffffffffffffffffffffffff168152602001906001019080831161353c575b5050505050815250509050919050565b6060600160008373ffffffffffffffffffffffffffffffffffffffff1673ffffffffffffffffffffffffffffffffffffffff16815260200190815260200160002060009054906101000a900460ff16613624576040517f08c379a000000000000000000000000000000000000000000000000000000000815260040161361b90615873565b60405180910390fd5b600360008373ffffffffffffffffffffffffffffffffffffffff1673ffffffffffffffffffffffffffffffffffffffff168152602001908152602001600020805480602002602001604051908101604052809291908181526020016000905b82821015613c3d57838290600052602060002090600c02016040518060e001604052908160008201548152602001600182016040518060c00160405290816000820180546136d0906159c9565b80601f01602080910402602001604051908101604052809291908181526020018280546136fc906159c9565b80156137495780601f1061371e57610100808354040283529160200191613749565b820191906000526020600020905b81548152906001019060200180831161372c57829003601f168201915b50505050508152602001600182018054613762906159c9565b80601f016020809104026020016040519081016040528092919081815260200182805461378e906159c9565b80156137db5780601f106137b0576101008083540402835291602001916137db565b820191906000526020600020905b8154815290600101906020018083116137be57829003601f168201915b505050505081526020016002820160009054906101000a900473ffffffffffffffffffffffffffffffffffffffff1673ffffffffffffffffffffffffffffffffffffffff1673ffffffffffffffffffffffffffffffffffffffff16815260200160038201805461384a906159c9565b80601f0160208091040260200160405190810160405280929190818152602001828054613876906159c9565b80156138c35780601f10613898576101008083540402835291602001916138c3565b820191906000526020600020905b8154815290600101906020018083116138a657829003601f168201915b50505050508152602001600482015481526020016005820180548060200260200160405190810160405280929190818152602001828054801561395b57602002820191906000526020600020905b8160009054906101000a900473ffffffffffffffffffffffffffffffffffffffff1673ffffffffffffffffffffffffffffffffffffffff1681526020019060010190808311613911575b5050505050815250508152602001600782018054613978906159c9565b80601f01602080910402602001604051908101604052809291908181526020018280546139a4906159c9565b80156139f15780601f106139c6576101008083540402835291602001916139f1565b820191906000526020600020905b8154815290600101906020018083116139d457829003601f168201915b505050505081526020016008820154815260200160098201548152602001600a8201805480602002602001604051908101604052809291908181526020016000905b82821015613b4d5783829060005260206000209060020201604051806040016040529081600082018054613a66906159c9565b80601f0160208091040260200160405190810160405280929190818152602001828054613a92906159c9565b8015613adf5780601f10613ab457610100808354040283529160200191613adf565b820191906000526020600020905b815481529060010190602001808311613ac257829003601f168201915b505050505081526020016001820160009054906101000a900473ffffffffffffffffffffffffffffffffffffffff1673ffffffffffffffffffffffffffffffffffffffff1673ffffffffffffffffffffffffffffffffffffffff168152505081526020019060010190613a33565b505050508152602001600b8201805480602002602001604051908101604052809291908181526020016000905b82821015613c26578382906000526020600020018054613b99906159c9565b80601f0160208091040260200160405190810160405280929190818152602001828054613bc5906159c9565b8015613c125780601f10613be757610100808354040283529160200191613c12565b820191906000526020600020905b815481529060010190602001808311613bf557829003601f168201915b505050505081526020019060010190613b7a565b505050508152505081526020019060010190613683565b505050509050919050565b6000600160008373ffffffffffffffffffffffffffffffffffffffff1673ffffffffffffffffffffffffffffffffffffffff16815260200190815260200160002060009054906101000a900460ff16613cd6576040517f08c379a0000000000000000000000000000000000000000000000000000000008152600401613ccd90615873565b60405180910390fd5b600360008373ffffffffffffffffffffffffffffffffffffffff1673ffffffffffffffffffffffffffffffffffffffff168152602001908152602001600020805490509050919050565b6005602052826000526040600020602052816000526040600020602052806000526040600020600092509250509054906101000a900460ff1681565b600160003373ffffffffffffffffffffffffffffffffffffffff1673ffffffffffffffffffffffffffffffffffffffff16815260200190815260200160002060009054906101000a900460ff16613de8576040517f08c379a0000000000000000000000000000000000000000000000000000000008152600401613ddf90615873565b60405180910390fd5b61010081511115613e2e576040517f08c379a0000000000000000000000000000000000000000000000000000000008152600401613e2590615d8c565b60405180910390fd5b60008060003373ffffffffffffffffffffffffffffffffffffffff1673ffffffffffffffffffffffffffffffffffffffff168152602001908152602001600020905082816001019080519060200190613e88929190614524565b5081816003019080519060200190613ea1929190614524565b503373ffffffffffffffffffffffffffffffffffffffff167f6eb3a1c6a4675ba92d44e090515b1ceea358f26565d2854df0c99c3f5eaf98508484604051613eea929190615dac565b60405180910390a2505050565b600160003373ffffffffffffffffffffffffffffffffffffffff1673ffffffffffffffffffffffffffffffffffffffff16815260200190815260200160002060009054906101000a900460ff16613f83576040517f08c379a0000000000000000000000000000000000000000000000000000000008152600401613f7a90615873565b60405180910390fd5b600160008273ffffffffffffffffffffffffffffffffffffffff1673ffffffffffffffffffffffffffffffffffffffff16815260200190815260200160002060009054906101000a900460ff1661400f576040517f08c379a000000000000000000000000000000000000000000000000000000000815260040161400690615e2f565b60405180910390fd5b600460003373ffffffffffffffffffffffffffffffffffffffff1673ffffffffffffffffffffffffffffffffffffffff16815260200190815260200160002060008273ffffffffffffffffffffffffffffffffffffffff1673ffffffffffffffffffffffffffffffffffffffff16815260200190815260200160002060009054906101000a900460ff1615600460003373ffffffffffffffffffffffffffffffffffffffff1673ffffffffffffffffffffffffffffffffffffffff16815260200190815260200160002060008373ffffffffffffffffffffffffffffffffffffffff1673ffffffffffffffffffffffffffffffffffffffff16815260200190815260200160002060006101000a81548160ff02191690831515021790555050565b600160003373ffffffffffffffffffffffffffffffffffffffff1673ffffffffffffffffffffffffffffffffffffffff16815260200190815260200160002060009054906101000a900460ff166141bc576040517f08c379a00000000000000000000000000000000000000000000000000000000081526004016141b390615873565b60405180910390fd5b600360008373ffffffffffffffffffffffffffffffffffffffff1673ffffffffffffffffffffffffffffffffffffffff168152602001908152602001600020805490508110614240576040517f08c379a0000000000000000000000000000000000000000000000000000000008152600401614237906158df565b60405180910390fd5b600560008373ffffffffffffffffffffffffffffffffffffffff1673ffffffffffffffffffffffffffffffffffffffff168152602001908152602001600020600082815260200190815260200160002060003373ffffffffffffffffffffffffffffffffffffffff1673ffffffffffffffffffffffffffffffffffffffff16815260200190815260200160002060009054906101000a900460ff161561435d57600360008373ffffffffffffffffffffffffffffffffffffffff1673ffffffffffffffffffffffffffffffffffffffff16815260200190815260200160002081815481106143315761433061596b565b5b90600052602060002090600c0201600901600081548092919061435390615e4f565b91905055506143d6565b600360008373ffffffffffffffffffffffffffffffffffffffff1673ffffffffffffffffffffffffffffffffffffffff16815260200190815260200160002081815481106143ae576143ad61596b565b5b90600052602060002090600c020160090160008154809291906143d090615a2a565b91905055505b600560008373ffffffffffffffffffffffffffffffffffffffff1673ffffffffffffffffffffffffffffffffffffffff168152602001908152602001600020600082815260200190815260200160002060003373ffffffffffffffffffffffffffffffffffffffff1673ffffffffffffffffffffffffffffffffffffffff16815260200190815260200160002060009054906101000a900460ff1615600560008473ffffffffffffffffffffffffffffffffffffffff1673ffffffffffffffffffffffffffffffffffffffff168152602001908152602001600020600083815260200190815260200160002060003373ffffffffffffffffffffffffffffffffffffffff1673ffffffffffffffffffffffffffffffffffffffff16815260200190815260200160002060006101000a81548160ff0219169083151502179055505050565b6000600754905090565b828054614530906159c9565b90600052602060002090601f0160209004810192826145525760008555614599565b82601f1061456b57805160ff1916838001178555614599565b82800160010185558215614599579182015b8281111561459857825182559160200191906001019061457d565b5b5090506145a69190614805565b5090565b6040518060c001604052806060815260200160608152602001600073ffffffffffffffffffffffffffffffffffffffff1681526020016060815260200160008019168152602001606081525090565b828054828255906000526020600020908101928215614672579160200282015b828111156146715782518260006101000a81548173ffffffffffffffffffffffffffffffffffffffff021916908373ffffffffffffffffffffffffffffffffffffffff16021790555091602001919060010190614619565b5b50905061467f9190614805565b5090565b6040518060e001604052806000815260200161469d6145aa565b815260200160608152602001600081526020016000815260200160608152602001606081525090565b8280546146d2906159c9565b90600052602060002090601f0160209004810192826146f45760008555614742565b82601f106147055780548555614742565b8280016001018555821561474257600052602060002091601f016020900482015b82811115614741578254825591600101919060010190614726565b5b50905061474f9190614805565b5090565b8280548282559060005260206000209081019282156147945760005260206000209182015b82811115614793578254825591600101919060010190614778565b5b5090506147a19190614805565b5090565b8280548282559060005260206000209081019282156147f4579160200282015b828111156147f35782518290805190602001906147e3929190614524565b50916020019190600101906147c5565b5b5090506148019190614822565b5090565b5b8082111561481e576000816000905550600101614806565b5090565b5b8082111561484257600081816148399190614846565b50600101614823565b5090565b508054614852906159c9565b6000825580601f106148645750614883565b601f0160209004906000526020600020908101906148829190614805565b5b50565b6000604051905090565b600080fd5b600080fd5b600073ffffffffffffffffffffffffffffffffffffffff82169050919050565b60006148c58261489a565b9050919050565b6148d5816148ba565b81146148e057600080fd5b50565b6000813590506148f2816148cc565b92915050565b6000819050919050565b61490b816148f8565b811461491657600080fd5b50565b60008135905061492881614902565b92915050565b600080fd5b600080fd5b6000601f19601f8301169050919050565b7f4e487b7100000000000000000000000000000000000000000000000000000000600052604160045260246000fd5b61498182614938565b810181811067ffffffffffffffff821117156149a05761499f614949565b5b80604052505050565b60006149b3614886565b90506149bf8282614978565b919050565b600067ffffffffffffffff8211156149df576149de614949565b5b6149e882614938565b9050602081019050919050565b82818337600083830152505050565b6000614a17614a12846149c4565b6149a9565b905082815260208101848484011115614a3357614a32614933565b5b614a3e8482856149f5565b509392505050565b600082601f830112614a5b57614a5a61492e565b5b8135614a6b848260208601614a04565b91505092915050565b600080600060608486031215614a8d57614a8c614890565b5b6000614a9b868287016148e3565b9350506020614aac86828701614919565b925050604084013567ffffffffffffffff811115614acd57614acc614895565b5b614ad986828701614a46565b9150509250925092565b600060208284031215614af957614af8614890565b5b6000614b07848285016148e3565b91505092915050565b600081519050919050565b600082825260208201905092915050565b6000819050602082019050919050565b600081519050919050565b600082825260208201905092915050565b60005b83811015614b76578082015181840152602081019050614b5b565b83811115614b85576000848401525b50505050565b6000614b9682614b3c565b614ba08185614b47565b9350614bb0818560208601614b58565b614bb981614938565b840191505092915050565b614bcd816148ba565b82525050565b6000819050919050565b614be681614bd3565b82525050565b600081519050919050565b600082825260208201905092915050565b6000819050602082019050919050565b6000614c248383614bc4565b60208301905092915050565b6000602082019050919050565b6000614c4882614bec565b614c528185614bf7565b9350614c5d83614c08565b8060005b83811015614c8e578151614c758882614c18565b9750614c8083614c30565b925050600181019050614c61565b5085935050505092915050565b600060c0830160008301518482036000860152614cb88282614b8b565b91505060208301518482036020860152614cd28282614b8b565b9150506040830151614ce76040860182614bc4565b5060608301518482036060860152614cff8282614b8b565b9150506080830151614d146080860182614bdd565b5060a083015184820360a0860152614d2c8282614c3d565b9150508091505092915050565b6000614d458383614c9b565b905092915050565b6000602082019050919050565b6000614d6582614b10565b614d6f8185614b1b565b935083602082028501614d8185614b2c565b8060005b85811015614dbd5784840389528151614d9e8582614d39565b9450614da983614d4d565b925060208a01995050600181019050614d85565b50829750879550505050505092915050565b60006020820190508181036000830152614de98184614d5a565b905092915050565b60008060408385031215614e0857614e07614890565b5b6000614e16858286016148e3565b9250506020614e27858286016148e3565b9150509250929050565b600081519050919050565b600082825260208201905092915050565b6000819050602082019050919050565b60008115159050919050565b614e7281614e5d565b82525050565b614e81816148f8565b82525050565b6000608083016000830151614e9f6000860182614bc4565b5060208301518482036020860152614eb78282614b8b565b9150506040830151614ecc6040860182614e69565b506060830151614edf6060860182614e78565b508091505092915050565b6000614ef68383614e87565b905092915050565b6000602082019050919050565b6000614f1682614e31565b614f208185614e3c565b935083602082028501614f3285614e4d565b8060005b85811015614f6e5784840389528151614f4f8582614eea565b9450614f5a83614efe565b925060208a01995050600181019050614f36565b50829750879550505050505092915050565b60006040820190508181036000830152614f9a8185614f0b565b90508181036020830152614fae8184614f0b565b90509392505050565b60008060408385031215614fce57614fcd614890565b5b600083013567ffffffffffffffff811115614fec57614feb614895565b5b614ff885828601614a46565b925050602083013567ffffffffffffffff81111561501957615018614895565b5b61502585828601614a46565b9150509250929050565b600080fd5b600080fd5b60008083601f84011261504f5761504e61492e565b5b8235905067ffffffffffffffff81111561506c5761506b61502f565b5b60208301915083600182028301111561508857615087615034565b5b9250929050565b61509881614e5d565b81146150a357600080fd5b50565b6000813590506150b58161508f565b92915050565b600080600080606085870312156150d5576150d4614890565b5b60006150e3878288016148e3565b945050602085013567ffffffffffffffff81111561510457615103614895565b5b61511087828801615039565b93509350506040615123878288016150a6565b91505092959194509250565b600081519050919050565b600082825260208201905092915050565b6000819050602082019050919050565b600081519050919050565b600082825260208201905092915050565b6000819050602082019050919050565b600060408301600083015184820360008601526151a48282614b8b565b91505060208301516151b96020860182614bc4565b508091505092915050565b60006151d08383615187565b905092915050565b6000602082019050919050565b60006151f08261515b565b6151fa8185615166565b93508360208202850161520c85615177565b8060005b85811015615248578484038952815161522985826151c4565b9450615234836151d8565b925060208a01995050600181019050615210565b50829750879550505050505092915050565b600081519050919050565b600082825260208201905092915050565b6000819050602082019050919050565b60006152928383614b8b565b905092915050565b6000602082019050919050565b60006152b28261525a565b6152bc8185615265565b9350836020820285016152ce85615276565b8060005b8581101561530a57848403895281516152eb8582615286565b94506152f68361529a565b925060208a019950506001810190506152d2565b50829750879550505050505092915050565b600060e0830160008301516153346000860182614e78565b506020830151848203602086015261534c8282614c9b565b915050604083015184820360408601526153668282614b8b565b915050606083015161537b6060860182614e78565b50608083015161538e6080860182614e78565b5060a083015184820360a08601526153a682826151e5565b91505060c083015184820360c08601526153c082826152a7565b9150508091505092915050565b60006153d9838361531c565b905092915050565b6000602082019050919050565b60006153f98261512f565b615403818561513a565b9350836020820285016154158561514b565b8060005b85811015615451578484038952815161543285826153cd565b945061543d836153e1565b925060208a01995050600181019050615419565b50829750879550505050505092915050565b6000602082019050818103600083015261547d81846153ee565b905092915050565b600067ffffffffffffffff8211156154a05761549f614949565b5b602082029050602081019050919050565b60006154c46154bf84615485565b6149a9565b905080838252602082019050602084028301858111156154e7576154e6615034565b5b835b8181101561552e57803567ffffffffffffffff81111561550c5761550b61492e565b5b8086016155198982614a46565b855260208501945050506020810190506154e9565b5050509392505050565b600082601f83011261554d5761554c61492e565b5b813561555d8482602086016154b1565b91505092915050565b6000806040838503121561557d5761557c614890565b5b600083013567ffffffffffffffff81111561559b5761559a614895565b5b6155a785828601614a46565b925050602083013567ffffffffffffffff8111156155c8576155c7614895565b5b6155d485828601615538565b9150509250929050565b600082825260208201905092915050565b60006155fa82614bec565b61560481856155de565b935061560f83614c08565b8060005b838110156156405781516156278882614c18565b975061563283614c30565b925050600181019050615613565b5085935050505092915050565b6000602082019050818103600083015261566781846155ef565b905092915050565b600060c083016000830151848203600086015261568c8282614b8b565b915050602083015184820360208601526156a68282614b8b565b91505060408301516156bb6040860182614bc4565b50606083015184820360608601526156d38282614b8b565b91505060808301516156e86080860182614bdd565b5060a083015184820360a08601526157008282614c3d565b9150508091505092915050565b60006020820190508181036000830152615727818461566f565b905092915050565b615738816148f8565b82525050565b6000602082019050615753600083018461572f565b92915050565b60008060006060848603121561577257615771614890565b5b6000615780868287016148e3565b935050602061579186828701614919565b92505060406157a2868287016148e3565b9150509250925092565b6157b581614e5d565b82525050565b60006020820190506157d060008301846157ac565b92915050565b600080604083850312156157ed576157ec614890565b5b60006157fb858286016148e3565b925050602061580c85828601614919565b9150509250929050565b600082825260208201905092915050565b7f55736572206e6f74207265676973746572656400000000000000000000000000600082015250565b600061585d601383615816565b915061586882615827565b602082019050919050565b6000602082019050818103600083015261588c81615850565b9050919050565b7f496e76616c696420706f73742049440000000000000000000000000000000000600082015250565b60006158c9600f83615816565b91506158d482615893565b602082019050919050565b600060208201905081810360008301526158f8816158bc565b9050919050565b7f436f6d6d656e742063616e6e6f7420626520656d707479000000000000000000600082015250565b6000615935601783615816565b9150615940826158ff565b602082019050919050565b6000602082019050818103600083015261596481615928565b9050919050565b7f4e487b7100000000000000000000000000000000000000000000000000000000600052603260045260246000fd5b7f4e487b7100000000000000000000000000000000000000000000000000000000600052602260045260246000fd5b600060028204905060018216806159e157607f821691505b602082108114156159f5576159f461599a565b5b50919050565b7f4e487b7100000000000000000000000000000000000000000000000000000000600052601160045260246000fd5b6000615a35826148f8565b91507fffffffffffffffffffffffffffffffffffffffffffffffffffffffffffffffff821415615a6857615a676159fb565b5b600182019050919050565b7f5573657220616c72656164792072656769737465726564000000000000000000600082015250565b6000615aa9601783615816565b9150615ab482615a73565b602082019050919050565b60006020820190508181036000830152615ad881615a9c565b9050919050565b600081905092915050565b6000615af582614b3c565b615aff8185615adf565b9350615b0f818560208601614b58565b80840191505092915050565b6000615b278284615aea565b915081905092915050565b6000615b3d82614b3c565b615b478185615816565b9350615b57818560208601614b58565b615b6081614938565b840191505092915050565b60006020820190508181036000830152615b858184615b32565b905092915050565b7f5265636569766572206e6f742072656769737465726564000000000000000000600082015250565b6000615bc3601783615816565b9150615bce82615b8d565b602082019050919050565b60006020820190508181036000830152615bf281615bb6565b9050919050565b7f4d6573736167652063616e6e6f7420626520656d707479000000000000000000600082015250565b6000615c2f601783615816565b9150615c3a82615bf9565b602082019050919050565b60006020820190508181036000830152615c5e81615c22565b9050919050565b6000615c718385615816565b9350615c7e8385846149f5565b615c8783614938565b840190509392505050565b60006020820190508181036000830152615cad818486615c65565b90509392505050565b6000615cc1826148f8565b9150615ccc836148f8565b9250827fffffffffffffffffffffffffffffffffffffffffffffffffffffffffffffffff03821115615d0157615d006159fb565b5b828201905092915050565b6000615d17826148f8565b9150615d22836148f8565b925082821015615d3557615d346159fb565b5b828203905092915050565b7f42696f20697320746f6f206c6f6e670000000000000000000000000000000000600082015250565b6000615d76600f83615816565b9150615d8182615d40565b602082019050919050565b60006020820190508181036000830152615da581615d69565b9050919050565b60006040820190508181036000830152615dc68185615b32565b90508181036020830152615dda8184615b32565b90509392505050565b7f467269656e64206e6f7420726567697374657265640000000000000000000000600082015250565b6000615e19601583615816565b9150615e2482615de3565b602082019050919050565b60006020820190508181036000830152615e4881615e0c565b9050919050565b6000615e5a826148f8565b91506000821415615e6e57615e6d6159fb565b5b60018203905091905056fe68747470733a2f2f7265732e636c6f7564696e6172792e636f6d2f646a306772766162632f696d6167652f75706c6f61642f76313732313033363231322f617661746172732f6462777479776d77656a337762746c3675617a732e706e67a26469706673582212202decfc17f670c99d52e65fbb4ba484c68397c18c71337681015ecd9d7c6d2c1a64736f6c63430008090033",
  "linkReferences": {},
  "deployedLinkReferences": {}
}