{
  "_format": "hh-sol-artifact-1",
  "contractName": "Dacebook",
  "sourceName": "contracts/Dacebook.sol",
  "abi": [
    {
      "anonymous": false,
      "inputs": [
        {
          "indexed": true,
          "internalType": "address",
          "name": "user",
          "type": "address"
        },
        {
          "indexed": false,
          "internalType": "string",
          "name": "fileUrl",
          "type": "string"
        }
      ],
      "name": "FileUploaded",
      "type": "event"
    },
    {
      "anonymous": false,
      "inputs": [
        {
          "indexed": true,
          "internalType": "address",
          "name": "sender",
          "type": "address"
        },
        {
          "indexed": true,
          "internalType": "address",
          "name": "receiver",
          "type": "address"
        },
        {
          "indexed": false,
          "internalType": "string",
          "name": "content",
          "type": "string"
        }
      ],
      "name": "NewMessage",
      "type": "event"
    },
    {
      "anonymous": false,
      "inputs": [
        {
          "indexed": true,
          "internalType": "address",
          "name": "author",
          "type": "address"
        },
        {
          "indexed": false,
          "internalType": "uint256",
          "name": "postId",
          "type": "uint256"
        }
      ],
      "name": "NewPost",
      "type": "event"
    },
    {
      "anonymous": false,
      "inputs": [
        {
          "indexed": true,
          "internalType": "address",
          "name": "userAddress",
          "type": "address"
        },
        {
          "indexed": false,
          "internalType": "string",
          "name": "profilePic",
          "type": "string"
        },
        {
          "indexed": false,
          "internalType": "string",
          "name": "bio",
          "type": "string"
        }
      ],
      "name": "ProfileUpdated",
      "type": "event"
    },
    {
      "anonymous": false,
      "inputs": [
        {
          "indexed": true,
          "internalType": "address",
          "name": "userAddress",
          "type": "address"
        },
        {
          "indexed": false,
          "internalType": "string",
          "name": "name",
          "type": "string"
        }
      ],
      "name": "UserRegistered",
      "type": "event"
    },
    {
      "inputs": [
        {
          "internalType": "address",
          "name": "_user1",
          "type": "address"
        },
        {
          "internalType": "address",
          "name": "_user2",
          "type": "address"
        }
      ],
      "name": "areFriends",
      "outputs": [
        {
          "internalType": "bool",
          "name": "",
          "type": "bool"
        }
      ],
      "stateMutability": "view",
      "type": "function"
    },
    {
      "inputs": [
        {
          "internalType": "address",
          "name": "_author",
          "type": "address"
        },
        {
          "internalType": "uint256",
          "name": "_postId",
          "type": "uint256"
        },
        {
          "internalType": "string",
          "name": "_comment",
          "type": "string"
        },
        {
          "internalType": "address",
          "name": "_commenter",
          "type": "address"
        }
      ],
      "name": "commentOnPost",
      "outputs": [],
      "stateMutability": "nonpayable",
      "type": "function"
    },
    {
      "inputs": [
        {
          "internalType": "string",
          "name": "_content",
          "type": "string"
        },
        {
          "internalType": "string[]",
          "name": "_uploads",
          "type": "string[]"
        }
      ],
      "name": "createPost",
      "outputs": [],
      "stateMutability": "nonpayable",
      "type": "function"
    },
    {
      "inputs": [],
      "name": "getFeed",
      "outputs": [
        {
          "components": [
            {
              "internalType": "uint256",
              "name": "id",
              "type": "uint256"
            },
            {
              "internalType": "address",
              "name": "author",
              "type": "address"
            },
            {
              "internalType": "string",
              "name": "content",
              "type": "string"
            },
            {
              "internalType": "uint256",
              "name": "timestamp",
              "type": "uint256"
            },
            {
              "internalType": "uint256",
              "name": "likes",
              "type": "uint256"
            },
            {
              "components": [
                {
                  "internalType": "string",
                  "name": "text",
                  "type": "string"
                },
                {
                  "internalType": "address",
                  "name": "userAddress",
                  "type": "address"
                }
              ],
              "internalType": "struct Dacebook.Comment[]",
              "name": "comments",
              "type": "tuple[]"
            },
            {
              "internalType": "string[]",
              "name": "uploads",
              "type": "string[]"
            }
          ],
          "internalType": "struct Dacebook.Post[]",
          "name": "",
          "type": "tuple[]"
        }
      ],
      "stateMutability": "view",
      "type": "function"
    },
    {
      "inputs": [],
      "name": "getFriends",
      "outputs": [
        {
          "internalType": "address[]",
          "name": "",
          "type": "address[]"
        }
      ],
      "stateMutability": "view",
      "type": "function"
    },
    {
      "inputs": [
        {
          "internalType": "address",
          "name": "_user",
          "type": "address"
        }
      ],
      "name": "getUserPosts",
      "outputs": [
        {
          "components": [
            {
              "internalType": "uint256",
              "name": "id",
              "type": "uint256"
            },
            {
              "internalType": "address",
              "name": "author",
              "type": "address"
            },
            {
              "internalType": "string",
              "name": "content",
              "type": "string"
            },
            {
              "internalType": "uint256",
              "name": "timestamp",
              "type": "uint256"
            },
            {
              "internalType": "uint256",
              "name": "likes",
              "type": "uint256"
            },
            {
              "components": [
                {
                  "internalType": "string",
                  "name": "text",
                  "type": "string"
                },
                {
                  "internalType": "address",
                  "name": "userAddress",
                  "type": "address"
                }
              ],
              "internalType": "struct Dacebook.Comment[]",
              "name": "comments",
              "type": "tuple[]"
            },
            {
              "internalType": "string[]",
              "name": "uploads",
              "type": "string[]"
            }
          ],
          "internalType": "struct Dacebook.Post[]",
          "name": "",
          "type": "tuple[]"
        }
      ],
      "stateMutability": "view",
      "type": "function"
    },
    {
      "inputs": [
        {
          "internalType": "address",
          "name": "_user",
          "type": "address"
        }
      ],
      "name": "getUserProfile",
      "outputs": [
        {
          "components": [
            {
              "internalType": "string",
              "name": "name",
              "type": "string"
            },
            {
              "internalType": "string",
              "name": "profilePic",
              "type": "string"
            },
            {
              "internalType": "address",
              "name": "userAddress",
              "type": "address"
            },
            {
              "internalType": "string",
              "name": "bio",
              "type": "string"
            },
            {
              "internalType": "bytes32",
              "name": "passwordHash",
              "type": "bytes32"
            },
            {
              "internalType": "address[]",
              "name": "friends",
              "type": "address[]"
            }
          ],
          "internalType": "struct Dacebook.User",
          "name": "",
          "type": "tuple"
        }
      ],
      "stateMutability": "view",
      "type": "function"
    },
    {
      "inputs": [
        {
          "internalType": "address",
          "name": "",
          "type": "address"
        },
        {
          "internalType": "uint256",
          "name": "",
          "type": "uint256"
        },
        {
          "internalType": "address",
          "name": "",
          "type": "address"
        }
      ],
      "name": "isLiked",
      "outputs": [
        {
          "internalType": "bool",
          "name": "",
          "type": "bool"
        }
      ],
      "stateMutability": "view",
      "type": "function"
    },
    {
      "inputs": [
        {
          "internalType": "string",
          "name": "_name",
          "type": "string"
        },
        {
          "internalType": "string",
          "name": "_password",
          "type": "string"
        }
      ],
      "name": "register",
      "outputs": [],
      "stateMutability": "nonpayable",
      "type": "function"
    },
    {
      "inputs": [
        {
          "internalType": "address",
          "name": "_friend",
          "type": "address"
        }
      ],
      "name": "toggleFriend",
      "outputs": [],
      "stateMutability": "nonpayable",
      "type": "function"
    },
    {
      "inputs": [
        {
          "internalType": "address",
          "name": "_author",
          "type": "address"
        },
        {
          "internalType": "uint256",
          "name": "_postId",
          "type": "uint256"
        }
      ],
      "name": "toggleLikeonPost",
      "outputs": [],
      "stateMutability": "nonpayable",
      "type": "function"
    },
    {
      "inputs": [
        {
          "internalType": "string",
          "name": "_profilePic",
          "type": "string"
        },
        {
          "internalType": "string",
          "name": "_bio",
          "type": "string"
        }
      ],
      "name": "updateProfile",
      "outputs": [],
      "stateMutability": "nonpayable",
      "type": "function"
    }
  ],
  "bytecode": "0x6080604052600060065534801561001557600080fd5b506147db806100256000396000f3fe608060405234801561001057600080fd5b50600436106100b45760003560e01c8063b0ed7a7f11610071578063b0ed7a7f1461019f578063c8266683146101cf578063c9d3cc6a146101eb578063d9806cd514610207578063db2598f014610223578063dbadb1d11461023f576100b4565b80631f8f7270146100b95780633ffbd47f146100d757806352374f7a146100f35780638110a8001461010f578063987ee1561461013f5780639a2194a91461016f575b600080fd5b6100c161025d565b6040516100ce91906137e3565b60405180910390f35b6100f160048036038101906100ec919061395f565b6106c8565b005b61010d60048036038101906101089190613abd565b6109ec565b005b61012960048036038101906101249190613b61565b610c05565b6040516101369190613bbc565b60405180910390f35b61015960048036038101906101549190613bd7565b610c99565b6040516101669190613db2565b60405180910390f35b61018960048036038101906101849190613bd7565b6110f3565b604051610196919061411a565b60405180910390f35b6101b960048036038101906101b49190614168565b611613565b6040516101c69190613bbc565b60405180910390f35b6101e960048036038101906101e491906141bb565b61164f565b005b6102056004803603810190610200919061395f565b61188a565b005b610221600480360381019061021c9190613bd7565b611a16565b005b61023d6004803603810190610238919061423e565b611ea4565b005b61024761228e565b604051610254919061411a565b60405180910390f35b606060008060003373ffffffffffffffffffffffffffffffffffffffff1673ffffffffffffffffffffffffffffffffffffffff1681526020019081526020016000206040518060c00160405290816000820180546102ba906142ad565b80601f01602080910402602001604051908101604052809291908181526020018280546102e6906142ad565b80156103335780601f1061030857610100808354040283529160200191610333565b820191906000526020600020905b81548152906001019060200180831161031657829003601f168201915b5050505050815260200160018201805461034c906142ad565b80601f0160208091040260200160405190810160405280929190818152602001828054610378906142ad565b80156103c55780601f1061039a576101008083540402835291602001916103c5565b820191906000526020600020905b8154815290600101906020018083116103a857829003601f168201915b505050505081526020016002820160009054906101000a900473ffffffffffffffffffffffffffffffffffffffff1673ffffffffffffffffffffffffffffffffffffffff1673ffffffffffffffffffffffffffffffffffffffff168152602001600382018054610434906142ad565b80601f0160208091040260200160405190810160405280929190818152602001828054610460906142ad565b80156104ad5780601f10610482576101008083540402835291602001916104ad565b820191906000526020600020905b81548152906001019060200180831161049057829003601f168201915b50505050508152602001600482015481526020016005820180548060200260200160405190810160405280929190818152602001828054801561054557602002820191906000526020600020905b8160009054906101000a900473ffffffffffffffffffffffffffffffffffffffff1673ffffffffffffffffffffffffffffffffffffffff16815260200190600101908083116104fb575b50505050508152505090506000805b8260a00151518110156105b057610589338460a00151838151811061057c5761057b6142df565b5b6020026020010151610c05565b1561059d5781806105999061433d565b9250505b80806105a89061433d565b915050610554565b5060008167ffffffffffffffff8111156105cd576105cc613834565b5b6040519080825280602002602001820160405280156105fb5781602001602082028036833780820191505090505b50905060005b828110156106b657610631338560a001518381518110610624576106236142df565b5b6020026020010151610c05565b156106a3578360a00151818151811061064d5761064c6142df565b5b6020026020010151828281518110610668576106676142df565b5b602002602001019073ffffffffffffffffffffffffffffffffffffffff16908173ffffffffffffffffffffffffffffffffffffffff16815250505b80806106ae9061433d565b915050610601565b506106bf613251565b80935050505090565b600160003373ffffffffffffffffffffffffffffffffffffffff1673ffffffffffffffffffffffffffffffffffffffff16815260200190815260200160002060009054906101000a900460ff1615610755576040517f08c379a000000000000000000000000000000000000000000000000000000000815260040161074c906143e3565b60405180910390fd5b600660008154809291906107689061433d565b91905055506040518060c001604052808381526020016040518060200160405280600081525081526020013373ffffffffffffffffffffffffffffffffffffffff168152602001604051806020016040528060008152508152602001826040516020016107d5919061443f565b604051602081830303815290604052805190602001208152602001600067ffffffffffffffff81111561080b5761080a613834565b5b6040519080825280602002602001820160405280156108395781602001602082028036833780820191505090505b508152506000803373ffffffffffffffffffffffffffffffffffffffff1673ffffffffffffffffffffffffffffffffffffffff1681526020019081526020016000206000820151816000019080519060200190610897929190613456565b5060208201518160010190805190602001906108b4929190613456565b5060408201518160020160006101000a81548173ffffffffffffffffffffffffffffffffffffffff021916908373ffffffffffffffffffffffffffffffffffffffff1602179055506060820151816003019080519060200190610918929190613456565b506080820151816004015560a082015181600501908051906020019061093f9291906134dc565b5090505060018060003373ffffffffffffffffffffffffffffffffffffffff1673ffffffffffffffffffffffffffffffffffffffff16815260200190815260200160002060006101000a81548160ff0219169083151502179055503373ffffffffffffffffffffffffffffffffffffffff167f48cac28ad4dc618e15f4c2dd5e97751182f166de97b25618318b2112aa951a2f836040516109e0919061448f565b60405180910390a25050565b600160003373ffffffffffffffffffffffffffffffffffffffff1673ffffffffffffffffffffffffffffffffffffffff16815260200190815260200160002060009054906101000a900460ff16610a78576040517f08c379a0000000000000000000000000000000000000000000000000000000008152600401610a6f906144fd565b60405180910390fd5b6000600260003373ffffffffffffffffffffffffffffffffffffffff1673ffffffffffffffffffffffffffffffffffffffff1681526020019081526020016000208054905090506000600260003373ffffffffffffffffffffffffffffffffffffffff1673ffffffffffffffffffffffffffffffffffffffff1681526020019081526020016000206001816001815401808255809150500390600052602060002090600702019050818160000181905550338160010160006101000a81548173ffffffffffffffffffffffffffffffffffffffff021916908373ffffffffffffffffffffffffffffffffffffffff16021790555083816002019080519060200190610b84929190613456565b504281600301819055506000816004018190555082816006019080519060200190610bb0929190613566565b503373ffffffffffffffffffffffffffffffffffffffff167f227d44868fd91794465aa9733e53308aaf7503a80920f790d5060691fe03a3e783604051610bf7919061452c565b60405180910390a250505050565b6000600360008473ffffffffffffffffffffffffffffffffffffffff1673ffffffffffffffffffffffffffffffffffffffff16815260200190815260200160002060008373ffffffffffffffffffffffffffffffffffffffff1673ffffffffffffffffffffffffffffffffffffffff16815260200190815260200160002060009054906101000a900460ff16905092915050565b610ca16135c6565b600160008373ffffffffffffffffffffffffffffffffffffffff1673ffffffffffffffffffffffffffffffffffffffff16815260200190815260200160002060009054906101000a900460ff16610d2d576040517f08c379a0000000000000000000000000000000000000000000000000000000008152600401610d24906144fd565b60405180910390fd5b610dff6000808473ffffffffffffffffffffffffffffffffffffffff1673ffffffffffffffffffffffffffffffffffffffff1681526020019081526020016000206000018054610d7c906142ad565b80601f0160208091040260200160405190810160405280929190818152602001828054610da8906142ad565b8015610df55780601f10610dca57610100808354040283529160200191610df5565b820191906000526020600020905b815481529060010190602001808311610dd857829003601f168201915b50505050506132de565b6000808373ffffffffffffffffffffffffffffffffffffffff1673ffffffffffffffffffffffffffffffffffffffff1681526020019081526020016000206040518060c0016040529081600082018054610e58906142ad565b80601f0160208091040260200160405190810160405280929190818152602001828054610e84906142ad565b8015610ed15780601f10610ea657610100808354040283529160200191610ed1565b820191906000526020600020905b815481529060010190602001808311610eb457829003601f168201915b50505050508152602001600182018054610eea906142ad565b80601f0160208091040260200160405190810160405280929190818152602001828054610f16906142ad565b8015610f635780601f10610f3857610100808354040283529160200191610f63565b820191906000526020600020905b815481529060010190602001808311610f4657829003601f168201915b505050505081526020016002820160009054906101000a900473ffffffffffffffffffffffffffffffffffffffff1673ffffffffffffffffffffffffffffffffffffffff1673ffffffffffffffffffffffffffffffffffffffff168152602001600382018054610fd2906142ad565b80601f0160208091040260200160405190810160405280929190818152602001828054610ffe906142ad565b801561104b5780601f106110205761010080835404028352916020019161104b565b820191906000526020600020905b81548152906001019060200180831161102e57829003601f168201915b5050505050815260200160048201548152602001600582018054806020026020016040519081016040528092919081815260200182805480156110e357602002820191906000526020600020905b8160009054906101000a900473ffffffffffffffffffffffffffffffffffffffff1673ffffffffffffffffffffffffffffffffffffffff1681526020019060010190808311611099575b5050505050815250509050919050565b6060611140600260008473ffffffffffffffffffffffffffffffffffffffff1673ffffffffffffffffffffffffffffffffffffffff16815260200190815260200160002080549050613377565b600160008373ffffffffffffffffffffffffffffffffffffffff1673ffffffffffffffffffffffffffffffffffffffff16815260200190815260200160002060009054906101000a900460ff166111cc576040517f08c379a00000000000000000000000000000000000000000000000000000000081526004016111c3906144fd565b60405180910390fd5b6000600260008473ffffffffffffffffffffffffffffffffffffffff1673ffffffffffffffffffffffffffffffffffffffff1681526020019081526020016000208054905011611251576040517f08c379a000000000000000000000000000000000000000000000000000000000815260040161124890614593565b60405180910390fd5b600260008373ffffffffffffffffffffffffffffffffffffffff1673ffffffffffffffffffffffffffffffffffffffff168152602001908152602001600020805480602002602001604051908101604052809291908181526020016000905b8282101561160857838290600052602060002090600702016040518060e0016040529081600082015481526020016001820160009054906101000a900473ffffffffffffffffffffffffffffffffffffffff1673ffffffffffffffffffffffffffffffffffffffff1673ffffffffffffffffffffffffffffffffffffffff168152602001600282018054611343906142ad565b80601f016020809104026020016040519081016040528092919081815260200182805461136f906142ad565b80156113bc5780601f10611391576101008083540402835291602001916113bc565b820191906000526020600020905b81548152906001019060200180831161139f57829003601f168201915b50505050508152602001600382015481526020016004820154815260200160058201805480602002602001604051908101604052809291908181526020016000905b828210156115185783829060005260206000209060020201604051806040016040529081600082018054611431906142ad565b80601f016020809104026020016040519081016040528092919081815260200182805461145d906142ad565b80156114aa5780601f1061147f576101008083540402835291602001916114aa565b820191906000526020600020905b81548152906001019060200180831161148d57829003601f168201915b505050505081526020016001820160009054906101000a900473ffffffffffffffffffffffffffffffffffffffff1673ffffffffffffffffffffffffffffffffffffffff1673ffffffffffffffffffffffffffffffffffffffff1681525050815260200190600101906113fe565b50505050815260200160068201805480602002602001604051908101604052809291908181526020016000905b828210156115f1578382906000526020600020018054611564906142ad565b80601f0160208091040260200160405190810160405280929190818152602001828054611590906142ad565b80156115dd5780601f106115b2576101008083540402835291602001916115dd565b820191906000526020600020905b8154815290600101906020018083116115c057829003601f168201915b505050505081526020019060010190611545565b5050505081525050815260200190600101906112b0565b505050509050919050565b6005602052826000526040600020602052816000526040600020602052806000526040600020600092509250509054906101000a900460ff1681565b61165883613377565b600160003373ffffffffffffffffffffffffffffffffffffffff1673ffffffffffffffffffffffffffffffffffffffff16815260200190815260200160002060009054906101000a900460ff166116e4576040517f08c379a00000000000000000000000000000000000000000000000000000000081526004016116db906144fd565b60405180910390fd5b600260008573ffffffffffffffffffffffffffffffffffffffff1673ffffffffffffffffffffffffffffffffffffffff168152602001908152602001600020805490508310611768576040517f08c379a000000000000000000000000000000000000000000000000000000000815260040161175f906145ff565b60405180910390fd5b600260008573ffffffffffffffffffffffffffffffffffffffff1673ffffffffffffffffffffffffffffffffffffffff16815260200190815260200160002083815481106117b9576117b86142df565b5b906000526020600020906007020160050160405180604001604052808481526020018373ffffffffffffffffffffffffffffffffffffffff168152509080600181540180825580915050600190039060005260206000209060020201600090919091909150600082015181600001908051906020019061183a929190613456565b5060208201518160010160006101000a81548173ffffffffffffffffffffffffffffffffffffffff021916908373ffffffffffffffffffffffffffffffffffffffff160217905550505050505050565b600160003373ffffffffffffffffffffffffffffffffffffffff1673ffffffffffffffffffffffffffffffffffffffff16815260200190815260200160002060009054906101000a900460ff16611916576040517f08c379a000000000000000000000000000000000000000000000000000000000815260040161190d906144fd565b60405180910390fd5b816000803373ffffffffffffffffffffffffffffffffffffffff1673ffffffffffffffffffffffffffffffffffffffff168152602001908152602001600020600101908051906020019061196b929190613456565b50806000803373ffffffffffffffffffffffffffffffffffffffff1673ffffffffffffffffffffffffffffffffffffffff16815260200190815260200160002060030190805190602001906119c1929190613456565b503373ffffffffffffffffffffffffffffffffffffffff167f6eb3a1c6a4675ba92d44e090515b1ceea358f26565d2854df0c99c3f5eaf98508383604051611a0a92919061461f565b60405180910390a25050565b600160003373ffffffffffffffffffffffffffffffffffffffff1673ffffffffffffffffffffffffffffffffffffffff16815260200190815260200160002060009054906101000a900460ff16611aa2576040517f08c379a0000000000000000000000000000000000000000000000000000000008152600401611a99906144fd565b60405180910390fd5b600160008273ffffffffffffffffffffffffffffffffffffffff1673ffffffffffffffffffffffffffffffffffffffff16815260200190815260200160002060009054906101000a900460ff16611b2e576040517f08c379a0000000000000000000000000000000000000000000000000000000008152600401611b25906146a2565b60405180910390fd5b600360003373ffffffffffffffffffffffffffffffffffffffff1673ffffffffffffffffffffffffffffffffffffffff16815260200190815260200160002060008273ffffffffffffffffffffffffffffffffffffffff1673ffffffffffffffffffffffffffffffffffffffff16815260200190815260200160002060009054906101000a900460ff16611d8357600460003373ffffffffffffffffffffffffffffffffffffffff1673ffffffffffffffffffffffffffffffffffffffff16815260200190815260200160002060008273ffffffffffffffffffffffffffffffffffffffff1673ffffffffffffffffffffffffffffffffffffffff16815260200190815260200160002060009054906101000a900460ff16611d82576001600460003373ffffffffffffffffffffffffffffffffffffffff1673ffffffffffffffffffffffffffffffffffffffff16815260200190815260200160002060008373ffffffffffffffffffffffffffffffffffffffff1673ffffffffffffffffffffffffffffffffffffffff16815260200190815260200160002060006101000a81548160ff0219169083151502179055506000803373ffffffffffffffffffffffffffffffffffffffff1673ffffffffffffffffffffffffffffffffffffffff168152602001908152602001600020600501819080600181540180825580915050600190039060005260206000200160009091909190916101000a81548173ffffffffffffffffffffffffffffffffffffffff021916908373ffffffffffffffffffffffffffffffffffffffff1602179055505b5b600360003373ffffffffffffffffffffffffffffffffffffffff1673ffffffffffffffffffffffffffffffffffffffff16815260200190815260200160002060008273ffffffffffffffffffffffffffffffffffffffff1673ffffffffffffffffffffffffffffffffffffffff16815260200190815260200160002060009054906101000a900460ff1615600360003373ffffffffffffffffffffffffffffffffffffffff1673ffffffffffffffffffffffffffffffffffffffff16815260200190815260200160002060008373ffffffffffffffffffffffffffffffffffffffff1673ffffffffffffffffffffffffffffffffffffffff16815260200190815260200160002060006101000a81548160ff02191690831515021790555050565b600160003373ffffffffffffffffffffffffffffffffffffffff1673ffffffffffffffffffffffffffffffffffffffff16815260200190815260200160002060009054906101000a900460ff16611f30576040517f08c379a0000000000000000000000000000000000000000000000000000000008152600401611f27906144fd565b60405180910390fd5b600260008373ffffffffffffffffffffffffffffffffffffffff1673ffffffffffffffffffffffffffffffffffffffff168152602001908152602001600020805490508110611fb4576040517f08c379a0000000000000000000000000000000000000000000000000000000008152600401611fab906145ff565b60405180910390fd5b600560008373ffffffffffffffffffffffffffffffffffffffff1673ffffffffffffffffffffffffffffffffffffffff168152602001908152602001600020600082815260200190815260200160002060003373ffffffffffffffffffffffffffffffffffffffff1673ffffffffffffffffffffffffffffffffffffffff16815260200190815260200160002060009054906101000a900460ff16156120d157600260008373ffffffffffffffffffffffffffffffffffffffff1673ffffffffffffffffffffffffffffffffffffffff16815260200190815260200160002081815481106120a5576120a46142df565b5b906000526020600020906007020160040160008154809291906120c7906146c2565b919050555061214a565b600260008373ffffffffffffffffffffffffffffffffffffffff1673ffffffffffffffffffffffffffffffffffffffff1681526020019081526020016000208181548110612122576121216142df565b5b906000526020600020906007020160040160008154809291906121449061433d565b91905055505b600560008373ffffffffffffffffffffffffffffffffffffffff1673ffffffffffffffffffffffffffffffffffffffff168152602001908152602001600020600082815260200190815260200160002060003373ffffffffffffffffffffffffffffffffffffffff1673ffffffffffffffffffffffffffffffffffffffff16815260200190815260200160002060009054906101000a900460ff1615600560008473ffffffffffffffffffffffffffffffffffffffff1673ffffffffffffffffffffffffffffffffffffffff168152602001908152602001600020600083815260200190815260200160002060003373ffffffffffffffffffffffffffffffffffffffff1673ffffffffffffffffffffffffffffffffffffffff16815260200190815260200160002060006101000a81548160ff0219169083151502179055505050565b6060600160003373ffffffffffffffffffffffffffffffffffffffff1673ffffffffffffffffffffffffffffffffffffffff16815260200190815260200160002060009054906101000a900460ff1661231c576040517f08c379a0000000000000000000000000000000000000000000000000000000008152600401612313906144fd565b60405180910390fd5b60008060003373ffffffffffffffffffffffffffffffffffffffff1673ffffffffffffffffffffffffffffffffffffffff1681526020019081526020016000206040518060c0016040529081600082018054612377906142ad565b80601f01602080910402602001604051908101604052809291908181526020018280546123a3906142ad565b80156123f05780601f106123c5576101008083540402835291602001916123f0565b820191906000526020600020905b8154815290600101906020018083116123d357829003601f168201915b50505050508152602001600182018054612409906142ad565b80601f0160208091040260200160405190810160405280929190818152602001828054612435906142ad565b80156124825780601f1061245757610100808354040283529160200191612482565b820191906000526020600020905b81548152906001019060200180831161246557829003601f168201915b505050505081526020016002820160009054906101000a900473ffffffffffffffffffffffffffffffffffffffff1673ffffffffffffffffffffffffffffffffffffffff1673ffffffffffffffffffffffffffffffffffffffff1681526020016003820180546124f1906142ad565b80601f016020809104026020016040519081016040528092919081815260200182805461251d906142ad565b801561256a5780601f1061253f5761010080835404028352916020019161256a565b820191906000526020600020905b81548152906001019060200180831161254d57829003601f168201915b50505050508152602001600482015481526020016005820180548060200260200160405190810160405280929190818152602001828054801561260257602002820191906000526020600020905b8160009054906101000a900473ffffffffffffffffffffffffffffffffffffffff1673ffffffffffffffffffffffffffffffffffffffff16815260200190600101908083116125b8575b50505050508152505090506000600260003373ffffffffffffffffffffffffffffffffffffffff1673ffffffffffffffffffffffffffffffffffffffff16815260200190815260200160002080549050905060005b8260a001515181101561279357600360003373ffffffffffffffffffffffffffffffffffffffff1673ffffffffffffffffffffffffffffffffffffffff16815260200190815260200160002060008460a0015183815181106126bc576126bb6142df565b5b602002602001015173ffffffffffffffffffffffffffffffffffffffff1673ffffffffffffffffffffffffffffffffffffffff16815260200190815260200160002060009054906101000a900460ff161561278057600260008460a00151838151811061272c5761272b6142df565b5b602002602001015173ffffffffffffffffffffffffffffffffffffffff1673ffffffffffffffffffffffffffffffffffffffff168152602001908152602001600020805490508261277d91906146ec565b91505b808061278b9061433d565b915050612657565b5060008167ffffffffffffffff8111156127b0576127af613834565b5b6040519080825280602002602001820160405280156127e957816020015b6127d6613615565b8152602001906001900390816127ce5790505b5090506000805b600260003373ffffffffffffffffffffffffffffffffffffffff1673ffffffffffffffffffffffffffffffffffffffff16815260200190815260200160002080549050811015612c0757600260003373ffffffffffffffffffffffffffffffffffffffff1673ffffffffffffffffffffffffffffffffffffffff168152602001908152602001600020818154811061288b5761288a6142df565b5b90600052602060002090600702016040518060e0016040529081600082015481526020016001820160009054906101000a900473ffffffffffffffffffffffffffffffffffffffff1673ffffffffffffffffffffffffffffffffffffffff1673ffffffffffffffffffffffffffffffffffffffff168152602001600282018054612914906142ad565b80601f0160208091040260200160405190810160405280929190818152602001828054612940906142ad565b801561298d5780601f106129625761010080835404028352916020019161298d565b820191906000526020600020905b81548152906001019060200180831161297057829003601f168201915b50505050508152602001600382015481526020016004820154815260200160058201805480602002602001604051908101604052809291908181526020016000905b82821015612ae95783829060005260206000209060020201604051806040016040529081600082018054612a02906142ad565b80601f0160208091040260200160405190810160405280929190818152602001828054612a2e906142ad565b8015612a7b5780601f10612a5057610100808354040283529160200191612a7b565b820191906000526020600020905b815481529060010190602001808311612a5e57829003601f168201915b505050505081526020016001820160009054906101000a900473ffffffffffffffffffffffffffffffffffffffff1673ffffffffffffffffffffffffffffffffffffffff1673ffffffffffffffffffffffffffffffffffffffff1681525050815260200190600101906129cf565b50505050815260200160068201805480602002602001604051908101604052809291908181526020016000905b82821015612bc2578382906000526020600020018054612b35906142ad565b80601f0160208091040260200160405190810160405280929190818152602001828054612b61906142ad565b8015612bae5780601f10612b8357610100808354040283529160200191612bae565b820191906000526020600020905b815481529060010190602001808311612b9157829003601f168201915b505050505081526020019060010190612b16565b5050505081525050838380612bd69061433d565b945081518110612be957612be86142df565b5b60200260200101819052508080612bff9061433d565b9150506127f0565b5060005b8460a001515181101561313057600360003373ffffffffffffffffffffffffffffffffffffffff1673ffffffffffffffffffffffffffffffffffffffff16815260200190815260200160002060008660a001518381518110612c7057612c6f6142df565b5b602002602001015173ffffffffffffffffffffffffffffffffffffffff1673ffffffffffffffffffffffffffffffffffffffff16815260200190815260200160002060009054906101000a900460ff161561311d5760005b600260008760a001518481518110612ce357612ce26142df565b5b602002602001015173ffffffffffffffffffffffffffffffffffffffff1673ffffffffffffffffffffffffffffffffffffffff1681526020019081526020016000208054905081101561311b57600260008760a001518481518110612d4b57612d4a6142df565b5b602002602001015173ffffffffffffffffffffffffffffffffffffffff1673ffffffffffffffffffffffffffffffffffffffff1681526020019081526020016000208181548110612d9f57612d9e6142df565b5b90600052602060002090600702016040518060e0016040529081600082015481526020016001820160009054906101000a900473ffffffffffffffffffffffffffffffffffffffff1673ffffffffffffffffffffffffffffffffffffffff1673ffffffffffffffffffffffffffffffffffffffff168152602001600282018054612e28906142ad565b80601f0160208091040260200160405190810160405280929190818152602001828054612e54906142ad565b8015612ea15780601f10612e7657610100808354040283529160200191612ea1565b820191906000526020600020905b815481529060010190602001808311612e8457829003601f168201915b50505050508152602001600382015481526020016004820154815260200160058201805480602002602001604051908101604052809291908181526020016000905b82821015612ffd5783829060005260206000209060020201604051806040016040529081600082018054612f16906142ad565b80601f0160208091040260200160405190810160405280929190818152602001828054612f42906142ad565b8015612f8f5780601f10612f6457610100808354040283529160200191612f8f565b820191906000526020600020905b815481529060010190602001808311612f7257829003601f168201915b505050505081526020016001820160009054906101000a900473ffffffffffffffffffffffffffffffffffffffff1673ffffffffffffffffffffffffffffffffffffffff1673ffffffffffffffffffffffffffffffffffffffff168152505081526020019060010190612ee3565b50505050815260200160068201805480602002602001604051908101604052809291908181526020016000905b828210156130d6578382906000526020600020018054613049906142ad565b80601f0160208091040260200160405190810160405280929190818152602001828054613075906142ad565b80156130c25780601f10613097576101008083540402835291602001916130c2565b820191906000526020600020905b8154815290600101906020018083116130a557829003601f168201915b50505050508152602001906001019061302a565b50505050815250508484806130ea9061433d565b9550815181106130fd576130fc6142df565b5b602002602001018190525080806131139061433d565b915050612cc8565b505b80806131289061433d565b915050612c0b565b5060005b6001846131419190614742565b81101561324657600060018261315791906146ec565b90505b8481101561323257838181518110613175576131746142df565b5b602002602001015160600151848381518110613194576131936142df565b5b602002602001015160600151101561321f5760008483815181106131bb576131ba6142df565b5b602002602001015190508482815181106131d8576131d76142df565b5b60200260200101518584815181106131f3576131f26142df565b5b602002602001018190525080858381518110613212576132116142df565b5b6020026020010181905250505b808061322a9061433d565b91505061315a565b50808061323e9061433d565b915050613134565b508194505050505090565b6132dc6040516024016040516020818303038152906040527f51973ec9000000000000000000000000000000000000000000000000000000007bffffffffffffffffffffffffffffffffffffffffffffffffffffffff19166020820180517bffffffffffffffffffffffffffffffffffffffffffffffffffffffff8381831617835250505050613410565b565b613374816040516024016132f2919061448f565b6040516020818303038152906040527f41304fac000000000000000000000000000000000000000000000000000000007bffffffffffffffffffffffffffffffffffffffffffffffffffffffff19166020820180517bffffffffffffffffffffffffffffffffffffffffffffffffffffffff8381831617835250505050613410565b50565b61340d8160405160240161338b919061452c565b6040516020818303038152906040527ff82c50f1000000000000000000000000000000000000000000000000000000007bffffffffffffffffffffffffffffffffffffffffffffffffffffffff19166020820180517bffffffffffffffffffffffffffffffffffffffffffffffffffffffff8381831617835250505050613410565b50565b6134278161341f61342a61344b565b63ffffffff16565b50565b60006a636f6e736f6c652e6c6f679050600080835160208501845afa505050565b613668819050919050565b828054613462906142ad565b90600052602060002090601f01602090048101928261348457600085556134cb565b82601f1061349d57805160ff19168380011785556134cb565b828001600101855582156134cb579182015b828111156134ca5782518255916020019190600101906134af565b5b5090506134d89190613672565b5090565b828054828255906000526020600020908101928215613555579160200282015b828111156135545782518260006101000a81548173ffffffffffffffffffffffffffffffffffffffff021916908373ffffffffffffffffffffffffffffffffffffffff160217905550916020019190600101906134fc565b5b5090506135629190613672565b5090565b8280548282559060005260206000209081019282156135b5579160200282015b828111156135b45782518290805190602001906135a4929190613456565b5091602001919060010190613586565b5b5090506135c2919061368f565b5090565b6040518060c001604052806060815260200160608152602001600073ffffffffffffffffffffffffffffffffffffffff1681526020016060815260200160008019168152602001606081525090565b6040518060e0016040528060008152602001600073ffffffffffffffffffffffffffffffffffffffff16815260200160608152602001600081526020016000815260200160608152602001606081525090565b613670614776565b565b5b8082111561368b576000816000905550600101613673565b5090565b5b808211156136af57600081816136a691906136b3565b50600101613690565b5090565b5080546136bf906142ad565b6000825580601f106136d157506136f0565b601f0160209004906000526020600020908101906136ef9190613672565b5b50565b600081519050919050565b600082825260208201905092915050565b6000819050602082019050919050565b600073ffffffffffffffffffffffffffffffffffffffff82169050919050565b600061374a8261371f565b9050919050565b61375a8161373f565b82525050565b600061376c8383613751565b60208301905092915050565b6000602082019050919050565b6000613790826136f3565b61379a81856136fe565b93506137a58361370f565b8060005b838110156137d65781516137bd8882613760565b97506137c883613778565b9250506001810190506137a9565b5085935050505092915050565b600060208201905081810360008301526137fd8184613785565b905092915050565b6000604051905090565b600080fd5b600080fd5b600080fd5b600080fd5b6000601f19601f8301169050919050565b7f4e487b7100000000000000000000000000000000000000000000000000000000600052604160045260246000fd5b61386c82613823565b810181811067ffffffffffffffff8211171561388b5761388a613834565b5b80604052505050565b600061389e613805565b90506138aa8282613863565b919050565b600067ffffffffffffffff8211156138ca576138c9613834565b5b6138d382613823565b9050602081019050919050565b82818337600083830152505050565b60006139026138fd846138af565b613894565b90508281526020810184848401111561391e5761391d61381e565b5b6139298482856138e0565b509392505050565b600082601f83011261394657613945613819565b5b81356139568482602086016138ef565b91505092915050565b600080604083850312156139765761397561380f565b5b600083013567ffffffffffffffff81111561399457613993613814565b5b6139a085828601613931565b925050602083013567ffffffffffffffff8111156139c1576139c0613814565b5b6139cd85828601613931565b9150509250929050565b600067ffffffffffffffff8211156139f2576139f1613834565b5b602082029050602081019050919050565b600080fd5b6000613a1b613a16846139d7565b613894565b90508083825260208201905060208402830185811115613a3e57613a3d613a03565b5b835b81811015613a8557803567ffffffffffffffff811115613a6357613a62613819565b5b808601613a708982613931565b85526020850194505050602081019050613a40565b5050509392505050565b600082601f830112613aa457613aa3613819565b5b8135613ab4848260208601613a08565b91505092915050565b60008060408385031215613ad457613ad361380f565b5b600083013567ffffffffffffffff811115613af257613af1613814565b5b613afe85828601613931565b925050602083013567ffffffffffffffff811115613b1f57613b1e613814565b5b613b2b85828601613a8f565b9150509250929050565b613b3e8161373f565b8114613b4957600080fd5b50565b600081359050613b5b81613b35565b92915050565b60008060408385031215613b7857613b7761380f565b5b6000613b8685828601613b4c565b9250506020613b9785828601613b4c565b9150509250929050565b60008115159050919050565b613bb681613ba1565b82525050565b6000602082019050613bd16000830184613bad565b92915050565b600060208284031215613bed57613bec61380f565b5b6000613bfb84828501613b4c565b91505092915050565b600081519050919050565b600082825260208201905092915050565b60005b83811015613c3e578082015181840152602081019050613c23565b83811115613c4d576000848401525b50505050565b6000613c5e82613c04565b613c688185613c0f565b9350613c78818560208601613c20565b613c8181613823565b840191505092915050565b6000819050919050565b613c9f81613c8c565b82525050565b600082825260208201905092915050565b6000613cc1826136f3565b613ccb8185613ca5565b9350613cd68361370f565b8060005b83811015613d07578151613cee8882613760565b9750613cf983613778565b925050600181019050613cda565b5085935050505092915050565b600060c0830160008301518482036000860152613d318282613c53565b91505060208301518482036020860152613d4b8282613c53565b9150506040830151613d606040860182613751565b5060608301518482036060860152613d788282613c53565b9150506080830151613d8d6080860182613c96565b5060a083015184820360a0860152613da58282613cb6565b9150508091505092915050565b60006020820190508181036000830152613dcc8184613d14565b905092915050565b600081519050919050565b600082825260208201905092915050565b6000819050602082019050919050565b6000819050919050565b613e1381613e00565b82525050565b600081519050919050565b600082825260208201905092915050565b6000819050602082019050919050565b60006040830160008301518482036000860152613e628282613c53565b9150506020830151613e776020860182613751565b508091505092915050565b6000613e8e8383613e45565b905092915050565b6000602082019050919050565b6000613eae82613e19565b613eb88185613e24565b935083602082028501613eca85613e35565b8060005b85811015613f065784840389528151613ee78582613e82565b9450613ef283613e96565b925060208a01995050600181019050613ece565b50829750879550505050505092915050565b600081519050919050565b600082825260208201905092915050565b6000819050602082019050919050565b6000613f508383613c53565b905092915050565b6000602082019050919050565b6000613f7082613f18565b613f7a8185613f23565b935083602082028501613f8c85613f34565b8060005b85811015613fc85784840389528151613fa98582613f44565b9450613fb483613f58565b925060208a01995050600181019050613f90565b50829750879550505050505092915050565b600060e083016000830151613ff26000860182613e0a565b5060208301516140056020860182613751565b506040830151848203604086015261401d8282613c53565b91505060608301516140326060860182613e0a565b5060808301516140456080860182613e0a565b5060a083015184820360a086015261405d8282613ea3565b91505060c083015184820360c08601526140778282613f65565b9150508091505092915050565b60006140908383613fda565b905092915050565b6000602082019050919050565b60006140b082613dd4565b6140ba8185613ddf565b9350836020820285016140cc85613df0565b8060005b8581101561410857848403895281516140e98582614084565b94506140f483614098565b925060208a019950506001810190506140d0565b50829750879550505050505092915050565b6000602082019050818103600083015261413481846140a5565b905092915050565b61414581613e00565b811461415057600080fd5b50565b6000813590506141628161413c565b92915050565b6000806000606084860312156141815761418061380f565b5b600061418f86828701613b4c565b93505060206141a086828701614153565b92505060406141b186828701613b4c565b9150509250925092565b600080600080608085870312156141d5576141d461380f565b5b60006141e387828801613b4c565b94505060206141f487828801614153565b935050604085013567ffffffffffffffff81111561421557614214613814565b5b61422187828801613931565b925050606061423287828801613b4c565b91505092959194509250565b600080604083850312156142555761425461380f565b5b600061426385828601613b4c565b925050602061427485828601614153565b9150509250929050565b7f4e487b7100000000000000000000000000000000000000000000000000000000600052602260045260246000fd5b600060028204905060018216806142c557607f821691505b602082108114156142d9576142d861427e565b5b50919050565b7f4e487b7100000000000000000000000000000000000000000000000000000000600052603260045260246000fd5b7f4e487b7100000000000000000000000000000000000000000000000000000000600052601160045260246000fd5b600061434882613e00565b91507fffffffffffffffffffffffffffffffffffffffffffffffffffffffffffffffff82141561437b5761437a61430e565b5b600182019050919050565b600082825260208201905092915050565b7f5573657220616c72656164792072656769737465726564000000000000000000600082015250565b60006143cd601783614386565b91506143d882614397565b602082019050919050565b600060208201905081810360008301526143fc816143c0565b9050919050565b600081905092915050565b600061441982613c04565b6144238185614403565b9350614433818560208601613c20565b80840191505092915050565b600061444b828461440e565b915081905092915050565b600061446182613c04565b61446b8185614386565b935061447b818560208601613c20565b61448481613823565b840191505092915050565b600060208201905081810360008301526144a98184614456565b905092915050565b7f55736572206e6f74207265676973746572656400000000000000000000000000600082015250565b60006144e7601383614386565b91506144f2826144b1565b602082019050919050565b60006020820190508181036000830152614516816144da565b9050919050565b61452681613e00565b82525050565b6000602082019050614541600083018461451d565b92915050565b7f4e6f7468696e6720706f73746564207965740000000000000000000000000000600082015250565b600061457d601283614386565b915061458882614547565b602082019050919050565b600060208201905081810360008301526145ac81614570565b9050919050565b7f496e76616c696420706f73742049440000000000000000000000000000000000600082015250565b60006145e9600f83614386565b91506145f4826145b3565b602082019050919050565b60006020820190508181036000830152614618816145dc565b9050919050565b600060408201905081810360008301526146398185614456565b9050818103602083015261464d8184614456565b90509392505050565b7f467269656e64206e6f7420726567697374657265640000000000000000000000600082015250565b600061468c601583614386565b915061469782614656565b602082019050919050565b600060208201905081810360008301526146bb8161467f565b9050919050565b60006146cd82613e00565b915060008214156146e1576146e061430e565b5b600182039050919050565b60006146f782613e00565b915061470283613e00565b9250827fffffffffffffffffffffffffffffffffffffffffffffffffffffffffffffffff038211156147375761473661430e565b5b828201905092915050565b600061474d82613e00565b915061475883613e00565b92508282101561476b5761476a61430e565b5b828203905092915050565b7f4e487b7100000000000000000000000000000000000000000000000000000000600052605160045260246000fdfea2646970667358221220b9ccb7c806dfe3aee5b161997b216f7ca264c2f3fcdb73735142b73050617d1564736f6c63430008090033",
  "linkReferences": {},
  "deployedLinkReferences": {}
}