{
  "_format": "hh-sol-artifact-1",
  "contractName": "Dacebook",
  "sourceName": "contracts/Dacebook.sol",
  "abi": [
    {
      "anonymous": false,
      "inputs": [
        {
          "indexed": true,
          "internalType": "address",
          "name": "user",
          "type": "address"
        },
        {
          "indexed": false,
          "internalType": "string",
          "name": "fileUrl",
          "type": "string"
        }
      ],
      "name": "FileUploaded",
      "type": "event"
    },
    {
      "anonymous": false,
      "inputs": [
        {
          "indexed": true,
          "internalType": "address",
          "name": "sender",
          "type": "address"
        },
        {
          "indexed": true,
          "internalType": "address",
          "name": "receiver",
          "type": "address"
        },
        {
          "indexed": false,
          "internalType": "string",
          "name": "content",
          "type": "string"
        }
      ],
      "name": "NewMessage",
      "type": "event"
    },
    {
      "anonymous": false,
      "inputs": [
        {
          "indexed": true,
          "internalType": "address",
          "name": "author",
          "type": "address"
        },
        {
          "indexed": false,
          "internalType": "uint256",
          "name": "postId",
          "type": "uint256"
        }
      ],
      "name": "NewPost",
      "type": "event"
    },
    {
      "anonymous": false,
      "inputs": [
        {
          "indexed": true,
          "internalType": "address",
          "name": "user",
          "type": "address"
        },
        {
          "indexed": false,
          "internalType": "string",
          "name": "name",
          "type": "string"
        }
      ],
      "name": "UserRegistered",
      "type": "event"
    },
    {
      "inputs": [
        {
          "internalType": "address",
          "name": "_friend",
          "type": "address"
        }
      ],
      "name": "addFriend",
      "outputs": [],
      "stateMutability": "nonpayable",
      "type": "function"
    },
    {
      "inputs": [
        {
          "internalType": "address",
          "name": "_user1",
          "type": "address"
        },
        {
          "internalType": "address",
          "name": "_user2",
          "type": "address"
        }
      ],
      "name": "areFriends",
      "outputs": [
        {
          "internalType": "bool",
          "name": "",
          "type": "bool"
        }
      ],
      "stateMutability": "view",
      "type": "function"
    },
    {
      "inputs": [
        {
          "internalType": "address",
          "name": "_author",
          "type": "address"
        },
        {
          "internalType": "uint256",
          "name": "_postId",
          "type": "uint256"
        },
        {
          "internalType": "string",
          "name": "_comment",
          "type": "string"
        }
      ],
      "name": "commentOnPost",
      "outputs": [],
      "stateMutability": "nonpayable",
      "type": "function"
    },
    {
      "inputs": [
        {
          "internalType": "string",
          "name": "_content",
          "type": "string"
        },
        {
          "internalType": "string[]",
          "name": "_uploads",
          "type": "string[]"
        }
      ],
      "name": "createPost",
      "outputs": [],
      "stateMutability": "nonpayable",
      "type": "function"
    },
    {
      "inputs": [
        {
          "internalType": "address",
          "name": "msg_sender",
          "type": "address"
        },
        {
          "internalType": "address",
          "name": "_withUser",
          "type": "address"
        }
      ],
      "name": "getMessages",
      "outputs": [
        {
          "components": [
            {
              "internalType": "address",
              "name": "sender",
              "type": "address"
            },
            {
              "internalType": "address",
              "name": "receiver",
              "type": "address"
            },
            {
              "internalType": "string",
              "name": "content",
              "type": "string"
            },
            {
              "internalType": "uint256",
              "name": "timestamp",
              "type": "uint256"
            }
          ],
          "internalType": "struct Dacebook.Message[]",
          "name": "",
          "type": "tuple[]"
        }
      ],
      "stateMutability": "view",
      "type": "function"
    },
    {
      "inputs": [
        {
          "internalType": "address",
          "name": "_user",
          "type": "address"
        }
      ],
      "name": "getUserPosts",
      "outputs": [
        {
          "components": [
            {
              "internalType": "uint256",
              "name": "id",
              "type": "uint256"
            },
            {
              "internalType": "address",
              "name": "author",
              "type": "address"
            },
            {
              "internalType": "string",
              "name": "content",
              "type": "string"
            },
            {
              "internalType": "uint256",
              "name": "timestamp",
              "type": "uint256"
            },
            {
              "internalType": "uint256",
              "name": "likes",
              "type": "uint256"
            },
            {
              "internalType": "string[]",
              "name": "comments",
              "type": "string[]"
            },
            {
              "internalType": "string[]",
              "name": "uploads",
              "type": "string[]"
            }
          ],
          "internalType": "struct Dacebook.Post[]",
          "name": "",
          "type": "tuple[]"
        }
      ],
      "stateMutability": "view",
      "type": "function"
    },
    {
      "inputs": [
        {
          "internalType": "address",
          "name": "_user",
          "type": "address"
        }
      ],
      "name": "getUserProfile",
      "outputs": [
        {
          "components": [
            {
              "internalType": "string",
              "name": "name",
              "type": "string"
            },
            {
              "internalType": "string",
              "name": "profilePic",
              "type": "string"
            },
            {
              "internalType": "address",
              "name": "userAddress",
              "type": "address"
            },
            {
              "internalType": "string",
              "name": "bio",
              "type": "string"
            },
            {
              "internalType": "bytes32",
              "name": "passwordHash",
              "type": "bytes32"
            },
            {
              "internalType": "address[]",
              "name": "friends",
              "type": "address[]"
            }
          ],
          "internalType": "struct Dacebook.User",
          "name": "",
          "type": "tuple"
        }
      ],
      "stateMutability": "view",
      "type": "function"
    },
    {
      "inputs": [
        {
          "internalType": "address",
          "name": "_author",
          "type": "address"
        },
        {
          "internalType": "uint256",
          "name": "_postId",
          "type": "uint256"
        }
      ],
      "name": "likePost",
      "outputs": [],
      "stateMutability": "nonpayable",
      "type": "function"
    },
    {
      "inputs": [
        {
          "internalType": "string",
          "name": "_name",
          "type": "string"
        },
        {
          "internalType": "string",
          "name": "_profilePic",
          "type": "string"
        },
        {
          "internalType": "string",
          "name": "_bio",
          "type": "string"
        },
        {
          "internalType": "string",
          "name": "_password",
          "type": "string"
        }
      ],
      "name": "register",
      "outputs": [],
      "stateMutability": "nonpayable",
      "type": "function"
    },
    {
      "inputs": [
        {
          "internalType": "address",
          "name": "_receiver",
          "type": "address"
        },
        {
          "internalType": "string",
          "name": "_content",
          "type": "string"
        }
      ],
      "name": "sendMessage",
      "outputs": [],
      "stateMutability": "nonpayable",
      "type": "function"
    },
    {
      "inputs": [
        {
          "internalType": "string",
          "name": "_fileUrl",
          "type": "string"
        }
      ],
      "name": "uploadFile",
      "outputs": [],
      "stateMutability": "nonpayable",
      "type": "function"
    }
  ],
  "bytecode": "0x608060405234801561001057600080fd5b50613185806100206000396000f3fe608060405234801561001057600080fd5b50600436106100a95760003560e01c8063987ee15611610071578063987ee1561461014e5780639a2194a91461017e578063aa3ef80e146101ae578063d7a1cfe1146101de578063de6f24bb146101fa578063e37ffc3014610216576100a9565b8063012d18b9146100ae5780630e24c52c146100ca57806348351529146100e657806352374f7a146101025780638110a8001461011e575b600080fd5b6100c860048036038101906100c39190612279565b610232565b005b6100e460048036038101906100df91906122e8565b6103e3565b005b61010060048036038101906100fb91906123bf565b6106d3565b005b61011c600480360381019061011791906124e5565b61085f565b005b6101386004803603810190610133919061255d565b610b43565b60405161014591906125b8565b60405180910390f35b610168600480360381019061016391906125d3565b610bd7565b60405161017591906127fd565b60405180910390f35b610198600480360381019061019391906125d3565b610f5f565b6040516101a59190612a5c565b60405180910390f35b6101c860048036038101906101c3919061255d565b611341565b6040516101d59190612ba3565b60405180910390f35b6101f860048036038101906101f391906125d3565b6115f1565b005b610214600480360381019061020f9190612bc5565b611a44565b005b610230600480360381019061022b9190612c21565b611d6e565b005b600160003373ffffffffffffffffffffffffffffffffffffffff1673ffffffffffffffffffffffffffffffffffffffff16815260200190815260200160002060009054906101000a900460ff166102be576040517f08c379a00000000000000000000000000000000000000000000000000000000081526004016102b590612cc7565b60405180910390fd5b600260008473ffffffffffffffffffffffffffffffffffffffff1673ffffffffffffffffffffffffffffffffffffffff168152602001908152602001600020805490508210610342576040517f08c379a000000000000000000000000000000000000000000000000000000000815260040161033990612d33565b60405180910390fd5b600260008473ffffffffffffffffffffffffffffffffffffffff1673ffffffffffffffffffffffffffffffffffffffff168152602001908152602001600020828154811061039357610392612d53565b5b9060005260206000209060070201600501819080600181540180825580915050600190039060005260206000200160009091909190915090805190602001906103dd929190611e4b565b50505050565b600160003373ffffffffffffffffffffffffffffffffffffffff1673ffffffffffffffffffffffffffffffffffffffff16815260200190815260200160002060009054906101000a900460ff1615610470576040517f08c379a000000000000000000000000000000000000000000000000000000000815260040161046790612dce565b60405180910390fd5b6040518060c001604052808581526020018481526020013373ffffffffffffffffffffffffffffffffffffffff168152602001838152602001826040516020016104ba9190612e2a565b604051602081830303815290604052805190602001208152602001600067ffffffffffffffff8111156104f0576104ef61214e565b5b60405190808252806020026020018201604052801561051e5781602001602082028036833780820191505090505b508152506000803373ffffffffffffffffffffffffffffffffffffffff1673ffffffffffffffffffffffffffffffffffffffff168152602001908152602001600020600082015181600001908051906020019061057c929190611e4b565b506020820151816001019080519060200190610599929190611e4b565b5060408201518160020160006101000a81548173ffffffffffffffffffffffffffffffffffffffff021916908373ffffffffffffffffffffffffffffffffffffffff16021790555060608201518160030190805190602001906105fd929190611e4b565b506080820151816004015560a0820151816005019080519060200190610624929190611ed1565b5090505060018060003373ffffffffffffffffffffffffffffffffffffffff1673ffffffffffffffffffffffffffffffffffffffff16815260200190815260200160002060006101000a81548160ff0219169083151502179055503373ffffffffffffffffffffffffffffffffffffffff167f48cac28ad4dc618e15f4c2dd5e97751182f166de97b25618318b2112aa951a2f856040516106c59190612e7a565b60405180910390a250505050565b600160003373ffffffffffffffffffffffffffffffffffffffff1673ffffffffffffffffffffffffffffffffffffffff16815260200190815260200160002060009054906101000a900460ff1661075f576040517f08c379a000000000000000000000000000000000000000000000000000000000815260040161075690612cc7565b60405180910390fd5b600260008373ffffffffffffffffffffffffffffffffffffffff1673ffffffffffffffffffffffffffffffffffffffff1681526020019081526020016000208054905081106107e3576040517f08c379a00000000000000000000000000000000000000000000000000000000081526004016107da90612d33565b60405180910390fd5b600260008373ffffffffffffffffffffffffffffffffffffffff1673ffffffffffffffffffffffffffffffffffffffff168152602001908152602001600020818154811061083457610833612d53565b5b9060005260206000209060070201600401600081548092919061085690612ecb565b91905055505050565b600160003373ffffffffffffffffffffffffffffffffffffffff1673ffffffffffffffffffffffffffffffffffffffff16815260200190815260200160002060009054906101000a900460ff166108eb576040517f08c379a00000000000000000000000000000000000000000000000000000000081526004016108e290612cc7565b60405180910390fd5b6000600260003373ffffffffffffffffffffffffffffffffffffffff1673ffffffffffffffffffffffffffffffffffffffff168152602001908152602001600020805490509050600260003373ffffffffffffffffffffffffffffffffffffffff1673ffffffffffffffffffffffffffffffffffffffff1681526020019081526020016000206040518060e001604052808381526020013373ffffffffffffffffffffffffffffffffffffffff16815260200185815260200142815260200160008152602001600067ffffffffffffffff8111156109cc576109cb61214e565b5b6040519080825280602002602001820160405280156109ff57816020015b60608152602001906001900390816109ea5790505b5081526020018481525090806001815401808255809150506001900390600052602060002090600702016000909190919091506000820151816000015560208201518160010160006101000a81548173ffffffffffffffffffffffffffffffffffffffff021916908373ffffffffffffffffffffffffffffffffffffffff1602179055506040820151816002019080519060200190610a9f929190611e4b565b50606082015181600301556080820151816004015560a0820151816005019080519060200190610ad0929190611f5b565b5060c0820151816006019080519060200190610aed929190611f5b565b5050503373ffffffffffffffffffffffffffffffffffffffff167f227d44868fd91794465aa9733e53308aaf7503a80920f790d5060691fe03a3e782604051610b369190612f23565b60405180910390a2505050565b6000600460008473ffffffffffffffffffffffffffffffffffffffff1673ffffffffffffffffffffffffffffffffffffffff16815260200190815260200160002060008373ffffffffffffffffffffffffffffffffffffffff1673ffffffffffffffffffffffffffffffffffffffff16815260200190815260200160002060009054906101000a900460ff16905092915050565b610bdf611fbb565b600160008373ffffffffffffffffffffffffffffffffffffffff1673ffffffffffffffffffffffffffffffffffffffff16815260200190815260200160002060009054906101000a900460ff16610c6b576040517f08c379a0000000000000000000000000000000000000000000000000000000008152600401610c6290612cc7565b60405180910390fd5b6000808373ffffffffffffffffffffffffffffffffffffffff1673ffffffffffffffffffffffffffffffffffffffff1681526020019081526020016000206040518060c0016040529081600082018054610cc490612f6d565b80601f0160208091040260200160405190810160405280929190818152602001828054610cf090612f6d565b8015610d3d5780601f10610d1257610100808354040283529160200191610d3d565b820191906000526020600020905b815481529060010190602001808311610d2057829003601f168201915b50505050508152602001600182018054610d5690612f6d565b80601f0160208091040260200160405190810160405280929190818152602001828054610d8290612f6d565b8015610dcf5780601f10610da457610100808354040283529160200191610dcf565b820191906000526020600020905b815481529060010190602001808311610db257829003601f168201915b505050505081526020016002820160009054906101000a900473ffffffffffffffffffffffffffffffffffffffff1673ffffffffffffffffffffffffffffffffffffffff1673ffffffffffffffffffffffffffffffffffffffff168152602001600382018054610e3e90612f6d565b80601f0160208091040260200160405190810160405280929190818152602001828054610e6a90612f6d565b8015610eb75780601f10610e8c57610100808354040283529160200191610eb7565b820191906000526020600020905b815481529060010190602001808311610e9a57829003601f168201915b505050505081526020016004820154815260200160058201805480602002602001604051908101604052809291908181526020018280548015610f4f57602002820191906000526020600020905b8160009054906101000a900473ffffffffffffffffffffffffffffffffffffffff1673ffffffffffffffffffffffffffffffffffffffff1681526020019060010190808311610f05575b5050505050815250509050919050565b6060600160008373ffffffffffffffffffffffffffffffffffffffff1673ffffffffffffffffffffffffffffffffffffffff16815260200190815260200160002060009054906101000a900460ff16610fed576040517f08c379a0000000000000000000000000000000000000000000000000000000008152600401610fe490612cc7565b60405180910390fd5b600260008373ffffffffffffffffffffffffffffffffffffffff1673ffffffffffffffffffffffffffffffffffffffff168152602001908152602001600020805480602002602001604051908101604052809291908181526020016000905b8282101561133657838290600052602060002090600702016040518060e0016040529081600082015481526020016001820160009054906101000a900473ffffffffffffffffffffffffffffffffffffffff1673ffffffffffffffffffffffffffffffffffffffff1673ffffffffffffffffffffffffffffffffffffffff1681526020016002820180546110df90612f6d565b80601f016020809104026020016040519081016040528092919081815260200182805461110b90612f6d565b80156111585780601f1061112d57610100808354040283529160200191611158565b820191906000526020600020905b81548152906001019060200180831161113b57829003601f168201915b50505050508152602001600382015481526020016004820154815260200160058201805480602002602001604051908101604052809291908181526020016000905b828210156112465783829060005260206000200180546111b990612f6d565b80601f01602080910402602001604051908101604052809291908181526020018280546111e590612f6d565b80156112325780601f1061120757610100808354040283529160200191611232565b820191906000526020600020905b81548152906001019060200180831161121557829003601f168201915b50505050508152602001906001019061119a565b50505050815260200160068201805480602002602001604051908101604052809291908181526020016000905b8282101561131f57838290600052602060002001805461129290612f6d565b80601f01602080910402602001604051908101604052809291908181526020018280546112be90612f6d565b801561130b5780601f106112e05761010080835404028352916020019161130b565b820191906000526020600020905b8154815290600101906020018083116112ee57829003601f168201915b505050505081526020019060010190611273565b50505050815250508152602001906001019061104c565b505050509050919050565b6060600160008473ffffffffffffffffffffffffffffffffffffffff1673ffffffffffffffffffffffffffffffffffffffff16815260200190815260200160002060009054906101000a900460ff166113cf576040517f08c379a00000000000000000000000000000000000000000000000000000000081526004016113c690612cc7565b60405180910390fd5b600360008473ffffffffffffffffffffffffffffffffffffffff1673ffffffffffffffffffffffffffffffffffffffff16815260200190815260200160002060008373ffffffffffffffffffffffffffffffffffffffff1673ffffffffffffffffffffffffffffffffffffffff168152602001908152602001600020805480602002602001604051908101604052809291908181526020016000905b828210156115e557838290600052602060002090600402016040518060800160405290816000820160009054906101000a900473ffffffffffffffffffffffffffffffffffffffff1673ffffffffffffffffffffffffffffffffffffffff1673ffffffffffffffffffffffffffffffffffffffff1681526020016001820160009054906101000a900473ffffffffffffffffffffffffffffffffffffffff1673ffffffffffffffffffffffffffffffffffffffff1673ffffffffffffffffffffffffffffffffffffffff16815260200160028201805461154a90612f6d565b80601f016020809104026020016040519081016040528092919081815260200182805461157690612f6d565b80156115c35780601f10611598576101008083540402835291602001916115c3565b820191906000526020600020905b8154815290600101906020018083116115a657829003601f168201915b505050505081526020016003820154815250508152602001906001019061146b565b50505050905092915050565b600160003373ffffffffffffffffffffffffffffffffffffffff1673ffffffffffffffffffffffffffffffffffffffff16815260200190815260200160002060009054906101000a900460ff1661167d576040517f08c379a000000000000000000000000000000000000000000000000000000000815260040161167490612cc7565b60405180910390fd5b600160008273ffffffffffffffffffffffffffffffffffffffff1673ffffffffffffffffffffffffffffffffffffffff16815260200190815260200160002060009054906101000a900460ff16611709576040517f08c379a000000000000000000000000000000000000000000000000000000000815260040161170090612feb565b60405180910390fd5b600460003373ffffffffffffffffffffffffffffffffffffffff1673ffffffffffffffffffffffffffffffffffffffff16815260200190815260200160002060008273ffffffffffffffffffffffffffffffffffffffff1673ffffffffffffffffffffffffffffffffffffffff16815260200190815260200160002060009054906101000a900460ff16156117d3576040517f08c379a00000000000000000000000000000000000000000000000000000000081526004016117ca90613057565b60405180910390fd5b6001600460003373ffffffffffffffffffffffffffffffffffffffff1673ffffffffffffffffffffffffffffffffffffffff16815260200190815260200160002060008373ffffffffffffffffffffffffffffffffffffffff1673ffffffffffffffffffffffffffffffffffffffff16815260200190815260200160002060006101000a81548160ff0219169083151502179055506001600460008373ffffffffffffffffffffffffffffffffffffffff1673ffffffffffffffffffffffffffffffffffffffff16815260200190815260200160002060003373ffffffffffffffffffffffffffffffffffffffff1673ffffffffffffffffffffffffffffffffffffffff16815260200190815260200160002060006101000a81548160ff0219169083151502179055506000803373ffffffffffffffffffffffffffffffffffffffff1673ffffffffffffffffffffffffffffffffffffffff168152602001908152602001600020600501819080600181540180825580915050600190039060005260206000200160009091909190916101000a81548173ffffffffffffffffffffffffffffffffffffffff021916908373ffffffffffffffffffffffffffffffffffffffff1602179055506000808273ffffffffffffffffffffffffffffffffffffffff1673ffffffffffffffffffffffffffffffffffffffff168152602001908152602001600020600501339080600181540180825580915050600190039060005260206000200160009091909190916101000a81548173ffffffffffffffffffffffffffffffffffffffff021916908373ffffffffffffffffffffffffffffffffffffffff16021790555050565b600160003373ffffffffffffffffffffffffffffffffffffffff1673ffffffffffffffffffffffffffffffffffffffff16815260200190815260200160002060009054906101000a900460ff16611ad0576040517f08c379a0000000000000000000000000000000000000000000000000000000008152600401611ac7906130c3565b60405180910390fd5b600160008373ffffffffffffffffffffffffffffffffffffffff1673ffffffffffffffffffffffffffffffffffffffff16815260200190815260200160002060009054906101000a900460ff16611b5c576040517f08c379a0000000000000000000000000000000000000000000000000000000008152600401611b539061312f565b60405180910390fd5b600360003373ffffffffffffffffffffffffffffffffffffffff1673ffffffffffffffffffffffffffffffffffffffff16815260200190815260200160002060008373ffffffffffffffffffffffffffffffffffffffff1673ffffffffffffffffffffffffffffffffffffffff16815260200190815260200160002060405180608001604052803373ffffffffffffffffffffffffffffffffffffffff1681526020018473ffffffffffffffffffffffffffffffffffffffff16815260200183815260200142815250908060018154018082558091505060019003906000526020600020906004020160009091909190915060008201518160000160006101000a81548173ffffffffffffffffffffffffffffffffffffffff021916908373ffffffffffffffffffffffffffffffffffffffff16021790555060208201518160010160006101000a81548173ffffffffffffffffffffffffffffffffffffffff021916908373ffffffffffffffffffffffffffffffffffffffff1602179055506040820151816002019080519060200190611cf8929190611e4b565b506060820151816003015550508173ffffffffffffffffffffffffffffffffffffffff163373ffffffffffffffffffffffffffffffffffffffff167fc0e964a89ae4af54eaf553b02f07849ce6ddc028e52aec665236032bdd33a52283604051611d629190612e7a565b60405180910390a35050565b600160003373ffffffffffffffffffffffffffffffffffffffff1673ffffffffffffffffffffffffffffffffffffffff16815260200190815260200160002060009054906101000a900460ff16611dfa576040517f08c379a0000000000000000000000000000000000000000000000000000000008152600401611df190612cc7565b60405180910390fd5b3373ffffffffffffffffffffffffffffffffffffffff167f5378764a7f2ef654d29aa1cad65388f3dade11c871fbcd558bf6b56be0e37de882604051611e409190612e7a565b60405180910390a250565b828054611e5790612f6d565b90600052602060002090601f016020900481019282611e795760008555611ec0565b82601f10611e9257805160ff1916838001178555611ec0565b82800160010185558215611ec0579182015b82811115611ebf578251825591602001919060010190611ea4565b5b509050611ecd919061200a565b5090565b828054828255906000526020600020908101928215611f4a579160200282015b82811115611f495782518260006101000a81548173ffffffffffffffffffffffffffffffffffffffff021916908373ffffffffffffffffffffffffffffffffffffffff16021790555091602001919060010190611ef1565b5b509050611f57919061200a565b5090565b828054828255906000526020600020908101928215611faa579160200282015b82811115611fa9578251829080519060200190611f99929190611e4b565b5091602001919060010190611f7b565b5b509050611fb79190612027565b5090565b6040518060c001604052806060815260200160608152602001600073ffffffffffffffffffffffffffffffffffffffff1681526020016060815260200160008019168152602001606081525090565b5b8082111561202357600081600090555060010161200b565b5090565b5b80821115612047576000818161203e919061204b565b50600101612028565b5090565b50805461205790612f6d565b6000825580601f106120695750612088565b601f016020900490600052602060002090810190612087919061200a565b5b50565b6000604051905090565b600080fd5b600080fd5b600073ffffffffffffffffffffffffffffffffffffffff82169050919050565b60006120ca8261209f565b9050919050565b6120da816120bf565b81146120e557600080fd5b50565b6000813590506120f7816120d1565b92915050565b6000819050919050565b612110816120fd565b811461211b57600080fd5b50565b60008135905061212d81612107565b92915050565b600080fd5b600080fd5b6000601f19601f8301169050919050565b7f4e487b7100000000000000000000000000000000000000000000000000000000600052604160045260246000fd5b6121868261213d565b810181811067ffffffffffffffff821117156121a5576121a461214e565b5b80604052505050565b60006121b861208b565b90506121c4828261217d565b919050565b600067ffffffffffffffff8211156121e4576121e361214e565b5b6121ed8261213d565b9050602081019050919050565b82818337600083830152505050565b600061221c612217846121c9565b6121ae565b90508281526020810184848401111561223857612237612138565b5b6122438482856121fa565b509392505050565b600082601f8301126122605761225f612133565b5b8135612270848260208601612209565b91505092915050565b60008060006060848603121561229257612291612095565b5b60006122a0868287016120e8565b93505060206122b18682870161211e565b925050604084013567ffffffffffffffff8111156122d2576122d161209a565b5b6122de8682870161224b565b9150509250925092565b6000806000806080858703121561230257612301612095565b5b600085013567ffffffffffffffff8111156123205761231f61209a565b5b61232c8782880161224b565b945050602085013567ffffffffffffffff81111561234d5761234c61209a565b5b6123598782880161224b565b935050604085013567ffffffffffffffff81111561237a5761237961209a565b5b6123868782880161224b565b925050606085013567ffffffffffffffff8111156123a7576123a661209a565b5b6123b38782880161224b565b91505092959194509250565b600080604083850312156123d6576123d5612095565b5b60006123e4858286016120e8565b92505060206123f58582860161211e565b9150509250929050565b600067ffffffffffffffff82111561241a5761241961214e565b5b602082029050602081019050919050565b600080fd5b600061244361243e846123ff565b6121ae565b905080838252602082019050602084028301858111156124665761246561242b565b5b835b818110156124ad57803567ffffffffffffffff81111561248b5761248a612133565b5b808601612498898261224b565b85526020850194505050602081019050612468565b5050509392505050565b600082601f8301126124cc576124cb612133565b5b81356124dc848260208601612430565b91505092915050565b600080604083850312156124fc576124fb612095565b5b600083013567ffffffffffffffff81111561251a5761251961209a565b5b6125268582860161224b565b925050602083013567ffffffffffffffff8111156125475761254661209a565b5b612553858286016124b7565b9150509250929050565b6000806040838503121561257457612573612095565b5b6000612582858286016120e8565b9250506020612593858286016120e8565b9150509250929050565b60008115159050919050565b6125b28161259d565b82525050565b60006020820190506125cd60008301846125a9565b92915050565b6000602082840312156125e9576125e8612095565b5b60006125f7848285016120e8565b91505092915050565b600081519050919050565b600082825260208201905092915050565b60005b8381101561263a57808201518184015260208101905061261f565b83811115612649576000848401525b50505050565b600061265a82612600565b612664818561260b565b935061267481856020860161261c565b61267d8161213d565b840191505092915050565b612691816120bf565b82525050565b6000819050919050565b6126aa81612697565b82525050565b600081519050919050565b600082825260208201905092915050565b6000819050602082019050919050565b60006126e88383612688565b60208301905092915050565b6000602082019050919050565b600061270c826126b0565b61271681856126bb565b9350612721836126cc565b8060005b8381101561275257815161273988826126dc565b9750612744836126f4565b925050600181019050612725565b5085935050505092915050565b600060c083016000830151848203600086015261277c828261264f565b91505060208301518482036020860152612796828261264f565b91505060408301516127ab6040860182612688565b50606083015184820360608601526127c3828261264f565b91505060808301516127d860808601826126a1565b5060a083015184820360a08601526127f08282612701565b9150508091505092915050565b60006020820190508181036000830152612817818461275f565b905092915050565b600081519050919050565b600082825260208201905092915050565b6000819050602082019050919050565b612854816120fd565b82525050565b600081519050919050565b600082825260208201905092915050565b6000819050602082019050919050565b6000612892838361264f565b905092915050565b6000602082019050919050565b60006128b28261285a565b6128bc8185612865565b9350836020820285016128ce85612876565b8060005b8581101561290a57848403895281516128eb8582612886565b94506128f68361289a565b925060208a019950506001810190506128d2565b50829750879550505050505092915050565b600060e083016000830151612934600086018261284b565b5060208301516129476020860182612688565b506040830151848203604086015261295f828261264f565b9150506060830151612974606086018261284b565b506080830151612987608086018261284b565b5060a083015184820360a086015261299f82826128a7565b91505060c083015184820360c08601526129b982826128a7565b9150508091505092915050565b60006129d2838361291c565b905092915050565b6000602082019050919050565b60006129f28261281f565b6129fc818561282a565b935083602082028501612a0e8561283b565b8060005b85811015612a4a5784840389528151612a2b85826129c6565b9450612a36836129da565b925060208a01995050600181019050612a12565b50829750879550505050505092915050565b60006020820190508181036000830152612a7681846129e7565b905092915050565b600081519050919050565b600082825260208201905092915050565b6000819050602082019050919050565b6000608083016000830151612ac26000860182612688565b506020830151612ad56020860182612688565b5060408301518482036040860152612aed828261264f565b9150506060830151612b02606086018261284b565b508091505092915050565b6000612b198383612aaa565b905092915050565b6000602082019050919050565b6000612b3982612a7e565b612b438185612a89565b935083602082028501612b5585612a9a565b8060005b85811015612b915784840389528151612b728582612b0d565b9450612b7d83612b21565b925060208a01995050600181019050612b59565b50829750879550505050505092915050565b60006020820190508181036000830152612bbd8184612b2e565b905092915050565b60008060408385031215612bdc57612bdb612095565b5b6000612bea858286016120e8565b925050602083013567ffffffffffffffff811115612c0b57612c0a61209a565b5b612c178582860161224b565b9150509250929050565b600060208284031215612c3757612c36612095565b5b600082013567ffffffffffffffff811115612c5557612c5461209a565b5b612c618482850161224b565b91505092915050565b600082825260208201905092915050565b7f55736572206e6f74207265676973746572656400000000000000000000000000600082015250565b6000612cb1601383612c6a565b9150612cbc82612c7b565b602082019050919050565b60006020820190508181036000830152612ce081612ca4565b9050919050565b7f496e76616c696420706f73742049440000000000000000000000000000000000600082015250565b6000612d1d600f83612c6a565b9150612d2882612ce7565b602082019050919050565b60006020820190508181036000830152612d4c81612d10565b9050919050565b7f4e487b7100000000000000000000000000000000000000000000000000000000600052603260045260246000fd5b7f5573657220616c72656164792072656769737465726564000000000000000000600082015250565b6000612db8601783612c6a565b9150612dc382612d82565b602082019050919050565b60006020820190508181036000830152612de781612dab565b9050919050565b600081905092915050565b6000612e0482612600565b612e0e8185612dee565b9350612e1e81856020860161261c565b80840191505092915050565b6000612e368284612df9565b915081905092915050565b6000612e4c82612600565b612e568185612c6a565b9350612e6681856020860161261c565b612e6f8161213d565b840191505092915050565b60006020820190508181036000830152612e948184612e41565b905092915050565b7f4e487b7100000000000000000000000000000000000000000000000000000000600052601160045260246000fd5b6000612ed6826120fd565b91507fffffffffffffffffffffffffffffffffffffffffffffffffffffffffffffffff821415612f0957612f08612e9c565b5b600182019050919050565b612f1d816120fd565b82525050565b6000602082019050612f386000830184612f14565b92915050565b7f4e487b7100000000000000000000000000000000000000000000000000000000600052602260045260246000fd5b60006002820490506001821680612f8557607f821691505b60208210811415612f9957612f98612f3e565b5b50919050565b7f467269656e64206e6f7420726567697374657265640000000000000000000000600082015250565b6000612fd5601583612c6a565b9150612fe082612f9f565b602082019050919050565b6000602082019050818103600083015261300481612fc8565b9050919050565b7f416c726561647920667269656e64730000000000000000000000000000000000600082015250565b6000613041600f83612c6a565b915061304c8261300b565b602082019050919050565b6000602082019050818103600083015261307081613034565b9050919050565b7f53656e646572206e6f7420726567697374657265640000000000000000000000600082015250565b60006130ad601583612c6a565b91506130b882613077565b602082019050919050565b600060208201905081810360008301526130dc816130a0565b9050919050565b7f5265636569766572206e6f742072656769737465726564000000000000000000600082015250565b6000613119601783612c6a565b9150613124826130e3565b602082019050919050565b600060208201905081810360008301526131488161310c565b905091905056fea2646970667358221220a91d97f0886b33aa2a3f9a70c8e1edd32734e54f966af02d9753f7d827cd09b364736f6c63430008090033",
  "linkReferences": {},
  "deployedLinkReferences": {}
}