{
  "_format": "hh-sol-artifact-1",
  "contractName": "Dacebook",
  "sourceName": "contracts/Dacebook.sol",
  "abi": [
    {
      "anonymous": false,
      "inputs": [
        {
          "indexed": true,
          "internalType": "address",
          "name": "user",
          "type": "address"
        },
        {
          "indexed": false,
          "internalType": "string",
          "name": "fileUrl",
          "type": "string"
        }
      ],
      "name": "FileUploaded",
      "type": "event"
    },
    {
      "anonymous": false,
      "inputs": [
        {
          "indexed": true,
          "internalType": "address",
          "name": "sender",
          "type": "address"
        },
        {
          "indexed": true,
          "internalType": "address",
          "name": "receiver",
          "type": "address"
        },
        {
          "indexed": false,
          "internalType": "string",
          "name": "content",
          "type": "string"
        }
      ],
      "name": "NewMessage",
      "type": "event"
    },
    {
      "anonymous": false,
      "inputs": [
        {
          "indexed": true,
          "internalType": "address",
          "name": "author",
          "type": "address"
        },
        {
          "indexed": false,
          "internalType": "uint256",
          "name": "postId",
          "type": "uint256"
        }
      ],
      "name": "NewPost",
      "type": "event"
    },
    {
      "anonymous": false,
      "inputs": [
        {
          "indexed": true,
          "internalType": "address",
          "name": "author",
          "type": "address"
        },
        {
          "indexed": false,
          "internalType": "uint256",
          "name": "postId",
          "type": "uint256"
        }
      ],
      "name": "PostDeleted",
      "type": "event"
    },
    {
      "anonymous": false,
      "inputs": [
        {
          "indexed": true,
          "internalType": "address",
          "name": "userAddress",
          "type": "address"
        },
        {
          "indexed": false,
          "internalType": "string",
          "name": "profilePic",
          "type": "string"
        },
        {
          "indexed": false,
          "internalType": "string",
          "name": "bio",
          "type": "string"
        }
      ],
      "name": "ProfileUpdated",
      "type": "event"
    },
    {
      "anonymous": false,
      "inputs": [
        {
          "indexed": true,
          "internalType": "address",
          "name": "userAddress",
          "type": "address"
        },
        {
          "indexed": false,
          "internalType": "string",
          "name": "name",
          "type": "string"
        }
      ],
      "name": "UserRegistered",
      "type": "event"
    },
    {
      "inputs": [
        {
          "internalType": "address",
          "name": "_user1",
          "type": "address"
        },
        {
          "internalType": "address",
          "name": "_user2",
          "type": "address"
        }
      ],
      "name": "areFriends",
      "outputs": [
        {
          "internalType": "bool",
          "name": "",
          "type": "bool"
        }
      ],
      "stateMutability": "view",
      "type": "function"
    },
    {
      "inputs": [
        {
          "internalType": "address",
          "name": "_author",
          "type": "address"
        },
        {
          "internalType": "uint256",
          "name": "_postId",
          "type": "uint256"
        },
        {
          "internalType": "string",
          "name": "_comment",
          "type": "string"
        }
      ],
      "name": "commentOnPost",
      "outputs": [],
      "stateMutability": "nonpayable",
      "type": "function"
    },
    {
      "inputs": [
        {
          "internalType": "string",
          "name": "_content",
          "type": "string"
        },
        {
          "internalType": "string[]",
          "name": "_uploads",
          "type": "string[]"
        }
      ],
      "name": "createPost",
      "outputs": [],
      "stateMutability": "nonpayable",
      "type": "function"
    },
    {
      "inputs": [
        {
          "internalType": "uint256",
          "name": "_postId",
          "type": "uint256"
        }
      ],
      "name": "deletePost",
      "outputs": [],
      "stateMutability": "nonpayable",
      "type": "function"
    },
    {
      "inputs": [],
      "name": "getFriends",
      "outputs": [
        {
          "internalType": "address[]",
          "name": "",
          "type": "address[]"
        }
      ],
      "stateMutability": "view",
      "type": "function"
    },
    {
      "inputs": [
        {
          "internalType": "address",
          "name": "_user",
          "type": "address"
        }
      ],
      "name": "getPostCount",
      "outputs": [
        {
          "internalType": "uint256",
          "name": "",
          "type": "uint256"
        }
      ],
      "stateMutability": "view",
      "type": "function"
    },
    {
      "inputs": [
        {
          "internalType": "address",
          "name": "_user",
          "type": "address"
        }
      ],
      "name": "getPosts",
      "outputs": [
        {
          "components": [
            {
              "internalType": "uint256",
              "name": "id",
              "type": "uint256"
            },
            {
              "internalType": "address",
              "name": "author",
              "type": "address"
            },
            {
              "internalType": "string",
              "name": "content",
              "type": "string"
            },
            {
              "internalType": "uint256",
              "name": "timestamp",
              "type": "uint256"
            },
            {
              "internalType": "uint256",
              "name": "likes",
              "type": "uint256"
            },
            {
              "components": [
                {
                  "internalType": "string",
                  "name": "text",
                  "type": "string"
                },
                {
                  "internalType": "address",
                  "name": "userAddress",
                  "type": "address"
                }
              ],
              "internalType": "struct Dacebook.Comment[]",
              "name": "comments",
              "type": "tuple[]"
            },
            {
              "internalType": "string[]",
              "name": "uploads",
              "type": "string[]"
            }
          ],
          "internalType": "struct Dacebook.Post[]",
          "name": "",
          "type": "tuple[]"
        }
      ],
      "stateMutability": "view",
      "type": "function"
    },
    {
      "inputs": [],
      "name": "getTotalPostCount",
      "outputs": [
        {
          "internalType": "uint256",
          "name": "",
          "type": "uint256"
        }
      ],
      "stateMutability": "view",
      "type": "function"
    },
    {
      "inputs": [
        {
          "internalType": "address",
          "name": "_user",
          "type": "address"
        }
      ],
      "name": "getUserPosts",
      "outputs": [
        {
          "components": [
            {
              "internalType": "uint256",
              "name": "id",
              "type": "uint256"
            },
            {
              "internalType": "address",
              "name": "author",
              "type": "address"
            },
            {
              "internalType": "string",
              "name": "content",
              "type": "string"
            },
            {
              "internalType": "uint256",
              "name": "timestamp",
              "type": "uint256"
            },
            {
              "internalType": "uint256",
              "name": "likes",
              "type": "uint256"
            },
            {
              "components": [
                {
                  "internalType": "string",
                  "name": "text",
                  "type": "string"
                },
                {
                  "internalType": "address",
                  "name": "userAddress",
                  "type": "address"
                }
              ],
              "internalType": "struct Dacebook.Comment[]",
              "name": "comments",
              "type": "tuple[]"
            },
            {
              "internalType": "string[]",
              "name": "uploads",
              "type": "string[]"
            }
          ],
          "internalType": "struct Dacebook.Post[]",
          "name": "",
          "type": "tuple[]"
        }
      ],
      "stateMutability": "view",
      "type": "function"
    },
    {
      "inputs": [
        {
          "internalType": "address",
          "name": "_user",
          "type": "address"
        }
      ],
      "name": "getUserProfile",
      "outputs": [
        {
          "components": [
            {
              "internalType": "string",
              "name": "name",
              "type": "string"
            },
            {
              "internalType": "string",
              "name": "profilePic",
              "type": "string"
            },
            {
              "internalType": "address",
              "name": "userAddress",
              "type": "address"
            },
            {
              "internalType": "string",
              "name": "bio",
              "type": "string"
            },
            {
              "internalType": "bytes32",
              "name": "passwordHash",
              "type": "bytes32"
            },
            {
              "internalType": "address[]",
              "name": "friends",
              "type": "address[]"
            }
          ],
          "internalType": "struct Dacebook.User",
          "name": "",
          "type": "tuple"
        }
      ],
      "stateMutability": "view",
      "type": "function"
    },
    {
      "inputs": [
        {
          "internalType": "address",
          "name": "",
          "type": "address"
        },
        {
          "internalType": "uint256",
          "name": "",
          "type": "uint256"
        },
        {
          "internalType": "address",
          "name": "",
          "type": "address"
        }
      ],
      "name": "isLiked",
      "outputs": [
        {
          "internalType": "bool",
          "name": "",
          "type": "bool"
        }
      ],
      "stateMutability": "view",
      "type": "function"
    },
    {
      "inputs": [
        {
          "internalType": "string",
          "name": "_name",
          "type": "string"
        },
        {
          "internalType": "string",
          "name": "_password",
          "type": "string"
        }
      ],
      "name": "register",
      "outputs": [],
      "stateMutability": "nonpayable",
      "type": "function"
    },
    {
      "inputs": [
        {
          "internalType": "address",
          "name": "_friend",
          "type": "address"
        }
      ],
      "name": "toggleFriend",
      "outputs": [],
      "stateMutability": "nonpayable",
      "type": "function"
    },
    {
      "inputs": [
        {
          "internalType": "address",
          "name": "_author",
          "type": "address"
        },
        {
          "internalType": "uint256",
          "name": "_postId",
          "type": "uint256"
        }
      ],
      "name": "toggleLikeonPost",
      "outputs": [],
      "stateMutability": "nonpayable",
      "type": "function"
    },
    {
      "inputs": [
        {
          "internalType": "string",
          "name": "_profilePic",
          "type": "string"
        },
        {
          "internalType": "string",
          "name": "_bio",
          "type": "string"
        }
      ],
      "name": "updateProfile",
      "outputs": [],
      "stateMutability": "nonpayable",
      "type": "function"
    }
  ],
  "bytecode": "0x6080604052600060065534801561001557600080fd5b50614a33806100256000396000f3fe608060405234801561001057600080fd5b50600436106100f55760003560e01c8063987ee15611610097578063c9d3cc6a11610066578063c9d3cc6a146102a8578063d9806cd5146102c4578063db2598f0146102e0578063efbe8469146102fc576100f5565b8063987ee156146101e85780639a2194a914610218578063a4c7fafa14610248578063b0ed7a7f14610278576100f5565b80633ffbd47f116100d35780633ffbd47f146101505780634caf9d0b1461016c57806352374f7a1461019c5780638110a800146101b8576100f5565b8063012d18b9146100fa578063094cd5ee146101165780631f8f727014610132575b600080fd5b610114600480360381019061010f9190613ae3565b61031a565b005b610130600480360381019061012b9190613b52565b61058f565b005b61013a6108c9565b6040516101479190613c3d565b60405180910390f35b61016a60048036038101906101659190613c5f565b610d3f565b005b61018660048036038101906101819190613cd7565b61104b565b60405161019391906140c8565b60405180910390f35b6101b660048036038101906101b191906141d0565b612010565b005b6101d260048036038101906101cd9190614248565b612241565b6040516101df91906142a3565b60405180910390f35b61020260048036038101906101fd9190613cd7565b6122d5565b60405161020f91906143e4565b60405180910390f35b610232600480360381019061022d9190613cd7565b61265d565b60405161023f91906140c8565b60405180910390f35b610262600480360381019061025d9190613cd7565b612aad565b60405161026f9190614415565b60405180910390f35b610292600480360381019061028d9190614430565b612b85565b60405161029f91906142a3565b60405180910390f35b6102c260048036038101906102bd9190613c5f565b612bc1565b005b6102de60048036038101906102d99190613cd7565b612d4d565b005b6102fa60048036038101906102f59190614483565b6131db565b005b6103046135c5565b6040516103119190614415565b60405180910390f35b600160003373ffffffffffffffffffffffffffffffffffffffff1673ffffffffffffffffffffffffffffffffffffffff16815260200190815260200160002060009054906101000a900460ff166103a6576040517f08c379a000000000000000000000000000000000000000000000000000000000815260040161039d90614520565b60405180910390fd5b600260008473ffffffffffffffffffffffffffffffffffffffff1673ffffffffffffffffffffffffffffffffffffffff16815260200190815260200160002080549050821061042a576040517f08c379a00000000000000000000000000000000000000000000000000000000081526004016104219061458c565b60405180910390fd5b600081511161046e576040517f08c379a0000000000000000000000000000000000000000000000000000000008152600401610465906145f8565b60405180910390fd5b600260008473ffffffffffffffffffffffffffffffffffffffff1673ffffffffffffffffffffffffffffffffffffffff16815260200190815260200160002082815481106104bf576104be614618565b5b906000526020600020906007020160050160405180604001604052808381526020013373ffffffffffffffffffffffffffffffffffffffff16815250908060018154018082558091505060019003906000526020600020906002020160009091909190915060008201518160000190805190602001906105409291906135cf565b5060208201518160010160006101000a81548173ffffffffffffffffffffffffffffffffffffffff021916908373ffffffffffffffffffffffffffffffffffffffff1602179055505050505050565b600160003373ffffffffffffffffffffffffffffffffffffffff1673ffffffffffffffffffffffffffffffffffffffff16815260200190815260200160002060009054906101000a900460ff1661061b576040517f08c379a000000000000000000000000000000000000000000000000000000000815260040161061290614520565b60405180910390fd5b600260003373ffffffffffffffffffffffffffffffffffffffff1673ffffffffffffffffffffffffffffffffffffffff16815260200190815260200160002080549050811061069f576040517f08c379a00000000000000000000000000000000000000000000000000000000081526004016106969061458c565b60405180910390fd5b3373ffffffffffffffffffffffffffffffffffffffff16600260003373ffffffffffffffffffffffffffffffffffffffff1673ffffffffffffffffffffffffffffffffffffffff168152602001908152602001600020828154811061070757610706614618565b5b906000526020600020906007020160010160009054906101000a900473ffffffffffffffffffffffffffffffffffffffff1673ffffffffffffffffffffffffffffffffffffffff161461078f576040517f08c379a000000000000000000000000000000000000000000000000000000000815260040161078690614693565b60405180910390fd5b600260003373ffffffffffffffffffffffffffffffffffffffff1673ffffffffffffffffffffffffffffffffffffffff16815260200190815260200160002081815481106107e0576107df614618565b5b90600052602060002090600702016000808201600090556001820160006101000a81549073ffffffffffffffffffffffffffffffffffffffff021916905560028201600061082e9190613655565b6003820160009055600482016000905560058201600061084e9190613695565b60068201600061085e91906136b9565b505060066000815480929190610873906146e2565b91905055503373ffffffffffffffffffffffffffffffffffffffff167f4d420356f0bcdde64a4a4dd5ececb57087c4119cf2d72bb1d76e329d38f3c219826040516108be9190614415565b60405180910390a250565b606060008060003373ffffffffffffffffffffffffffffffffffffffff1673ffffffffffffffffffffffffffffffffffffffff1681526020019081526020016000206040518060c00160405290816000820180546109269061473b565b80601f01602080910402602001604051908101604052809291908181526020018280546109529061473b565b801561099f5780601f106109745761010080835404028352916020019161099f565b820191906000526020600020905b81548152906001019060200180831161098257829003601f168201915b505050505081526020016001820180546109b89061473b565b80601f01602080910402602001604051908101604052809291908181526020018280546109e49061473b565b8015610a315780601f10610a0657610100808354040283529160200191610a31565b820191906000526020600020905b815481529060010190602001808311610a1457829003601f168201915b505050505081526020016002820160009054906101000a900473ffffffffffffffffffffffffffffffffffffffff1673ffffffffffffffffffffffffffffffffffffffff1673ffffffffffffffffffffffffffffffffffffffff168152602001600382018054610aa09061473b565b80601f0160208091040260200160405190810160405280929190818152602001828054610acc9061473b565b8015610b195780601f10610aee57610100808354040283529160200191610b19565b820191906000526020600020905b815481529060010190602001808311610afc57829003601f168201915b505050505081526020016004820154815260200160058201805480602002602001604051908101604052809291908181526020018280548015610bb157602002820191906000526020600020905b8160009054906101000a900473ffffffffffffffffffffffffffffffffffffffff1673ffffffffffffffffffffffffffffffffffffffff1681526020019060010190808311610b67575b50505050508152505090506000805b8260a0015151811015610c1c57610bf5338460a001518381518110610be857610be7614618565b5b6020026020010151612241565b15610c09578180610c059061476d565b9250505b8080610c149061476d565b915050610bc0565b5060008167ffffffffffffffff811115610c3957610c386139b8565b5b604051908082528060200260200182016040528015610c675781602001602082028036833780820191505090505b5090506000805b8460a0015151811015610d3457610ca3338660a001518381518110610c9657610c95614618565b5b6020026020010151612241565b15610d21578460a001518181518110610cbf57610cbe614618565b5b6020026020010151838380610cd39061476d565b945081518110610ce657610ce5614618565b5b602002602001019073ffffffffffffffffffffffffffffffffffffffff16908173ffffffffffffffffffffffffffffffffffffffff16815250505b8080610d2c9061476d565b915050610c6e565b508194505050505090565b600160003373ffffffffffffffffffffffffffffffffffffffff1673ffffffffffffffffffffffffffffffffffffffff16815260200190815260200160002060009054906101000a900460ff1615610dcc576040517f08c379a0000000000000000000000000000000000000000000000000000000008152600401610dc390614802565b60405180910390fd5b6040518060c001604052808381526020016040518060200160405280600081525081526020013373ffffffffffffffffffffffffffffffffffffffff16815260200160405180602001604052806000815250815260200182604051602001610e34919061485e565b604051602081830303815290604052805190602001208152602001600067ffffffffffffffff811115610e6a57610e696139b8565b5b604051908082528060200260200182016040528015610e985781602001602082028036833780820191505090505b508152506000803373ffffffffffffffffffffffffffffffffffffffff1673ffffffffffffffffffffffffffffffffffffffff1681526020019081526020016000206000820151816000019080519060200190610ef69291906135cf565b506020820151816001019080519060200190610f139291906135cf565b5060408201518160020160006101000a81548173ffffffffffffffffffffffffffffffffffffffff021916908373ffffffffffffffffffffffffffffffffffffffff1602179055506060820151816003019080519060200190610f779291906135cf565b506080820151816004015560a0820151816005019080519060200190610f9e9291906136da565b5090505060018060003373ffffffffffffffffffffffffffffffffffffffff1673ffffffffffffffffffffffffffffffffffffffff16815260200190815260200160002060006101000a81548160ff0219169083151502179055503373ffffffffffffffffffffffffffffffffffffffff167f48cac28ad4dc618e15f4c2dd5e97751182f166de97b25618318b2112aa951a2f8360405161103f91906148ae565b60405180910390a25050565b6060600160008373ffffffffffffffffffffffffffffffffffffffff1673ffffffffffffffffffffffffffffffffffffffff16815260200190815260200160002060009054906101000a900460ff166110d9576040517f08c379a00000000000000000000000000000000000000000000000000000000081526004016110d090614520565b60405180910390fd5b60008060008473ffffffffffffffffffffffffffffffffffffffff1673ffffffffffffffffffffffffffffffffffffffff1681526020019081526020016000206040518060c00160405290816000820180546111349061473b565b80601f01602080910402602001604051908101604052809291908181526020018280546111609061473b565b80156111ad5780601f10611182576101008083540402835291602001916111ad565b820191906000526020600020905b81548152906001019060200180831161119057829003601f168201915b505050505081526020016001820180546111c69061473b565b80601f01602080910402602001604051908101604052809291908181526020018280546111f29061473b565b801561123f5780601f106112145761010080835404028352916020019161123f565b820191906000526020600020905b81548152906001019060200180831161122257829003601f168201915b505050505081526020016002820160009054906101000a900473ffffffffffffffffffffffffffffffffffffffff1673ffffffffffffffffffffffffffffffffffffffff1673ffffffffffffffffffffffffffffffffffffffff1681526020016003820180546112ae9061473b565b80601f01602080910402602001604051908101604052809291908181526020018280546112da9061473b565b80156113275780601f106112fc57610100808354040283529160200191611327565b820191906000526020600020905b81548152906001019060200180831161130a57829003601f168201915b5050505050815260200160048201548152602001600582018054806020026020016040519081016040528092919081815260200182805480156113bf57602002820191906000526020600020905b8160009054906101000a900473ffffffffffffffffffffffffffffffffffffffff1673ffffffffffffffffffffffffffffffffffffffff1681526020019060010190808311611375575b50505050508152505090506000600260008573ffffffffffffffffffffffffffffffffffffffff1673ffffffffffffffffffffffffffffffffffffffff16815260200190815260200160002080549050905060005b8260a001515181101561155057600360008673ffffffffffffffffffffffffffffffffffffffff1673ffffffffffffffffffffffffffffffffffffffff16815260200190815260200160002060008460a00151838151811061147957611478614618565b5b602002602001015173ffffffffffffffffffffffffffffffffffffffff1673ffffffffffffffffffffffffffffffffffffffff16815260200190815260200160002060009054906101000a900460ff161561153d57600260008460a0015183815181106114e9576114e8614618565b5b602002602001015173ffffffffffffffffffffffffffffffffffffffff1673ffffffffffffffffffffffffffffffffffffffff168152602001908152602001600020805490508261153a91906148d0565b91505b80806115489061476d565b915050611414565b5060008167ffffffffffffffff81111561156d5761156c6139b8565b5b6040519080825280602002602001820160405280156115a657816020015b611593613764565b81526020019060019003908161158b5790505b5090506000805b600260008873ffffffffffffffffffffffffffffffffffffffff1673ffffffffffffffffffffffffffffffffffffffff168152602001908152602001600020805490508110156119c457600260008873ffffffffffffffffffffffffffffffffffffffff1673ffffffffffffffffffffffffffffffffffffffff168152602001908152602001600020818154811061164857611647614618565b5b90600052602060002090600702016040518060e0016040529081600082015481526020016001820160009054906101000a900473ffffffffffffffffffffffffffffffffffffffff1673ffffffffffffffffffffffffffffffffffffffff1673ffffffffffffffffffffffffffffffffffffffff1681526020016002820180546116d19061473b565b80601f01602080910402602001604051908101604052809291908181526020018280546116fd9061473b565b801561174a5780601f1061171f5761010080835404028352916020019161174a565b820191906000526020600020905b81548152906001019060200180831161172d57829003601f168201915b50505050508152602001600382015481526020016004820154815260200160058201805480602002602001604051908101604052809291908181526020016000905b828210156118a657838290600052602060002090600202016040518060400160405290816000820180546117bf9061473b565b80601f01602080910402602001604051908101604052809291908181526020018280546117eb9061473b565b80156118385780601f1061180d57610100808354040283529160200191611838565b820191906000526020600020905b81548152906001019060200180831161181b57829003601f168201915b505050505081526020016001820160009054906101000a900473ffffffffffffffffffffffffffffffffffffffff1673ffffffffffffffffffffffffffffffffffffffff1673ffffffffffffffffffffffffffffffffffffffff16815250508152602001906001019061178c565b50505050815260200160068201805480602002602001604051908101604052809291908181526020016000905b8282101561197f5783829060005260206000200180546118f29061473b565b80601f016020809104026020016040519081016040528092919081815260200182805461191e9061473b565b801561196b5780601f106119405761010080835404028352916020019161196b565b820191906000526020600020905b81548152906001019060200180831161194e57829003601f168201915b5050505050815260200190600101906118d3565b50505050815250508383806119939061476d565b9450815181106119a6576119a5614618565b5b602002602001018190525080806119bc9061476d565b9150506115ad565b5060005b8460a0015151811015611eed57600360008873ffffffffffffffffffffffffffffffffffffffff1673ffffffffffffffffffffffffffffffffffffffff16815260200190815260200160002060008660a001518381518110611a2d57611a2c614618565b5b602002602001015173ffffffffffffffffffffffffffffffffffffffff1673ffffffffffffffffffffffffffffffffffffffff16815260200190815260200160002060009054906101000a900460ff1615611eda5760005b600260008760a001518481518110611aa057611a9f614618565b5b602002602001015173ffffffffffffffffffffffffffffffffffffffff1673ffffffffffffffffffffffffffffffffffffffff16815260200190815260200160002080549050811015611ed857600260008760a001518481518110611b0857611b07614618565b5b602002602001015173ffffffffffffffffffffffffffffffffffffffff1673ffffffffffffffffffffffffffffffffffffffff1681526020019081526020016000208181548110611b5c57611b5b614618565b5b90600052602060002090600702016040518060e0016040529081600082015481526020016001820160009054906101000a900473ffffffffffffffffffffffffffffffffffffffff1673ffffffffffffffffffffffffffffffffffffffff1673ffffffffffffffffffffffffffffffffffffffff168152602001600282018054611be59061473b565b80601f0160208091040260200160405190810160405280929190818152602001828054611c119061473b565b8015611c5e5780601f10611c3357610100808354040283529160200191611c5e565b820191906000526020600020905b815481529060010190602001808311611c4157829003601f168201915b50505050508152602001600382015481526020016004820154815260200160058201805480602002602001604051908101604052809291908181526020016000905b82821015611dba5783829060005260206000209060020201604051806040016040529081600082018054611cd39061473b565b80601f0160208091040260200160405190810160405280929190818152602001828054611cff9061473b565b8015611d4c5780601f10611d2157610100808354040283529160200191611d4c565b820191906000526020600020905b815481529060010190602001808311611d2f57829003601f168201915b505050505081526020016001820160009054906101000a900473ffffffffffffffffffffffffffffffffffffffff1673ffffffffffffffffffffffffffffffffffffffff1673ffffffffffffffffffffffffffffffffffffffff168152505081526020019060010190611ca0565b50505050815260200160068201805480602002602001604051908101604052809291908181526020016000905b82821015611e93578382906000526020600020018054611e069061473b565b80601f0160208091040260200160405190810160405280929190818152602001828054611e329061473b565b8015611e7f5780601f10611e5457610100808354040283529160200191611e7f565b820191906000526020600020905b815481529060010190602001808311611e6257829003601f168201915b505050505081526020019060010190611de7565b5050505081525050848480611ea79061476d565b955081518110611eba57611eb9614618565b5b60200260200101819052508080611ed09061476d565b915050611a85565b505b8080611ee59061476d565b9150506119c8565b5060005b600184611efe9190614926565b811015612003576000600182611f1491906148d0565b90505b84811015611fef57838181518110611f3257611f31614618565b5b602002602001015160600151848381518110611f5157611f50614618565b5b6020026020010151606001511015611fdc576000848381518110611f7857611f77614618565b5b60200260200101519050848281518110611f9557611f94614618565b5b6020026020010151858481518110611fb057611faf614618565b5b602002602001018190525080858381518110611fcf57611fce614618565b5b6020026020010181905250505b8080611fe79061476d565b915050611f17565b508080611ffb9061476d565b915050611ef1565b5081945050505050919050565b600160003373ffffffffffffffffffffffffffffffffffffffff1673ffffffffffffffffffffffffffffffffffffffff16815260200190815260200160002060009054906101000a900460ff1661209c576040517f08c379a000000000000000000000000000000000000000000000000000000000815260040161209390614520565b60405180910390fd5b6000600260003373ffffffffffffffffffffffffffffffffffffffff1673ffffffffffffffffffffffffffffffffffffffff1681526020019081526020016000208054905090506000600260003373ffffffffffffffffffffffffffffffffffffffff1673ffffffffffffffffffffffffffffffffffffffff1681526020019081526020016000206001816001815401808255809150500390600052602060002090600702019050818160000181905550338160010160006101000a81548173ffffffffffffffffffffffffffffffffffffffff021916908373ffffffffffffffffffffffffffffffffffffffff160217905550838160020190805190602001906121a89291906135cf565b5042816003018190555060008160040181905550828160060190805190602001906121d49291906137b7565b50600660008154809291906121e89061476d565b91905055503373ffffffffffffffffffffffffffffffffffffffff167f227d44868fd91794465aa9733e53308aaf7503a80920f790d5060691fe03a3e7836040516122339190614415565b60405180910390a250505050565b6000600360008473ffffffffffffffffffffffffffffffffffffffff1673ffffffffffffffffffffffffffffffffffffffff16815260200190815260200160002060008373ffffffffffffffffffffffffffffffffffffffff1673ffffffffffffffffffffffffffffffffffffffff16815260200190815260200160002060009054906101000a900460ff16905092915050565b6122dd613817565b600160008373ffffffffffffffffffffffffffffffffffffffff1673ffffffffffffffffffffffffffffffffffffffff16815260200190815260200160002060009054906101000a900460ff16612369576040517f08c379a000000000000000000000000000000000000000000000000000000000815260040161236090614520565b60405180910390fd5b6000808373ffffffffffffffffffffffffffffffffffffffff1673ffffffffffffffffffffffffffffffffffffffff1681526020019081526020016000206040518060c00160405290816000820180546123c29061473b565b80601f01602080910402602001604051908101604052809291908181526020018280546123ee9061473b565b801561243b5780601f106124105761010080835404028352916020019161243b565b820191906000526020600020905b81548152906001019060200180831161241e57829003601f168201915b505050505081526020016001820180546124549061473b565b80601f01602080910402602001604051908101604052809291908181526020018280546124809061473b565b80156124cd5780601f106124a2576101008083540402835291602001916124cd565b820191906000526020600020905b8154815290600101906020018083116124b057829003601f168201915b505050505081526020016002820160009054906101000a900473ffffffffffffffffffffffffffffffffffffffff1673ffffffffffffffffffffffffffffffffffffffff1673ffffffffffffffffffffffffffffffffffffffff16815260200160038201805461253c9061473b565b80601f01602080910402602001604051908101604052809291908181526020018280546125689061473b565b80156125b55780601f1061258a576101008083540402835291602001916125b5565b820191906000526020600020905b81548152906001019060200180831161259857829003601f168201915b50505050508152602001600482015481526020016005820180548060200260200160405190810160405280929190818152602001828054801561264d57602002820191906000526020600020905b8160009054906101000a900473ffffffffffffffffffffffffffffffffffffffff1673ffffffffffffffffffffffffffffffffffffffff1681526020019060010190808311612603575b5050505050815250509050919050565b6060600160008373ffffffffffffffffffffffffffffffffffffffff1673ffffffffffffffffffffffffffffffffffffffff16815260200190815260200160002060009054906101000a900460ff166126eb576040517f08c379a00000000000000000000000000000000000000000000000000000000081526004016126e290614520565b60405180910390fd5b600260008373ffffffffffffffffffffffffffffffffffffffff1673ffffffffffffffffffffffffffffffffffffffff168152602001908152602001600020805480602002602001604051908101604052809291908181526020016000905b82821015612aa257838290600052602060002090600702016040518060e0016040529081600082015481526020016001820160009054906101000a900473ffffffffffffffffffffffffffffffffffffffff1673ffffffffffffffffffffffffffffffffffffffff1673ffffffffffffffffffffffffffffffffffffffff1681526020016002820180546127dd9061473b565b80601f01602080910402602001604051908101604052809291908181526020018280546128099061473b565b80156128565780601f1061282b57610100808354040283529160200191612856565b820191906000526020600020905b81548152906001019060200180831161283957829003601f168201915b50505050508152602001600382015481526020016004820154815260200160058201805480602002602001604051908101604052809291908181526020016000905b828210156129b257838290600052602060002090600202016040518060400160405290816000820180546128cb9061473b565b80601f01602080910402602001604051908101604052809291908181526020018280546128f79061473b565b80156129445780601f1061291957610100808354040283529160200191612944565b820191906000526020600020905b81548152906001019060200180831161292757829003601f168201915b505050505081526020016001820160009054906101000a900473ffffffffffffffffffffffffffffffffffffffff1673ffffffffffffffffffffffffffffffffffffffff1673ffffffffffffffffffffffffffffffffffffffff168152505081526020019060010190612898565b50505050815260200160068201805480602002602001604051908101604052809291908181526020016000905b82821015612a8b5783829060005260206000200180546129fe9061473b565b80601f0160208091040260200160405190810160405280929190818152602001828054612a2a9061473b565b8015612a775780601f10612a4c57610100808354040283529160200191612a77565b820191906000526020600020905b815481529060010190602001808311612a5a57829003601f168201915b5050505050815260200190600101906129df565b50505050815250508152602001906001019061274a565b505050509050919050565b6000600160008373ffffffffffffffffffffffffffffffffffffffff1673ffffffffffffffffffffffffffffffffffffffff16815260200190815260200160002060009054906101000a900460ff16612b3b576040517f08c379a0000000000000000000000000000000000000000000000000000000008152600401612b3290614520565b60405180910390fd5b600260008373ffffffffffffffffffffffffffffffffffffffff1673ffffffffffffffffffffffffffffffffffffffff168152602001908152602001600020805490509050919050565b6005602052826000526040600020602052816000526040600020602052806000526040600020600092509250509054906101000a900460ff1681565b600160003373ffffffffffffffffffffffffffffffffffffffff1673ffffffffffffffffffffffffffffffffffffffff16815260200190815260200160002060009054906101000a900460ff16612c4d576040517f08c379a0000000000000000000000000000000000000000000000000000000008152600401612c4490614520565b60405180910390fd5b816000803373ffffffffffffffffffffffffffffffffffffffff1673ffffffffffffffffffffffffffffffffffffffff1681526020019081526020016000206001019080519060200190612ca29291906135cf565b50806000803373ffffffffffffffffffffffffffffffffffffffff1673ffffffffffffffffffffffffffffffffffffffff1681526020019081526020016000206003019080519060200190612cf89291906135cf565b503373ffffffffffffffffffffffffffffffffffffffff167f6eb3a1c6a4675ba92d44e090515b1ceea358f26565d2854df0c99c3f5eaf98508383604051612d4192919061495a565b60405180910390a25050565b600160003373ffffffffffffffffffffffffffffffffffffffff1673ffffffffffffffffffffffffffffffffffffffff16815260200190815260200160002060009054906101000a900460ff16612dd9576040517f08c379a0000000000000000000000000000000000000000000000000000000008152600401612dd090614520565b60405180910390fd5b600160008273ffffffffffffffffffffffffffffffffffffffff1673ffffffffffffffffffffffffffffffffffffffff16815260200190815260200160002060009054906101000a900460ff16612e65576040517f08c379a0000000000000000000000000000000000000000000000000000000008152600401612e5c906149dd565b60405180910390fd5b600360003373ffffffffffffffffffffffffffffffffffffffff1673ffffffffffffffffffffffffffffffffffffffff16815260200190815260200160002060008273ffffffffffffffffffffffffffffffffffffffff1673ffffffffffffffffffffffffffffffffffffffff16815260200190815260200160002060009054906101000a900460ff166130ba57600460003373ffffffffffffffffffffffffffffffffffffffff1673ffffffffffffffffffffffffffffffffffffffff16815260200190815260200160002060008273ffffffffffffffffffffffffffffffffffffffff1673ffffffffffffffffffffffffffffffffffffffff16815260200190815260200160002060009054906101000a900460ff166130b9576001600460003373ffffffffffffffffffffffffffffffffffffffff1673ffffffffffffffffffffffffffffffffffffffff16815260200190815260200160002060008373ffffffffffffffffffffffffffffffffffffffff1673ffffffffffffffffffffffffffffffffffffffff16815260200190815260200160002060006101000a81548160ff0219169083151502179055506000803373ffffffffffffffffffffffffffffffffffffffff1673ffffffffffffffffffffffffffffffffffffffff168152602001908152602001600020600501819080600181540180825580915050600190039060005260206000200160009091909190916101000a81548173ffffffffffffffffffffffffffffffffffffffff021916908373ffffffffffffffffffffffffffffffffffffffff1602179055505b5b600360003373ffffffffffffffffffffffffffffffffffffffff1673ffffffffffffffffffffffffffffffffffffffff16815260200190815260200160002060008273ffffffffffffffffffffffffffffffffffffffff1673ffffffffffffffffffffffffffffffffffffffff16815260200190815260200160002060009054906101000a900460ff1615600360003373ffffffffffffffffffffffffffffffffffffffff1673ffffffffffffffffffffffffffffffffffffffff16815260200190815260200160002060008373ffffffffffffffffffffffffffffffffffffffff1673ffffffffffffffffffffffffffffffffffffffff16815260200190815260200160002060006101000a81548160ff02191690831515021790555050565b600160003373ffffffffffffffffffffffffffffffffffffffff1673ffffffffffffffffffffffffffffffffffffffff16815260200190815260200160002060009054906101000a900460ff16613267576040517f08c379a000000000000000000000000000000000000000000000000000000000815260040161325e90614520565b60405180910390fd5b600260008373ffffffffffffffffffffffffffffffffffffffff1673ffffffffffffffffffffffffffffffffffffffff1681526020019081526020016000208054905081106132eb576040517f08c379a00000000000000000000000000000000000000000000000000000000081526004016132e29061458c565b60405180910390fd5b600560008373ffffffffffffffffffffffffffffffffffffffff1673ffffffffffffffffffffffffffffffffffffffff168152602001908152602001600020600082815260200190815260200160002060003373ffffffffffffffffffffffffffffffffffffffff1673ffffffffffffffffffffffffffffffffffffffff16815260200190815260200160002060009054906101000a900460ff161561340857600260008373ffffffffffffffffffffffffffffffffffffffff1673ffffffffffffffffffffffffffffffffffffffff16815260200190815260200160002081815481106133dc576133db614618565b5b906000526020600020906007020160040160008154809291906133fe906146e2565b9190505550613481565b600260008373ffffffffffffffffffffffffffffffffffffffff1673ffffffffffffffffffffffffffffffffffffffff168152602001908152602001600020818154811061345957613458614618565b5b9060005260206000209060070201600401600081548092919061347b9061476d565b91905055505b600560008373ffffffffffffffffffffffffffffffffffffffff1673ffffffffffffffffffffffffffffffffffffffff168152602001908152602001600020600082815260200190815260200160002060003373ffffffffffffffffffffffffffffffffffffffff1673ffffffffffffffffffffffffffffffffffffffff16815260200190815260200160002060009054906101000a900460ff1615600560008473ffffffffffffffffffffffffffffffffffffffff1673ffffffffffffffffffffffffffffffffffffffff168152602001908152602001600020600083815260200190815260200160002060003373ffffffffffffffffffffffffffffffffffffffff1673ffffffffffffffffffffffffffffffffffffffff16815260200190815260200160002060006101000a81548160ff0219169083151502179055505050565b6000600654905090565b8280546135db9061473b565b90600052602060002090601f0160209004810192826135fd5760008555613644565b82601f1061361657805160ff1916838001178555613644565b82800160010185558215613644579182015b82811115613643578251825591602001919060010190613628565b5b5090506136519190613866565b5090565b5080546136619061473b565b6000825580601f106136735750613692565b601f0160209004906000526020600020908101906136919190613866565b5b50565b50805460008255600202906000526020600020908101906136b69190613883565b50565b50805460008255906000526020600020908101906136d791906138d1565b50565b828054828255906000526020600020908101928215613753579160200282015b828111156137525782518260006101000a81548173ffffffffffffffffffffffffffffffffffffffff021916908373ffffffffffffffffffffffffffffffffffffffff160217905550916020019190600101906136fa565b5b5090506137609190613866565b5090565b6040518060e0016040528060008152602001600073ffffffffffffffffffffffffffffffffffffffff16815260200160608152602001600081526020016000815260200160608152602001606081525090565b828054828255906000526020600020908101928215613806579160200282015b828111156138055782518290805190602001906137f59291906135cf565b50916020019190600101906137d7565b5b50905061381391906138d1565b5090565b6040518060c001604052806060815260200160608152602001600073ffffffffffffffffffffffffffffffffffffffff1681526020016060815260200160008019168152602001606081525090565b5b8082111561387f576000816000905550600101613867565b5090565b5b808211156138cd576000808201600061389d9190613655565b6001820160006101000a81549073ffffffffffffffffffffffffffffffffffffffff021916905550600201613884565b5090565b5b808211156138f157600081816138e89190613655565b506001016138d2565b5090565b6000604051905090565b600080fd5b600080fd5b600073ffffffffffffffffffffffffffffffffffffffff82169050919050565b600061393482613909565b9050919050565b61394481613929565b811461394f57600080fd5b50565b6000813590506139618161393b565b92915050565b6000819050919050565b61397a81613967565b811461398557600080fd5b50565b60008135905061399781613971565b92915050565b600080fd5b600080fd5b6000601f19601f8301169050919050565b7f4e487b7100000000000000000000000000000000000000000000000000000000600052604160045260246000fd5b6139f0826139a7565b810181811067ffffffffffffffff82111715613a0f57613a0e6139b8565b5b80604052505050565b6000613a226138f5565b9050613a2e82826139e7565b919050565b600067ffffffffffffffff821115613a4e57613a4d6139b8565b5b613a57826139a7565b9050602081019050919050565b82818337600083830152505050565b6000613a86613a8184613a33565b613a18565b905082815260208101848484011115613aa257613aa16139a2565b5b613aad848285613a64565b509392505050565b600082601f830112613aca57613ac961399d565b5b8135613ada848260208601613a73565b91505092915050565b600080600060608486031215613afc57613afb6138ff565b5b6000613b0a86828701613952565b9350506020613b1b86828701613988565b925050604084013567ffffffffffffffff811115613b3c57613b3b613904565b5b613b4886828701613ab5565b9150509250925092565b600060208284031215613b6857613b676138ff565b5b6000613b7684828501613988565b91505092915050565b600081519050919050565b600082825260208201905092915050565b6000819050602082019050919050565b613bb481613929565b82525050565b6000613bc68383613bab565b60208301905092915050565b6000602082019050919050565b6000613bea82613b7f565b613bf48185613b8a565b9350613bff83613b9b565b8060005b83811015613c30578151613c178882613bba565b9750613c2283613bd2565b925050600181019050613c03565b5085935050505092915050565b60006020820190508181036000830152613c578184613bdf565b905092915050565b60008060408385031215613c7657613c756138ff565b5b600083013567ffffffffffffffff811115613c9457613c93613904565b5b613ca085828601613ab5565b925050602083013567ffffffffffffffff811115613cc157613cc0613904565b5b613ccd85828601613ab5565b9150509250929050565b600060208284031215613ced57613cec6138ff565b5b6000613cfb84828501613952565b91505092915050565b600081519050919050565b600082825260208201905092915050565b6000819050602082019050919050565b613d3981613967565b82525050565b600081519050919050565b600082825260208201905092915050565b60005b83811015613d79578082015181840152602081019050613d5e565b83811115613d88576000848401525b50505050565b6000613d9982613d3f565b613da38185613d4a565b9350613db3818560208601613d5b565b613dbc816139a7565b840191505092915050565b600081519050919050565b600082825260208201905092915050565b6000819050602082019050919050565b60006040830160008301518482036000860152613e108282613d8e565b9150506020830151613e256020860182613bab565b508091505092915050565b6000613e3c8383613df3565b905092915050565b6000602082019050919050565b6000613e5c82613dc7565b613e668185613dd2565b935083602082028501613e7885613de3565b8060005b85811015613eb45784840389528151613e958582613e30565b9450613ea083613e44565b925060208a01995050600181019050613e7c565b50829750879550505050505092915050565b600081519050919050565b600082825260208201905092915050565b6000819050602082019050919050565b6000613efe8383613d8e565b905092915050565b6000602082019050919050565b6000613f1e82613ec6565b613f288185613ed1565b935083602082028501613f3a85613ee2565b8060005b85811015613f765784840389528151613f578582613ef2565b9450613f6283613f06565b925060208a01995050600181019050613f3e565b50829750879550505050505092915050565b600060e083016000830151613fa06000860182613d30565b506020830151613fb36020860182613bab565b5060408301518482036040860152613fcb8282613d8e565b9150506060830151613fe06060860182613d30565b506080830151613ff36080860182613d30565b5060a083015184820360a086015261400b8282613e51565b91505060c083015184820360c08601526140258282613f13565b9150508091505092915050565b600061403e8383613f88565b905092915050565b6000602082019050919050565b600061405e82613d04565b6140688185613d0f565b93508360208202850161407a85613d20565b8060005b858110156140b657848403895281516140978582614032565b94506140a283614046565b925060208a0199505060018101905061407e565b50829750879550505050505092915050565b600060208201905081810360008301526140e28184614053565b905092915050565b600067ffffffffffffffff821115614105576141046139b8565b5b602082029050602081019050919050565b600080fd5b600061412e614129846140ea565b613a18565b9050808382526020820190506020840283018581111561415157614150614116565b5b835b8181101561419857803567ffffffffffffffff8111156141765761417561399d565b5b8086016141838982613ab5565b85526020850194505050602081019050614153565b5050509392505050565b600082601f8301126141b7576141b661399d565b5b81356141c784826020860161411b565b91505092915050565b600080604083850312156141e7576141e66138ff565b5b600083013567ffffffffffffffff81111561420557614204613904565b5b61421185828601613ab5565b925050602083013567ffffffffffffffff81111561423257614231613904565b5b61423e858286016141a2565b9150509250929050565b6000806040838503121561425f5761425e6138ff565b5b600061426d85828601613952565b925050602061427e85828601613952565b9150509250929050565b60008115159050919050565b61429d81614288565b82525050565b60006020820190506142b86000830184614294565b92915050565b6000819050919050565b6142d1816142be565b82525050565b600082825260208201905092915050565b60006142f382613b7f565b6142fd81856142d7565b935061430883613b9b565b8060005b838110156143395781516143208882613bba565b975061432b83613bd2565b92505060018101905061430c565b5085935050505092915050565b600060c08301600083015184820360008601526143638282613d8e565b9150506020830151848203602086015261437d8282613d8e565b91505060408301516143926040860182613bab565b50606083015184820360608601526143aa8282613d8e565b91505060808301516143bf60808601826142c8565b5060a083015184820360a08601526143d782826142e8565b9150508091505092915050565b600060208201905081810360008301526143fe8184614346565b905092915050565b61440f81613967565b82525050565b600060208201905061442a6000830184614406565b92915050565b600080600060608486031215614449576144486138ff565b5b600061445786828701613952565b935050602061446886828701613988565b925050604061447986828701613952565b9150509250925092565b6000806040838503121561449a576144996138ff565b5b60006144a885828601613952565b92505060206144b985828601613988565b9150509250929050565b600082825260208201905092915050565b7f55736572206e6f74207265676973746572656400000000000000000000000000600082015250565b600061450a6013836144c3565b9150614515826144d4565b602082019050919050565b60006020820190508181036000830152614539816144fd565b9050919050565b7f496e76616c696420706f73742049440000000000000000000000000000000000600082015250565b6000614576600f836144c3565b915061458182614540565b602082019050919050565b600060208201905081810360008301526145a581614569565b9050919050565b7f436f6d6d656e742063616e6e6f7420626520656d707479000000000000000000600082015250565b60006145e26017836144c3565b91506145ed826145ac565b602082019050919050565b60006020820190508181036000830152614611816145d5565b9050919050565b7f4e487b7100000000000000000000000000000000000000000000000000000000600052603260045260246000fd5b7f4e6f742074686520706f737420617574686f7200000000000000000000000000600082015250565b600061467d6013836144c3565b915061468882614647565b602082019050919050565b600060208201905081810360008301526146ac81614670565b9050919050565b7f4e487b7100000000000000000000000000000000000000000000000000000000600052601160045260246000fd5b60006146ed82613967565b91506000821415614701576147006146b3565b5b600182039050919050565b7f4e487b7100000000000000000000000000000000000000000000000000000000600052602260045260246000fd5b6000600282049050600182168061475357607f821691505b602082108114156147675761476661470c565b5b50919050565b600061477882613967565b91507fffffffffffffffffffffffffffffffffffffffffffffffffffffffffffffffff8214156147ab576147aa6146b3565b5b600182019050919050565b7f5573657220616c72656164792072656769737465726564000000000000000000600082015250565b60006147ec6017836144c3565b91506147f7826147b6565b602082019050919050565b6000602082019050818103600083015261481b816147df565b9050919050565b600081905092915050565b600061483882613d3f565b6148428185614822565b9350614852818560208601613d5b565b80840191505092915050565b600061486a828461482d565b915081905092915050565b600061488082613d3f565b61488a81856144c3565b935061489a818560208601613d5b565b6148a3816139a7565b840191505092915050565b600060208201905081810360008301526148c88184614875565b905092915050565b60006148db82613967565b91506148e683613967565b9250827fffffffffffffffffffffffffffffffffffffffffffffffffffffffffffffffff0382111561491b5761491a6146b3565b5b828201905092915050565b600061493182613967565b915061493c83613967565b92508282101561494f5761494e6146b3565b5b828203905092915050565b600060408201905081810360008301526149748185614875565b905081810360208301526149888184614875565b90509392505050565b7f467269656e64206e6f7420726567697374657265640000000000000000000000600082015250565b60006149c76015836144c3565b91506149d282614991565b602082019050919050565b600060208201905081810360008301526149f6816149ba565b905091905056fea26469706673582212207393e0ccc16ba3e6b2f6219ca216b618a8aaade5a6329d22ee8222572a5e11c064736f6c63430008090033",
  "linkReferences": {},
  "deployedLinkReferences": {}
}