{
  "_format": "hh-sol-artifact-1",
  "contractName": "Dacebook",
  "sourceName": "contracts/Dacebook.sol",
  "abi": [
    {
      "anonymous": false,
      "inputs": [
        {
          "indexed": true,
          "internalType": "address",
          "name": "user",
          "type": "address"
        },
        {
          "indexed": true,
          "internalType": "address",
          "name": "friend",
          "type": "address"
        },
        {
          "indexed": false,
          "internalType": "bool",
          "name": "isNowFriend",
          "type": "bool"
        }
      ],
      "name": "FriendshipToggled",
      "type": "event"
    },
    {
      "anonymous": false,
      "inputs": [
        {
          "indexed": true,
          "internalType": "address",
          "name": "sender",
          "type": "address"
        },
        {
          "indexed": true,
          "internalType": "address",
          "name": "receiver",
          "type": "address"
        },
        {
          "indexed": false,
          "internalType": "string",
          "name": "content",
          "type": "string"
        }
      ],
      "name": "NewMessage",
      "type": "event"
    },
    {
      "anonymous": false,
      "inputs": [
        {
          "indexed": true,
          "internalType": "address",
          "name": "author",
          "type": "address"
        },
        {
          "indexed": false,
          "internalType": "uint256",
          "name": "postId",
          "type": "uint256"
        }
      ],
      "name": "NewPost",
      "type": "event"
    },
    {
      "anonymous": false,
      "inputs": [
        {
          "indexed": true,
          "internalType": "address",
          "name": "author",
          "type": "address"
        },
        {
          "indexed": false,
          "internalType": "uint256",
          "name": "postId",
          "type": "uint256"
        }
      ],
      "name": "PostDeleted",
      "type": "event"
    },
    {
      "anonymous": false,
      "inputs": [
        {
          "indexed": true,
          "internalType": "address",
          "name": "user",
          "type": "address"
        },
        {
          "indexed": false,
          "internalType": "uint256",
          "name": "postId",
          "type": "uint256"
        },
        {
          "indexed": false,
          "internalType": "bool",
          "name": "liked",
          "type": "bool"
        }
      ],
      "name": "PostLiked",
      "type": "event"
    },
    {
      "anonymous": false,
      "inputs": [
        {
          "indexed": true,
          "internalType": "address",
          "name": "userAddress",
          "type": "address"
        },
        {
          "indexed": false,
          "internalType": "string",
          "name": "profilePic",
          "type": "string"
        },
        {
          "indexed": false,
          "internalType": "string",
          "name": "bio",
          "type": "string"
        }
      ],
      "name": "ProfileUpdated",
      "type": "event"
    },
    {
      "anonymous": false,
      "inputs": [
        {
          "indexed": true,
          "internalType": "address",
          "name": "userAddress",
          "type": "address"
        },
        {
          "indexed": false,
          "internalType": "string",
          "name": "name",
          "type": "string"
        }
      ],
      "name": "UserRegistered",
      "type": "event"
    },
    {
      "inputs": [
        {
          "internalType": "address",
          "name": "_author",
          "type": "address"
        },
        {
          "internalType": "uint256",
          "name": "_postId",
          "type": "uint256"
        },
        {
          "internalType": "string",
          "name": "_comment",
          "type": "string"
        }
      ],
      "name": "commentOnPost",
      "outputs": [],
      "stateMutability": "nonpayable",
      "type": "function"
    },
    {
      "inputs": [
        {
          "internalType": "string",
          "name": "_content",
          "type": "string"
        },
        {
          "internalType": "string[]",
          "name": "_uploads",
          "type": "string[]"
        }
      ],
      "name": "createPost",
      "outputs": [],
      "stateMutability": "nonpayable",
      "type": "function"
    },
    {
      "inputs": [
        {
          "internalType": "uint256",
          "name": "_postId",
          "type": "uint256"
        }
      ],
      "name": "deletePost",
      "outputs": [],
      "stateMutability": "nonpayable",
      "type": "function"
    },
    {
      "inputs": [
        {
          "internalType": "address",
          "name": "msg_sender",
          "type": "address"
        }
      ],
      "name": "getAllUsers",
      "outputs": [
        {
          "components": [
            {
              "internalType": "string",
              "name": "name",
              "type": "string"
            },
            {
              "internalType": "string",
              "name": "profilePic",
              "type": "string"
            },
            {
              "internalType": "address",
              "name": "userAddress",
              "type": "address"
            },
            {
              "internalType": "string",
              "name": "bio",
              "type": "string"
            },
            {
              "internalType": "bytes32",
              "name": "passwordHash",
              "type": "bytes32"
            },
            {
              "internalType": "address[]",
              "name": "friends",
              "type": "address[]"
            }
          ],
          "internalType": "struct Dacebook.User[]",
          "name": "",
          "type": "tuple[]"
        }
      ],
      "stateMutability": "view",
      "type": "function"
    },
    {
      "inputs": [
        {
          "internalType": "address",
          "name": "msg_sender",
          "type": "address"
        },
        {
          "internalType": "address",
          "name": "_with",
          "type": "address"
        }
      ],
      "name": "getConversation",
      "outputs": [
        {
          "components": [
            {
              "internalType": "address",
              "name": "sender",
              "type": "address"
            },
            {
              "internalType": "string",
              "name": "content",
              "type": "string"
            },
            {
              "internalType": "bool",
              "name": "file",
              "type": "bool"
            },
            {
              "internalType": "uint256",
              "name": "timestamp",
              "type": "uint256"
            }
          ],
          "internalType": "struct Dacebook.Message[]",
          "name": "sentMessages",
          "type": "tuple[]"
        },
        {
          "components": [
            {
              "internalType": "address",
              "name": "sender",
              "type": "address"
            },
            {
              "internalType": "string",
              "name": "content",
              "type": "string"
            },
            {
              "internalType": "bool",
              "name": "file",
              "type": "bool"
            },
            {
              "internalType": "uint256",
              "name": "timestamp",
              "type": "uint256"
            }
          ],
          "internalType": "struct Dacebook.Message[]",
          "name": "receivedMessages",
          "type": "tuple[]"
        }
      ],
      "stateMutability": "view",
      "type": "function"
    },
    {
      "inputs": [
        {
          "internalType": "address",
          "name": "msg_sender",
          "type": "address"
        }
      ],
      "name": "getFriends",
      "outputs": [
        {
          "internalType": "address[]",
          "name": "",
          "type": "address[]"
        }
      ],
      "stateMutability": "view",
      "type": "function"
    },
    {
      "inputs": [
        {
          "internalType": "address",
          "name": "_user",
          "type": "address"
        }
      ],
      "name": "getPostCount",
      "outputs": [
        {
          "internalType": "uint256",
          "name": "",
          "type": "uint256"
        }
      ],
      "stateMutability": "view",
      "type": "function"
    },
    {
      "inputs": [
        {
          "internalType": "address",
          "name": "_user",
          "type": "address"
        }
      ],
      "name": "getPosts",
      "outputs": [
        {
          "components": [
            {
              "internalType": "uint256",
              "name": "id",
              "type": "uint256"
            },
            {
              "internalType": "address",
              "name": "author",
              "type": "address"
            },
            {
              "internalType": "string",
              "name": "content",
              "type": "string"
            },
            {
              "internalType": "uint256",
              "name": "timestamp",
              "type": "uint256"
            },
            {
              "internalType": "uint256",
              "name": "likes",
              "type": "uint256"
            },
            {
              "components": [
                {
                  "internalType": "string",
                  "name": "text",
                  "type": "string"
                },
                {
                  "internalType": "address",
                  "name": "userAddress",
                  "type": "address"
                }
              ],
              "internalType": "struct Dacebook.Comment[]",
              "name": "comments",
              "type": "tuple[]"
            },
            {
              "internalType": "string[]",
              "name": "uploads",
              "type": "string[]"
            }
          ],
          "internalType": "struct Dacebook.Post[]",
          "name": "",
          "type": "tuple[]"
        }
      ],
      "stateMutability": "view",
      "type": "function"
    },
    {
      "inputs": [],
      "name": "getTotalPostCount",
      "outputs": [
        {
          "internalType": "uint256",
          "name": "",
          "type": "uint256"
        }
      ],
      "stateMutability": "view",
      "type": "function"
    },
    {
      "inputs": [
        {
          "internalType": "address",
          "name": "_user",
          "type": "address"
        }
      ],
      "name": "getUserPosts",
      "outputs": [
        {
          "components": [
            {
              "internalType": "uint256",
              "name": "id",
              "type": "uint256"
            },
            {
              "internalType": "address",
              "name": "author",
              "type": "address"
            },
            {
              "internalType": "string",
              "name": "content",
              "type": "string"
            },
            {
              "internalType": "uint256",
              "name": "timestamp",
              "type": "uint256"
            },
            {
              "internalType": "uint256",
              "name": "likes",
              "type": "uint256"
            },
            {
              "components": [
                {
                  "internalType": "string",
                  "name": "text",
                  "type": "string"
                },
                {
                  "internalType": "address",
                  "name": "userAddress",
                  "type": "address"
                }
              ],
              "internalType": "struct Dacebook.Comment[]",
              "name": "comments",
              "type": "tuple[]"
            },
            {
              "internalType": "string[]",
              "name": "uploads",
              "type": "string[]"
            }
          ],
          "internalType": "struct Dacebook.Post[]",
          "name": "",
          "type": "tuple[]"
        }
      ],
      "stateMutability": "view",
      "type": "function"
    },
    {
      "inputs": [
        {
          "internalType": "address",
          "name": "_user",
          "type": "address"
        }
      ],
      "name": "getUserProfile",
      "outputs": [
        {
          "components": [
            {
              "internalType": "string",
              "name": "name",
              "type": "string"
            },
            {
              "internalType": "string",
              "name": "profilePic",
              "type": "string"
            },
            {
              "internalType": "address",
              "name": "userAddress",
              "type": "address"
            },
            {
              "internalType": "string",
              "name": "bio",
              "type": "string"
            },
            {
              "internalType": "bytes32",
              "name": "passwordHash",
              "type": "bytes32"
            },
            {
              "internalType": "address[]",
              "name": "friends",
              "type": "address[]"
            }
          ],
          "internalType": "struct Dacebook.User",
          "name": "",
          "type": "tuple"
        }
      ],
      "stateMutability": "view",
      "type": "function"
    },
    {
      "inputs": [
        {
          "internalType": "address",
          "name": "",
          "type": "address"
        },
        {
          "internalType": "uint256",
          "name": "",
          "type": "uint256"
        },
        {
          "internalType": "address",
          "name": "",
          "type": "address"
        }
      ],
      "name": "isLiked",
      "outputs": [
        {
          "internalType": "bool",
          "name": "",
          "type": "bool"
        }
      ],
      "stateMutability": "view",
      "type": "function"
    },
    {
      "inputs": [
        {
          "internalType": "string",
          "name": "_name",
          "type": "string"
        },
        {
          "internalType": "string",
          "name": "_password",
          "type": "string"
        }
      ],
      "name": "register",
      "outputs": [],
      "stateMutability": "nonpayable",
      "type": "function"
    },
    {
      "inputs": [
        {
          "internalType": "address",
          "name": "_to",
          "type": "address"
        },
        {
          "internalType": "string",
          "name": "_content",
          "type": "string"
        },
        {
          "internalType": "bool",
          "name": "_file",
          "type": "bool"
        }
      ],
      "name": "sendMessage",
      "outputs": [],
      "stateMutability": "nonpayable",
      "type": "function"
    },
    {
      "inputs": [
        {
          "internalType": "address",
          "name": "_friend",
          "type": "address"
        }
      ],
      "name": "toggleFriend",
      "outputs": [],
      "stateMutability": "nonpayable",
      "type": "function"
    },
    {
      "inputs": [
        {
          "internalType": "address",
          "name": "_author",
          "type": "address"
        },
        {
          "internalType": "uint256",
          "name": "_postId",
          "type": "uint256"
        }
      ],
      "name": "toggleLikeonPost",
      "outputs": [],
      "stateMutability": "nonpayable",
      "type": "function"
    },
    {
      "inputs": [
        {
          "internalType": "string",
          "name": "_profilePic",
          "type": "string"
        },
        {
          "internalType": "string",
          "name": "_bio",
          "type": "string"
        }
      ],
      "name": "updateProfile",
      "outputs": [],
      "stateMutability": "nonpayable",
      "type": "function"
    }
  ],
  "bytecode": "0x6080604052600060075534801561001557600080fd5b506157f080620000266000396000f3fe608060405234801561001057600080fd5b506004361061010b5760003560e01c80635cbb7caa116100a2578063b0ed7a7f11610071578063b0ed7a7f146102ed578063c9d3cc6a1461031d578063d9806cd514610339578063db2598f014610355578063efbe8469146103715761010b565b80635cbb7caa1461022d578063987ee1561461025d5780639a2194a91461028d578063a4c7fafa146102bd5761010b565b80633ffbd47f116100de5780633ffbd47f146101a95780634674f060146101c55780634caf9d0b146101e157806352374f7a146102115761010b565b8063012d18b914610110578063094cd5ee1461012c57806314b419c914610148578063375eed2714610178575b600080fd5b61012a600480360381019061012591906142c5565b61038f565b005b61014660048036038101906101419190614334565b610604565b005b610162600480360381019061015d9190614361565b61093e565b60405161016f919061464d565b60405180910390f35b610192600480360381019061018d919061466f565b610d86565b6040516101a09291906147fe565b60405180910390f35b6101c360048036038101906101be9190614835565b611158565b005b6101df60048036038101906101da9190614939565b6114d0565b005b6101fb60048036038101906101f69190614361565b6117ca565b6040516102089190614cda565b60405180910390f35b61022b60048036038101906102269190614ddd565b61278f565b005b61024760048036038101906102429190614361565b6129c0565b6040516102549190614ec4565b60405180910390f35b61027760048036038101906102729190614361565b612cfd565b6040516102849190614f84565b60405180910390f35b6102a760048036038101906102a29190614361565b613085565b6040516102b49190614cda565b60405180910390f35b6102d760048036038101906102d29190614361565b6134d5565b6040516102e49190614fb5565b60405180910390f35b61030760048036038101906103029190614fd0565b6135ad565b6040516103149190615032565b60405180910390f35b61033760048036038101906103329190614835565b6135e9565b005b610353600480360381019061034e9190614361565b613784565b005b61036f600480360381019061036a919061504d565b6139bd565b005b610379613da7565b6040516103869190614fb5565b60405180910390f35b600160003373ffffffffffffffffffffffffffffffffffffffff1673ffffffffffffffffffffffffffffffffffffffff16815260200190815260200160002060009054906101000a900460ff1661041b576040517f08c379a0000000000000000000000000000000000000000000000000000000008152600401610412906150ea565b60405180910390fd5b600360008473ffffffffffffffffffffffffffffffffffffffff1673ffffffffffffffffffffffffffffffffffffffff16815260200190815260200160002080549050821061049f576040517f08c379a000000000000000000000000000000000000000000000000000000000815260040161049690615156565b60405180910390fd5b60008151116104e3576040517f08c379a00000000000000000000000000000000000000000000000000000000081526004016104da906151c2565b60405180910390fd5b600360008473ffffffffffffffffffffffffffffffffffffffff1673ffffffffffffffffffffffffffffffffffffffff1681526020019081526020016000208281548110610534576105336151e2565b5b906000526020600020906007020160050160405180604001604052808381526020013373ffffffffffffffffffffffffffffffffffffffff16815250908060018154018082558091505060019003906000526020600020906002020160009091909190915060008201518160000190805190602001906105b5929190613db1565b5060208201518160010160006101000a81548173ffffffffffffffffffffffffffffffffffffffff021916908373ffffffffffffffffffffffffffffffffffffffff1602179055505050505050565b600160003373ffffffffffffffffffffffffffffffffffffffff1673ffffffffffffffffffffffffffffffffffffffff16815260200190815260200160002060009054906101000a900460ff16610690576040517f08c379a0000000000000000000000000000000000000000000000000000000008152600401610687906150ea565b60405180910390fd5b600360003373ffffffffffffffffffffffffffffffffffffffff1673ffffffffffffffffffffffffffffffffffffffff168152602001908152602001600020805490508110610714576040517f08c379a000000000000000000000000000000000000000000000000000000000815260040161070b90615156565b60405180910390fd5b3373ffffffffffffffffffffffffffffffffffffffff16600360003373ffffffffffffffffffffffffffffffffffffffff1673ffffffffffffffffffffffffffffffffffffffff168152602001908152602001600020828154811061077c5761077b6151e2565b5b906000526020600020906007020160010160009054906101000a900473ffffffffffffffffffffffffffffffffffffffff1673ffffffffffffffffffffffffffffffffffffffff1614610804576040517f08c379a00000000000000000000000000000000000000000000000000000000081526004016107fb9061525d565b60405180910390fd5b600360003373ffffffffffffffffffffffffffffffffffffffff1673ffffffffffffffffffffffffffffffffffffffff1681526020019081526020016000208181548110610855576108546151e2565b5b90600052602060002090600702016000808201600090556001820160006101000a81549073ffffffffffffffffffffffffffffffffffffffff02191690556002820160006108a39190613e37565b600382016000905560048201600090556005820160006108c39190613e77565b6006820160006108d39190613e9b565b5050600760008154809291906108e8906152ac565b91905055503373ffffffffffffffffffffffffffffffffffffffff167f4d420356f0bcdde64a4a4dd5ececb57087c4119cf2d72bb1d76e329d38f3c219826040516109339190614fb5565b60405180910390a250565b60606000600880549050905060008167ffffffffffffffff8111156109665761096561419a565b5b60405190808252806020026020018201604052801561099f57816020015b61098c613ebc565b8152602001906001900390816109845790505b50905060005b82811015610d7b578473ffffffffffffffffffffffffffffffffffffffff16600882815481106109d8576109d76151e2565b5b9060005260206000200160009054906101000a900473ffffffffffffffffffffffffffffffffffffffff1673ffffffffffffffffffffffffffffffffffffffff1614610d685760008060088381548110610a3557610a346151e2565b5b9060005260206000200160009054906101000a900473ffffffffffffffffffffffffffffffffffffffff1673ffffffffffffffffffffffffffffffffffffffff1673ffffffffffffffffffffffffffffffffffffffff1681526020019081526020016000206040518060c0016040529081600082018054610ab590615305565b80601f0160208091040260200160405190810160405280929190818152602001828054610ae190615305565b8015610b2e5780601f10610b0357610100808354040283529160200191610b2e565b820191906000526020600020905b815481529060010190602001808311610b1157829003601f168201915b50505050508152602001600182018054610b4790615305565b80601f0160208091040260200160405190810160405280929190818152602001828054610b7390615305565b8015610bc05780601f10610b9557610100808354040283529160200191610bc0565b820191906000526020600020905b815481529060010190602001808311610ba357829003601f168201915b505050505081526020016002820160009054906101000a900473ffffffffffffffffffffffffffffffffffffffff1673ffffffffffffffffffffffffffffffffffffffff1673ffffffffffffffffffffffffffffffffffffffff168152602001600382018054610c2f90615305565b80601f0160208091040260200160405190810160405280929190818152602001828054610c5b90615305565b8015610ca85780601f10610c7d57610100808354040283529160200191610ca8565b820191906000526020600020905b815481529060010190602001808311610c8b57829003601f168201915b505050505081526020016004820154815260200160058201805480602002602001604051908101604052809291908181526020018280548015610d4057602002820191906000526020600020905b8160009054906101000a900473ffffffffffffffffffffffffffffffffffffffff1673ffffffffffffffffffffffffffffffffffffffff1681526020019060010190808311610cf6575b505050505081525050828281518110610d5c57610d5b6151e2565b5b60200260200101819052505b8080610d7390615337565b9150506109a5565b508092505050919050565b606080600260008573ffffffffffffffffffffffffffffffffffffffff1673ffffffffffffffffffffffffffffffffffffffff16815260200190815260200160002060008473ffffffffffffffffffffffffffffffffffffffff1673ffffffffffffffffffffffffffffffffffffffff168152602001908152602001600020600201805480602002602001604051908101604052809291908181526020016000905b82821015610f6757838290600052602060002090600402016040518060800160405290816000820160009054906101000a900473ffffffffffffffffffffffffffffffffffffffff1673ffffffffffffffffffffffffffffffffffffffff1673ffffffffffffffffffffffffffffffffffffffff168152602001600182018054610eb190615305565b80601f0160208091040260200160405190810160405280929190818152602001828054610edd90615305565b8015610f2a5780601f10610eff57610100808354040283529160200191610f2a565b820191906000526020600020905b815481529060010190602001808311610f0d57829003601f168201915b505050505081526020016002820160009054906101000a900460ff1615151515815260200160038201548152505081526020019060010190610e28565b505050509150600260008473ffffffffffffffffffffffffffffffffffffffff1673ffffffffffffffffffffffffffffffffffffffff16815260200190815260200160002060008573ffffffffffffffffffffffffffffffffffffffff1673ffffffffffffffffffffffffffffffffffffffff168152602001908152602001600020600201805480602002602001604051908101604052809291908181526020016000905b8282101561114b57838290600052602060002090600402016040518060800160405290816000820160009054906101000a900473ffffffffffffffffffffffffffffffffffffffff1673ffffffffffffffffffffffffffffffffffffffff1673ffffffffffffffffffffffffffffffffffffffff16815260200160018201805461109590615305565b80601f01602080910402602001604051908101604052809291908181526020018280546110c190615305565b801561110e5780601f106110e35761010080835404028352916020019161110e565b820191906000526020600020905b8154815290600101906020018083116110f157829003601f168201915b505050505081526020016002820160009054906101000a900460ff161515151581526020016003820154815250508152602001906001019061100c565b5050505090509250929050565b600160003373ffffffffffffffffffffffffffffffffffffffff1673ffffffffffffffffffffffffffffffffffffffff16815260200190815260200160002060009054906101000a900460ff16156111e5576040517f08c379a00000000000000000000000000000000000000000000000000000000081526004016111dc906153cc565b60405180910390fd5b6040518060c001604052808381526020016040518060800160405280605e815260200161575d605e913981526020013373ffffffffffffffffffffffffffffffffffffffff168152602001604051806020016040528060008152508152602001826040516020016112569190615428565b604051602081830303815290604052805190602001208152602001600067ffffffffffffffff81111561128c5761128b61419a565b5b6040519080825280602002602001820160405280156112ba5781602001602082028036833780820191505090505b508152506000803373ffffffffffffffffffffffffffffffffffffffff1673ffffffffffffffffffffffffffffffffffffffff1681526020019081526020016000206000820151816000019080519060200190611318929190613db1565b506020820151816001019080519060200190611335929190613db1565b5060408201518160020160006101000a81548173ffffffffffffffffffffffffffffffffffffffff021916908373ffffffffffffffffffffffffffffffffffffffff1602179055506060820151816003019080519060200190611399929190613db1565b506080820151816004015560a08201518160050190805190602001906113c0929190613f0b565b5090505060018060003373ffffffffffffffffffffffffffffffffffffffff1673ffffffffffffffffffffffffffffffffffffffff16815260200190815260200160002060006101000a81548160ff0219169083151502179055506008339080600181540180825580915050600190039060005260206000200160009091909190916101000a81548173ffffffffffffffffffffffffffffffffffffffff021916908373ffffffffffffffffffffffffffffffffffffffff1602179055503373ffffffffffffffffffffffffffffffffffffffff167f48cac28ad4dc618e15f4c2dd5e97751182f166de97b25618318b2112aa951a2f836040516114c49190615478565b60405180910390a25050565b600160008573ffffffffffffffffffffffffffffffffffffffff1673ffffffffffffffffffffffffffffffffffffffff16815260200190815260200160002060009054906101000a900460ff1661155c576040517f08c379a0000000000000000000000000000000000000000000000000000000008152600401611553906154e6565b60405180910390fd5b600083839050116115a2576040517f08c379a000000000000000000000000000000000000000000000000000000000815260040161159990615552565b60405180910390fd5b600060405180608001604052803373ffffffffffffffffffffffffffffffffffffffff16815260200185858080601f016020809104026020016040519081016040528093929190818152602001838380828437600081840152601f19601f8201169050808301925050505050505081526020018315158152602001428152509050600260003373ffffffffffffffffffffffffffffffffffffffff1673ffffffffffffffffffffffffffffffffffffffff16815260200190815260200160002060008673ffffffffffffffffffffffffffffffffffffffff1673ffffffffffffffffffffffffffffffffffffffff16815260200190815260200160002060020181908060018154018082558091505060019003906000526020600020906004020160009091909190915060008201518160000160006101000a81548173ffffffffffffffffffffffffffffffffffffffff021916908373ffffffffffffffffffffffffffffffffffffffff160217905550602082015181600101908051906020019061172f929190613db1565b5060408201518160020160006101000a81548160ff0219169083151502179055506060820151816003015550508473ffffffffffffffffffffffffffffffffffffffff163373ffffffffffffffffffffffffffffffffffffffff167fc0e964a89ae4af54eaf553b02f07849ce6ddc028e52aec665236032bdd33a52286866040516117bb92919061559f565b60405180910390a35050505050565b6060600160008373ffffffffffffffffffffffffffffffffffffffff1673ffffffffffffffffffffffffffffffffffffffff16815260200190815260200160002060009054906101000a900460ff16611858576040517f08c379a000000000000000000000000000000000000000000000000000000000815260040161184f906150ea565b60405180910390fd5b60008060008473ffffffffffffffffffffffffffffffffffffffff1673ffffffffffffffffffffffffffffffffffffffff1681526020019081526020016000206040518060c00160405290816000820180546118b390615305565b80601f01602080910402602001604051908101604052809291908181526020018280546118df90615305565b801561192c5780601f106119015761010080835404028352916020019161192c565b820191906000526020600020905b81548152906001019060200180831161190f57829003601f168201915b5050505050815260200160018201805461194590615305565b80601f016020809104026020016040519081016040528092919081815260200182805461197190615305565b80156119be5780601f10611993576101008083540402835291602001916119be565b820191906000526020600020905b8154815290600101906020018083116119a157829003601f168201915b505050505081526020016002820160009054906101000a900473ffffffffffffffffffffffffffffffffffffffff1673ffffffffffffffffffffffffffffffffffffffff1673ffffffffffffffffffffffffffffffffffffffff168152602001600382018054611a2d90615305565b80601f0160208091040260200160405190810160405280929190818152602001828054611a5990615305565b8015611aa65780601f10611a7b57610100808354040283529160200191611aa6565b820191906000526020600020905b815481529060010190602001808311611a8957829003601f168201915b505050505081526020016004820154815260200160058201805480602002602001604051908101604052809291908181526020018280548015611b3e57602002820191906000526020600020905b8160009054906101000a900473ffffffffffffffffffffffffffffffffffffffff1673ffffffffffffffffffffffffffffffffffffffff1681526020019060010190808311611af4575b50505050508152505090506000600360008573ffffffffffffffffffffffffffffffffffffffff1673ffffffffffffffffffffffffffffffffffffffff16815260200190815260200160002080549050905060005b8260a0015151811015611ccf57600460008673ffffffffffffffffffffffffffffffffffffffff1673ffffffffffffffffffffffffffffffffffffffff16815260200190815260200160002060008460a001518381518110611bf857611bf76151e2565b5b602002602001015173ffffffffffffffffffffffffffffffffffffffff1673ffffffffffffffffffffffffffffffffffffffff16815260200190815260200160002060009054906101000a900460ff1615611cbc57600360008460a001518381518110611c6857611c676151e2565b5b602002602001015173ffffffffffffffffffffffffffffffffffffffff1673ffffffffffffffffffffffffffffffffffffffff1681526020019081526020016000208054905082611cb991906155c3565b91505b8080611cc790615337565b915050611b93565b5060008167ffffffffffffffff811115611cec57611ceb61419a565b5b604051908082528060200260200182016040528015611d2557816020015b611d12613f95565b815260200190600190039081611d0a5790505b5090506000805b600360008873ffffffffffffffffffffffffffffffffffffffff1673ffffffffffffffffffffffffffffffffffffffff1681526020019081526020016000208054905081101561214357600360008873ffffffffffffffffffffffffffffffffffffffff1673ffffffffffffffffffffffffffffffffffffffff1681526020019081526020016000208181548110611dc757611dc66151e2565b5b90600052602060002090600702016040518060e0016040529081600082015481526020016001820160009054906101000a900473ffffffffffffffffffffffffffffffffffffffff1673ffffffffffffffffffffffffffffffffffffffff1673ffffffffffffffffffffffffffffffffffffffff168152602001600282018054611e5090615305565b80601f0160208091040260200160405190810160405280929190818152602001828054611e7c90615305565b8015611ec95780601f10611e9e57610100808354040283529160200191611ec9565b820191906000526020600020905b815481529060010190602001808311611eac57829003601f168201915b50505050508152602001600382015481526020016004820154815260200160058201805480602002602001604051908101604052809291908181526020016000905b828210156120255783829060005260206000209060020201604051806040016040529081600082018054611f3e90615305565b80601f0160208091040260200160405190810160405280929190818152602001828054611f6a90615305565b8015611fb75780601f10611f8c57610100808354040283529160200191611fb7565b820191906000526020600020905b815481529060010190602001808311611f9a57829003601f168201915b505050505081526020016001820160009054906101000a900473ffffffffffffffffffffffffffffffffffffffff1673ffffffffffffffffffffffffffffffffffffffff1673ffffffffffffffffffffffffffffffffffffffff168152505081526020019060010190611f0b565b50505050815260200160068201805480602002602001604051908101604052809291908181526020016000905b828210156120fe57838290600052602060002001805461207190615305565b80601f016020809104026020016040519081016040528092919081815260200182805461209d90615305565b80156120ea5780601f106120bf576101008083540402835291602001916120ea565b820191906000526020600020905b8154815290600101906020018083116120cd57829003601f168201915b505050505081526020019060010190612052565b505050508152505083838061211290615337565b945081518110612125576121246151e2565b5b6020026020010181905250808061213b90615337565b915050611d2c565b5060005b8460a001515181101561266c57600460008873ffffffffffffffffffffffffffffffffffffffff1673ffffffffffffffffffffffffffffffffffffffff16815260200190815260200160002060008660a0015183815181106121ac576121ab6151e2565b5b602002602001015173ffffffffffffffffffffffffffffffffffffffff1673ffffffffffffffffffffffffffffffffffffffff16815260200190815260200160002060009054906101000a900460ff16156126595760005b600360008760a00151848151811061221f5761221e6151e2565b5b602002602001015173ffffffffffffffffffffffffffffffffffffffff1673ffffffffffffffffffffffffffffffffffffffff1681526020019081526020016000208054905081101561265757600360008760a001518481518110612287576122866151e2565b5b602002602001015173ffffffffffffffffffffffffffffffffffffffff1673ffffffffffffffffffffffffffffffffffffffff16815260200190815260200160002081815481106122db576122da6151e2565b5b90600052602060002090600702016040518060e0016040529081600082015481526020016001820160009054906101000a900473ffffffffffffffffffffffffffffffffffffffff1673ffffffffffffffffffffffffffffffffffffffff1673ffffffffffffffffffffffffffffffffffffffff16815260200160028201805461236490615305565b80601f016020809104026020016040519081016040528092919081815260200182805461239090615305565b80156123dd5780601f106123b2576101008083540402835291602001916123dd565b820191906000526020600020905b8154815290600101906020018083116123c057829003601f168201915b50505050508152602001600382015481526020016004820154815260200160058201805480602002602001604051908101604052809291908181526020016000905b82821015612539578382906000526020600020906002020160405180604001604052908160008201805461245290615305565b80601f016020809104026020016040519081016040528092919081815260200182805461247e90615305565b80156124cb5780601f106124a0576101008083540402835291602001916124cb565b820191906000526020600020905b8154815290600101906020018083116124ae57829003601f168201915b505050505081526020016001820160009054906101000a900473ffffffffffffffffffffffffffffffffffffffff1673ffffffffffffffffffffffffffffffffffffffff1673ffffffffffffffffffffffffffffffffffffffff16815250508152602001906001019061241f565b50505050815260200160068201805480602002602001604051908101604052809291908181526020016000905b8282101561261257838290600052602060002001805461258590615305565b80601f01602080910402602001604051908101604052809291908181526020018280546125b190615305565b80156125fe5780601f106125d3576101008083540402835291602001916125fe565b820191906000526020600020905b8154815290600101906020018083116125e157829003601f168201915b505050505081526020019060010190612566565b505050508152505084848061262690615337565b955081518110612639576126386151e2565b5b6020026020010181905250808061264f90615337565b915050612204565b505b808061266490615337565b915050612147565b5060005b60018461267d9190615619565b81101561278257600060018261269391906155c3565b90505b8481101561276e578381815181106126b1576126b06151e2565b5b6020026020010151606001518483815181106126d0576126cf6151e2565b5b602002602001015160600151101561275b5760008483815181106126f7576126f66151e2565b5b60200260200101519050848281518110612714576127136151e2565b5b602002602001015185848151811061272f5761272e6151e2565b5b60200260200101819052508085838151811061274e5761274d6151e2565b5b6020026020010181905250505b808061276690615337565b915050612696565b50808061277a90615337565b915050612670565b5081945050505050919050565b600160003373ffffffffffffffffffffffffffffffffffffffff1673ffffffffffffffffffffffffffffffffffffffff16815260200190815260200160002060009054906101000a900460ff1661281b576040517f08c379a0000000000000000000000000000000000000000000000000000000008152600401612812906150ea565b60405180910390fd5b6000600360003373ffffffffffffffffffffffffffffffffffffffff1673ffffffffffffffffffffffffffffffffffffffff1681526020019081526020016000208054905090506000600360003373ffffffffffffffffffffffffffffffffffffffff1673ffffffffffffffffffffffffffffffffffffffff1681526020019081526020016000206001816001815401808255809150500390600052602060002090600702019050818160000181905550338160010160006101000a81548173ffffffffffffffffffffffffffffffffffffffff021916908373ffffffffffffffffffffffffffffffffffffffff16021790555083816002019080519060200190612927929190613db1565b504281600301819055506000816004018190555082816006019080519060200190612953929190613fe8565b506007600081548092919061296790615337565b91905055503373ffffffffffffffffffffffffffffffffffffffff167f227d44868fd91794465aa9733e53308aaf7503a80920f790d5060691fe03a3e7836040516129b29190614fb5565b60405180910390a250505050565b606060008060008473ffffffffffffffffffffffffffffffffffffffff1673ffffffffffffffffffffffffffffffffffffffff168152602001908152602001600020600501805480602002602001604051908101604052809291908181526020018280548015612a8557602002820191906000526020600020905b8160009054906101000a900473ffffffffffffffffffffffffffffffffffffffff1673ffffffffffffffffffffffffffffffffffffffff1681526020019060010190808311612a3b575b505050505090506000805b8251811015612b6457600460008673ffffffffffffffffffffffffffffffffffffffff1673ffffffffffffffffffffffffffffffffffffffff1681526020019081526020016000206000848381518110612aed57612aec6151e2565b5b602002602001015173ffffffffffffffffffffffffffffffffffffffff1673ffffffffffffffffffffffffffffffffffffffff16815260200190815260200160002060009054906101000a900460ff1615612b51578180612b4d90615337565b9250505b8080612b5c90615337565b915050612a90565b5060008167ffffffffffffffff811115612b8157612b8061419a565b5b604051908082528060200260200182016040528015612baf5781602001602082028036833780820191505090505b5090506000805b8451811015612cf057600460008873ffffffffffffffffffffffffffffffffffffffff1673ffffffffffffffffffffffffffffffffffffffff1681526020019081526020016000206000868381518110612c1357612c126151e2565b5b602002602001015173ffffffffffffffffffffffffffffffffffffffff1673ffffffffffffffffffffffffffffffffffffffff16815260200190815260200160002060009054906101000a900460ff1615612cdd57848181518110612c7b57612c7a6151e2565b5b6020026020010151838380612c8f90615337565b945081518110612ca257612ca16151e2565b5b602002602001019073ffffffffffffffffffffffffffffffffffffffff16908173ffffffffffffffffffffffffffffffffffffffff16815250505b8080612ce890615337565b915050612bb6565b5081945050505050919050565b612d05613ebc565b600160008373ffffffffffffffffffffffffffffffffffffffff1673ffffffffffffffffffffffffffffffffffffffff16815260200190815260200160002060009054906101000a900460ff16612d91576040517f08c379a0000000000000000000000000000000000000000000000000000000008152600401612d88906150ea565b60405180910390fd5b6000808373ffffffffffffffffffffffffffffffffffffffff1673ffffffffffffffffffffffffffffffffffffffff1681526020019081526020016000206040518060c0016040529081600082018054612dea90615305565b80601f0160208091040260200160405190810160405280929190818152602001828054612e1690615305565b8015612e635780601f10612e3857610100808354040283529160200191612e63565b820191906000526020600020905b815481529060010190602001808311612e4657829003601f168201915b50505050508152602001600182018054612e7c90615305565b80601f0160208091040260200160405190810160405280929190818152602001828054612ea890615305565b8015612ef55780601f10612eca57610100808354040283529160200191612ef5565b820191906000526020600020905b815481529060010190602001808311612ed857829003601f168201915b505050505081526020016002820160009054906101000a900473ffffffffffffffffffffffffffffffffffffffff1673ffffffffffffffffffffffffffffffffffffffff1673ffffffffffffffffffffffffffffffffffffffff168152602001600382018054612f6490615305565b80601f0160208091040260200160405190810160405280929190818152602001828054612f9090615305565b8015612fdd5780601f10612fb257610100808354040283529160200191612fdd565b820191906000526020600020905b815481529060010190602001808311612fc057829003601f168201915b50505050508152602001600482015481526020016005820180548060200260200160405190810160405280929190818152602001828054801561307557602002820191906000526020600020905b8160009054906101000a900473ffffffffffffffffffffffffffffffffffffffff1673ffffffffffffffffffffffffffffffffffffffff168152602001906001019080831161302b575b5050505050815250509050919050565b6060600160008373ffffffffffffffffffffffffffffffffffffffff1673ffffffffffffffffffffffffffffffffffffffff16815260200190815260200160002060009054906101000a900460ff16613113576040517f08c379a000000000000000000000000000000000000000000000000000000000815260040161310a906150ea565b60405180910390fd5b600360008373ffffffffffffffffffffffffffffffffffffffff1673ffffffffffffffffffffffffffffffffffffffff168152602001908152602001600020805480602002602001604051908101604052809291908181526020016000905b828210156134ca57838290600052602060002090600702016040518060e0016040529081600082015481526020016001820160009054906101000a900473ffffffffffffffffffffffffffffffffffffffff1673ffffffffffffffffffffffffffffffffffffffff1673ffffffffffffffffffffffffffffffffffffffff16815260200160028201805461320590615305565b80601f016020809104026020016040519081016040528092919081815260200182805461323190615305565b801561327e5780601f106132535761010080835404028352916020019161327e565b820191906000526020600020905b81548152906001019060200180831161326157829003601f168201915b50505050508152602001600382015481526020016004820154815260200160058201805480602002602001604051908101604052809291908181526020016000905b828210156133da57838290600052602060002090600202016040518060400160405290816000820180546132f390615305565b80601f016020809104026020016040519081016040528092919081815260200182805461331f90615305565b801561336c5780601f106133415761010080835404028352916020019161336c565b820191906000526020600020905b81548152906001019060200180831161334f57829003601f168201915b505050505081526020016001820160009054906101000a900473ffffffffffffffffffffffffffffffffffffffff1673ffffffffffffffffffffffffffffffffffffffff1673ffffffffffffffffffffffffffffffffffffffff1681525050815260200190600101906132c0565b50505050815260200160068201805480602002602001604051908101604052809291908181526020016000905b828210156134b357838290600052602060002001805461342690615305565b80601f016020809104026020016040519081016040528092919081815260200182805461345290615305565b801561349f5780601f106134745761010080835404028352916020019161349f565b820191906000526020600020905b81548152906001019060200180831161348257829003601f168201915b505050505081526020019060010190613407565b505050508152505081526020019060010190613172565b505050509050919050565b6000600160008373ffffffffffffffffffffffffffffffffffffffff1673ffffffffffffffffffffffffffffffffffffffff16815260200190815260200160002060009054906101000a900460ff16613563576040517f08c379a000000000000000000000000000000000000000000000000000000000815260040161355a906150ea565b60405180910390fd5b600360008373ffffffffffffffffffffffffffffffffffffffff1673ffffffffffffffffffffffffffffffffffffffff168152602001908152602001600020805490509050919050565b6005602052826000526040600020602052816000526040600020602052806000526040600020600092509250509054906101000a900460ff1681565b600160003373ffffffffffffffffffffffffffffffffffffffff1673ffffffffffffffffffffffffffffffffffffffff16815260200190815260200160002060009054906101000a900460ff16613675576040517f08c379a000000000000000000000000000000000000000000000000000000000815260040161366c906150ea565b60405180910390fd5b610100815111156136bb576040517f08c379a00000000000000000000000000000000000000000000000000000000081526004016136b290615699565b60405180910390fd5b60008060003373ffffffffffffffffffffffffffffffffffffffff1673ffffffffffffffffffffffffffffffffffffffff168152602001908152602001600020905082816001019080519060200190613715929190613db1565b508181600301908051906020019061372e929190613db1565b503373ffffffffffffffffffffffffffffffffffffffff167f6eb3a1c6a4675ba92d44e090515b1ceea358f26565d2854df0c99c3f5eaf985084846040516137779291906156b9565b60405180910390a2505050565b600160003373ffffffffffffffffffffffffffffffffffffffff1673ffffffffffffffffffffffffffffffffffffffff16815260200190815260200160002060009054906101000a900460ff16613810576040517f08c379a0000000000000000000000000000000000000000000000000000000008152600401613807906150ea565b60405180910390fd5b600160008273ffffffffffffffffffffffffffffffffffffffff1673ffffffffffffffffffffffffffffffffffffffff16815260200190815260200160002060009054906101000a900460ff1661389c576040517f08c379a00000000000000000000000000000000000000000000000000000000081526004016138939061573c565b60405180910390fd5b600460003373ffffffffffffffffffffffffffffffffffffffff1673ffffffffffffffffffffffffffffffffffffffff16815260200190815260200160002060008273ffffffffffffffffffffffffffffffffffffffff1673ffffffffffffffffffffffffffffffffffffffff16815260200190815260200160002060009054906101000a900460ff1615600460003373ffffffffffffffffffffffffffffffffffffffff1673ffffffffffffffffffffffffffffffffffffffff16815260200190815260200160002060008373ffffffffffffffffffffffffffffffffffffffff1673ffffffffffffffffffffffffffffffffffffffff16815260200190815260200160002060006101000a81548160ff02191690831515021790555050565b600160003373ffffffffffffffffffffffffffffffffffffffff1673ffffffffffffffffffffffffffffffffffffffff16815260200190815260200160002060009054906101000a900460ff16613a49576040517f08c379a0000000000000000000000000000000000000000000000000000000008152600401613a40906150ea565b60405180910390fd5b600360008373ffffffffffffffffffffffffffffffffffffffff1673ffffffffffffffffffffffffffffffffffffffff168152602001908152602001600020805490508110613acd576040517f08c379a0000000000000000000000000000000000000000000000000000000008152600401613ac490615156565b60405180910390fd5b600560008373ffffffffffffffffffffffffffffffffffffffff1673ffffffffffffffffffffffffffffffffffffffff168152602001908152602001600020600082815260200190815260200160002060003373ffffffffffffffffffffffffffffffffffffffff1673ffffffffffffffffffffffffffffffffffffffff16815260200190815260200160002060009054906101000a900460ff1615613bea57600360008373ffffffffffffffffffffffffffffffffffffffff1673ffffffffffffffffffffffffffffffffffffffff1681526020019081526020016000208181548110613bbe57613bbd6151e2565b5b90600052602060002090600702016004016000815480929190613be0906152ac565b9190505550613c63565b600360008373ffffffffffffffffffffffffffffffffffffffff1673ffffffffffffffffffffffffffffffffffffffff1681526020019081526020016000208181548110613c3b57613c3a6151e2565b5b90600052602060002090600702016004016000815480929190613c5d90615337565b91905055505b600560008373ffffffffffffffffffffffffffffffffffffffff1673ffffffffffffffffffffffffffffffffffffffff168152602001908152602001600020600082815260200190815260200160002060003373ffffffffffffffffffffffffffffffffffffffff1673ffffffffffffffffffffffffffffffffffffffff16815260200190815260200160002060009054906101000a900460ff1615600560008473ffffffffffffffffffffffffffffffffffffffff1673ffffffffffffffffffffffffffffffffffffffff168152602001908152602001600020600083815260200190815260200160002060003373ffffffffffffffffffffffffffffffffffffffff1673ffffffffffffffffffffffffffffffffffffffff16815260200190815260200160002060006101000a81548160ff0219169083151502179055505050565b6000600754905090565b828054613dbd90615305565b90600052602060002090601f016020900481019282613ddf5760008555613e26565b82601f10613df857805160ff1916838001178555613e26565b82800160010185558215613e26579182015b82811115613e25578251825591602001919060010190613e0a565b5b509050613e339190614048565b5090565b508054613e4390615305565b6000825580601f10613e555750613e74565b601f016020900490600052602060002090810190613e739190614048565b5b50565b5080546000825560020290600052602060002090810190613e989190614065565b50565b5080546000825590600052602060002090810190613eb991906140b3565b50565b6040518060c001604052806060815260200160608152602001600073ffffffffffffffffffffffffffffffffffffffff1681526020016060815260200160008019168152602001606081525090565b828054828255906000526020600020908101928215613f84579160200282015b82811115613f835782518260006101000a81548173ffffffffffffffffffffffffffffffffffffffff021916908373ffffffffffffffffffffffffffffffffffffffff16021790555091602001919060010190613f2b565b5b509050613f919190614048565b5090565b6040518060e0016040528060008152602001600073ffffffffffffffffffffffffffffffffffffffff16815260200160608152602001600081526020016000815260200160608152602001606081525090565b828054828255906000526020600020908101928215614037579160200282015b82811115614036578251829080519060200190614026929190613db1565b5091602001919060010190614008565b5b50905061404491906140b3565b5090565b5b80821115614061576000816000905550600101614049565b5090565b5b808211156140af576000808201600061407f9190613e37565b6001820160006101000a81549073ffffffffffffffffffffffffffffffffffffffff021916905550600201614066565b5090565b5b808211156140d357600081816140ca9190613e37565b506001016140b4565b5090565b6000604051905090565b600080fd5b600080fd5b600073ffffffffffffffffffffffffffffffffffffffff82169050919050565b6000614116826140eb565b9050919050565b6141268161410b565b811461413157600080fd5b50565b6000813590506141438161411d565b92915050565b6000819050919050565b61415c81614149565b811461416757600080fd5b50565b60008135905061417981614153565b92915050565b600080fd5b600080fd5b6000601f19601f8301169050919050565b7f4e487b7100000000000000000000000000000000000000000000000000000000600052604160045260246000fd5b6141d282614189565b810181811067ffffffffffffffff821117156141f1576141f061419a565b5b80604052505050565b60006142046140d7565b905061421082826141c9565b919050565b600067ffffffffffffffff8211156142305761422f61419a565b5b61423982614189565b9050602081019050919050565b82818337600083830152505050565b600061426861426384614215565b6141fa565b90508281526020810184848401111561428457614283614184565b5b61428f848285614246565b509392505050565b600082601f8301126142ac576142ab61417f565b5b81356142bc848260208601614255565b91505092915050565b6000806000606084860312156142de576142dd6140e1565b5b60006142ec86828701614134565b93505060206142fd8682870161416a565b925050604084013567ffffffffffffffff81111561431e5761431d6140e6565b5b61432a86828701614297565b9150509250925092565b60006020828403121561434a576143496140e1565b5b60006143588482850161416a565b91505092915050565b600060208284031215614377576143766140e1565b5b600061438584828501614134565b91505092915050565b600081519050919050565b600082825260208201905092915050565b6000819050602082019050919050565b600081519050919050565b600082825260208201905092915050565b60005b838110156143f45780820151818401526020810190506143d9565b83811115614403576000848401525b50505050565b6000614414826143ba565b61441e81856143c5565b935061442e8185602086016143d6565b61443781614189565b840191505092915050565b61444b8161410b565b82525050565b6000819050919050565b61446481614451565b82525050565b600081519050919050565b600082825260208201905092915050565b6000819050602082019050919050565b60006144a28383614442565b60208301905092915050565b6000602082019050919050565b60006144c68261446a565b6144d08185614475565b93506144db83614486565b8060005b8381101561450c5781516144f38882614496565b97506144fe836144ae565b9250506001810190506144df565b5085935050505092915050565b600060c08301600083015184820360008601526145368282614409565b915050602083015184820360208601526145508282614409565b91505060408301516145656040860182614442565b506060830151848203606086015261457d8282614409565b9150506080830151614592608086018261445b565b5060a083015184820360a08601526145aa82826144bb565b9150508091505092915050565b60006145c38383614519565b905092915050565b6000602082019050919050565b60006145e38261438e565b6145ed8185614399565b9350836020820285016145ff856143aa565b8060005b8581101561463b578484038952815161461c85826145b7565b9450614627836145cb565b925060208a01995050600181019050614603565b50829750879550505050505092915050565b6000602082019050818103600083015261466781846145d8565b905092915050565b60008060408385031215614686576146856140e1565b5b600061469485828601614134565b92505060206146a585828601614134565b9150509250929050565b600081519050919050565b600082825260208201905092915050565b6000819050602082019050919050565b60008115159050919050565b6146f0816146db565b82525050565b6146ff81614149565b82525050565b600060808301600083015161471d6000860182614442565b50602083015184820360208601526147358282614409565b915050604083015161474a60408601826146e7565b50606083015161475d60608601826146f6565b508091505092915050565b60006147748383614705565b905092915050565b6000602082019050919050565b6000614794826146af565b61479e81856146ba565b9350836020820285016147b0856146cb565b8060005b858110156147ec57848403895281516147cd8582614768565b94506147d88361477c565b925060208a019950506001810190506147b4565b50829750879550505050505092915050565b600060408201905081810360008301526148188185614789565b9050818103602083015261482c8184614789565b90509392505050565b6000806040838503121561484c5761484b6140e1565b5b600083013567ffffffffffffffff81111561486a576148696140e6565b5b61487685828601614297565b925050602083013567ffffffffffffffff811115614897576148966140e6565b5b6148a385828601614297565b9150509250929050565b600080fd5b600080fd5b60008083601f8401126148cd576148cc61417f565b5b8235905067ffffffffffffffff8111156148ea576148e96148ad565b5b602083019150836001820283011115614906576149056148b2565b5b9250929050565b614916816146db565b811461492157600080fd5b50565b6000813590506149338161490d565b92915050565b60008060008060608587031215614953576149526140e1565b5b600061496187828801614134565b945050602085013567ffffffffffffffff811115614982576149816140e6565b5b61498e878288016148b7565b935093505060406149a187828801614924565b91505092959194509250565b600081519050919050565b600082825260208201905092915050565b6000819050602082019050919050565b600081519050919050565b600082825260208201905092915050565b6000819050602082019050919050565b60006040830160008301518482036000860152614a228282614409565b9150506020830151614a376020860182614442565b508091505092915050565b6000614a4e8383614a05565b905092915050565b6000602082019050919050565b6000614a6e826149d9565b614a7881856149e4565b935083602082028501614a8a856149f5565b8060005b85811015614ac65784840389528151614aa78582614a42565b9450614ab283614a56565b925060208a01995050600181019050614a8e565b50829750879550505050505092915050565b600081519050919050565b600082825260208201905092915050565b6000819050602082019050919050565b6000614b108383614409565b905092915050565b6000602082019050919050565b6000614b3082614ad8565b614b3a8185614ae3565b935083602082028501614b4c85614af4565b8060005b85811015614b885784840389528151614b698582614b04565b9450614b7483614b18565b925060208a01995050600181019050614b50565b50829750879550505050505092915050565b600060e083016000830151614bb260008601826146f6565b506020830151614bc56020860182614442565b5060408301518482036040860152614bdd8282614409565b9150506060830151614bf260608601826146f6565b506080830151614c0560808601826146f6565b5060a083015184820360a0860152614c1d8282614a63565b91505060c083015184820360c0860152614c378282614b25565b9150508091505092915050565b6000614c508383614b9a565b905092915050565b6000602082019050919050565b6000614c70826149ad565b614c7a81856149b8565b935083602082028501614c8c856149c9565b8060005b85811015614cc85784840389528151614ca98582614c44565b9450614cb483614c58565b925060208a01995050600181019050614c90565b50829750879550505050505092915050565b60006020820190508181036000830152614cf48184614c65565b905092915050565b600067ffffffffffffffff821115614d1757614d1661419a565b5b602082029050602081019050919050565b6000614d3b614d3684614cfc565b6141fa565b90508083825260208201905060208402830185811115614d5e57614d5d6148b2565b5b835b81811015614da557803567ffffffffffffffff811115614d8357614d8261417f565b5b808601614d908982614297565b85526020850194505050602081019050614d60565b5050509392505050565b600082601f830112614dc457614dc361417f565b5b8135614dd4848260208601614d28565b91505092915050565b60008060408385031215614df457614df36140e1565b5b600083013567ffffffffffffffff811115614e1257614e116140e6565b5b614e1e85828601614297565b925050602083013567ffffffffffffffff811115614e3f57614e3e6140e6565b5b614e4b85828601614daf565b9150509250929050565b600082825260208201905092915050565b6000614e718261446a565b614e7b8185614e55565b9350614e8683614486565b8060005b83811015614eb7578151614e9e8882614496565b9750614ea9836144ae565b925050600181019050614e8a565b5085935050505092915050565b60006020820190508181036000830152614ede8184614e66565b905092915050565b600060c0830160008301518482036000860152614f038282614409565b91505060208301518482036020860152614f1d8282614409565b9150506040830151614f326040860182614442565b5060608301518482036060860152614f4a8282614409565b9150506080830151614f5f608086018261445b565b5060a083015184820360a0860152614f7782826144bb565b9150508091505092915050565b60006020820190508181036000830152614f9e8184614ee6565b905092915050565b614faf81614149565b82525050565b6000602082019050614fca6000830184614fa6565b92915050565b600080600060608486031215614fe957614fe86140e1565b5b6000614ff786828701614134565b93505060206150088682870161416a565b925050604061501986828701614134565b9150509250925092565b61502c816146db565b82525050565b60006020820190506150476000830184615023565b92915050565b60008060408385031215615064576150636140e1565b5b600061507285828601614134565b92505060206150838582860161416a565b9150509250929050565b600082825260208201905092915050565b7f55736572206e6f74207265676973746572656400000000000000000000000000600082015250565b60006150d460138361508d565b91506150df8261509e565b602082019050919050565b60006020820190508181036000830152615103816150c7565b9050919050565b7f496e76616c696420706f73742049440000000000000000000000000000000000600082015250565b6000615140600f8361508d565b915061514b8261510a565b602082019050919050565b6000602082019050818103600083015261516f81615133565b9050919050565b7f436f6d6d656e742063616e6e6f7420626520656d707479000000000000000000600082015250565b60006151ac60178361508d565b91506151b782615176565b602082019050919050565b600060208201905081810360008301526151db8161519f565b9050919050565b7f4e487b7100000000000000000000000000000000000000000000000000000000600052603260045260246000fd5b7f4e6f742074686520706f737420617574686f7200000000000000000000000000600082015250565b600061524760138361508d565b915061525282615211565b602082019050919050565b600060208201905081810360008301526152768161523a565b9050919050565b7f4e487b7100000000000000000000000000000000000000000000000000000000600052601160045260246000fd5b60006152b782614149565b915060008214156152cb576152ca61527d565b5b600182039050919050565b7f4e487b7100000000000000000000000000000000000000000000000000000000600052602260045260246000fd5b6000600282049050600182168061531d57607f821691505b60208210811415615331576153306152d6565b5b50919050565b600061534282614149565b91507fffffffffffffffffffffffffffffffffffffffffffffffffffffffffffffffff8214156153755761537461527d565b5b600182019050919050565b7f5573657220616c72656164792072656769737465726564000000000000000000600082015250565b60006153b660178361508d565b91506153c182615380565b602082019050919050565b600060208201905081810360008301526153e5816153a9565b9050919050565b600081905092915050565b6000615402826143ba565b61540c81856153ec565b935061541c8185602086016143d6565b80840191505092915050565b600061543482846153f7565b915081905092915050565b600061544a826143ba565b615454818561508d565b93506154648185602086016143d6565b61546d81614189565b840191505092915050565b60006020820190508181036000830152615492818461543f565b905092915050565b7f5265636569766572206e6f742072656769737465726564000000000000000000600082015250565b60006154d060178361508d565b91506154db8261549a565b602082019050919050565b600060208201905081810360008301526154ff816154c3565b9050919050565b7f4d6573736167652063616e6e6f7420626520656d707479000000000000000000600082015250565b600061553c60178361508d565b915061554782615506565b602082019050919050565b6000602082019050818103600083015261556b8161552f565b9050919050565b600061557e838561508d565b935061558b838584614246565b61559483614189565b840190509392505050565b600060208201905081810360008301526155ba818486615572565b90509392505050565b60006155ce82614149565b91506155d983614149565b9250827fffffffffffffffffffffffffffffffffffffffffffffffffffffffffffffffff0382111561560e5761560d61527d565b5b828201905092915050565b600061562482614149565b915061562f83614149565b9250828210156156425761564161527d565b5b828203905092915050565b7f42696f20697320746f6f206c6f6e670000000000000000000000000000000000600082015250565b6000615683600f8361508d565b915061568e8261564d565b602082019050919050565b600060208201905081810360008301526156b281615676565b9050919050565b600060408201905081810360008301526156d3818561543f565b905081810360208301526156e7818461543f565b90509392505050565b7f467269656e64206e6f7420726567697374657265640000000000000000000000600082015250565b600061572660158361508d565b9150615731826156f0565b602082019050919050565b6000602082019050818103600083015261575581615719565b905091905056fe68747470733a2f2f7265732e636c6f7564696e6172792e636f6d2f646a306772766162632f696d6167652f75706c6f61642f76313732313033363231322f617661746172732f6462777479776d77656a337762746c3675617a732e706e67a264697066735822122006e9eb93ac304900022cf250f49661b4b630e747987456dcb0b4afe0aa0216b464736f6c63430008090033",
  "linkReferences": {},
  "deployedLinkReferences": {}
}