{
  "_format": "hh-sol-artifact-1",
  "contractName": "Dacebook",
  "sourceName": "contracts/Dacebook.sol",
  "abi": [
    {
      "anonymous": false,
      "inputs": [
        {
          "indexed": true,
          "internalType": "address",
          "name": "user",
          "type": "address"
        },
        {
          "indexed": false,
          "internalType": "string",
          "name": "fileUrl",
          "type": "string"
        }
      ],
      "name": "FileUploaded",
      "type": "event"
    },
    {
      "anonymous": false,
      "inputs": [
        {
          "indexed": true,
          "internalType": "address",
          "name": "sender",
          "type": "address"
        },
        {
          "indexed": true,
          "internalType": "address",
          "name": "receiver",
          "type": "address"
        },
        {
          "indexed": false,
          "internalType": "string",
          "name": "content",
          "type": "string"
        }
      ],
      "name": "NewMessage",
      "type": "event"
    },
    {
      "anonymous": false,
      "inputs": [
        {
          "indexed": true,
          "internalType": "address",
          "name": "author",
          "type": "address"
        },
        {
          "indexed": false,
          "internalType": "uint256",
          "name": "postId",
          "type": "uint256"
        }
      ],
      "name": "NewPost",
      "type": "event"
    },
    {
      "anonymous": false,
      "inputs": [
        {
          "indexed": true,
          "internalType": "address",
          "name": "user",
          "type": "address"
        },
        {
          "indexed": false,
          "internalType": "string",
          "name": "name",
          "type": "string"
        }
      ],
      "name": "UserRegistered",
      "type": "event"
    },
    {
      "inputs": [
        {
          "internalType": "address",
          "name": "_friend",
          "type": "address"
        }
      ],
      "name": "addFriend",
      "outputs": [],
      "stateMutability": "nonpayable",
      "type": "function"
    },
    {
      "inputs": [
        {
          "internalType": "address",
          "name": "_user1",
          "type": "address"
        },
        {
          "internalType": "address",
          "name": "_user2",
          "type": "address"
        }
      ],
      "name": "areFriends",
      "outputs": [
        {
          "internalType": "bool",
          "name": "",
          "type": "bool"
        }
      ],
      "stateMutability": "view",
      "type": "function"
    },
    {
      "inputs": [
        {
          "internalType": "address",
          "name": "_author",
          "type": "address"
        },
        {
          "internalType": "uint256",
          "name": "_postId",
          "type": "uint256"
        },
        {
          "internalType": "string",
          "name": "_comment",
          "type": "string"
        }
      ],
      "name": "commentOnPost",
      "outputs": [],
      "stateMutability": "nonpayable",
      "type": "function"
    },
    {
      "inputs": [
        {
          "internalType": "string",
          "name": "_content",
          "type": "string"
        },
        {
          "internalType": "string[]",
          "name": "_uploads",
          "type": "string[]"
        }
      ],
      "name": "createPost",
      "outputs": [],
      "stateMutability": "nonpayable",
      "type": "function"
    },
    {
      "inputs": [
        {
          "internalType": "address",
          "name": "_withUser",
          "type": "address"
        }
      ],
      "name": "getMessages",
      "outputs": [
        {
          "components": [
            {
              "internalType": "address",
              "name": "sender",
              "type": "address"
            },
            {
              "internalType": "address",
              "name": "receiver",
              "type": "address"
            },
            {
              "internalType": "string",
              "name": "content",
              "type": "string"
            },
            {
              "internalType": "uint256",
              "name": "timestamp",
              "type": "uint256"
            }
          ],
          "internalType": "struct Dacebook.Message[]",
          "name": "",
          "type": "tuple[]"
        }
      ],
      "stateMutability": "view",
      "type": "function"
    },
    {
      "inputs": [
        {
          "internalType": "address",
          "name": "_user",
          "type": "address"
        }
      ],
      "name": "getUserPosts",
      "outputs": [
        {
          "components": [
            {
              "internalType": "uint256",
              "name": "id",
              "type": "uint256"
            },
            {
              "internalType": "address",
              "name": "author",
              "type": "address"
            },
            {
              "internalType": "string",
              "name": "content",
              "type": "string"
            },
            {
              "internalType": "uint256",
              "name": "timestamp",
              "type": "uint256"
            },
            {
              "internalType": "uint256",
              "name": "likes",
              "type": "uint256"
            },
            {
              "internalType": "string[]",
              "name": "comments",
              "type": "string[]"
            },
            {
              "internalType": "string[]",
              "name": "uploads",
              "type": "string[]"
            }
          ],
          "internalType": "struct Dacebook.Post[]",
          "name": "",
          "type": "tuple[]"
        }
      ],
      "stateMutability": "view",
      "type": "function"
    },
    {
      "inputs": [
        {
          "internalType": "address",
          "name": "_user",
          "type": "address"
        }
      ],
      "name": "getUserProfile",
      "outputs": [
        {
          "components": [
            {
              "internalType": "string",
              "name": "name",
              "type": "string"
            },
            {
              "internalType": "string",
              "name": "profilePic",
              "type": "string"
            },
            {
              "internalType": "address",
              "name": "userAddress",
              "type": "address"
            },
            {
              "internalType": "string",
              "name": "bio",
              "type": "string"
            },
            {
              "internalType": "bytes32",
              "name": "passwordHash",
              "type": "bytes32"
            },
            {
              "internalType": "address[]",
              "name": "friends",
              "type": "address[]"
            }
          ],
          "internalType": "struct Dacebook.User",
          "name": "",
          "type": "tuple"
        }
      ],
      "stateMutability": "view",
      "type": "function"
    },
    {
      "inputs": [
        {
          "internalType": "address",
          "name": "_author",
          "type": "address"
        },
        {
          "internalType": "uint256",
          "name": "_postId",
          "type": "uint256"
        }
      ],
      "name": "likePost",
      "outputs": [],
      "stateMutability": "nonpayable",
      "type": "function"
    },
    {
      "inputs": [
        {
          "internalType": "string",
          "name": "_name",
          "type": "string"
        },
        {
          "internalType": "string",
          "name": "_profilePic",
          "type": "string"
        },
        {
          "internalType": "string",
          "name": "_bio",
          "type": "string"
        },
        {
          "internalType": "string",
          "name": "_password",
          "type": "string"
        }
      ],
      "name": "register",
      "outputs": [],
      "stateMutability": "nonpayable",
      "type": "function"
    },
    {
      "inputs": [
        {
          "internalType": "address",
          "name": "_receiver",
          "type": "address"
        },
        {
          "internalType": "string",
          "name": "_content",
          "type": "string"
        }
      ],
      "name": "sendMessage",
      "outputs": [],
      "stateMutability": "nonpayable",
      "type": "function"
    },
    {
      "inputs": [
        {
          "internalType": "string",
          "name": "_fileUrl",
          "type": "string"
        }
      ],
      "name": "uploadFile",
      "outputs": [],
      "stateMutability": "nonpayable",
      "type": "function"
    }
  ],
  "bytecode": "0x608060405234801561001057600080fd5b50613184806100206000396000f3fe608060405234801561001057600080fd5b50600436106100a95760003560e01c8063987ee15611610071578063987ee1561461014e5780639a2194a91461017e578063b2f71322146101ae578063d7a1cfe1146101de578063de6f24bb146101fa578063e37ffc3014610216576100a9565b8063012d18b9146100ae5780630e24c52c146100ca57806348351529146100e657806352374f7a146101025780638110a8001461011e575b600080fd5b6100c860048036038101906100c39190612278565b610232565b005b6100e460048036038101906100df91906122e7565b6103e3565b005b61010060048036038101906100fb91906123be565b6106d3565b005b61011c600480360381019061011791906124e4565b61085f565b005b6101386004803603810190610133919061255c565b610b43565b60405161014591906125b7565b60405180910390f35b610168600480360381019061016391906125d2565b610bd7565b60405161017591906127fc565b60405180910390f35b610198600480360381019061019391906125d2565b610f5f565b6040516101a59190612a5b565b60405180910390f35b6101c860048036038101906101c391906125d2565b611341565b6040516101d59190612ba2565b60405180910390f35b6101f860048036038101906101f391906125d2565b6115f0565b005b610214600480360381019061020f9190612bc4565b611a43565b005b610230600480360381019061022b9190612c20565b611d6d565b005b600160003373ffffffffffffffffffffffffffffffffffffffff1673ffffffffffffffffffffffffffffffffffffffff16815260200190815260200160002060009054906101000a900460ff166102be576040517f08c379a00000000000000000000000000000000000000000000000000000000081526004016102b590612cc6565b60405180910390fd5b600260008473ffffffffffffffffffffffffffffffffffffffff1673ffffffffffffffffffffffffffffffffffffffff168152602001908152602001600020805490508210610342576040517f08c379a000000000000000000000000000000000000000000000000000000000815260040161033990612d32565b60405180910390fd5b600260008473ffffffffffffffffffffffffffffffffffffffff1673ffffffffffffffffffffffffffffffffffffffff168152602001908152602001600020828154811061039357610392612d52565b5b9060005260206000209060070201600501819080600181540180825580915050600190039060005260206000200160009091909190915090805190602001906103dd929190611e4a565b50505050565b600160003373ffffffffffffffffffffffffffffffffffffffff1673ffffffffffffffffffffffffffffffffffffffff16815260200190815260200160002060009054906101000a900460ff1615610470576040517f08c379a000000000000000000000000000000000000000000000000000000000815260040161046790612dcd565b60405180910390fd5b6040518060c001604052808581526020018481526020013373ffffffffffffffffffffffffffffffffffffffff168152602001838152602001826040516020016104ba9190612e29565b604051602081830303815290604052805190602001208152602001600067ffffffffffffffff8111156104f0576104ef61214d565b5b60405190808252806020026020018201604052801561051e5781602001602082028036833780820191505090505b508152506000803373ffffffffffffffffffffffffffffffffffffffff1673ffffffffffffffffffffffffffffffffffffffff168152602001908152602001600020600082015181600001908051906020019061057c929190611e4a565b506020820151816001019080519060200190610599929190611e4a565b5060408201518160020160006101000a81548173ffffffffffffffffffffffffffffffffffffffff021916908373ffffffffffffffffffffffffffffffffffffffff16021790555060608201518160030190805190602001906105fd929190611e4a565b506080820151816004015560a0820151816005019080519060200190610624929190611ed0565b5090505060018060003373ffffffffffffffffffffffffffffffffffffffff1673ffffffffffffffffffffffffffffffffffffffff16815260200190815260200160002060006101000a81548160ff0219169083151502179055503373ffffffffffffffffffffffffffffffffffffffff167f48cac28ad4dc618e15f4c2dd5e97751182f166de97b25618318b2112aa951a2f856040516106c59190612e79565b60405180910390a250505050565b600160003373ffffffffffffffffffffffffffffffffffffffff1673ffffffffffffffffffffffffffffffffffffffff16815260200190815260200160002060009054906101000a900460ff1661075f576040517f08c379a000000000000000000000000000000000000000000000000000000000815260040161075690612cc6565b60405180910390fd5b600260008373ffffffffffffffffffffffffffffffffffffffff1673ffffffffffffffffffffffffffffffffffffffff1681526020019081526020016000208054905081106107e3576040517f08c379a00000000000000000000000000000000000000000000000000000000081526004016107da90612d32565b60405180910390fd5b600260008373ffffffffffffffffffffffffffffffffffffffff1673ffffffffffffffffffffffffffffffffffffffff168152602001908152602001600020818154811061083457610833612d52565b5b9060005260206000209060070201600401600081548092919061085690612eca565b91905055505050565b600160003373ffffffffffffffffffffffffffffffffffffffff1673ffffffffffffffffffffffffffffffffffffffff16815260200190815260200160002060009054906101000a900460ff166108eb576040517f08c379a00000000000000000000000000000000000000000000000000000000081526004016108e290612cc6565b60405180910390fd5b6000600260003373ffffffffffffffffffffffffffffffffffffffff1673ffffffffffffffffffffffffffffffffffffffff168152602001908152602001600020805490509050600260003373ffffffffffffffffffffffffffffffffffffffff1673ffffffffffffffffffffffffffffffffffffffff1681526020019081526020016000206040518060e001604052808381526020013373ffffffffffffffffffffffffffffffffffffffff16815260200185815260200142815260200160008152602001600067ffffffffffffffff8111156109cc576109cb61214d565b5b6040519080825280602002602001820160405280156109ff57816020015b60608152602001906001900390816109ea5790505b5081526020018481525090806001815401808255809150506001900390600052602060002090600702016000909190919091506000820151816000015560208201518160010160006101000a81548173ffffffffffffffffffffffffffffffffffffffff021916908373ffffffffffffffffffffffffffffffffffffffff1602179055506040820151816002019080519060200190610a9f929190611e4a565b50606082015181600301556080820151816004015560a0820151816005019080519060200190610ad0929190611f5a565b5060c0820151816006019080519060200190610aed929190611f5a565b5050503373ffffffffffffffffffffffffffffffffffffffff167f227d44868fd91794465aa9733e53308aaf7503a80920f790d5060691fe03a3e782604051610b369190612f22565b60405180910390a2505050565b6000600460008473ffffffffffffffffffffffffffffffffffffffff1673ffffffffffffffffffffffffffffffffffffffff16815260200190815260200160002060008373ffffffffffffffffffffffffffffffffffffffff1673ffffffffffffffffffffffffffffffffffffffff16815260200190815260200160002060009054906101000a900460ff16905092915050565b610bdf611fba565b600160008373ffffffffffffffffffffffffffffffffffffffff1673ffffffffffffffffffffffffffffffffffffffff16815260200190815260200160002060009054906101000a900460ff16610c6b576040517f08c379a0000000000000000000000000000000000000000000000000000000008152600401610c6290612cc6565b60405180910390fd5b6000808373ffffffffffffffffffffffffffffffffffffffff1673ffffffffffffffffffffffffffffffffffffffff1681526020019081526020016000206040518060c0016040529081600082018054610cc490612f6c565b80601f0160208091040260200160405190810160405280929190818152602001828054610cf090612f6c565b8015610d3d5780601f10610d1257610100808354040283529160200191610d3d565b820191906000526020600020905b815481529060010190602001808311610d2057829003601f168201915b50505050508152602001600182018054610d5690612f6c565b80601f0160208091040260200160405190810160405280929190818152602001828054610d8290612f6c565b8015610dcf5780601f10610da457610100808354040283529160200191610dcf565b820191906000526020600020905b815481529060010190602001808311610db257829003601f168201915b505050505081526020016002820160009054906101000a900473ffffffffffffffffffffffffffffffffffffffff1673ffffffffffffffffffffffffffffffffffffffff1673ffffffffffffffffffffffffffffffffffffffff168152602001600382018054610e3e90612f6c565b80601f0160208091040260200160405190810160405280929190818152602001828054610e6a90612f6c565b8015610eb75780601f10610e8c57610100808354040283529160200191610eb7565b820191906000526020600020905b815481529060010190602001808311610e9a57829003601f168201915b505050505081526020016004820154815260200160058201805480602002602001604051908101604052809291908181526020018280548015610f4f57602002820191906000526020600020905b8160009054906101000a900473ffffffffffffffffffffffffffffffffffffffff1673ffffffffffffffffffffffffffffffffffffffff1681526020019060010190808311610f05575b5050505050815250509050919050565b6060600160008373ffffffffffffffffffffffffffffffffffffffff1673ffffffffffffffffffffffffffffffffffffffff16815260200190815260200160002060009054906101000a900460ff16610fed576040517f08c379a0000000000000000000000000000000000000000000000000000000008152600401610fe490612cc6565b60405180910390fd5b600260008373ffffffffffffffffffffffffffffffffffffffff1673ffffffffffffffffffffffffffffffffffffffff168152602001908152602001600020805480602002602001604051908101604052809291908181526020016000905b8282101561133657838290600052602060002090600702016040518060e0016040529081600082015481526020016001820160009054906101000a900473ffffffffffffffffffffffffffffffffffffffff1673ffffffffffffffffffffffffffffffffffffffff1673ffffffffffffffffffffffffffffffffffffffff1681526020016002820180546110df90612f6c565b80601f016020809104026020016040519081016040528092919081815260200182805461110b90612f6c565b80156111585780601f1061112d57610100808354040283529160200191611158565b820191906000526020600020905b81548152906001019060200180831161113b57829003601f168201915b50505050508152602001600382015481526020016004820154815260200160058201805480602002602001604051908101604052809291908181526020016000905b828210156112465783829060005260206000200180546111b990612f6c565b80601f01602080910402602001604051908101604052809291908181526020018280546111e590612f6c565b80156112325780601f1061120757610100808354040283529160200191611232565b820191906000526020600020905b81548152906001019060200180831161121557829003601f168201915b50505050508152602001906001019061119a565b50505050815260200160068201805480602002602001604051908101604052809291908181526020016000905b8282101561131f57838290600052602060002001805461129290612f6c565b80601f01602080910402602001604051908101604052809291908181526020018280546112be90612f6c565b801561130b5780601f106112e05761010080835404028352916020019161130b565b820191906000526020600020905b8154815290600101906020018083116112ee57829003601f168201915b505050505081526020019060010190611273565b50505050815250508152602001906001019061104c565b505050509050919050565b6060600160003373ffffffffffffffffffffffffffffffffffffffff1673ffffffffffffffffffffffffffffffffffffffff16815260200190815260200160002060009054906101000a900460ff166113cf576040517f08c379a00000000000000000000000000000000000000000000000000000000081526004016113c690612cc6565b60405180910390fd5b600360003373ffffffffffffffffffffffffffffffffffffffff1673ffffffffffffffffffffffffffffffffffffffff16815260200190815260200160002060008373ffffffffffffffffffffffffffffffffffffffff1673ffffffffffffffffffffffffffffffffffffffff168152602001908152602001600020805480602002602001604051908101604052809291908181526020016000905b828210156115e557838290600052602060002090600402016040518060800160405290816000820160009054906101000a900473ffffffffffffffffffffffffffffffffffffffff1673ffffffffffffffffffffffffffffffffffffffff1673ffffffffffffffffffffffffffffffffffffffff1681526020016001820160009054906101000a900473ffffffffffffffffffffffffffffffffffffffff1673ffffffffffffffffffffffffffffffffffffffff1673ffffffffffffffffffffffffffffffffffffffff16815260200160028201805461154a90612f6c565b80601f016020809104026020016040519081016040528092919081815260200182805461157690612f6c565b80156115c35780601f10611598576101008083540402835291602001916115c3565b820191906000526020600020905b8154815290600101906020018083116115a657829003601f168201915b505050505081526020016003820154815250508152602001906001019061146b565b505050509050919050565b600160003373ffffffffffffffffffffffffffffffffffffffff1673ffffffffffffffffffffffffffffffffffffffff16815260200190815260200160002060009054906101000a900460ff1661167c576040517f08c379a000000000000000000000000000000000000000000000000000000000815260040161167390612cc6565b60405180910390fd5b600160008273ffffffffffffffffffffffffffffffffffffffff1673ffffffffffffffffffffffffffffffffffffffff16815260200190815260200160002060009054906101000a900460ff16611708576040517f08c379a00000000000000000000000000000000000000000000000000000000081526004016116ff90612fea565b60405180910390fd5b600460003373ffffffffffffffffffffffffffffffffffffffff1673ffffffffffffffffffffffffffffffffffffffff16815260200190815260200160002060008273ffffffffffffffffffffffffffffffffffffffff1673ffffffffffffffffffffffffffffffffffffffff16815260200190815260200160002060009054906101000a900460ff16156117d2576040517f08c379a00000000000000000000000000000000000000000000000000000000081526004016117c990613056565b60405180910390fd5b6001600460003373ffffffffffffffffffffffffffffffffffffffff1673ffffffffffffffffffffffffffffffffffffffff16815260200190815260200160002060008373ffffffffffffffffffffffffffffffffffffffff1673ffffffffffffffffffffffffffffffffffffffff16815260200190815260200160002060006101000a81548160ff0219169083151502179055506001600460008373ffffffffffffffffffffffffffffffffffffffff1673ffffffffffffffffffffffffffffffffffffffff16815260200190815260200160002060003373ffffffffffffffffffffffffffffffffffffffff1673ffffffffffffffffffffffffffffffffffffffff16815260200190815260200160002060006101000a81548160ff0219169083151502179055506000803373ffffffffffffffffffffffffffffffffffffffff1673ffffffffffffffffffffffffffffffffffffffff168152602001908152602001600020600501819080600181540180825580915050600190039060005260206000200160009091909190916101000a81548173ffffffffffffffffffffffffffffffffffffffff021916908373ffffffffffffffffffffffffffffffffffffffff1602179055506000808273ffffffffffffffffffffffffffffffffffffffff1673ffffffffffffffffffffffffffffffffffffffff168152602001908152602001600020600501339080600181540180825580915050600190039060005260206000200160009091909190916101000a81548173ffffffffffffffffffffffffffffffffffffffff021916908373ffffffffffffffffffffffffffffffffffffffff16021790555050565b600160003373ffffffffffffffffffffffffffffffffffffffff1673ffffffffffffffffffffffffffffffffffffffff16815260200190815260200160002060009054906101000a900460ff16611acf576040517f08c379a0000000000000000000000000000000000000000000000000000000008152600401611ac6906130c2565b60405180910390fd5b600160008373ffffffffffffffffffffffffffffffffffffffff1673ffffffffffffffffffffffffffffffffffffffff16815260200190815260200160002060009054906101000a900460ff16611b5b576040517f08c379a0000000000000000000000000000000000000000000000000000000008152600401611b529061312e565b60405180910390fd5b600360003373ffffffffffffffffffffffffffffffffffffffff1673ffffffffffffffffffffffffffffffffffffffff16815260200190815260200160002060008373ffffffffffffffffffffffffffffffffffffffff1673ffffffffffffffffffffffffffffffffffffffff16815260200190815260200160002060405180608001604052803373ffffffffffffffffffffffffffffffffffffffff1681526020018473ffffffffffffffffffffffffffffffffffffffff16815260200183815260200142815250908060018154018082558091505060019003906000526020600020906004020160009091909190915060008201518160000160006101000a81548173ffffffffffffffffffffffffffffffffffffffff021916908373ffffffffffffffffffffffffffffffffffffffff16021790555060208201518160010160006101000a81548173ffffffffffffffffffffffffffffffffffffffff021916908373ffffffffffffffffffffffffffffffffffffffff1602179055506040820151816002019080519060200190611cf7929190611e4a565b506060820151816003015550508173ffffffffffffffffffffffffffffffffffffffff163373ffffffffffffffffffffffffffffffffffffffff167fc0e964a89ae4af54eaf553b02f07849ce6ddc028e52aec665236032bdd33a52283604051611d619190612e79565b60405180910390a35050565b600160003373ffffffffffffffffffffffffffffffffffffffff1673ffffffffffffffffffffffffffffffffffffffff16815260200190815260200160002060009054906101000a900460ff16611df9576040517f08c379a0000000000000000000000000000000000000000000000000000000008152600401611df090612cc6565b60405180910390fd5b3373ffffffffffffffffffffffffffffffffffffffff167f5378764a7f2ef654d29aa1cad65388f3dade11c871fbcd558bf6b56be0e37de882604051611e3f9190612e79565b60405180910390a250565b828054611e5690612f6c565b90600052602060002090601f016020900481019282611e785760008555611ebf565b82601f10611e9157805160ff1916838001178555611ebf565b82800160010185558215611ebf579182015b82811115611ebe578251825591602001919060010190611ea3565b5b509050611ecc9190612009565b5090565b828054828255906000526020600020908101928215611f49579160200282015b82811115611f485782518260006101000a81548173ffffffffffffffffffffffffffffffffffffffff021916908373ffffffffffffffffffffffffffffffffffffffff16021790555091602001919060010190611ef0565b5b509050611f569190612009565b5090565b828054828255906000526020600020908101928215611fa9579160200282015b82811115611fa8578251829080519060200190611f98929190611e4a565b5091602001919060010190611f7a565b5b509050611fb69190612026565b5090565b6040518060c001604052806060815260200160608152602001600073ffffffffffffffffffffffffffffffffffffffff1681526020016060815260200160008019168152602001606081525090565b5b8082111561202257600081600090555060010161200a565b5090565b5b80821115612046576000818161203d919061204a565b50600101612027565b5090565b50805461205690612f6c565b6000825580601f106120685750612087565b601f0160209004906000526020600020908101906120869190612009565b5b50565b6000604051905090565b600080fd5b600080fd5b600073ffffffffffffffffffffffffffffffffffffffff82169050919050565b60006120c98261209e565b9050919050565b6120d9816120be565b81146120e457600080fd5b50565b6000813590506120f6816120d0565b92915050565b6000819050919050565b61210f816120fc565b811461211a57600080fd5b50565b60008135905061212c81612106565b92915050565b600080fd5b600080fd5b6000601f19601f8301169050919050565b7f4e487b7100000000000000000000000000000000000000000000000000000000600052604160045260246000fd5b6121858261213c565b810181811067ffffffffffffffff821117156121a4576121a361214d565b5b80604052505050565b60006121b761208a565b90506121c3828261217c565b919050565b600067ffffffffffffffff8211156121e3576121e261214d565b5b6121ec8261213c565b9050602081019050919050565b82818337600083830152505050565b600061221b612216846121c8565b6121ad565b90508281526020810184848401111561223757612236612137565b5b6122428482856121f9565b509392505050565b600082601f83011261225f5761225e612132565b5b813561226f848260208601612208565b91505092915050565b60008060006060848603121561229157612290612094565b5b600061229f868287016120e7565b93505060206122b08682870161211d565b925050604084013567ffffffffffffffff8111156122d1576122d0612099565b5b6122dd8682870161224a565b9150509250925092565b6000806000806080858703121561230157612300612094565b5b600085013567ffffffffffffffff81111561231f5761231e612099565b5b61232b8782880161224a565b945050602085013567ffffffffffffffff81111561234c5761234b612099565b5b6123588782880161224a565b935050604085013567ffffffffffffffff81111561237957612378612099565b5b6123858782880161224a565b925050606085013567ffffffffffffffff8111156123a6576123a5612099565b5b6123b28782880161224a565b91505092959194509250565b600080604083850312156123d5576123d4612094565b5b60006123e3858286016120e7565b92505060206123f48582860161211d565b9150509250929050565b600067ffffffffffffffff8211156124195761241861214d565b5b602082029050602081019050919050565b600080fd5b600061244261243d846123fe565b6121ad565b905080838252602082019050602084028301858111156124655761246461242a565b5b835b818110156124ac57803567ffffffffffffffff81111561248a57612489612132565b5b808601612497898261224a565b85526020850194505050602081019050612467565b5050509392505050565b600082601f8301126124cb576124ca612132565b5b81356124db84826020860161242f565b91505092915050565b600080604083850312156124fb576124fa612094565b5b600083013567ffffffffffffffff81111561251957612518612099565b5b6125258582860161224a565b925050602083013567ffffffffffffffff81111561254657612545612099565b5b612552858286016124b6565b9150509250929050565b6000806040838503121561257357612572612094565b5b6000612581858286016120e7565b9250506020612592858286016120e7565b9150509250929050565b60008115159050919050565b6125b18161259c565b82525050565b60006020820190506125cc60008301846125a8565b92915050565b6000602082840312156125e8576125e7612094565b5b60006125f6848285016120e7565b91505092915050565b600081519050919050565b600082825260208201905092915050565b60005b8381101561263957808201518184015260208101905061261e565b83811115612648576000848401525b50505050565b6000612659826125ff565b612663818561260a565b935061267381856020860161261b565b61267c8161213c565b840191505092915050565b612690816120be565b82525050565b6000819050919050565b6126a981612696565b82525050565b600081519050919050565b600082825260208201905092915050565b6000819050602082019050919050565b60006126e78383612687565b60208301905092915050565b6000602082019050919050565b600061270b826126af565b61271581856126ba565b9350612720836126cb565b8060005b8381101561275157815161273888826126db565b9750612743836126f3565b925050600181019050612724565b5085935050505092915050565b600060c083016000830151848203600086015261277b828261264e565b91505060208301518482036020860152612795828261264e565b91505060408301516127aa6040860182612687565b50606083015184820360608601526127c2828261264e565b91505060808301516127d760808601826126a0565b5060a083015184820360a08601526127ef8282612700565b9150508091505092915050565b60006020820190508181036000830152612816818461275e565b905092915050565b600081519050919050565b600082825260208201905092915050565b6000819050602082019050919050565b612853816120fc565b82525050565b600081519050919050565b600082825260208201905092915050565b6000819050602082019050919050565b6000612891838361264e565b905092915050565b6000602082019050919050565b60006128b182612859565b6128bb8185612864565b9350836020820285016128cd85612875565b8060005b8581101561290957848403895281516128ea8582612885565b94506128f583612899565b925060208a019950506001810190506128d1565b50829750879550505050505092915050565b600060e083016000830151612933600086018261284a565b5060208301516129466020860182612687565b506040830151848203604086015261295e828261264e565b9150506060830151612973606086018261284a565b506080830151612986608086018261284a565b5060a083015184820360a086015261299e82826128a6565b91505060c083015184820360c08601526129b882826128a6565b9150508091505092915050565b60006129d1838361291b565b905092915050565b6000602082019050919050565b60006129f18261281e565b6129fb8185612829565b935083602082028501612a0d8561283a565b8060005b85811015612a495784840389528151612a2a85826129c5565b9450612a35836129d9565b925060208a01995050600181019050612a11565b50829750879550505050505092915050565b60006020820190508181036000830152612a7581846129e6565b905092915050565b600081519050919050565b600082825260208201905092915050565b6000819050602082019050919050565b6000608083016000830151612ac16000860182612687565b506020830151612ad46020860182612687565b5060408301518482036040860152612aec828261264e565b9150506060830151612b01606086018261284a565b508091505092915050565b6000612b188383612aa9565b905092915050565b6000602082019050919050565b6000612b3882612a7d565b612b428185612a88565b935083602082028501612b5485612a99565b8060005b85811015612b905784840389528151612b718582612b0c565b9450612b7c83612b20565b925060208a01995050600181019050612b58565b50829750879550505050505092915050565b60006020820190508181036000830152612bbc8184612b2d565b905092915050565b60008060408385031215612bdb57612bda612094565b5b6000612be9858286016120e7565b925050602083013567ffffffffffffffff811115612c0a57612c09612099565b5b612c168582860161224a565b9150509250929050565b600060208284031215612c3657612c35612094565b5b600082013567ffffffffffffffff811115612c5457612c53612099565b5b612c608482850161224a565b91505092915050565b600082825260208201905092915050565b7f55736572206e6f74207265676973746572656400000000000000000000000000600082015250565b6000612cb0601383612c69565b9150612cbb82612c7a565b602082019050919050565b60006020820190508181036000830152612cdf81612ca3565b9050919050565b7f496e76616c696420706f73742049440000000000000000000000000000000000600082015250565b6000612d1c600f83612c69565b9150612d2782612ce6565b602082019050919050565b60006020820190508181036000830152612d4b81612d0f565b9050919050565b7f4e487b7100000000000000000000000000000000000000000000000000000000600052603260045260246000fd5b7f5573657220616c72656164792072656769737465726564000000000000000000600082015250565b6000612db7601783612c69565b9150612dc282612d81565b602082019050919050565b60006020820190508181036000830152612de681612daa565b9050919050565b600081905092915050565b6000612e03826125ff565b612e0d8185612ded565b9350612e1d81856020860161261b565b80840191505092915050565b6000612e358284612df8565b915081905092915050565b6000612e4b826125ff565b612e558185612c69565b9350612e6581856020860161261b565b612e6e8161213c565b840191505092915050565b60006020820190508181036000830152612e938184612e40565b905092915050565b7f4e487b7100000000000000000000000000000000000000000000000000000000600052601160045260246000fd5b6000612ed5826120fc565b91507fffffffffffffffffffffffffffffffffffffffffffffffffffffffffffffffff821415612f0857612f07612e9b565b5b600182019050919050565b612f1c816120fc565b82525050565b6000602082019050612f376000830184612f13565b92915050565b7f4e487b7100000000000000000000000000000000000000000000000000000000600052602260045260246000fd5b60006002820490506001821680612f8457607f821691505b60208210811415612f9857612f97612f3d565b5b50919050565b7f467269656e64206e6f7420726567697374657265640000000000000000000000600082015250565b6000612fd4601583612c69565b9150612fdf82612f9e565b602082019050919050565b6000602082019050818103600083015261300381612fc7565b9050919050565b7f416c726561647920667269656e64730000000000000000000000000000000000600082015250565b6000613040600f83612c69565b915061304b8261300a565b602082019050919050565b6000602082019050818103600083015261306f81613033565b9050919050565b7f53656e646572206e6f7420726567697374657265640000000000000000000000600082015250565b60006130ac601583612c69565b91506130b782613076565b602082019050919050565b600060208201905081810360008301526130db8161309f565b9050919050565b7f5265636569766572206e6f742072656769737465726564000000000000000000600082015250565b6000613118601783612c69565b9150613123826130e2565b602082019050919050565b600060208201905081810360008301526131478161310b565b905091905056fea2646970667358221220fcc7c43eddbaa2a6798177511bc1586bc5c3ee6b7a0b7b361bb9aa8246700bc864736f6c63430008090033",
  "linkReferences": {},
  "deployedLinkReferences": {}
}