{
  "_format": "hh-sol-artifact-1",
  "contractName": "Dacebook",
  "sourceName": "contracts/Dacebook.sol",
  "abi": [
    {
      "anonymous": false,
      "inputs": [
        {
          "indexed": true,
          "internalType": "address",
          "name": "user",
          "type": "address"
        },
        {
          "indexed": false,
          "internalType": "string",
          "name": "fileUrl",
          "type": "string"
        }
      ],
      "name": "FileUploaded",
      "type": "event"
    },
    {
      "anonymous": false,
      "inputs": [
        {
          "indexed": true,
          "internalType": "address",
          "name": "sender",
          "type": "address"
        },
        {
          "indexed": true,
          "internalType": "address",
          "name": "receiver",
          "type": "address"
        },
        {
          "indexed": false,
          "internalType": "string",
          "name": "content",
          "type": "string"
        }
      ],
      "name": "NewMessage",
      "type": "event"
    },
    {
      "anonymous": false,
      "inputs": [
        {
          "indexed": true,
          "internalType": "address",
          "name": "author",
          "type": "address"
        },
        {
          "indexed": false,
          "internalType": "uint256",
          "name": "postId",
          "type": "uint256"
        }
      ],
      "name": "NewPost",
      "type": "event"
    },
    {
      "anonymous": false,
      "inputs": [
        {
          "indexed": true,
          "internalType": "address",
          "name": "author",
          "type": "address"
        },
        {
          "indexed": false,
          "internalType": "uint256",
          "name": "postId",
          "type": "uint256"
        }
      ],
      "name": "PostDeleted",
      "type": "event"
    },
    {
      "anonymous": false,
      "inputs": [
        {
          "indexed": true,
          "internalType": "address",
          "name": "userAddress",
          "type": "address"
        },
        {
          "indexed": false,
          "internalType": "string",
          "name": "profilePic",
          "type": "string"
        },
        {
          "indexed": false,
          "internalType": "string",
          "name": "bio",
          "type": "string"
        }
      ],
      "name": "ProfileUpdated",
      "type": "event"
    },
    {
      "anonymous": false,
      "inputs": [
        {
          "indexed": true,
          "internalType": "address",
          "name": "userAddress",
          "type": "address"
        },
        {
          "indexed": false,
          "internalType": "string",
          "name": "name",
          "type": "string"
        }
      ],
      "name": "UserRegistered",
      "type": "event"
    },
    {
      "inputs": [
        {
          "internalType": "address",
          "name": "_user1",
          "type": "address"
        },
        {
          "internalType": "address",
          "name": "_user2",
          "type": "address"
        }
      ],
      "name": "areFriends",
      "outputs": [
        {
          "internalType": "bool",
          "name": "",
          "type": "bool"
        }
      ],
      "stateMutability": "view",
      "type": "function"
    },
    {
      "inputs": [
        {
          "internalType": "address",
          "name": "_author",
          "type": "address"
        },
        {
          "internalType": "uint256",
          "name": "_postId",
          "type": "uint256"
        },
        {
          "internalType": "string",
          "name": "_comment",
          "type": "string"
        }
      ],
      "name": "commentOnPost",
      "outputs": [],
      "stateMutability": "nonpayable",
      "type": "function"
    },
    {
      "inputs": [
        {
          "internalType": "string",
          "name": "_content",
          "type": "string"
        },
        {
          "internalType": "string[]",
          "name": "_uploads",
          "type": "string[]"
        }
      ],
      "name": "createPost",
      "outputs": [],
      "stateMutability": "nonpayable",
      "type": "function"
    },
    {
      "inputs": [
        {
          "internalType": "uint256",
          "name": "_postId",
          "type": "uint256"
        }
      ],
      "name": "deletePost",
      "outputs": [],
      "stateMutability": "nonpayable",
      "type": "function"
    },
    {
      "inputs": [],
      "name": "getFriends",
      "outputs": [
        {
          "internalType": "address[]",
          "name": "",
          "type": "address[]"
        }
      ],
      "stateMutability": "view",
      "type": "function"
    },
    {
      "inputs": [
        {
          "internalType": "address",
          "name": "_user",
          "type": "address"
        }
      ],
      "name": "getPostCount",
      "outputs": [
        {
          "internalType": "uint256",
          "name": "",
          "type": "uint256"
        }
      ],
      "stateMutability": "view",
      "type": "function"
    },
    {
      "inputs": [
        {
          "internalType": "address",
          "name": "_user",
          "type": "address"
        }
      ],
      "name": "getPosts",
      "outputs": [
        {
          "components": [
            {
              "internalType": "uint256",
              "name": "id",
              "type": "uint256"
            },
            {
              "internalType": "address",
              "name": "author",
              "type": "address"
            },
            {
              "internalType": "string",
              "name": "content",
              "type": "string"
            },
            {
              "internalType": "uint256",
              "name": "timestamp",
              "type": "uint256"
            },
            {
              "internalType": "uint256",
              "name": "likes",
              "type": "uint256"
            },
            {
              "components": [
                {
                  "internalType": "string",
                  "name": "text",
                  "type": "string"
                },
                {
                  "internalType": "address",
                  "name": "userAddress",
                  "type": "address"
                }
              ],
              "internalType": "struct Dacebook.Comment[]",
              "name": "comments",
              "type": "tuple[]"
            },
            {
              "internalType": "string[]",
              "name": "uploads",
              "type": "string[]"
            }
          ],
          "internalType": "struct Dacebook.Post[]",
          "name": "",
          "type": "tuple[]"
        }
      ],
      "stateMutability": "view",
      "type": "function"
    },
    {
      "inputs": [],
      "name": "getTotalPostCount",
      "outputs": [
        {
          "internalType": "uint256",
          "name": "",
          "type": "uint256"
        }
      ],
      "stateMutability": "view",
      "type": "function"
    },
    {
      "inputs": [
        {
          "internalType": "address",
          "name": "_user",
          "type": "address"
        }
      ],
      "name": "getUserPosts",
      "outputs": [
        {
          "components": [
            {
              "internalType": "uint256",
              "name": "id",
              "type": "uint256"
            },
            {
              "internalType": "address",
              "name": "author",
              "type": "address"
            },
            {
              "internalType": "string",
              "name": "content",
              "type": "string"
            },
            {
              "internalType": "uint256",
              "name": "timestamp",
              "type": "uint256"
            },
            {
              "internalType": "uint256",
              "name": "likes",
              "type": "uint256"
            },
            {
              "components": [
                {
                  "internalType": "string",
                  "name": "text",
                  "type": "string"
                },
                {
                  "internalType": "address",
                  "name": "userAddress",
                  "type": "address"
                }
              ],
              "internalType": "struct Dacebook.Comment[]",
              "name": "comments",
              "type": "tuple[]"
            },
            {
              "internalType": "string[]",
              "name": "uploads",
              "type": "string[]"
            }
          ],
          "internalType": "struct Dacebook.Post[]",
          "name": "",
          "type": "tuple[]"
        }
      ],
      "stateMutability": "view",
      "type": "function"
    },
    {
      "inputs": [
        {
          "internalType": "address",
          "name": "_user",
          "type": "address"
        }
      ],
      "name": "getUserProfile",
      "outputs": [
        {
          "components": [
            {
              "internalType": "string",
              "name": "name",
              "type": "string"
            },
            {
              "internalType": "string",
              "name": "profilePic",
              "type": "string"
            },
            {
              "internalType": "address",
              "name": "userAddress",
              "type": "address"
            },
            {
              "internalType": "string",
              "name": "bio",
              "type": "string"
            },
            {
              "internalType": "bytes32",
              "name": "passwordHash",
              "type": "bytes32"
            },
            {
              "internalType": "address[]",
              "name": "friends",
              "type": "address[]"
            }
          ],
          "internalType": "struct Dacebook.User",
          "name": "",
          "type": "tuple"
        }
      ],
      "stateMutability": "view",
      "type": "function"
    },
    {
      "inputs": [
        {
          "internalType": "address",
          "name": "",
          "type": "address"
        },
        {
          "internalType": "uint256",
          "name": "",
          "type": "uint256"
        },
        {
          "internalType": "address",
          "name": "",
          "type": "address"
        }
      ],
      "name": "isLiked",
      "outputs": [
        {
          "internalType": "bool",
          "name": "",
          "type": "bool"
        }
      ],
      "stateMutability": "view",
      "type": "function"
    },
    {
      "inputs": [
        {
          "internalType": "string",
          "name": "_name",
          "type": "string"
        },
        {
          "internalType": "string",
          "name": "_password",
          "type": "string"
        }
      ],
      "name": "register",
      "outputs": [],
      "stateMutability": "nonpayable",
      "type": "function"
    },
    {
      "inputs": [
        {
          "internalType": "address",
          "name": "_friend",
          "type": "address"
        }
      ],
      "name": "toggleFriend",
      "outputs": [],
      "stateMutability": "nonpayable",
      "type": "function"
    },
    {
      "inputs": [
        {
          "internalType": "address",
          "name": "_author",
          "type": "address"
        },
        {
          "internalType": "uint256",
          "name": "_postId",
          "type": "uint256"
        }
      ],
      "name": "toggleLikeonPost",
      "outputs": [],
      "stateMutability": "nonpayable",
      "type": "function"
    },
    {
      "inputs": [
        {
          "internalType": "string",
          "name": "_profilePic",
          "type": "string"
        },
        {
          "internalType": "string",
          "name": "_bio",
          "type": "string"
        }
      ],
      "name": "updateProfile",
      "outputs": [],
      "stateMutability": "nonpayable",
      "type": "function"
    }
  ],
  "bytecode": "0x6080604052600060065534801561001557600080fd5b50614b15806100256000396000f3fe608060405234801561001057600080fd5b50600436106100f55760003560e01c8063987ee15611610097578063c9d3cc6a11610066578063c9d3cc6a146102a8578063d9806cd5146102c4578063db2598f0146102e0578063efbe8469146102fc576100f5565b8063987ee156146101e85780639a2194a914610218578063a4c7fafa14610248578063b0ed7a7f14610278576100f5565b80633ffbd47f116100d35780633ffbd47f146101505780634caf9d0b1461016c57806352374f7a1461019c5780638110a800146101b8576100f5565b8063012d18b9146100fa578063094cd5ee146101165780631f8f727014610132575b600080fd5b610114600480360381019061010f9190613afb565b61031a565b005b610130600480360381019061012b9190613b6a565b61058f565b005b61013a6108c9565b6040516101479190613c55565b60405180910390f35b61016a60048036038101906101659190613c77565b610d3f565b005b61018660048036038101906101819190613cef565b611054565b60405161019391906140e0565b60405180910390f35b6101b660048036038101906101b191906141e8565b612019565b005b6101d260048036038101906101cd9190614260565b61224a565b6040516101df91906142bb565b60405180910390f35b61020260048036038101906101fd9190613cef565b6122de565b60405161020f91906143fc565b60405180910390f35b610232600480360381019061022d9190613cef565b612666565b60405161023f91906140e0565b60405180910390f35b610262600480360381019061025d9190613cef565b612ab6565b60405161026f919061442d565b60405180910390f35b610292600480360381019061028d9190614448565b612b8e565b60405161029f91906142bb565b60405180910390f35b6102c260048036038101906102bd9190613c77565b612bca565b005b6102de60048036038101906102d99190613cef565b612d65565b005b6102fa60048036038101906102f5919061449b565b6131f3565b005b6103046135dd565b604051610311919061442d565b60405180910390f35b600160003373ffffffffffffffffffffffffffffffffffffffff1673ffffffffffffffffffffffffffffffffffffffff16815260200190815260200160002060009054906101000a900460ff166103a6576040517f08c379a000000000000000000000000000000000000000000000000000000000815260040161039d90614538565b60405180910390fd5b600260008473ffffffffffffffffffffffffffffffffffffffff1673ffffffffffffffffffffffffffffffffffffffff16815260200190815260200160002080549050821061042a576040517f08c379a0000000000000000000000000000000000000000000000000000000008152600401610421906145a4565b60405180910390fd5b600081511161046e576040517f08c379a000000000000000000000000000000000000000000000000000000000815260040161046590614610565b60405180910390fd5b600260008473ffffffffffffffffffffffffffffffffffffffff1673ffffffffffffffffffffffffffffffffffffffff16815260200190815260200160002082815481106104bf576104be614630565b5b906000526020600020906007020160050160405180604001604052808381526020013373ffffffffffffffffffffffffffffffffffffffff16815250908060018154018082558091505060019003906000526020600020906002020160009091909190915060008201518160000190805190602001906105409291906135e7565b5060208201518160010160006101000a81548173ffffffffffffffffffffffffffffffffffffffff021916908373ffffffffffffffffffffffffffffffffffffffff1602179055505050505050565b600160003373ffffffffffffffffffffffffffffffffffffffff1673ffffffffffffffffffffffffffffffffffffffff16815260200190815260200160002060009054906101000a900460ff1661061b576040517f08c379a000000000000000000000000000000000000000000000000000000000815260040161061290614538565b60405180910390fd5b600260003373ffffffffffffffffffffffffffffffffffffffff1673ffffffffffffffffffffffffffffffffffffffff16815260200190815260200160002080549050811061069f576040517f08c379a0000000000000000000000000000000000000000000000000000000008152600401610696906145a4565b60405180910390fd5b3373ffffffffffffffffffffffffffffffffffffffff16600260003373ffffffffffffffffffffffffffffffffffffffff1673ffffffffffffffffffffffffffffffffffffffff168152602001908152602001600020828154811061070757610706614630565b5b906000526020600020906007020160010160009054906101000a900473ffffffffffffffffffffffffffffffffffffffff1673ffffffffffffffffffffffffffffffffffffffff161461078f576040517f08c379a0000000000000000000000000000000000000000000000000000000008152600401610786906146ab565b60405180910390fd5b600260003373ffffffffffffffffffffffffffffffffffffffff1673ffffffffffffffffffffffffffffffffffffffff16815260200190815260200160002081815481106107e0576107df614630565b5b90600052602060002090600702016000808201600090556001820160006101000a81549073ffffffffffffffffffffffffffffffffffffffff021916905560028201600061082e919061366d565b6003820160009055600482016000905560058201600061084e91906136ad565b60068201600061085e91906136d1565b505060066000815480929190610873906146fa565b91905055503373ffffffffffffffffffffffffffffffffffffffff167f4d420356f0bcdde64a4a4dd5ececb57087c4119cf2d72bb1d76e329d38f3c219826040516108be919061442d565b60405180910390a250565b606060008060003373ffffffffffffffffffffffffffffffffffffffff1673ffffffffffffffffffffffffffffffffffffffff1681526020019081526020016000206040518060c001604052908160008201805461092690614753565b80601f016020809104026020016040519081016040528092919081815260200182805461095290614753565b801561099f5780601f106109745761010080835404028352916020019161099f565b820191906000526020600020905b81548152906001019060200180831161098257829003601f168201915b505050505081526020016001820180546109b890614753565b80601f01602080910402602001604051908101604052809291908181526020018280546109e490614753565b8015610a315780601f10610a0657610100808354040283529160200191610a31565b820191906000526020600020905b815481529060010190602001808311610a1457829003601f168201915b505050505081526020016002820160009054906101000a900473ffffffffffffffffffffffffffffffffffffffff1673ffffffffffffffffffffffffffffffffffffffff1673ffffffffffffffffffffffffffffffffffffffff168152602001600382018054610aa090614753565b80601f0160208091040260200160405190810160405280929190818152602001828054610acc90614753565b8015610b195780601f10610aee57610100808354040283529160200191610b19565b820191906000526020600020905b815481529060010190602001808311610afc57829003601f168201915b505050505081526020016004820154815260200160058201805480602002602001604051908101604052809291908181526020018280548015610bb157602002820191906000526020600020905b8160009054906101000a900473ffffffffffffffffffffffffffffffffffffffff1673ffffffffffffffffffffffffffffffffffffffff1681526020019060010190808311610b67575b50505050508152505090506000805b8260a0015151811015610c1c57610bf5338460a001518381518110610be857610be7614630565b5b602002602001015161224a565b15610c09578180610c0590614785565b9250505b8080610c1490614785565b915050610bc0565b5060008167ffffffffffffffff811115610c3957610c386139d0565b5b604051908082528060200260200182016040528015610c675781602001602082028036833780820191505090505b5090506000805b8460a0015151811015610d3457610ca3338660a001518381518110610c9657610c95614630565b5b602002602001015161224a565b15610d21578460a001518181518110610cbf57610cbe614630565b5b6020026020010151838380610cd390614785565b945081518110610ce657610ce5614630565b5b602002602001019073ffffffffffffffffffffffffffffffffffffffff16908173ffffffffffffffffffffffffffffffffffffffff16815250505b8080610d2c90614785565b915050610c6e565b508194505050505090565b600160003373ffffffffffffffffffffffffffffffffffffffff1673ffffffffffffffffffffffffffffffffffffffff16815260200190815260200160002060009054906101000a900460ff1615610dcc576040517f08c379a0000000000000000000000000000000000000000000000000000000008152600401610dc39061481a565b60405180910390fd5b6040518060c001604052808381526020016040518060800160405280605e8152602001614a82605e913981526020013373ffffffffffffffffffffffffffffffffffffffff16815260200160405180602001604052806000815250815260200182604051602001610e3d9190614876565b604051602081830303815290604052805190602001208152602001600067ffffffffffffffff811115610e7357610e726139d0565b5b604051908082528060200260200182016040528015610ea15781602001602082028036833780820191505090505b508152506000803373ffffffffffffffffffffffffffffffffffffffff1673ffffffffffffffffffffffffffffffffffffffff1681526020019081526020016000206000820151816000019080519060200190610eff9291906135e7565b506020820151816001019080519060200190610f1c9291906135e7565b5060408201518160020160006101000a81548173ffffffffffffffffffffffffffffffffffffffff021916908373ffffffffffffffffffffffffffffffffffffffff1602179055506060820151816003019080519060200190610f809291906135e7565b506080820151816004015560a0820151816005019080519060200190610fa79291906136f2565b5090505060018060003373ffffffffffffffffffffffffffffffffffffffff1673ffffffffffffffffffffffffffffffffffffffff16815260200190815260200160002060006101000a81548160ff0219169083151502179055503373ffffffffffffffffffffffffffffffffffffffff167f48cac28ad4dc618e15f4c2dd5e97751182f166de97b25618318b2112aa951a2f8360405161104891906148c6565b60405180910390a25050565b6060600160008373ffffffffffffffffffffffffffffffffffffffff1673ffffffffffffffffffffffffffffffffffffffff16815260200190815260200160002060009054906101000a900460ff166110e2576040517f08c379a00000000000000000000000000000000000000000000000000000000081526004016110d990614538565b60405180910390fd5b60008060008473ffffffffffffffffffffffffffffffffffffffff1673ffffffffffffffffffffffffffffffffffffffff1681526020019081526020016000206040518060c001604052908160008201805461113d90614753565b80601f016020809104026020016040519081016040528092919081815260200182805461116990614753565b80156111b65780601f1061118b576101008083540402835291602001916111b6565b820191906000526020600020905b81548152906001019060200180831161119957829003601f168201915b505050505081526020016001820180546111cf90614753565b80601f01602080910402602001604051908101604052809291908181526020018280546111fb90614753565b80156112485780601f1061121d57610100808354040283529160200191611248565b820191906000526020600020905b81548152906001019060200180831161122b57829003601f168201915b505050505081526020016002820160009054906101000a900473ffffffffffffffffffffffffffffffffffffffff1673ffffffffffffffffffffffffffffffffffffffff1673ffffffffffffffffffffffffffffffffffffffff1681526020016003820180546112b790614753565b80601f01602080910402602001604051908101604052809291908181526020018280546112e390614753565b80156113305780601f1061130557610100808354040283529160200191611330565b820191906000526020600020905b81548152906001019060200180831161131357829003601f168201915b5050505050815260200160048201548152602001600582018054806020026020016040519081016040528092919081815260200182805480156113c857602002820191906000526020600020905b8160009054906101000a900473ffffffffffffffffffffffffffffffffffffffff1673ffffffffffffffffffffffffffffffffffffffff168152602001906001019080831161137e575b50505050508152505090506000600260008573ffffffffffffffffffffffffffffffffffffffff1673ffffffffffffffffffffffffffffffffffffffff16815260200190815260200160002080549050905060005b8260a001515181101561155957600360008673ffffffffffffffffffffffffffffffffffffffff1673ffffffffffffffffffffffffffffffffffffffff16815260200190815260200160002060008460a00151838151811061148257611481614630565b5b602002602001015173ffffffffffffffffffffffffffffffffffffffff1673ffffffffffffffffffffffffffffffffffffffff16815260200190815260200160002060009054906101000a900460ff161561154657600260008460a0015183815181106114f2576114f1614630565b5b602002602001015173ffffffffffffffffffffffffffffffffffffffff1673ffffffffffffffffffffffffffffffffffffffff168152602001908152602001600020805490508261154391906148e8565b91505b808061155190614785565b91505061141d565b5060008167ffffffffffffffff811115611576576115756139d0565b5b6040519080825280602002602001820160405280156115af57816020015b61159c61377c565b8152602001906001900390816115945790505b5090506000805b600260008873ffffffffffffffffffffffffffffffffffffffff1673ffffffffffffffffffffffffffffffffffffffff168152602001908152602001600020805490508110156119cd57600260008873ffffffffffffffffffffffffffffffffffffffff1673ffffffffffffffffffffffffffffffffffffffff168152602001908152602001600020818154811061165157611650614630565b5b90600052602060002090600702016040518060e0016040529081600082015481526020016001820160009054906101000a900473ffffffffffffffffffffffffffffffffffffffff1673ffffffffffffffffffffffffffffffffffffffff1673ffffffffffffffffffffffffffffffffffffffff1681526020016002820180546116da90614753565b80601f016020809104026020016040519081016040528092919081815260200182805461170690614753565b80156117535780601f1061172857610100808354040283529160200191611753565b820191906000526020600020905b81548152906001019060200180831161173657829003601f168201915b50505050508152602001600382015481526020016004820154815260200160058201805480602002602001604051908101604052809291908181526020016000905b828210156118af57838290600052602060002090600202016040518060400160405290816000820180546117c890614753565b80601f01602080910402602001604051908101604052809291908181526020018280546117f490614753565b80156118415780601f1061181657610100808354040283529160200191611841565b820191906000526020600020905b81548152906001019060200180831161182457829003601f168201915b505050505081526020016001820160009054906101000a900473ffffffffffffffffffffffffffffffffffffffff1673ffffffffffffffffffffffffffffffffffffffff1673ffffffffffffffffffffffffffffffffffffffff168152505081526020019060010190611795565b50505050815260200160068201805480602002602001604051908101604052809291908181526020016000905b828210156119885783829060005260206000200180546118fb90614753565b80601f016020809104026020016040519081016040528092919081815260200182805461192790614753565b80156119745780601f1061194957610100808354040283529160200191611974565b820191906000526020600020905b81548152906001019060200180831161195757829003601f168201915b5050505050815260200190600101906118dc565b505050508152505083838061199c90614785565b9450815181106119af576119ae614630565b5b602002602001018190525080806119c590614785565b9150506115b6565b5060005b8460a0015151811015611ef657600360008873ffffffffffffffffffffffffffffffffffffffff1673ffffffffffffffffffffffffffffffffffffffff16815260200190815260200160002060008660a001518381518110611a3657611a35614630565b5b602002602001015173ffffffffffffffffffffffffffffffffffffffff1673ffffffffffffffffffffffffffffffffffffffff16815260200190815260200160002060009054906101000a900460ff1615611ee35760005b600260008760a001518481518110611aa957611aa8614630565b5b602002602001015173ffffffffffffffffffffffffffffffffffffffff1673ffffffffffffffffffffffffffffffffffffffff16815260200190815260200160002080549050811015611ee157600260008760a001518481518110611b1157611b10614630565b5b602002602001015173ffffffffffffffffffffffffffffffffffffffff1673ffffffffffffffffffffffffffffffffffffffff1681526020019081526020016000208181548110611b6557611b64614630565b5b90600052602060002090600702016040518060e0016040529081600082015481526020016001820160009054906101000a900473ffffffffffffffffffffffffffffffffffffffff1673ffffffffffffffffffffffffffffffffffffffff1673ffffffffffffffffffffffffffffffffffffffff168152602001600282018054611bee90614753565b80601f0160208091040260200160405190810160405280929190818152602001828054611c1a90614753565b8015611c675780601f10611c3c57610100808354040283529160200191611c67565b820191906000526020600020905b815481529060010190602001808311611c4a57829003601f168201915b50505050508152602001600382015481526020016004820154815260200160058201805480602002602001604051908101604052809291908181526020016000905b82821015611dc35783829060005260206000209060020201604051806040016040529081600082018054611cdc90614753565b80601f0160208091040260200160405190810160405280929190818152602001828054611d0890614753565b8015611d555780601f10611d2a57610100808354040283529160200191611d55565b820191906000526020600020905b815481529060010190602001808311611d3857829003601f168201915b505050505081526020016001820160009054906101000a900473ffffffffffffffffffffffffffffffffffffffff1673ffffffffffffffffffffffffffffffffffffffff1673ffffffffffffffffffffffffffffffffffffffff168152505081526020019060010190611ca9565b50505050815260200160068201805480602002602001604051908101604052809291908181526020016000905b82821015611e9c578382906000526020600020018054611e0f90614753565b80601f0160208091040260200160405190810160405280929190818152602001828054611e3b90614753565b8015611e885780601f10611e5d57610100808354040283529160200191611e88565b820191906000526020600020905b815481529060010190602001808311611e6b57829003601f168201915b505050505081526020019060010190611df0565b5050505081525050848480611eb090614785565b955081518110611ec357611ec2614630565b5b60200260200101819052508080611ed990614785565b915050611a8e565b505b8080611eee90614785565b9150506119d1565b5060005b600184611f07919061493e565b81101561200c576000600182611f1d91906148e8565b90505b84811015611ff857838181518110611f3b57611f3a614630565b5b602002602001015160600151848381518110611f5a57611f59614630565b5b6020026020010151606001511015611fe5576000848381518110611f8157611f80614630565b5b60200260200101519050848281518110611f9e57611f9d614630565b5b6020026020010151858481518110611fb957611fb8614630565b5b602002602001018190525080858381518110611fd857611fd7614630565b5b6020026020010181905250505b8080611ff090614785565b915050611f20565b50808061200490614785565b915050611efa565b5081945050505050919050565b600160003373ffffffffffffffffffffffffffffffffffffffff1673ffffffffffffffffffffffffffffffffffffffff16815260200190815260200160002060009054906101000a900460ff166120a5576040517f08c379a000000000000000000000000000000000000000000000000000000000815260040161209c90614538565b60405180910390fd5b6000600260003373ffffffffffffffffffffffffffffffffffffffff1673ffffffffffffffffffffffffffffffffffffffff1681526020019081526020016000208054905090506000600260003373ffffffffffffffffffffffffffffffffffffffff1673ffffffffffffffffffffffffffffffffffffffff1681526020019081526020016000206001816001815401808255809150500390600052602060002090600702019050818160000181905550338160010160006101000a81548173ffffffffffffffffffffffffffffffffffffffff021916908373ffffffffffffffffffffffffffffffffffffffff160217905550838160020190805190602001906121b19291906135e7565b5042816003018190555060008160040181905550828160060190805190602001906121dd9291906137cf565b50600660008154809291906121f190614785565b91905055503373ffffffffffffffffffffffffffffffffffffffff167f227d44868fd91794465aa9733e53308aaf7503a80920f790d5060691fe03a3e78360405161223c919061442d565b60405180910390a250505050565b6000600360008473ffffffffffffffffffffffffffffffffffffffff1673ffffffffffffffffffffffffffffffffffffffff16815260200190815260200160002060008373ffffffffffffffffffffffffffffffffffffffff1673ffffffffffffffffffffffffffffffffffffffff16815260200190815260200160002060009054906101000a900460ff16905092915050565b6122e661382f565b600160008373ffffffffffffffffffffffffffffffffffffffff1673ffffffffffffffffffffffffffffffffffffffff16815260200190815260200160002060009054906101000a900460ff16612372576040517f08c379a000000000000000000000000000000000000000000000000000000000815260040161236990614538565b60405180910390fd5b6000808373ffffffffffffffffffffffffffffffffffffffff1673ffffffffffffffffffffffffffffffffffffffff1681526020019081526020016000206040518060c00160405290816000820180546123cb90614753565b80601f01602080910402602001604051908101604052809291908181526020018280546123f790614753565b80156124445780601f1061241957610100808354040283529160200191612444565b820191906000526020600020905b81548152906001019060200180831161242757829003601f168201915b5050505050815260200160018201805461245d90614753565b80601f016020809104026020016040519081016040528092919081815260200182805461248990614753565b80156124d65780601f106124ab576101008083540402835291602001916124d6565b820191906000526020600020905b8154815290600101906020018083116124b957829003601f168201915b505050505081526020016002820160009054906101000a900473ffffffffffffffffffffffffffffffffffffffff1673ffffffffffffffffffffffffffffffffffffffff1673ffffffffffffffffffffffffffffffffffffffff16815260200160038201805461254590614753565b80601f016020809104026020016040519081016040528092919081815260200182805461257190614753565b80156125be5780601f10612593576101008083540402835291602001916125be565b820191906000526020600020905b8154815290600101906020018083116125a157829003601f168201915b50505050508152602001600482015481526020016005820180548060200260200160405190810160405280929190818152602001828054801561265657602002820191906000526020600020905b8160009054906101000a900473ffffffffffffffffffffffffffffffffffffffff1673ffffffffffffffffffffffffffffffffffffffff168152602001906001019080831161260c575b5050505050815250509050919050565b6060600160008373ffffffffffffffffffffffffffffffffffffffff1673ffffffffffffffffffffffffffffffffffffffff16815260200190815260200160002060009054906101000a900460ff166126f4576040517f08c379a00000000000000000000000000000000000000000000000000000000081526004016126eb90614538565b60405180910390fd5b600260008373ffffffffffffffffffffffffffffffffffffffff1673ffffffffffffffffffffffffffffffffffffffff168152602001908152602001600020805480602002602001604051908101604052809291908181526020016000905b82821015612aab57838290600052602060002090600702016040518060e0016040529081600082015481526020016001820160009054906101000a900473ffffffffffffffffffffffffffffffffffffffff1673ffffffffffffffffffffffffffffffffffffffff1673ffffffffffffffffffffffffffffffffffffffff1681526020016002820180546127e690614753565b80601f016020809104026020016040519081016040528092919081815260200182805461281290614753565b801561285f5780601f106128345761010080835404028352916020019161285f565b820191906000526020600020905b81548152906001019060200180831161284257829003601f168201915b50505050508152602001600382015481526020016004820154815260200160058201805480602002602001604051908101604052809291908181526020016000905b828210156129bb57838290600052602060002090600202016040518060400160405290816000820180546128d490614753565b80601f016020809104026020016040519081016040528092919081815260200182805461290090614753565b801561294d5780601f106129225761010080835404028352916020019161294d565b820191906000526020600020905b81548152906001019060200180831161293057829003601f168201915b505050505081526020016001820160009054906101000a900473ffffffffffffffffffffffffffffffffffffffff1673ffffffffffffffffffffffffffffffffffffffff1673ffffffffffffffffffffffffffffffffffffffff1681525050815260200190600101906128a1565b50505050815260200160068201805480602002602001604051908101604052809291908181526020016000905b82821015612a94578382906000526020600020018054612a0790614753565b80601f0160208091040260200160405190810160405280929190818152602001828054612a3390614753565b8015612a805780601f10612a5557610100808354040283529160200191612a80565b820191906000526020600020905b815481529060010190602001808311612a6357829003601f168201915b5050505050815260200190600101906129e8565b505050508152505081526020019060010190612753565b505050509050919050565b6000600160008373ffffffffffffffffffffffffffffffffffffffff1673ffffffffffffffffffffffffffffffffffffffff16815260200190815260200160002060009054906101000a900460ff16612b44576040517f08c379a0000000000000000000000000000000000000000000000000000000008152600401612b3b90614538565b60405180910390fd5b600260008373ffffffffffffffffffffffffffffffffffffffff1673ffffffffffffffffffffffffffffffffffffffff168152602001908152602001600020805490509050919050565b6005602052826000526040600020602052816000526040600020602052806000526040600020600092509250509054906101000a900460ff1681565b600160003373ffffffffffffffffffffffffffffffffffffffff1673ffffffffffffffffffffffffffffffffffffffff16815260200190815260200160002060009054906101000a900460ff16612c56576040517f08c379a0000000000000000000000000000000000000000000000000000000008152600401612c4d90614538565b60405180910390fd5b61010081511115612c9c576040517f08c379a0000000000000000000000000000000000000000000000000000000008152600401612c93906149be565b60405180910390fd5b60008060003373ffffffffffffffffffffffffffffffffffffffff1673ffffffffffffffffffffffffffffffffffffffff168152602001908152602001600020905082816001019080519060200190612cf69291906135e7565b5081816003019080519060200190612d0f9291906135e7565b503373ffffffffffffffffffffffffffffffffffffffff167f6eb3a1c6a4675ba92d44e090515b1ceea358f26565d2854df0c99c3f5eaf98508484604051612d589291906149de565b60405180910390a2505050565b600160003373ffffffffffffffffffffffffffffffffffffffff1673ffffffffffffffffffffffffffffffffffffffff16815260200190815260200160002060009054906101000a900460ff16612df1576040517f08c379a0000000000000000000000000000000000000000000000000000000008152600401612de890614538565b60405180910390fd5b600160008273ffffffffffffffffffffffffffffffffffffffff1673ffffffffffffffffffffffffffffffffffffffff16815260200190815260200160002060009054906101000a900460ff16612e7d576040517f08c379a0000000000000000000000000000000000000000000000000000000008152600401612e7490614a61565b60405180910390fd5b600360003373ffffffffffffffffffffffffffffffffffffffff1673ffffffffffffffffffffffffffffffffffffffff16815260200190815260200160002060008273ffffffffffffffffffffffffffffffffffffffff1673ffffffffffffffffffffffffffffffffffffffff16815260200190815260200160002060009054906101000a900460ff166130d257600460003373ffffffffffffffffffffffffffffffffffffffff1673ffffffffffffffffffffffffffffffffffffffff16815260200190815260200160002060008273ffffffffffffffffffffffffffffffffffffffff1673ffffffffffffffffffffffffffffffffffffffff16815260200190815260200160002060009054906101000a900460ff166130d1576001600460003373ffffffffffffffffffffffffffffffffffffffff1673ffffffffffffffffffffffffffffffffffffffff16815260200190815260200160002060008373ffffffffffffffffffffffffffffffffffffffff1673ffffffffffffffffffffffffffffffffffffffff16815260200190815260200160002060006101000a81548160ff0219169083151502179055506000803373ffffffffffffffffffffffffffffffffffffffff1673ffffffffffffffffffffffffffffffffffffffff168152602001908152602001600020600501819080600181540180825580915050600190039060005260206000200160009091909190916101000a81548173ffffffffffffffffffffffffffffffffffffffff021916908373ffffffffffffffffffffffffffffffffffffffff1602179055505b5b600360003373ffffffffffffffffffffffffffffffffffffffff1673ffffffffffffffffffffffffffffffffffffffff16815260200190815260200160002060008273ffffffffffffffffffffffffffffffffffffffff1673ffffffffffffffffffffffffffffffffffffffff16815260200190815260200160002060009054906101000a900460ff1615600360003373ffffffffffffffffffffffffffffffffffffffff1673ffffffffffffffffffffffffffffffffffffffff16815260200190815260200160002060008373ffffffffffffffffffffffffffffffffffffffff1673ffffffffffffffffffffffffffffffffffffffff16815260200190815260200160002060006101000a81548160ff02191690831515021790555050565b600160003373ffffffffffffffffffffffffffffffffffffffff1673ffffffffffffffffffffffffffffffffffffffff16815260200190815260200160002060009054906101000a900460ff1661327f576040517f08c379a000000000000000000000000000000000000000000000000000000000815260040161327690614538565b60405180910390fd5b600260008373ffffffffffffffffffffffffffffffffffffffff1673ffffffffffffffffffffffffffffffffffffffff168152602001908152602001600020805490508110613303576040517f08c379a00000000000000000000000000000000000000000000000000000000081526004016132fa906145a4565b60405180910390fd5b600560008373ffffffffffffffffffffffffffffffffffffffff1673ffffffffffffffffffffffffffffffffffffffff168152602001908152602001600020600082815260200190815260200160002060003373ffffffffffffffffffffffffffffffffffffffff1673ffffffffffffffffffffffffffffffffffffffff16815260200190815260200160002060009054906101000a900460ff161561342057600260008373ffffffffffffffffffffffffffffffffffffffff1673ffffffffffffffffffffffffffffffffffffffff16815260200190815260200160002081815481106133f4576133f3614630565b5b90600052602060002090600702016004016000815480929190613416906146fa565b9190505550613499565b600260008373ffffffffffffffffffffffffffffffffffffffff1673ffffffffffffffffffffffffffffffffffffffff168152602001908152602001600020818154811061347157613470614630565b5b9060005260206000209060070201600401600081548092919061349390614785565b91905055505b600560008373ffffffffffffffffffffffffffffffffffffffff1673ffffffffffffffffffffffffffffffffffffffff168152602001908152602001600020600082815260200190815260200160002060003373ffffffffffffffffffffffffffffffffffffffff1673ffffffffffffffffffffffffffffffffffffffff16815260200190815260200160002060009054906101000a900460ff1615600560008473ffffffffffffffffffffffffffffffffffffffff1673ffffffffffffffffffffffffffffffffffffffff168152602001908152602001600020600083815260200190815260200160002060003373ffffffffffffffffffffffffffffffffffffffff1673ffffffffffffffffffffffffffffffffffffffff16815260200190815260200160002060006101000a81548160ff0219169083151502179055505050565b6000600654905090565b8280546135f390614753565b90600052602060002090601f016020900481019282613615576000855561365c565b82601f1061362e57805160ff191683800117855561365c565b8280016001018555821561365c579182015b8281111561365b578251825591602001919060010190613640565b5b509050613669919061387e565b5090565b50805461367990614753565b6000825580601f1061368b57506136aa565b601f0160209004906000526020600020908101906136a9919061387e565b5b50565b50805460008255600202906000526020600020908101906136ce919061389b565b50565b50805460008255906000526020600020908101906136ef91906138e9565b50565b82805482825590600052602060002090810192821561376b579160200282015b8281111561376a5782518260006101000a81548173ffffffffffffffffffffffffffffffffffffffff021916908373ffffffffffffffffffffffffffffffffffffffff16021790555091602001919060010190613712565b5b509050613778919061387e565b5090565b6040518060e0016040528060008152602001600073ffffffffffffffffffffffffffffffffffffffff16815260200160608152602001600081526020016000815260200160608152602001606081525090565b82805482825590600052602060002090810192821561381e579160200282015b8281111561381d57825182908051906020019061380d9291906135e7565b50916020019190600101906137ef565b5b50905061382b91906138e9565b5090565b6040518060c001604052806060815260200160608152602001600073ffffffffffffffffffffffffffffffffffffffff1681526020016060815260200160008019168152602001606081525090565b5b8082111561389757600081600090555060010161387f565b5090565b5b808211156138e557600080820160006138b5919061366d565b6001820160006101000a81549073ffffffffffffffffffffffffffffffffffffffff02191690555060020161389c565b5090565b5b808211156139095760008181613900919061366d565b506001016138ea565b5090565b6000604051905090565b600080fd5b600080fd5b600073ffffffffffffffffffffffffffffffffffffffff82169050919050565b600061394c82613921565b9050919050565b61395c81613941565b811461396757600080fd5b50565b60008135905061397981613953565b92915050565b6000819050919050565b6139928161397f565b811461399d57600080fd5b50565b6000813590506139af81613989565b92915050565b600080fd5b600080fd5b6000601f19601f8301169050919050565b7f4e487b7100000000000000000000000000000000000000000000000000000000600052604160045260246000fd5b613a08826139bf565b810181811067ffffffffffffffff82111715613a2757613a266139d0565b5b80604052505050565b6000613a3a61390d565b9050613a4682826139ff565b919050565b600067ffffffffffffffff821115613a6657613a656139d0565b5b613a6f826139bf565b9050602081019050919050565b82818337600083830152505050565b6000613a9e613a9984613a4b565b613a30565b905082815260208101848484011115613aba57613ab96139ba565b5b613ac5848285613a7c565b509392505050565b600082601f830112613ae257613ae16139b5565b5b8135613af2848260208601613a8b565b91505092915050565b600080600060608486031215613b1457613b13613917565b5b6000613b228682870161396a565b9350506020613b33868287016139a0565b925050604084013567ffffffffffffffff811115613b5457613b5361391c565b5b613b6086828701613acd565b9150509250925092565b600060208284031215613b8057613b7f613917565b5b6000613b8e848285016139a0565b91505092915050565b600081519050919050565b600082825260208201905092915050565b6000819050602082019050919050565b613bcc81613941565b82525050565b6000613bde8383613bc3565b60208301905092915050565b6000602082019050919050565b6000613c0282613b97565b613c0c8185613ba2565b9350613c1783613bb3565b8060005b83811015613c48578151613c2f8882613bd2565b9750613c3a83613bea565b925050600181019050613c1b565b5085935050505092915050565b60006020820190508181036000830152613c6f8184613bf7565b905092915050565b60008060408385031215613c8e57613c8d613917565b5b600083013567ffffffffffffffff811115613cac57613cab61391c565b5b613cb885828601613acd565b925050602083013567ffffffffffffffff811115613cd957613cd861391c565b5b613ce585828601613acd565b9150509250929050565b600060208284031215613d0557613d04613917565b5b6000613d138482850161396a565b91505092915050565b600081519050919050565b600082825260208201905092915050565b6000819050602082019050919050565b613d518161397f565b82525050565b600081519050919050565b600082825260208201905092915050565b60005b83811015613d91578082015181840152602081019050613d76565b83811115613da0576000848401525b50505050565b6000613db182613d57565b613dbb8185613d62565b9350613dcb818560208601613d73565b613dd4816139bf565b840191505092915050565b600081519050919050565b600082825260208201905092915050565b6000819050602082019050919050565b60006040830160008301518482036000860152613e288282613da6565b9150506020830151613e3d6020860182613bc3565b508091505092915050565b6000613e548383613e0b565b905092915050565b6000602082019050919050565b6000613e7482613ddf565b613e7e8185613dea565b935083602082028501613e9085613dfb565b8060005b85811015613ecc5784840389528151613ead8582613e48565b9450613eb883613e5c565b925060208a01995050600181019050613e94565b50829750879550505050505092915050565b600081519050919050565b600082825260208201905092915050565b6000819050602082019050919050565b6000613f168383613da6565b905092915050565b6000602082019050919050565b6000613f3682613ede565b613f408185613ee9565b935083602082028501613f5285613efa565b8060005b85811015613f8e5784840389528151613f6f8582613f0a565b9450613f7a83613f1e565b925060208a01995050600181019050613f56565b50829750879550505050505092915050565b600060e083016000830151613fb86000860182613d48565b506020830151613fcb6020860182613bc3565b5060408301518482036040860152613fe38282613da6565b9150506060830151613ff86060860182613d48565b50608083015161400b6080860182613d48565b5060a083015184820360a08601526140238282613e69565b91505060c083015184820360c086015261403d8282613f2b565b9150508091505092915050565b60006140568383613fa0565b905092915050565b6000602082019050919050565b600061407682613d1c565b6140808185613d27565b93508360208202850161409285613d38565b8060005b858110156140ce57848403895281516140af858261404a565b94506140ba8361405e565b925060208a01995050600181019050614096565b50829750879550505050505092915050565b600060208201905081810360008301526140fa818461406b565b905092915050565b600067ffffffffffffffff82111561411d5761411c6139d0565b5b602082029050602081019050919050565b600080fd5b600061414661414184614102565b613a30565b905080838252602082019050602084028301858111156141695761416861412e565b5b835b818110156141b057803567ffffffffffffffff81111561418e5761418d6139b5565b5b80860161419b8982613acd565b8552602085019450505060208101905061416b565b5050509392505050565b600082601f8301126141cf576141ce6139b5565b5b81356141df848260208601614133565b91505092915050565b600080604083850312156141ff576141fe613917565b5b600083013567ffffffffffffffff81111561421d5761421c61391c565b5b61422985828601613acd565b925050602083013567ffffffffffffffff81111561424a5761424961391c565b5b614256858286016141ba565b9150509250929050565b6000806040838503121561427757614276613917565b5b60006142858582860161396a565b92505060206142968582860161396a565b9150509250929050565b60008115159050919050565b6142b5816142a0565b82525050565b60006020820190506142d060008301846142ac565b92915050565b6000819050919050565b6142e9816142d6565b82525050565b600082825260208201905092915050565b600061430b82613b97565b61431581856142ef565b935061432083613bb3565b8060005b838110156143515781516143388882613bd2565b975061434383613bea565b925050600181019050614324565b5085935050505092915050565b600060c083016000830151848203600086015261437b8282613da6565b915050602083015184820360208601526143958282613da6565b91505060408301516143aa6040860182613bc3565b50606083015184820360608601526143c28282613da6565b91505060808301516143d760808601826142e0565b5060a083015184820360a08601526143ef8282614300565b9150508091505092915050565b60006020820190508181036000830152614416818461435e565b905092915050565b6144278161397f565b82525050565b6000602082019050614442600083018461441e565b92915050565b60008060006060848603121561446157614460613917565b5b600061446f8682870161396a565b9350506020614480868287016139a0565b92505060406144918682870161396a565b9150509250925092565b600080604083850312156144b2576144b1613917565b5b60006144c08582860161396a565b92505060206144d1858286016139a0565b9150509250929050565b600082825260208201905092915050565b7f55736572206e6f74207265676973746572656400000000000000000000000000600082015250565b60006145226013836144db565b915061452d826144ec565b602082019050919050565b6000602082019050818103600083015261455181614515565b9050919050565b7f496e76616c696420706f73742049440000000000000000000000000000000000600082015250565b600061458e600f836144db565b915061459982614558565b602082019050919050565b600060208201905081810360008301526145bd81614581565b9050919050565b7f436f6d6d656e742063616e6e6f7420626520656d707479000000000000000000600082015250565b60006145fa6017836144db565b9150614605826145c4565b602082019050919050565b60006020820190508181036000830152614629816145ed565b9050919050565b7f4e487b7100000000000000000000000000000000000000000000000000000000600052603260045260246000fd5b7f4e6f742074686520706f737420617574686f7200000000000000000000000000600082015250565b60006146956013836144db565b91506146a08261465f565b602082019050919050565b600060208201905081810360008301526146c481614688565b9050919050565b7f4e487b7100000000000000000000000000000000000000000000000000000000600052601160045260246000fd5b60006147058261397f565b91506000821415614719576147186146cb565b5b600182039050919050565b7f4e487b7100000000000000000000000000000000000000000000000000000000600052602260045260246000fd5b6000600282049050600182168061476b57607f821691505b6020821081141561477f5761477e614724565b5b50919050565b60006147908261397f565b91507fffffffffffffffffffffffffffffffffffffffffffffffffffffffffffffffff8214156147c3576147c26146cb565b5b600182019050919050565b7f5573657220616c72656164792072656769737465726564000000000000000000600082015250565b60006148046017836144db565b915061480f826147ce565b602082019050919050565b60006020820190508181036000830152614833816147f7565b9050919050565b600081905092915050565b600061485082613d57565b61485a818561483a565b935061486a818560208601613d73565b80840191505092915050565b60006148828284614845565b915081905092915050565b600061489882613d57565b6148a281856144db565b93506148b2818560208601613d73565b6148bb816139bf565b840191505092915050565b600060208201905081810360008301526148e0818461488d565b905092915050565b60006148f38261397f565b91506148fe8361397f565b9250827fffffffffffffffffffffffffffffffffffffffffffffffffffffffffffffffff03821115614933576149326146cb565b5b828201905092915050565b60006149498261397f565b91506149548361397f565b925082821015614967576149666146cb565b5b828203905092915050565b7f42696f20697320746f6f206c6f6e670000000000000000000000000000000000600082015250565b60006149a8600f836144db565b91506149b382614972565b602082019050919050565b600060208201905081810360008301526149d78161499b565b9050919050565b600060408201905081810360008301526149f8818561488d565b90508181036020830152614a0c818461488d565b90509392505050565b7f467269656e64206e6f7420726567697374657265640000000000000000000000600082015250565b6000614a4b6015836144db565b9150614a5682614a15565b602082019050919050565b60006020820190508181036000830152614a7a81614a3e565b905091905056fe68747470733a2f2f7265732e636c6f7564696e6172792e636f6d2f646a306772766162632f696d6167652f75706c6f61642f76313732313033363231322f617661746172732f6462777479776d77656a337762746c3675617a732e706e67a2646970667358221220af6e79a67e662a40cb8751fee2d4b29edba8bfab79ba1fa814035a5edfa8741d64736f6c63430008090033",
  "linkReferences": {},
  "deployedLinkReferences": {}
}