{
  "_format": "hh-sol-artifact-1",
  "contractName": "Dacebook",
  "sourceName": "contracts/Dacebook.sol",
  "abi": [
    {
      "anonymous": false,
      "inputs": [
        {
          "indexed": true,
          "internalType": "address",
          "name": "user",
          "type": "address"
        },
        {
          "indexed": true,
          "internalType": "address",
          "name": "friend",
          "type": "address"
        },
        {
          "indexed": false,
          "internalType": "bool",
          "name": "isNowFriend",
          "type": "bool"
        }
      ],
      "name": "FriendshipToggled",
      "type": "event"
    },
    {
      "anonymous": false,
      "inputs": [
        {
          "indexed": true,
          "internalType": "address",
          "name": "sender",
          "type": "address"
        },
        {
          "indexed": true,
          "internalType": "address",
          "name": "receiver",
          "type": "address"
        },
        {
          "indexed": false,
          "internalType": "string",
          "name": "content",
          "type": "string"
        }
      ],
      "name": "NewMessage",
      "type": "event"
    },
    {
      "anonymous": false,
      "inputs": [
        {
          "indexed": true,
          "internalType": "address",
          "name": "author",
          "type": "address"
        },
        {
          "indexed": false,
          "internalType": "uint256",
          "name": "postId",
          "type": "uint256"
        }
      ],
      "name": "NewPost",
      "type": "event"
    },
    {
      "anonymous": false,
      "inputs": [
        {
          "indexed": true,
          "internalType": "address",
          "name": "author",
          "type": "address"
        },
        {
          "indexed": false,
          "internalType": "uint256",
          "name": "postId",
          "type": "uint256"
        }
      ],
      "name": "PostDeleted",
      "type": "event"
    },
    {
      "anonymous": false,
      "inputs": [
        {
          "indexed": true,
          "internalType": "address",
          "name": "user",
          "type": "address"
        },
        {
          "indexed": false,
          "internalType": "uint256",
          "name": "postId",
          "type": "uint256"
        },
        {
          "indexed": false,
          "internalType": "bool",
          "name": "liked",
          "type": "bool"
        }
      ],
      "name": "PostLiked",
      "type": "event"
    },
    {
      "anonymous": false,
      "inputs": [
        {
          "indexed": true,
          "internalType": "address",
          "name": "userAddress",
          "type": "address"
        },
        {
          "indexed": false,
          "internalType": "string",
          "name": "profilePic",
          "type": "string"
        },
        {
          "indexed": false,
          "internalType": "string",
          "name": "bio",
          "type": "string"
        }
      ],
      "name": "ProfileUpdated",
      "type": "event"
    },
    {
      "anonymous": false,
      "inputs": [
        {
          "indexed": true,
          "internalType": "address",
          "name": "userAddress",
          "type": "address"
        },
        {
          "indexed": false,
          "internalType": "string",
          "name": "name",
          "type": "string"
        }
      ],
      "name": "UserRegistered",
      "type": "event"
    },
    {
      "inputs": [
        {
          "internalType": "address",
          "name": "_author",
          "type": "address"
        },
        {
          "internalType": "uint256",
          "name": "_postId",
          "type": "uint256"
        },
        {
          "internalType": "string",
          "name": "_comment",
          "type": "string"
        }
      ],
      "name": "commentOnPost",
      "outputs": [],
      "stateMutability": "nonpayable",
      "type": "function"
    },
    {
      "inputs": [
        {
          "internalType": "string",
          "name": "_content",
          "type": "string"
        },
        {
          "internalType": "string[]",
          "name": "_uploads",
          "type": "string[]"
        }
      ],
      "name": "createPost",
      "outputs": [],
      "stateMutability": "nonpayable",
      "type": "function"
    },
    {
      "inputs": [
        {
          "internalType": "address",
          "name": "msg_sender",
          "type": "address"
        }
      ],
      "name": "getAllUsers",
      "outputs": [
        {
          "components": [
            {
              "internalType": "string",
              "name": "name",
              "type": "string"
            },
            {
              "internalType": "string",
              "name": "profilePic",
              "type": "string"
            },
            {
              "internalType": "address",
              "name": "userAddress",
              "type": "address"
            },
            {
              "internalType": "string",
              "name": "bio",
              "type": "string"
            },
            {
              "internalType": "bytes32",
              "name": "passwordHash",
              "type": "bytes32"
            },
            {
              "internalType": "address[]",
              "name": "friends",
              "type": "address[]"
            }
          ],
          "internalType": "struct Dacebook.User[]",
          "name": "",
          "type": "tuple[]"
        }
      ],
      "stateMutability": "view",
      "type": "function"
    },
    {
      "inputs": [
        {
          "internalType": "address",
          "name": "msg_sender",
          "type": "address"
        },
        {
          "internalType": "address",
          "name": "_with",
          "type": "address"
        }
      ],
      "name": "getConversation",
      "outputs": [
        {
          "components": [
            {
              "internalType": "address",
              "name": "sender",
              "type": "address"
            },
            {
              "internalType": "string",
              "name": "content",
              "type": "string"
            },
            {
              "internalType": "bool",
              "name": "file",
              "type": "bool"
            },
            {
              "internalType": "uint256",
              "name": "timestamp",
              "type": "uint256"
            }
          ],
          "internalType": "struct Dacebook.Message[]",
          "name": "sentMessages",
          "type": "tuple[]"
        },
        {
          "components": [
            {
              "internalType": "address",
              "name": "sender",
              "type": "address"
            },
            {
              "internalType": "string",
              "name": "content",
              "type": "string"
            },
            {
              "internalType": "bool",
              "name": "file",
              "type": "bool"
            },
            {
              "internalType": "uint256",
              "name": "timestamp",
              "type": "uint256"
            }
          ],
          "internalType": "struct Dacebook.Message[]",
          "name": "receivedMessages",
          "type": "tuple[]"
        }
      ],
      "stateMutability": "view",
      "type": "function"
    },
    {
      "inputs": [
        {
          "internalType": "address",
          "name": "msg_sender",
          "type": "address"
        }
      ],
      "name": "getFriends",
      "outputs": [
        {
          "internalType": "address[]",
          "name": "",
          "type": "address[]"
        }
      ],
      "stateMutability": "view",
      "type": "function"
    },
    {
      "inputs": [
        {
          "internalType": "address",
          "name": "_user",
          "type": "address"
        }
      ],
      "name": "getPostCount",
      "outputs": [
        {
          "internalType": "uint256",
          "name": "",
          "type": "uint256"
        }
      ],
      "stateMutability": "view",
      "type": "function"
    },
    {
      "inputs": [
        {
          "internalType": "address",
          "name": "_user",
          "type": "address"
        }
      ],
      "name": "getPosts",
      "outputs": [
        {
          "components": [
            {
              "internalType": "uint256",
              "name": "id",
              "type": "uint256"
            },
            {
              "internalType": "address",
              "name": "authorAddress",
              "type": "address"
            },
            {
              "internalType": "string",
              "name": "content",
              "type": "string"
            },
            {
              "internalType": "uint256",
              "name": "timestamp",
              "type": "uint256"
            },
            {
              "internalType": "uint256",
              "name": "likes",
              "type": "uint256"
            },
            {
              "components": [
                {
                  "internalType": "string",
                  "name": "text",
                  "type": "string"
                },
                {
                  "internalType": "string",
                  "name": "commentor",
                  "type": "string"
                }
              ],
              "internalType": "struct Dacebook.Comment[]",
              "name": "comments",
              "type": "tuple[]"
            },
            {
              "internalType": "string[]",
              "name": "uploads",
              "type": "string[]"
            }
          ],
          "internalType": "struct Dacebook.Post[]",
          "name": "",
          "type": "tuple[]"
        }
      ],
      "stateMutability": "view",
      "type": "function"
    },
    {
      "inputs": [],
      "name": "getTotalPostCount",
      "outputs": [
        {
          "internalType": "uint256",
          "name": "",
          "type": "uint256"
        }
      ],
      "stateMutability": "view",
      "type": "function"
    },
    {
      "inputs": [
        {
          "internalType": "address",
          "name": "_user",
          "type": "address"
        }
      ],
      "name": "getUserPosts",
      "outputs": [
        {
          "components": [
            {
              "internalType": "uint256",
              "name": "id",
              "type": "uint256"
            },
            {
              "internalType": "address",
              "name": "authorAddress",
              "type": "address"
            },
            {
              "internalType": "string",
              "name": "content",
              "type": "string"
            },
            {
              "internalType": "uint256",
              "name": "timestamp",
              "type": "uint256"
            },
            {
              "internalType": "uint256",
              "name": "likes",
              "type": "uint256"
            },
            {
              "components": [
                {
                  "internalType": "string",
                  "name": "text",
                  "type": "string"
                },
                {
                  "internalType": "string",
                  "name": "commentor",
                  "type": "string"
                }
              ],
              "internalType": "struct Dacebook.Comment[]",
              "name": "comments",
              "type": "tuple[]"
            },
            {
              "internalType": "string[]",
              "name": "uploads",
              "type": "string[]"
            }
          ],
          "internalType": "struct Dacebook.Post[]",
          "name": "",
          "type": "tuple[]"
        }
      ],
      "stateMutability": "view",
      "type": "function"
    },
    {
      "inputs": [
        {
          "internalType": "address",
          "name": "_user",
          "type": "address"
        }
      ],
      "name": "getUserProfile",
      "outputs": [
        {
          "components": [
            {
              "internalType": "string",
              "name": "name",
              "type": "string"
            },
            {
              "internalType": "string",
              "name": "profilePic",
              "type": "string"
            },
            {
              "internalType": "address",
              "name": "userAddress",
              "type": "address"
            },
            {
              "internalType": "string",
              "name": "bio",
              "type": "string"
            },
            {
              "internalType": "bytes32",
              "name": "passwordHash",
              "type": "bytes32"
            },
            {
              "internalType": "address[]",
              "name": "friends",
              "type": "address[]"
            }
          ],
          "internalType": "struct Dacebook.User",
          "name": "",
          "type": "tuple"
        }
      ],
      "stateMutability": "view",
      "type": "function"
    },
    {
      "inputs": [
        {
          "internalType": "address",
          "name": "",
          "type": "address"
        },
        {
          "internalType": "uint256",
          "name": "",
          "type": "uint256"
        },
        {
          "internalType": "address",
          "name": "",
          "type": "address"
        }
      ],
      "name": "isLiked",
      "outputs": [
        {
          "internalType": "bool",
          "name": "",
          "type": "bool"
        }
      ],
      "stateMutability": "view",
      "type": "function"
    },
    {
      "inputs": [
        {
          "internalType": "string",
          "name": "_name",
          "type": "string"
        },
        {
          "internalType": "string",
          "name": "_password",
          "type": "string"
        }
      ],
      "name": "register",
      "outputs": [],
      "stateMutability": "nonpayable",
      "type": "function"
    },
    {
      "inputs": [
        {
          "internalType": "address",
          "name": "_to",
          "type": "address"
        },
        {
          "internalType": "string",
          "name": "_content",
          "type": "string"
        },
        {
          "internalType": "bool",
          "name": "_file",
          "type": "bool"
        }
      ],
      "name": "sendMessage",
      "outputs": [],
      "stateMutability": "nonpayable",
      "type": "function"
    },
    {
      "inputs": [
        {
          "internalType": "address",
          "name": "_friend",
          "type": "address"
        }
      ],
      "name": "toggleFriend",
      "outputs": [],
      "stateMutability": "nonpayable",
      "type": "function"
    },
    {
      "inputs": [
        {
          "internalType": "address",
          "name": "_author",
          "type": "address"
        },
        {
          "internalType": "uint256",
          "name": "_postId",
          "type": "uint256"
        }
      ],
      "name": "toggleLikeonPost",
      "outputs": [],
      "stateMutability": "nonpayable",
      "type": "function"
    },
    {
      "inputs": [
        {
          "internalType": "string",
          "name": "_profilePic",
          "type": "string"
        },
        {
          "internalType": "string",
          "name": "_bio",
          "type": "string"
        }
      ],
      "name": "updateProfile",
      "outputs": [],
      "stateMutability": "nonpayable",
      "type": "function"
    },
    {
      "inputs": [
        {
          "internalType": "address",
          "name": "",
          "type": "address"
        }
      ],
      "name": "users",
      "outputs": [
        {
          "internalType": "string",
          "name": "name",
          "type": "string"
        },
        {
          "internalType": "string",
          "name": "profilePic",
          "type": "string"
        },
        {
          "internalType": "address",
          "name": "userAddress",
          "type": "address"
        },
        {
          "internalType": "string",
          "name": "bio",
          "type": "string"
        },
        {
          "internalType": "bytes32",
          "name": "passwordHash",
          "type": "bytes32"
        }
      ],
      "stateMutability": "view",
      "type": "function"
    }
  ],
  "bytecode": "0x6080604052600060075534801561001557600080fd5b50615a4d80620000266000396000f3fe608060405234801561001057600080fd5b506004361061010b5760003560e01c8063987ee156116100a2578063b0ed7a7f11610071578063b0ed7a7f14610305578063c9d3cc6a14610335578063d9806cd514610351578063db2598f01461036d578063efbe8469146103895761010b565b8063987ee156146102415780639a2194a914610271578063a4c7fafa146102a1578063a87430ba146102d15761010b565b80634674f060116100de5780634674f060146101a95780634caf9d0b146101c557806352374f7a146101f55780635cbb7caa146102115761010b565b8063012d18b91461011057806314b419c91461012c578063375eed271461015c5780633ffbd47f1461018d575b600080fd5b61012a6004803603810190610125919061452e565b6103a7565b005b6101466004803603810190610141919061459d565b6106a5565b6040516101539190614889565b60405180910390f35b610176600480360381019061017191906148ab565b610aed565b604051610184929190614a3a565b60405180910390f35b6101a760048036038101906101a29190614a71565b610ebf565b005b6101c360048036038101906101be9190614b75565b611237565b005b6101df60048036038101906101da919061459d565b61179f565b6040516101ec9190614f1d565b60405180910390f35b61020f600480360381019061020a9190615020565b6126b2565b005b61022b6004803603810190610226919061459d565b6128e3565b6040516102389190615107565b60405180910390f35b61025b6004803603810190610256919061459d565b612c20565b60405161026891906151c7565b60405180910390f35b61028b6004803603810190610286919061459d565b612fa8565b6040516102989190614f1d565b60405180910390f35b6102bb60048036038101906102b6919061459d565b613434565b6040516102c891906151f8565b60405180910390f35b6102eb60048036038101906102e6919061459d565b61350c565b6040516102fc95949392919061527b565b60405180910390f35b61031f600480360381019061031a91906152e3565b6136fa565b60405161032c9190615345565b60405180910390f35b61034f600480360381019061034a9190614a71565b613736565b005b61036b6004803603810190610366919061459d565b6138d1565b005b61038760048036038101906103829190615360565b613b0a565b005b610391613ef4565b60405161039e91906151f8565b60405180910390f35b600160003373ffffffffffffffffffffffffffffffffffffffff1673ffffffffffffffffffffffffffffffffffffffff16815260200190815260200160002060009054906101000a900460ff16610433576040517f08c379a000000000000000000000000000000000000000000000000000000000815260040161042a906153ec565b60405180910390fd5b600360008473ffffffffffffffffffffffffffffffffffffffff1673ffffffffffffffffffffffffffffffffffffffff1681526020019081526020016000208054905082106104b7576040517f08c379a00000000000000000000000000000000000000000000000000000000081526004016104ae90615458565b60405180910390fd5b60008151116104fb576040517f08c379a00000000000000000000000000000000000000000000000000000000081526004016104f2906154c4565b60405180910390fd5b600360008473ffffffffffffffffffffffffffffffffffffffff1673ffffffffffffffffffffffffffffffffffffffff168152602001908152602001600020828154811061054c5761054b6154e4565b5b906000526020600020906007020160050160405180604001604052808381526020016000803373ffffffffffffffffffffffffffffffffffffffff1673ffffffffffffffffffffffffffffffffffffffff16815260200190815260200160002060000180546105ba90615542565b80601f01602080910402602001604051908101604052809291908181526020018280546105e690615542565b80156106335780601f1061060857610100808354040283529160200191610633565b820191906000526020600020905b81548152906001019060200180831161061657829003601f168201915b5050505050815250908060018154018082558091505060019003906000526020600020906002020160009091909190915060008201518160000190805190602001906106809291906140ad565b50602082015181600101908051906020019061069d9291906140ad565b505050505050565b60606000600880549050905060008167ffffffffffffffff8111156106cd576106cc614403565b5b60405190808252806020026020018201604052801561070657816020015b6106f3614133565b8152602001906001900390816106eb5790505b50905060005b82811015610ae2578473ffffffffffffffffffffffffffffffffffffffff166008828154811061073f5761073e6154e4565b5b9060005260206000200160009054906101000a900473ffffffffffffffffffffffffffffffffffffffff1673ffffffffffffffffffffffffffffffffffffffff1614610acf576000806008838154811061079c5761079b6154e4565b5b9060005260206000200160009054906101000a900473ffffffffffffffffffffffffffffffffffffffff1673ffffffffffffffffffffffffffffffffffffffff1673ffffffffffffffffffffffffffffffffffffffff1681526020019081526020016000206040518060c001604052908160008201805461081c90615542565b80601f016020809104026020016040519081016040528092919081815260200182805461084890615542565b80156108955780601f1061086a57610100808354040283529160200191610895565b820191906000526020600020905b81548152906001019060200180831161087857829003601f168201915b505050505081526020016001820180546108ae90615542565b80601f01602080910402602001604051908101604052809291908181526020018280546108da90615542565b80156109275780601f106108fc57610100808354040283529160200191610927565b820191906000526020600020905b81548152906001019060200180831161090a57829003601f168201915b505050505081526020016002820160009054906101000a900473ffffffffffffffffffffffffffffffffffffffff1673ffffffffffffffffffffffffffffffffffffffff1673ffffffffffffffffffffffffffffffffffffffff16815260200160038201805461099690615542565b80601f01602080910402602001604051908101604052809291908181526020018280546109c290615542565b8015610a0f5780601f106109e457610100808354040283529160200191610a0f565b820191906000526020600020905b8154815290600101906020018083116109f257829003601f168201915b505050505081526020016004820154815260200160058201805480602002602001604051908101604052809291908181526020018280548015610aa757602002820191906000526020600020905b8160009054906101000a900473ffffffffffffffffffffffffffffffffffffffff1673ffffffffffffffffffffffffffffffffffffffff1681526020019060010190808311610a5d575b505050505081525050828281518110610ac357610ac26154e4565b5b60200260200101819052505b8080610ada906155a3565b91505061070c565b508092505050919050565b606080600260008573ffffffffffffffffffffffffffffffffffffffff1673ffffffffffffffffffffffffffffffffffffffff16815260200190815260200160002060008473ffffffffffffffffffffffffffffffffffffffff1673ffffffffffffffffffffffffffffffffffffffff168152602001908152602001600020600201805480602002602001604051908101604052809291908181526020016000905b82821015610cce57838290600052602060002090600402016040518060800160405290816000820160009054906101000a900473ffffffffffffffffffffffffffffffffffffffff1673ffffffffffffffffffffffffffffffffffffffff1673ffffffffffffffffffffffffffffffffffffffff168152602001600182018054610c1890615542565b80601f0160208091040260200160405190810160405280929190818152602001828054610c4490615542565b8015610c915780601f10610c6657610100808354040283529160200191610c91565b820191906000526020600020905b815481529060010190602001808311610c7457829003601f168201915b505050505081526020016002820160009054906101000a900460ff1615151515815260200160038201548152505081526020019060010190610b8f565b505050509150600260008473ffffffffffffffffffffffffffffffffffffffff1673ffffffffffffffffffffffffffffffffffffffff16815260200190815260200160002060008573ffffffffffffffffffffffffffffffffffffffff1673ffffffffffffffffffffffffffffffffffffffff168152602001908152602001600020600201805480602002602001604051908101604052809291908181526020016000905b82821015610eb257838290600052602060002090600402016040518060800160405290816000820160009054906101000a900473ffffffffffffffffffffffffffffffffffffffff1673ffffffffffffffffffffffffffffffffffffffff1673ffffffffffffffffffffffffffffffffffffffff168152602001600182018054610dfc90615542565b80601f0160208091040260200160405190810160405280929190818152602001828054610e2890615542565b8015610e755780601f10610e4a57610100808354040283529160200191610e75565b820191906000526020600020905b815481529060010190602001808311610e5857829003601f168201915b505050505081526020016002820160009054906101000a900460ff1615151515815260200160038201548152505081526020019060010190610d73565b5050505090509250929050565b600160003373ffffffffffffffffffffffffffffffffffffffff1673ffffffffffffffffffffffffffffffffffffffff16815260200190815260200160002060009054906101000a900460ff1615610f4c576040517f08c379a0000000000000000000000000000000000000000000000000000000008152600401610f4390615638565b60405180910390fd5b6040518060c001604052808381526020016040518060800160405280605e81526020016159ba605e913981526020013373ffffffffffffffffffffffffffffffffffffffff16815260200160405180602001604052806000815250815260200182604051602001610fbd9190615694565b604051602081830303815290604052805190602001208152602001600067ffffffffffffffff811115610ff357610ff2614403565b5b6040519080825280602002602001820160405280156110215781602001602082028036833780820191505090505b508152506000803373ffffffffffffffffffffffffffffffffffffffff1673ffffffffffffffffffffffffffffffffffffffff168152602001908152602001600020600082015181600001908051906020019061107f9291906140ad565b50602082015181600101908051906020019061109c9291906140ad565b5060408201518160020160006101000a81548173ffffffffffffffffffffffffffffffffffffffff021916908373ffffffffffffffffffffffffffffffffffffffff16021790555060608201518160030190805190602001906111009291906140ad565b506080820151816004015560a0820151816005019080519060200190611127929190614182565b5090505060018060003373ffffffffffffffffffffffffffffffffffffffff1673ffffffffffffffffffffffffffffffffffffffff16815260200190815260200160002060006101000a81548160ff0219169083151502179055506008339080600181540180825580915050600190039060005260206000200160009091909190916101000a81548173ffffffffffffffffffffffffffffffffffffffff021916908373ffffffffffffffffffffffffffffffffffffffff1602179055503373ffffffffffffffffffffffffffffffffffffffff167f48cac28ad4dc618e15f4c2dd5e97751182f166de97b25618318b2112aa951a2f8360405161122b91906156ab565b60405180910390a25050565b600160008573ffffffffffffffffffffffffffffffffffffffff1673ffffffffffffffffffffffffffffffffffffffff16815260200190815260200160002060009054906101000a900460ff166112c3576040517f08c379a00000000000000000000000000000000000000000000000000000000081526004016112ba90615719565b60405180910390fd5b60008383905011611309576040517f08c379a000000000000000000000000000000000000000000000000000000000815260040161130090615785565b60405180910390fd5b600060405180608001604052803373ffffffffffffffffffffffffffffffffffffffff16815260200185858080601f016020809104026020016040519081016040528093929190818152602001838380828437600081840152601f19601f82011690508083019250505050505050815260200183151581526020014281525090506001600460003373ffffffffffffffffffffffffffffffffffffffff1673ffffffffffffffffffffffffffffffffffffffff16815260200190815260200160002060008773ffffffffffffffffffffffffffffffffffffffff1673ffffffffffffffffffffffffffffffffffffffff16815260200190815260200160002060006101000a81548160ff0219169083151502179055506001600460008773ffffffffffffffffffffffffffffffffffffffff1673ffffffffffffffffffffffffffffffffffffffff16815260200190815260200160002060003373ffffffffffffffffffffffffffffffffffffffff1673ffffffffffffffffffffffffffffffffffffffff16815260200190815260200160002060006101000a81548160ff0219169083151502179055506000803373ffffffffffffffffffffffffffffffffffffffff1673ffffffffffffffffffffffffffffffffffffffff168152602001908152602001600020600501859080600181540180825580915050600190039060005260206000200160009091909190916101000a81548173ffffffffffffffffffffffffffffffffffffffff021916908373ffffffffffffffffffffffffffffffffffffffff1602179055506000808673ffffffffffffffffffffffffffffffffffffffff1673ffffffffffffffffffffffffffffffffffffffff168152602001908152602001600020600501339080600181540180825580915050600190039060005260206000200160009091909190916101000a81548173ffffffffffffffffffffffffffffffffffffffff021916908373ffffffffffffffffffffffffffffffffffffffff160217905550600260003373ffffffffffffffffffffffffffffffffffffffff1673ffffffffffffffffffffffffffffffffffffffff16815260200190815260200160002060008673ffffffffffffffffffffffffffffffffffffffff1673ffffffffffffffffffffffffffffffffffffffff16815260200190815260200160002060020181908060018154018082558091505060019003906000526020600020906004020160009091909190915060008201518160000160006101000a81548173ffffffffffffffffffffffffffffffffffffffff021916908373ffffffffffffffffffffffffffffffffffffffff16021790555060208201518160010190805190602001906117049291906140ad565b5060408201518160020160006101000a81548160ff0219169083151502179055506060820151816003015550508473ffffffffffffffffffffffffffffffffffffffff163373ffffffffffffffffffffffffffffffffffffffff167fc0e964a89ae4af54eaf553b02f07849ce6ddc028e52aec665236032bdd33a52286866040516117909291906157d2565b60405180910390a35050505050565b6060600160008373ffffffffffffffffffffffffffffffffffffffff1673ffffffffffffffffffffffffffffffffffffffff16815260200190815260200160002060009054906101000a900460ff1661182d576040517f08c379a0000000000000000000000000000000000000000000000000000000008152600401611824906153ec565b60405180910390fd5b60008060008473ffffffffffffffffffffffffffffffffffffffff1673ffffffffffffffffffffffffffffffffffffffff1681526020019081526020016000206040518060c001604052908160008201805461188890615542565b80601f01602080910402602001604051908101604052809291908181526020018280546118b490615542565b80156119015780601f106118d657610100808354040283529160200191611901565b820191906000526020600020905b8154815290600101906020018083116118e457829003601f168201915b5050505050815260200160018201805461191a90615542565b80601f016020809104026020016040519081016040528092919081815260200182805461194690615542565b80156119935780601f1061196857610100808354040283529160200191611993565b820191906000526020600020905b81548152906001019060200180831161197657829003601f168201915b505050505081526020016002820160009054906101000a900473ffffffffffffffffffffffffffffffffffffffff1673ffffffffffffffffffffffffffffffffffffffff1673ffffffffffffffffffffffffffffffffffffffff168152602001600382018054611a0290615542565b80601f0160208091040260200160405190810160405280929190818152602001828054611a2e90615542565b8015611a7b5780601f10611a5057610100808354040283529160200191611a7b565b820191906000526020600020905b815481529060010190602001808311611a5e57829003601f168201915b505050505081526020016004820154815260200160058201805480602002602001604051908101604052809291908181526020018280548015611b1357602002820191906000526020600020905b8160009054906101000a900473ffffffffffffffffffffffffffffffffffffffff1673ffffffffffffffffffffffffffffffffffffffff1681526020019060010190808311611ac9575b50505050508152505090506000600360008573ffffffffffffffffffffffffffffffffffffffff1673ffffffffffffffffffffffffffffffffffffffff16815260200190815260200160002080549050905060005b8260a0015151811015611ca457600460008673ffffffffffffffffffffffffffffffffffffffff1673ffffffffffffffffffffffffffffffffffffffff16815260200190815260200160002060008460a001518381518110611bcd57611bcc6154e4565b5b602002602001015173ffffffffffffffffffffffffffffffffffffffff1673ffffffffffffffffffffffffffffffffffffffff16815260200190815260200160002060009054906101000a900460ff1615611c9157600360008460a001518381518110611c3d57611c3c6154e4565b5b602002602001015173ffffffffffffffffffffffffffffffffffffffff1673ffffffffffffffffffffffffffffffffffffffff1681526020019081526020016000208054905082611c8e91906157f6565b91505b8080611c9c906155a3565b915050611b68565b5060008167ffffffffffffffff811115611cc157611cc0614403565b5b604051908082528060200260200182016040528015611cfa57816020015b611ce761420c565b815260200190600190039081611cdf5790505b5090506000805b600360008873ffffffffffffffffffffffffffffffffffffffff1673ffffffffffffffffffffffffffffffffffffffff1681526020019081526020016000208054905081101561215457600360008873ffffffffffffffffffffffffffffffffffffffff1673ffffffffffffffffffffffffffffffffffffffff1681526020019081526020016000208181548110611d9c57611d9b6154e4565b5b90600052602060002090600702016040518060e0016040529081600082015481526020016001820160009054906101000a900473ffffffffffffffffffffffffffffffffffffffff1673ffffffffffffffffffffffffffffffffffffffff1673ffffffffffffffffffffffffffffffffffffffff168152602001600282018054611e2590615542565b80601f0160208091040260200160405190810160405280929190818152602001828054611e5190615542565b8015611e9e5780601f10611e7357610100808354040283529160200191611e9e565b820191906000526020600020905b815481529060010190602001808311611e8157829003601f168201915b50505050508152602001600382015481526020016004820154815260200160058201805480602002602001604051908101604052809291908181526020016000905b828210156120365783829060005260206000209060020201604051806040016040529081600082018054611f1390615542565b80601f0160208091040260200160405190810160405280929190818152602001828054611f3f90615542565b8015611f8c5780601f10611f6157610100808354040283529160200191611f8c565b820191906000526020600020905b815481529060010190602001808311611f6f57829003601f168201915b50505050508152602001600182018054611fa590615542565b80601f0160208091040260200160405190810160405280929190818152602001828054611fd190615542565b801561201e5780601f10611ff35761010080835404028352916020019161201e565b820191906000526020600020905b81548152906001019060200180831161200157829003601f168201915b50505050508152505081526020019060010190611ee0565b50505050815260200160068201805480602002602001604051908101604052809291908181526020016000905b8282101561210f57838290600052602060002001805461208290615542565b80601f01602080910402602001604051908101604052809291908181526020018280546120ae90615542565b80156120fb5780601f106120d0576101008083540402835291602001916120fb565b820191906000526020600020905b8154815290600101906020018083116120de57829003601f168201915b505050505081526020019060010190612063565b5050505081525050838380612123906155a3565b945081518110612136576121356154e4565b5b6020026020010181905250808061214c906155a3565b915050611d01565b5060005b8460a001515181101561268d5760008560a00151828151811061217e5761217d6154e4565b5b60200260200101519050600460008973ffffffffffffffffffffffffffffffffffffffff1673ffffffffffffffffffffffffffffffffffffffff16815260200190815260200160002060008273ffffffffffffffffffffffffffffffffffffffff1673ffffffffffffffffffffffffffffffffffffffff16815260200190815260200160002060009054906101000a900460ff1615612679576000600360008373ffffffffffffffffffffffffffffffffffffffff1673ffffffffffffffffffffffffffffffffffffffff168152602001908152602001600020805480602002602001604051908101604052809291908181526020016000905b8282101561260c57838290600052602060002090600702016040518060e0016040529081600082015481526020016001820160009054906101000a900473ffffffffffffffffffffffffffffffffffffffff1673ffffffffffffffffffffffffffffffffffffffff1673ffffffffffffffffffffffffffffffffffffffff16815260200160028201805461230b90615542565b80601f016020809104026020016040519081016040528092919081815260200182805461233790615542565b80156123845780601f1061235957610100808354040283529160200191612384565b820191906000526020600020905b81548152906001019060200180831161236757829003601f168201915b50505050508152602001600382015481526020016004820154815260200160058201805480602002602001604051908101604052809291908181526020016000905b8282101561251c57838290600052602060002090600202016040518060400160405290816000820180546123f990615542565b80601f016020809104026020016040519081016040528092919081815260200182805461242590615542565b80156124725780601f1061244757610100808354040283529160200191612472565b820191906000526020600020905b81548152906001019060200180831161245557829003601f168201915b5050505050815260200160018201805461248b90615542565b80601f01602080910402602001604051908101604052809291908181526020018280546124b790615542565b80156125045780601f106124d957610100808354040283529160200191612504565b820191906000526020600020905b8154815290600101906020018083116124e757829003601f168201915b505050505081525050815260200190600101906123c6565b50505050815260200160068201805480602002602001604051908101604052809291908181526020016000905b828210156125f557838290600052602060002001805461256890615542565b80601f016020809104026020016040519081016040528092919081815260200182805461259490615542565b80156125e15780601f106125b6576101008083540402835291602001916125e1565b820191906000526020600020905b8154815290600101906020018083116125c457829003601f168201915b505050505081526020019060010190612549565b505050508152505081526020019060010190612278565b50505050905060005b815181101561267657818181518110612631576126306154e4565b5b6020026020010151868680612645906155a3565b975081518110612658576126576154e4565b5b6020026020010181905250808061266e906155a3565b915050612615565b50505b508080612685906155a3565b915050612158565b506126a68260006001866126a1919061584c565b613efe565b81945050505050919050565b600160003373ffffffffffffffffffffffffffffffffffffffff1673ffffffffffffffffffffffffffffffffffffffff16815260200190815260200160002060009054906101000a900460ff1661273e576040517f08c379a0000000000000000000000000000000000000000000000000000000008152600401612735906153ec565b60405180910390fd5b6000600360003373ffffffffffffffffffffffffffffffffffffffff1673ffffffffffffffffffffffffffffffffffffffff1681526020019081526020016000208054905090506000600360003373ffffffffffffffffffffffffffffffffffffffff1673ffffffffffffffffffffffffffffffffffffffff1681526020019081526020016000206001816001815401808255809150500390600052602060002090600702019050818160000181905550338160010160006101000a81548173ffffffffffffffffffffffffffffffffffffffff021916908373ffffffffffffffffffffffffffffffffffffffff1602179055508381600201908051906020019061284a9291906140ad565b50428160030181905550600081600401819055508281600601908051906020019061287692919061425f565b506007600081548092919061288a906155a3565b91905055503373ffffffffffffffffffffffffffffffffffffffff167f227d44868fd91794465aa9733e53308aaf7503a80920f790d5060691fe03a3e7836040516128d591906151f8565b60405180910390a250505050565b606060008060008473ffffffffffffffffffffffffffffffffffffffff1673ffffffffffffffffffffffffffffffffffffffff1681526020019081526020016000206005018054806020026020016040519081016040528092919081815260200182805480156129a857602002820191906000526020600020905b8160009054906101000a900473ffffffffffffffffffffffffffffffffffffffff1673ffffffffffffffffffffffffffffffffffffffff168152602001906001019080831161295e575b505050505090506000805b8251811015612a8757600460008673ffffffffffffffffffffffffffffffffffffffff1673ffffffffffffffffffffffffffffffffffffffff1681526020019081526020016000206000848381518110612a1057612a0f6154e4565b5b602002602001015173ffffffffffffffffffffffffffffffffffffffff1673ffffffffffffffffffffffffffffffffffffffff16815260200190815260200160002060009054906101000a900460ff1615612a74578180612a70906155a3565b9250505b8080612a7f906155a3565b9150506129b3565b5060008167ffffffffffffffff811115612aa457612aa3614403565b5b604051908082528060200260200182016040528015612ad25781602001602082028036833780820191505090505b5090506000805b8451811015612c1357600460008873ffffffffffffffffffffffffffffffffffffffff1673ffffffffffffffffffffffffffffffffffffffff1681526020019081526020016000206000868381518110612b3657612b356154e4565b5b602002602001015173ffffffffffffffffffffffffffffffffffffffff1673ffffffffffffffffffffffffffffffffffffffff16815260200190815260200160002060009054906101000a900460ff1615612c0057848181518110612b9e57612b9d6154e4565b5b6020026020010151838380612bb2906155a3565b945081518110612bc557612bc46154e4565b5b602002602001019073ffffffffffffffffffffffffffffffffffffffff16908173ffffffffffffffffffffffffffffffffffffffff16815250505b8080612c0b906155a3565b915050612ad9565b5081945050505050919050565b612c28614133565b600160008373ffffffffffffffffffffffffffffffffffffffff1673ffffffffffffffffffffffffffffffffffffffff16815260200190815260200160002060009054906101000a900460ff16612cb4576040517f08c379a0000000000000000000000000000000000000000000000000000000008152600401612cab906153ec565b60405180910390fd5b6000808373ffffffffffffffffffffffffffffffffffffffff1673ffffffffffffffffffffffffffffffffffffffff1681526020019081526020016000206040518060c0016040529081600082018054612d0d90615542565b80601f0160208091040260200160405190810160405280929190818152602001828054612d3990615542565b8015612d865780601f10612d5b57610100808354040283529160200191612d86565b820191906000526020600020905b815481529060010190602001808311612d6957829003601f168201915b50505050508152602001600182018054612d9f90615542565b80601f0160208091040260200160405190810160405280929190818152602001828054612dcb90615542565b8015612e185780601f10612ded57610100808354040283529160200191612e18565b820191906000526020600020905b815481529060010190602001808311612dfb57829003601f168201915b505050505081526020016002820160009054906101000a900473ffffffffffffffffffffffffffffffffffffffff1673ffffffffffffffffffffffffffffffffffffffff1673ffffffffffffffffffffffffffffffffffffffff168152602001600382018054612e8790615542565b80601f0160208091040260200160405190810160405280929190818152602001828054612eb390615542565b8015612f005780601f10612ed557610100808354040283529160200191612f00565b820191906000526020600020905b815481529060010190602001808311612ee357829003601f168201915b505050505081526020016004820154815260200160058201805480602002602001604051908101604052809291908181526020018280548015612f9857602002820191906000526020600020905b8160009054906101000a900473ffffffffffffffffffffffffffffffffffffffff1673ffffffffffffffffffffffffffffffffffffffff1681526020019060010190808311612f4e575b5050505050815250509050919050565b6060600160008373ffffffffffffffffffffffffffffffffffffffff1673ffffffffffffffffffffffffffffffffffffffff16815260200190815260200160002060009054906101000a900460ff16613036576040517f08c379a000000000000000000000000000000000000000000000000000000000815260040161302d906153ec565b60405180910390fd5b600360008373ffffffffffffffffffffffffffffffffffffffff1673ffffffffffffffffffffffffffffffffffffffff168152602001908152602001600020805480602002602001604051908101604052809291908181526020016000905b8282101561342957838290600052602060002090600702016040518060e0016040529081600082015481526020016001820160009054906101000a900473ffffffffffffffffffffffffffffffffffffffff1673ffffffffffffffffffffffffffffffffffffffff1673ffffffffffffffffffffffffffffffffffffffff16815260200160028201805461312890615542565b80601f016020809104026020016040519081016040528092919081815260200182805461315490615542565b80156131a15780601f10613176576101008083540402835291602001916131a1565b820191906000526020600020905b81548152906001019060200180831161318457829003601f168201915b50505050508152602001600382015481526020016004820154815260200160058201805480602002602001604051908101604052809291908181526020016000905b82821015613339578382906000526020600020906002020160405180604001604052908160008201805461321690615542565b80601f016020809104026020016040519081016040528092919081815260200182805461324290615542565b801561328f5780601f106132645761010080835404028352916020019161328f565b820191906000526020600020905b81548152906001019060200180831161327257829003601f168201915b505050505081526020016001820180546132a890615542565b80601f01602080910402602001604051908101604052809291908181526020018280546132d490615542565b80156133215780601f106132f657610100808354040283529160200191613321565b820191906000526020600020905b81548152906001019060200180831161330457829003601f168201915b505050505081525050815260200190600101906131e3565b50505050815260200160068201805480602002602001604051908101604052809291908181526020016000905b8282101561341257838290600052602060002001805461338590615542565b80601f01602080910402602001604051908101604052809291908181526020018280546133b190615542565b80156133fe5780601f106133d3576101008083540402835291602001916133fe565b820191906000526020600020905b8154815290600101906020018083116133e157829003601f168201915b505050505081526020019060010190613366565b505050508152505081526020019060010190613095565b505050509050919050565b6000600160008373ffffffffffffffffffffffffffffffffffffffff1673ffffffffffffffffffffffffffffffffffffffff16815260200190815260200160002060009054906101000a900460ff166134c2576040517f08c379a00000000000000000000000000000000000000000000000000000000081526004016134b9906153ec565b60405180910390fd5b600360008373ffffffffffffffffffffffffffffffffffffffff1673ffffffffffffffffffffffffffffffffffffffff168152602001908152602001600020805490509050919050565b600060205280600052604060002060009150905080600001805461352f90615542565b80601f016020809104026020016040519081016040528092919081815260200182805461355b90615542565b80156135a85780601f1061357d576101008083540402835291602001916135a8565b820191906000526020600020905b81548152906001019060200180831161358b57829003601f168201915b5050505050908060010180546135bd90615542565b80601f01602080910402602001604051908101604052809291908181526020018280546135e990615542565b80156136365780601f1061360b57610100808354040283529160200191613636565b820191906000526020600020905b81548152906001019060200180831161361957829003601f168201915b5050505050908060020160009054906101000a900473ffffffffffffffffffffffffffffffffffffffff169080600301805461367190615542565b80601f016020809104026020016040519081016040528092919081815260200182805461369d90615542565b80156136ea5780601f106136bf576101008083540402835291602001916136ea565b820191906000526020600020905b8154815290600101906020018083116136cd57829003601f168201915b5050505050908060040154905085565b6005602052826000526040600020602052816000526040600020602052806000526040600020600092509250509054906101000a900460ff1681565b600160003373ffffffffffffffffffffffffffffffffffffffff1673ffffffffffffffffffffffffffffffffffffffff16815260200190815260200160002060009054906101000a900460ff166137c2576040517f08c379a00000000000000000000000000000000000000000000000000000000081526004016137b9906153ec565b60405180910390fd5b61010081511115613808576040517f08c379a00000000000000000000000000000000000000000000000000000000081526004016137ff906158cc565b60405180910390fd5b60008060003373ffffffffffffffffffffffffffffffffffffffff1673ffffffffffffffffffffffffffffffffffffffff1681526020019081526020016000209050828160010190805190602001906138629291906140ad565b508181600301908051906020019061387b9291906140ad565b503373ffffffffffffffffffffffffffffffffffffffff167f6eb3a1c6a4675ba92d44e090515b1ceea358f26565d2854df0c99c3f5eaf985084846040516138c49291906158ec565b60405180910390a2505050565b600160003373ffffffffffffffffffffffffffffffffffffffff1673ffffffffffffffffffffffffffffffffffffffff16815260200190815260200160002060009054906101000a900460ff1661395d576040517f08c379a0000000000000000000000000000000000000000000000000000000008152600401613954906153ec565b60405180910390fd5b600160008273ffffffffffffffffffffffffffffffffffffffff1673ffffffffffffffffffffffffffffffffffffffff16815260200190815260200160002060009054906101000a900460ff166139e9576040517f08c379a00000000000000000000000000000000000000000000000000000000081526004016139e09061596f565b60405180910390fd5b600460003373ffffffffffffffffffffffffffffffffffffffff1673ffffffffffffffffffffffffffffffffffffffff16815260200190815260200160002060008273ffffffffffffffffffffffffffffffffffffffff1673ffffffffffffffffffffffffffffffffffffffff16815260200190815260200160002060009054906101000a900460ff1615600460003373ffffffffffffffffffffffffffffffffffffffff1673ffffffffffffffffffffffffffffffffffffffff16815260200190815260200160002060008373ffffffffffffffffffffffffffffffffffffffff1673ffffffffffffffffffffffffffffffffffffffff16815260200190815260200160002060006101000a81548160ff02191690831515021790555050565b600160003373ffffffffffffffffffffffffffffffffffffffff1673ffffffffffffffffffffffffffffffffffffffff16815260200190815260200160002060009054906101000a900460ff16613b96576040517f08c379a0000000000000000000000000000000000000000000000000000000008152600401613b8d906153ec565b60405180910390fd5b600360008373ffffffffffffffffffffffffffffffffffffffff1673ffffffffffffffffffffffffffffffffffffffff168152602001908152602001600020805490508110613c1a576040517f08c379a0000000000000000000000000000000000000000000000000000000008152600401613c1190615458565b60405180910390fd5b600560008373ffffffffffffffffffffffffffffffffffffffff1673ffffffffffffffffffffffffffffffffffffffff168152602001908152602001600020600082815260200190815260200160002060003373ffffffffffffffffffffffffffffffffffffffff1673ffffffffffffffffffffffffffffffffffffffff16815260200190815260200160002060009054906101000a900460ff1615613d3757600360008373ffffffffffffffffffffffffffffffffffffffff1673ffffffffffffffffffffffffffffffffffffffff1681526020019081526020016000208181548110613d0b57613d0a6154e4565b5b90600052602060002090600702016004016000815480929190613d2d9061598f565b9190505550613db0565b600360008373ffffffffffffffffffffffffffffffffffffffff1673ffffffffffffffffffffffffffffffffffffffff1681526020019081526020016000208181548110613d8857613d876154e4565b5b90600052602060002090600702016004016000815480929190613daa906155a3565b91905055505b600560008373ffffffffffffffffffffffffffffffffffffffff1673ffffffffffffffffffffffffffffffffffffffff168152602001908152602001600020600082815260200190815260200160002060003373ffffffffffffffffffffffffffffffffffffffff1673ffffffffffffffffffffffffffffffffffffffff16815260200190815260200160002060009054906101000a900460ff1615600560008473ffffffffffffffffffffffffffffffffffffffff1673ffffffffffffffffffffffffffffffffffffffff168152602001908152602001600020600083815260200190815260200160002060003373ffffffffffffffffffffffffffffffffffffffff1673ffffffffffffffffffffffffffffffffffffffff16815260200190815260200160002060006101000a81548160ff0219169083151502179055505050565b6000600754905090565b808210613f0a576140a8565b6000838281518110613f1f57613f1e6154e4565b5b6020026020010151606001519050600083905060008490505b83811015613ffa5782868281518110613f5457613f536154e4565b5b6020026020010151606001511115613fe757858181518110613f7957613f786154e4565b5b6020026020010151868381518110613f9457613f936154e4565b5b6020026020010151878481518110613faf57613fae6154e4565b5b60200260200101888481518110613fc957613fc86154e4565b5b6020026020010182905282905250508180613fe3906155a3565b9250505b8080613ff2906155a3565b915050613f38565b5084838151811061400e5761400d6154e4565b5b6020026020010151858281518110614029576140286154e4565b5b6020026020010151868381518110614044576140436154e4565b5b6020026020010187868151811061405e5761405d6154e4565b5b602002602001018290528290525050600081111561408e5761408d8585600184614088919061584c565b613efe565b5b6140a58560018361409f91906157f6565b85613efe565b50505b505050565b8280546140b990615542565b90600052602060002090601f0160209004810192826140db5760008555614122565b82601f106140f457805160ff1916838001178555614122565b82800160010185558215614122579182015b82811115614121578251825591602001919060010190614106565b5b50905061412f91906142bf565b5090565b6040518060c001604052806060815260200160608152602001600073ffffffffffffffffffffffffffffffffffffffff1681526020016060815260200160008019168152602001606081525090565b8280548282559060005260206000209081019282156141fb579160200282015b828111156141fa5782518260006101000a81548173ffffffffffffffffffffffffffffffffffffffff021916908373ffffffffffffffffffffffffffffffffffffffff160217905550916020019190600101906141a2565b5b50905061420891906142bf565b5090565b6040518060e0016040528060008152602001600073ffffffffffffffffffffffffffffffffffffffff16815260200160608152602001600081526020016000815260200160608152602001606081525090565b8280548282559060005260206000209081019282156142ae579160200282015b828111156142ad57825182908051906020019061429d9291906140ad565b509160200191906001019061427f565b5b5090506142bb91906142dc565b5090565b5b808211156142d85760008160009055506001016142c0565b5090565b5b808211156142fc57600081816142f39190614300565b506001016142dd565b5090565b50805461430c90615542565b6000825580601f1061431e575061433d565b601f01602090049060005260206000209081019061433c91906142bf565b5b50565b6000604051905090565b600080fd5b600080fd5b600073ffffffffffffffffffffffffffffffffffffffff82169050919050565b600061437f82614354565b9050919050565b61438f81614374565b811461439a57600080fd5b50565b6000813590506143ac81614386565b92915050565b6000819050919050565b6143c5816143b2565b81146143d057600080fd5b50565b6000813590506143e2816143bc565b92915050565b600080fd5b600080fd5b6000601f19601f8301169050919050565b7f4e487b7100000000000000000000000000000000000000000000000000000000600052604160045260246000fd5b61443b826143f2565b810181811067ffffffffffffffff8211171561445a57614459614403565b5b80604052505050565b600061446d614340565b90506144798282614432565b919050565b600067ffffffffffffffff82111561449957614498614403565b5b6144a2826143f2565b9050602081019050919050565b82818337600083830152505050565b60006144d16144cc8461447e565b614463565b9050828152602081018484840111156144ed576144ec6143ed565b5b6144f88482856144af565b509392505050565b600082601f830112614515576145146143e8565b5b81356145258482602086016144be565b91505092915050565b6000806000606084860312156145475761454661434a565b5b60006145558682870161439d565b9350506020614566868287016143d3565b925050604084013567ffffffffffffffff8111156145875761458661434f565b5b61459386828701614500565b9150509250925092565b6000602082840312156145b3576145b261434a565b5b60006145c18482850161439d565b91505092915050565b600081519050919050565b600082825260208201905092915050565b6000819050602082019050919050565b600081519050919050565b600082825260208201905092915050565b60005b83811015614630578082015181840152602081019050614615565b8381111561463f576000848401525b50505050565b6000614650826145f6565b61465a8185614601565b935061466a818560208601614612565b614673816143f2565b840191505092915050565b61468781614374565b82525050565b6000819050919050565b6146a08161468d565b82525050565b600081519050919050565b600082825260208201905092915050565b6000819050602082019050919050565b60006146de838361467e565b60208301905092915050565b6000602082019050919050565b6000614702826146a6565b61470c81856146b1565b9350614717836146c2565b8060005b8381101561474857815161472f88826146d2565b975061473a836146ea565b92505060018101905061471b565b5085935050505092915050565b600060c08301600083015184820360008601526147728282614645565b9150506020830151848203602086015261478c8282614645565b91505060408301516147a1604086018261467e565b50606083015184820360608601526147b98282614645565b91505060808301516147ce6080860182614697565b5060a083015184820360a08601526147e682826146f7565b9150508091505092915050565b60006147ff8383614755565b905092915050565b6000602082019050919050565b600061481f826145ca565b61482981856145d5565b93508360208202850161483b856145e6565b8060005b85811015614877578484038952815161485885826147f3565b945061486383614807565b925060208a0199505060018101905061483f565b50829750879550505050505092915050565b600060208201905081810360008301526148a38184614814565b905092915050565b600080604083850312156148c2576148c161434a565b5b60006148d08582860161439d565b92505060206148e18582860161439d565b9150509250929050565b600081519050919050565b600082825260208201905092915050565b6000819050602082019050919050565b60008115159050919050565b61492c81614917565b82525050565b61493b816143b2565b82525050565b6000608083016000830151614959600086018261467e565b50602083015184820360208601526149718282614645565b91505060408301516149866040860182614923565b5060608301516149996060860182614932565b508091505092915050565b60006149b08383614941565b905092915050565b6000602082019050919050565b60006149d0826148eb565b6149da81856148f6565b9350836020820285016149ec85614907565b8060005b85811015614a285784840389528151614a0985826149a4565b9450614a14836149b8565b925060208a019950506001810190506149f0565b50829750879550505050505092915050565b60006040820190508181036000830152614a5481856149c5565b90508181036020830152614a6881846149c5565b90509392505050565b60008060408385031215614a8857614a8761434a565b5b600083013567ffffffffffffffff811115614aa657614aa561434f565b5b614ab285828601614500565b925050602083013567ffffffffffffffff811115614ad357614ad261434f565b5b614adf85828601614500565b9150509250929050565b600080fd5b600080fd5b60008083601f840112614b0957614b086143e8565b5b8235905067ffffffffffffffff811115614b2657614b25614ae9565b5b602083019150836001820283011115614b4257614b41614aee565b5b9250929050565b614b5281614917565b8114614b5d57600080fd5b50565b600081359050614b6f81614b49565b92915050565b60008060008060608587031215614b8f57614b8e61434a565b5b6000614b9d8782880161439d565b945050602085013567ffffffffffffffff811115614bbe57614bbd61434f565b5b614bca87828801614af3565b93509350506040614bdd87828801614b60565b91505092959194509250565b600081519050919050565b600082825260208201905092915050565b6000819050602082019050919050565b600081519050919050565b600082825260208201905092915050565b6000819050602082019050919050565b60006040830160008301518482036000860152614c5e8282614645565b91505060208301518482036020860152614c788282614645565b9150508091505092915050565b6000614c918383614c41565b905092915050565b6000602082019050919050565b6000614cb182614c15565b614cbb8185614c20565b935083602082028501614ccd85614c31565b8060005b85811015614d095784840389528151614cea8582614c85565b9450614cf583614c99565b925060208a01995050600181019050614cd1565b50829750879550505050505092915050565b600081519050919050565b600082825260208201905092915050565b6000819050602082019050919050565b6000614d538383614645565b905092915050565b6000602082019050919050565b6000614d7382614d1b565b614d7d8185614d26565b935083602082028501614d8f85614d37565b8060005b85811015614dcb5784840389528151614dac8582614d47565b9450614db783614d5b565b925060208a01995050600181019050614d93565b50829750879550505050505092915050565b600060e083016000830151614df56000860182614932565b506020830151614e08602086018261467e565b5060408301518482036040860152614e208282614645565b9150506060830151614e356060860182614932565b506080830151614e486080860182614932565b5060a083015184820360a0860152614e608282614ca6565b91505060c083015184820360c0860152614e7a8282614d68565b9150508091505092915050565b6000614e938383614ddd565b905092915050565b6000602082019050919050565b6000614eb382614be9565b614ebd8185614bf4565b935083602082028501614ecf85614c05565b8060005b85811015614f0b5784840389528151614eec8582614e87565b9450614ef783614e9b565b925060208a01995050600181019050614ed3565b50829750879550505050505092915050565b60006020820190508181036000830152614f378184614ea8565b905092915050565b600067ffffffffffffffff821115614f5a57614f59614403565b5b602082029050602081019050919050565b6000614f7e614f7984614f3f565b614463565b90508083825260208201905060208402830185811115614fa157614fa0614aee565b5b835b81811015614fe857803567ffffffffffffffff811115614fc657614fc56143e8565b5b808601614fd38982614500565b85526020850194505050602081019050614fa3565b5050509392505050565b600082601f830112615007576150066143e8565b5b8135615017848260208601614f6b565b91505092915050565b600080604083850312156150375761503661434a565b5b600083013567ffffffffffffffff8111156150555761505461434f565b5b61506185828601614500565b925050602083013567ffffffffffffffff8111156150825761508161434f565b5b61508e85828601614ff2565b9150509250929050565b600082825260208201905092915050565b60006150b4826146a6565b6150be8185615098565b93506150c9836146c2565b8060005b838110156150fa5781516150e188826146d2565b97506150ec836146ea565b9250506001810190506150cd565b5085935050505092915050565b6000602082019050818103600083015261512181846150a9565b905092915050565b600060c08301600083015184820360008601526151468282614645565b915050602083015184820360208601526151608282614645565b9150506040830151615175604086018261467e565b506060830151848203606086015261518d8282614645565b91505060808301516151a26080860182614697565b5060a083015184820360a08601526151ba82826146f7565b9150508091505092915050565b600060208201905081810360008301526151e18184615129565b905092915050565b6151f2816143b2565b82525050565b600060208201905061520d60008301846151e9565b92915050565b600082825260208201905092915050565b600061522f826145f6565b6152398185615213565b9350615249818560208601614612565b615252816143f2565b840191505092915050565b61526681614374565b82525050565b6152758161468d565b82525050565b600060a08201905081810360008301526152958188615224565b905081810360208301526152a98187615224565b90506152b8604083018661525d565b81810360608301526152ca8185615224565b90506152d9608083018461526c565b9695505050505050565b6000806000606084860312156152fc576152fb61434a565b5b600061530a8682870161439d565b935050602061531b868287016143d3565b925050604061532c8682870161439d565b9150509250925092565b61533f81614917565b82525050565b600060208201905061535a6000830184615336565b92915050565b600080604083850312156153775761537661434a565b5b60006153858582860161439d565b9250506020615396858286016143d3565b9150509250929050565b7f55736572206e6f74207265676973746572656400000000000000000000000000600082015250565b60006153d6601383615213565b91506153e1826153a0565b602082019050919050565b60006020820190508181036000830152615405816153c9565b9050919050565b7f496e76616c696420706f73742049440000000000000000000000000000000000600082015250565b6000615442600f83615213565b915061544d8261540c565b602082019050919050565b6000602082019050818103600083015261547181615435565b9050919050565b7f436f6d6d656e742063616e6e6f7420626520656d707479000000000000000000600082015250565b60006154ae601783615213565b91506154b982615478565b602082019050919050565b600060208201905081810360008301526154dd816154a1565b9050919050565b7f4e487b7100000000000000000000000000000000000000000000000000000000600052603260045260246000fd5b7f4e487b7100000000000000000000000000000000000000000000000000000000600052602260045260246000fd5b6000600282049050600182168061555a57607f821691505b6020821081141561556e5761556d615513565b5b50919050565b7f4e487b7100000000000000000000000000000000000000000000000000000000600052601160045260246000fd5b60006155ae826143b2565b91507fffffffffffffffffffffffffffffffffffffffffffffffffffffffffffffffff8214156155e1576155e0615574565b5b600182019050919050565b7f5573657220616c72656164792072656769737465726564000000000000000000600082015250565b6000615622601783615213565b915061562d826155ec565b602082019050919050565b6000602082019050818103600083015261565181615615565b9050919050565b600081905092915050565b600061566e826145f6565b6156788185615658565b9350615688818560208601614612565b80840191505092915050565b60006156a08284615663565b915081905092915050565b600060208201905081810360008301526156c58184615224565b905092915050565b7f5265636569766572206e6f742072656769737465726564000000000000000000600082015250565b6000615703601783615213565b915061570e826156cd565b602082019050919050565b60006020820190508181036000830152615732816156f6565b9050919050565b7f4d6573736167652063616e6e6f7420626520656d707479000000000000000000600082015250565b600061576f601783615213565b915061577a82615739565b602082019050919050565b6000602082019050818103600083015261579e81615762565b9050919050565b60006157b18385615213565b93506157be8385846144af565b6157c7836143f2565b840190509392505050565b600060208201905081810360008301526157ed8184866157a5565b90509392505050565b6000615801826143b2565b915061580c836143b2565b9250827fffffffffffffffffffffffffffffffffffffffffffffffffffffffffffffffff0382111561584157615840615574565b5b828201905092915050565b6000615857826143b2565b9150615862836143b2565b92508282101561587557615874615574565b5b828203905092915050565b7f42696f20697320746f6f206c6f6e670000000000000000000000000000000000600082015250565b60006158b6600f83615213565b91506158c182615880565b602082019050919050565b600060208201905081810360008301526158e5816158a9565b9050919050565b600060408201905081810360008301526159068185615224565b9050818103602083015261591a8184615224565b90509392505050565b7f467269656e64206e6f7420726567697374657265640000000000000000000000600082015250565b6000615959601583615213565b915061596482615923565b602082019050919050565b600060208201905081810360008301526159888161594c565b9050919050565b600061599a826143b2565b915060008214156159ae576159ad615574565b5b60018203905091905056fe68747470733a2f2f7265732e636c6f7564696e6172792e636f6d2f646a306772766162632f696d6167652f75706c6f61642f76313732313033363231322f617661746172732f6462777479776d77656a337762746c3675617a732e706e67a2646970667358221220eeb52b8ff4a144902797566089bb7750cc986de0e8117de153aa6e3257fb6e5b64736f6c63430008090033",
  "linkReferences": {},
  "deployedLinkReferences": {}
}