{
  "_format": "hh-sol-artifact-1",
  "contractName": "Dacebook",
  "sourceName": "contracts/Dacebook.sol",
  "abi": [
    {
      "anonymous": false,
      "inputs": [
        {
          "indexed": true,
          "internalType": "address",
          "name": "user",
          "type": "address"
        },
        {
          "indexed": true,
          "internalType": "address",
          "name": "friend",
          "type": "address"
        },
        {
          "indexed": false,
          "internalType": "bool",
          "name": "isNowFriend",
          "type": "bool"
        }
      ],
      "name": "FriendshipToggled",
      "type": "event"
    },
    {
      "anonymous": false,
      "inputs": [
        {
          "indexed": true,
          "internalType": "address",
          "name": "sender",
          "type": "address"
        },
        {
          "indexed": true,
          "internalType": "address",
          "name": "receiver",
          "type": "address"
        },
        {
          "indexed": false,
          "internalType": "string",
          "name": "content",
          "type": "string"
        }
      ],
      "name": "NewMessage",
      "type": "event"
    },
    {
      "anonymous": false,
      "inputs": [
        {
          "indexed": true,
          "internalType": "address",
          "name": "author",
          "type": "address"
        },
        {
          "indexed": false,
          "internalType": "uint256",
          "name": "postId",
          "type": "uint256"
        }
      ],
      "name": "NewPost",
      "type": "event"
    },
    {
      "anonymous": false,
      "inputs": [
        {
          "indexed": true,
          "internalType": "address",
          "name": "author",
          "type": "address"
        },
        {
          "indexed": false,
          "internalType": "uint256",
          "name": "postId",
          "type": "uint256"
        }
      ],
      "name": "PostDeleted",
      "type": "event"
    },
    {
      "anonymous": false,
      "inputs": [
        {
          "indexed": true,
          "internalType": "address",
          "name": "user",
          "type": "address"
        },
        {
          "indexed": false,
          "internalType": "uint256",
          "name": "postId",
          "type": "uint256"
        },
        {
          "indexed": false,
          "internalType": "bool",
          "name": "liked",
          "type": "bool"
        }
      ],
      "name": "PostLiked",
      "type": "event"
    },
    {
      "anonymous": false,
      "inputs": [
        {
          "indexed": true,
          "internalType": "address",
          "name": "userAddress",
          "type": "address"
        },
        {
          "indexed": false,
          "internalType": "string",
          "name": "profilePic",
          "type": "string"
        },
        {
          "indexed": false,
          "internalType": "string",
          "name": "bio",
          "type": "string"
        }
      ],
      "name": "ProfileUpdated",
      "type": "event"
    },
    {
      "anonymous": false,
      "inputs": [
        {
          "indexed": true,
          "internalType": "address",
          "name": "userAddress",
          "type": "address"
        },
        {
          "indexed": false,
          "internalType": "string",
          "name": "name",
          "type": "string"
        }
      ],
      "name": "UserRegistered",
      "type": "event"
    },
    {
      "inputs": [
        {
          "internalType": "address",
          "name": "_author",
          "type": "address"
        },
        {
          "internalType": "uint256",
          "name": "_postId",
          "type": "uint256"
        },
        {
          "internalType": "string",
          "name": "_comment",
          "type": "string"
        }
      ],
      "name": "commentOnPost",
      "outputs": [],
      "stateMutability": "nonpayable",
      "type": "function"
    },
    {
      "inputs": [
        {
          "internalType": "string",
          "name": "_content",
          "type": "string"
        },
        {
          "internalType": "string[]",
          "name": "_uploads",
          "type": "string[]"
        }
      ],
      "name": "createPost",
      "outputs": [],
      "stateMutability": "nonpayable",
      "type": "function"
    },
    {
      "inputs": [
        {
          "internalType": "uint256",
          "name": "_postId",
          "type": "uint256"
        }
      ],
      "name": "deletePost",
      "outputs": [],
      "stateMutability": "nonpayable",
      "type": "function"
    },
    {
      "inputs": [],
      "name": "getAllUsers",
      "outputs": [
        {
          "components": [
            {
              "internalType": "string",
              "name": "name",
              "type": "string"
            },
            {
              "internalType": "string",
              "name": "profilePic",
              "type": "string"
            },
            {
              "internalType": "address",
              "name": "userAddress",
              "type": "address"
            },
            {
              "internalType": "string",
              "name": "bio",
              "type": "string"
            },
            {
              "internalType": "bytes32",
              "name": "passwordHash",
              "type": "bytes32"
            },
            {
              "internalType": "address[]",
              "name": "friends",
              "type": "address[]"
            }
          ],
          "internalType": "struct Dacebook.User[]",
          "name": "",
          "type": "tuple[]"
        }
      ],
      "stateMutability": "view",
      "type": "function"
    },
    {
      "inputs": [],
      "name": "getFriends",
      "outputs": [
        {
          "internalType": "address[]",
          "name": "",
          "type": "address[]"
        }
      ],
      "stateMutability": "view",
      "type": "function"
    },
    {
      "inputs": [
        {
          "internalType": "address",
          "name": "_msgOf",
          "type": "address"
        }
      ],
      "name": "getMessages",
      "outputs": [
        {
          "components": [
            {
              "internalType": "address",
              "name": "from",
              "type": "address"
            },
            {
              "internalType": "address",
              "name": "to",
              "type": "address"
            },
            {
              "internalType": "string",
              "name": "message",
              "type": "string"
            },
            {
              "internalType": "bool",
              "name": "file",
              "type": "bool"
            },
            {
              "internalType": "uint256",
              "name": "timestamp",
              "type": "uint256"
            }
          ],
          "internalType": "struct Dacebook.Message[]",
          "name": "",
          "type": "tuple[]"
        }
      ],
      "stateMutability": "view",
      "type": "function"
    },
    {
      "inputs": [
        {
          "internalType": "address",
          "name": "_user",
          "type": "address"
        }
      ],
      "name": "getPostCount",
      "outputs": [
        {
          "internalType": "uint256",
          "name": "",
          "type": "uint256"
        }
      ],
      "stateMutability": "view",
      "type": "function"
    },
    {
      "inputs": [
        {
          "internalType": "address",
          "name": "_user",
          "type": "address"
        }
      ],
      "name": "getPosts",
      "outputs": [
        {
          "components": [
            {
              "internalType": "uint256",
              "name": "id",
              "type": "uint256"
            },
            {
              "internalType": "address",
              "name": "author",
              "type": "address"
            },
            {
              "internalType": "string",
              "name": "content",
              "type": "string"
            },
            {
              "internalType": "uint256",
              "name": "timestamp",
              "type": "uint256"
            },
            {
              "internalType": "uint256",
              "name": "likes",
              "type": "uint256"
            },
            {
              "components": [
                {
                  "internalType": "string",
                  "name": "text",
                  "type": "string"
                },
                {
                  "internalType": "address",
                  "name": "userAddress",
                  "type": "address"
                }
              ],
              "internalType": "struct Dacebook.Comment[]",
              "name": "comments",
              "type": "tuple[]"
            },
            {
              "internalType": "string[]",
              "name": "uploads",
              "type": "string[]"
            }
          ],
          "internalType": "struct Dacebook.Post[]",
          "name": "",
          "type": "tuple[]"
        }
      ],
      "stateMutability": "view",
      "type": "function"
    },
    {
      "inputs": [],
      "name": "getTotalPostCount",
      "outputs": [
        {
          "internalType": "uint256",
          "name": "",
          "type": "uint256"
        }
      ],
      "stateMutability": "view",
      "type": "function"
    },
    {
      "inputs": [
        {
          "internalType": "address",
          "name": "_user",
          "type": "address"
        }
      ],
      "name": "getUserPosts",
      "outputs": [
        {
          "components": [
            {
              "internalType": "uint256",
              "name": "id",
              "type": "uint256"
            },
            {
              "internalType": "address",
              "name": "author",
              "type": "address"
            },
            {
              "internalType": "string",
              "name": "content",
              "type": "string"
            },
            {
              "internalType": "uint256",
              "name": "timestamp",
              "type": "uint256"
            },
            {
              "internalType": "uint256",
              "name": "likes",
              "type": "uint256"
            },
            {
              "components": [
                {
                  "internalType": "string",
                  "name": "text",
                  "type": "string"
                },
                {
                  "internalType": "address",
                  "name": "userAddress",
                  "type": "address"
                }
              ],
              "internalType": "struct Dacebook.Comment[]",
              "name": "comments",
              "type": "tuple[]"
            },
            {
              "internalType": "string[]",
              "name": "uploads",
              "type": "string[]"
            }
          ],
          "internalType": "struct Dacebook.Post[]",
          "name": "",
          "type": "tuple[]"
        }
      ],
      "stateMutability": "view",
      "type": "function"
    },
    {
      "inputs": [
        {
          "internalType": "address",
          "name": "_user",
          "type": "address"
        }
      ],
      "name": "getUserProfile",
      "outputs": [
        {
          "components": [
            {
              "internalType": "string",
              "name": "name",
              "type": "string"
            },
            {
              "internalType": "string",
              "name": "profilePic",
              "type": "string"
            },
            {
              "internalType": "address",
              "name": "userAddress",
              "type": "address"
            },
            {
              "internalType": "string",
              "name": "bio",
              "type": "string"
            },
            {
              "internalType": "bytes32",
              "name": "passwordHash",
              "type": "bytes32"
            },
            {
              "internalType": "address[]",
              "name": "friends",
              "type": "address[]"
            }
          ],
          "internalType": "struct Dacebook.User",
          "name": "",
          "type": "tuple"
        }
      ],
      "stateMutability": "view",
      "type": "function"
    },
    {
      "inputs": [
        {
          "internalType": "address",
          "name": "",
          "type": "address"
        },
        {
          "internalType": "uint256",
          "name": "",
          "type": "uint256"
        },
        {
          "internalType": "address",
          "name": "",
          "type": "address"
        }
      ],
      "name": "isLiked",
      "outputs": [
        {
          "internalType": "bool",
          "name": "",
          "type": "bool"
        }
      ],
      "stateMutability": "view",
      "type": "function"
    },
    {
      "inputs": [
        {
          "internalType": "string",
          "name": "_name",
          "type": "string"
        },
        {
          "internalType": "string",
          "name": "_password",
          "type": "string"
        }
      ],
      "name": "register",
      "outputs": [],
      "stateMutability": "nonpayable",
      "type": "function"
    },
    {
      "inputs": [
        {
          "internalType": "address",
          "name": "_to",
          "type": "address"
        },
        {
          "internalType": "string",
          "name": "_data",
          "type": "string"
        }
      ],
      "name": "sendMessage",
      "outputs": [],
      "stateMutability": "nonpayable",
      "type": "function"
    },
    {
      "inputs": [
        {
          "internalType": "address",
          "name": "_friend",
          "type": "address"
        }
      ],
      "name": "toggleFriend",
      "outputs": [],
      "stateMutability": "nonpayable",
      "type": "function"
    },
    {
      "inputs": [
        {
          "internalType": "address",
          "name": "_author",
          "type": "address"
        },
        {
          "internalType": "uint256",
          "name": "_postId",
          "type": "uint256"
        }
      ],
      "name": "toggleLikeonPost",
      "outputs": [],
      "stateMutability": "nonpayable",
      "type": "function"
    },
    {
      "inputs": [
        {
          "internalType": "string",
          "name": "_profilePic",
          "type": "string"
        },
        {
          "internalType": "string",
          "name": "_bio",
          "type": "string"
        }
      ],
      "name": "updateProfile",
      "outputs": [],
      "stateMutability": "nonpayable",
      "type": "function"
    }
  ],
  "bytecode": "0x6080604052600060065534801561001557600080fd5b5061591580620000266000396000f3fe608060405234801561001057600080fd5b506004361061010b5760003560e01c8063a4c7fafa116100a2578063d9806cd511610071578063d9806cd5146102da578063db2598f0146102f6578063de6f24bb14610312578063e2842d791461032e578063efbe84691461034c5761010b565b8063a4c7fafa1461022e578063b0ed7a7f1461025e578063b2f713221461028e578063c9d3cc6a146102be5761010b565b80634caf9d0b116100de5780634caf9d0b1461018257806352374f7a146101b2578063987ee156146101ce5780639a2194a9146101fe5761010b565b8063012d18b914610110578063094cd5ee1461012c5780631f8f7270146101485780633ffbd47f14610166575b600080fd5b61012a6004803603810190610125919061446c565b61036a565b005b610146600480360381019061014191906144db565b6105df565b005b610150610919565b60405161015d91906145c6565b60405180910390f35b610180600480360381019061017b91906145e8565b610ce0565b005b61019c60048036038101906101979190614660565b611058565b6040516101a99190614a51565b60405180910390f35b6101cc60048036038101906101c79190614b59565b61201d565b005b6101e860048036038101906101e39190614660565b61224e565b6040516101f59190614cf7565b60405180910390f35b61021860048036038101906102139190614660565b6125d6565b6040516102259190614a51565b60405180910390f35b61024860048036038101906102439190614660565b612a26565b6040516102559190614d28565b60405180910390f35b61027860048036038101906102739190614d43565b612afe565b6040516102859190614db1565b60405180910390f35b6102a860048036038101906102a39190614660565b612b3a565b6040516102b59190614f13565b60405180910390f35b6102d860048036038101906102d391906145e8565b612e90565b005b6102f460048036038101906102ef9190614660565b61302b565b005b610310600480360381019061030b9190614f35565b613264565b005b61032c60048036038101906103279190614fd0565b61364e565b005b610336613b7a565b6040516103439190615190565b60405180910390f35b610354613f4e565b6040516103619190614d28565b60405180910390f35b600160003373ffffffffffffffffffffffffffffffffffffffff1673ffffffffffffffffffffffffffffffffffffffff16815260200190815260200160002060009054906101000a900460ff166103f6576040517f08c379a00000000000000000000000000000000000000000000000000000000081526004016103ed9061520f565b60405180910390fd5b600260008473ffffffffffffffffffffffffffffffffffffffff1673ffffffffffffffffffffffffffffffffffffffff16815260200190815260200160002080549050821061047a576040517f08c379a00000000000000000000000000000000000000000000000000000000081526004016104719061527b565b60405180910390fd5b60008151116104be576040517f08c379a00000000000000000000000000000000000000000000000000000000081526004016104b5906152e7565b60405180910390fd5b600260008473ffffffffffffffffffffffffffffffffffffffff1673ffffffffffffffffffffffffffffffffffffffff168152602001908152602001600020828154811061050f5761050e615307565b5b906000526020600020906007020160050160405180604001604052808381526020013373ffffffffffffffffffffffffffffffffffffffff1681525090806001815401808255809150506001900390600052602060002090600202016000909190919091506000820151816000019080519060200190610590929190613f58565b5060208201518160010160006101000a81548173ffffffffffffffffffffffffffffffffffffffff021916908373ffffffffffffffffffffffffffffffffffffffff1602179055505050505050565b600160003373ffffffffffffffffffffffffffffffffffffffff1673ffffffffffffffffffffffffffffffffffffffff16815260200190815260200160002060009054906101000a900460ff1661066b576040517f08c379a00000000000000000000000000000000000000000000000000000000081526004016106629061520f565b60405180910390fd5b600260003373ffffffffffffffffffffffffffffffffffffffff1673ffffffffffffffffffffffffffffffffffffffff1681526020019081526020016000208054905081106106ef576040517f08c379a00000000000000000000000000000000000000000000000000000000081526004016106e69061527b565b60405180910390fd5b3373ffffffffffffffffffffffffffffffffffffffff16600260003373ffffffffffffffffffffffffffffffffffffffff1673ffffffffffffffffffffffffffffffffffffffff168152602001908152602001600020828154811061075757610756615307565b5b906000526020600020906007020160010160009054906101000a900473ffffffffffffffffffffffffffffffffffffffff1673ffffffffffffffffffffffffffffffffffffffff16146107df576040517f08c379a00000000000000000000000000000000000000000000000000000000081526004016107d690615382565b60405180910390fd5b600260003373ffffffffffffffffffffffffffffffffffffffff1673ffffffffffffffffffffffffffffffffffffffff16815260200190815260200160002081815481106108305761082f615307565b5b90600052602060002090600702016000808201600090556001820160006101000a81549073ffffffffffffffffffffffffffffffffffffffff021916905560028201600061087e9190613fde565b6003820160009055600482016000905560058201600061089e919061401e565b6006820160006108ae9190614042565b5050600660008154809291906108c3906153d1565b91905055503373ffffffffffffffffffffffffffffffffffffffff167f4d420356f0bcdde64a4a4dd5ececb57087c4119cf2d72bb1d76e329d38f3c2198260405161090e9190614d28565b60405180910390a250565b6060600160003373ffffffffffffffffffffffffffffffffffffffff1673ffffffffffffffffffffffffffffffffffffffff16815260200190815260200160002060009054906101000a900460ff166109a7576040517f08c379a000000000000000000000000000000000000000000000000000000000815260040161099e9061520f565b60405180910390fd5b60008060003373ffffffffffffffffffffffffffffffffffffffff1673ffffffffffffffffffffffffffffffffffffffff168152602001908152602001600020600501805480602002602001604051908101604052809291908181526020018280548015610a6a57602002820191906000526020600020905b8160009054906101000a900473ffffffffffffffffffffffffffffffffffffffff1673ffffffffffffffffffffffffffffffffffffffff1681526020019060010190808311610a20575b505050505090506000805b8251811015610b4957600360003373ffffffffffffffffffffffffffffffffffffffff1673ffffffffffffffffffffffffffffffffffffffff1681526020019081526020016000206000848381518110610ad257610ad1615307565b5b602002602001015173ffffffffffffffffffffffffffffffffffffffff1673ffffffffffffffffffffffffffffffffffffffff16815260200190815260200160002060009054906101000a900460ff1615610b36578180610b32906153fb565b9250505b8080610b41906153fb565b915050610a75565b5060008167ffffffffffffffff811115610b6657610b65614341565b5b604051908082528060200260200182016040528015610b945781602001602082028036833780820191505090505b5090506000805b8451811015610cd557600360003373ffffffffffffffffffffffffffffffffffffffff1673ffffffffffffffffffffffffffffffffffffffff1681526020019081526020016000206000868381518110610bf857610bf7615307565b5b602002602001015173ffffffffffffffffffffffffffffffffffffffff1673ffffffffffffffffffffffffffffffffffffffff16815260200190815260200160002060009054906101000a900460ff1615610cc257848181518110610c6057610c5f615307565b5b6020026020010151838380610c74906153fb565b945081518110610c8757610c86615307565b5b602002602001019073ffffffffffffffffffffffffffffffffffffffff16908173ffffffffffffffffffffffffffffffffffffffff16815250505b8080610ccd906153fb565b915050610b9b565b508194505050505090565b600160003373ffffffffffffffffffffffffffffffffffffffff1673ffffffffffffffffffffffffffffffffffffffff16815260200190815260200160002060009054906101000a900460ff1615610d6d576040517f08c379a0000000000000000000000000000000000000000000000000000000008152600401610d6490615490565b60405180910390fd5b6040518060c001604052808381526020016040518060800160405280605e8152602001615882605e913981526020013373ffffffffffffffffffffffffffffffffffffffff16815260200160405180602001604052806000815250815260200182604051602001610dde91906154ec565b604051602081830303815290604052805190602001208152602001600067ffffffffffffffff811115610e1457610e13614341565b5b604051908082528060200260200182016040528015610e425781602001602082028036833780820191505090505b508152506000803373ffffffffffffffffffffffffffffffffffffffff1673ffffffffffffffffffffffffffffffffffffffff1681526020019081526020016000206000820151816000019080519060200190610ea0929190613f58565b506020820151816001019080519060200190610ebd929190613f58565b5060408201518160020160006101000a81548173ffffffffffffffffffffffffffffffffffffffff021916908373ffffffffffffffffffffffffffffffffffffffff1602179055506060820151816003019080519060200190610f21929190613f58565b506080820151816004015560a0820151816005019080519060200190610f48929190614063565b5090505060018060003373ffffffffffffffffffffffffffffffffffffffff1673ffffffffffffffffffffffffffffffffffffffff16815260200190815260200160002060006101000a81548160ff0219169083151502179055506007339080600181540180825580915050600190039060005260206000200160009091909190916101000a81548173ffffffffffffffffffffffffffffffffffffffff021916908373ffffffffffffffffffffffffffffffffffffffff1602179055503373ffffffffffffffffffffffffffffffffffffffff167f48cac28ad4dc618e15f4c2dd5e97751182f166de97b25618318b2112aa951a2f8360405161104c919061553c565b60405180910390a25050565b6060600160008373ffffffffffffffffffffffffffffffffffffffff1673ffffffffffffffffffffffffffffffffffffffff16815260200190815260200160002060009054906101000a900460ff166110e6576040517f08c379a00000000000000000000000000000000000000000000000000000000081526004016110dd9061520f565b60405180910390fd5b60008060008473ffffffffffffffffffffffffffffffffffffffff1673ffffffffffffffffffffffffffffffffffffffff1681526020019081526020016000206040518060c00160405290816000820180546111419061558d565b80601f016020809104026020016040519081016040528092919081815260200182805461116d9061558d565b80156111ba5780601f1061118f576101008083540402835291602001916111ba565b820191906000526020600020905b81548152906001019060200180831161119d57829003601f168201915b505050505081526020016001820180546111d39061558d565b80601f01602080910402602001604051908101604052809291908181526020018280546111ff9061558d565b801561124c5780601f106112215761010080835404028352916020019161124c565b820191906000526020600020905b81548152906001019060200180831161122f57829003601f168201915b505050505081526020016002820160009054906101000a900473ffffffffffffffffffffffffffffffffffffffff1673ffffffffffffffffffffffffffffffffffffffff1673ffffffffffffffffffffffffffffffffffffffff1681526020016003820180546112bb9061558d565b80601f01602080910402602001604051908101604052809291908181526020018280546112e79061558d565b80156113345780601f1061130957610100808354040283529160200191611334565b820191906000526020600020905b81548152906001019060200180831161131757829003601f168201915b5050505050815260200160048201548152602001600582018054806020026020016040519081016040528092919081815260200182805480156113cc57602002820191906000526020600020905b8160009054906101000a900473ffffffffffffffffffffffffffffffffffffffff1673ffffffffffffffffffffffffffffffffffffffff1681526020019060010190808311611382575b50505050508152505090506000600260008573ffffffffffffffffffffffffffffffffffffffff1673ffffffffffffffffffffffffffffffffffffffff16815260200190815260200160002080549050905060005b8260a001515181101561155d57600360008673ffffffffffffffffffffffffffffffffffffffff1673ffffffffffffffffffffffffffffffffffffffff16815260200190815260200160002060008460a00151838151811061148657611485615307565b5b602002602001015173ffffffffffffffffffffffffffffffffffffffff1673ffffffffffffffffffffffffffffffffffffffff16815260200190815260200160002060009054906101000a900460ff161561154a57600260008460a0015183815181106114f6576114f5615307565b5b602002602001015173ffffffffffffffffffffffffffffffffffffffff1673ffffffffffffffffffffffffffffffffffffffff168152602001908152602001600020805490508261154791906155bf565b91505b8080611555906153fb565b915050611421565b5060008167ffffffffffffffff81111561157a57611579614341565b5b6040519080825280602002602001820160405280156115b357816020015b6115a06140ed565b8152602001906001900390816115985790505b5090506000805b600260008873ffffffffffffffffffffffffffffffffffffffff1673ffffffffffffffffffffffffffffffffffffffff168152602001908152602001600020805490508110156119d157600260008873ffffffffffffffffffffffffffffffffffffffff1673ffffffffffffffffffffffffffffffffffffffff168152602001908152602001600020818154811061165557611654615307565b5b90600052602060002090600702016040518060e0016040529081600082015481526020016001820160009054906101000a900473ffffffffffffffffffffffffffffffffffffffff1673ffffffffffffffffffffffffffffffffffffffff1673ffffffffffffffffffffffffffffffffffffffff1681526020016002820180546116de9061558d565b80601f016020809104026020016040519081016040528092919081815260200182805461170a9061558d565b80156117575780601f1061172c57610100808354040283529160200191611757565b820191906000526020600020905b81548152906001019060200180831161173a57829003601f168201915b50505050508152602001600382015481526020016004820154815260200160058201805480602002602001604051908101604052809291908181526020016000905b828210156118b357838290600052602060002090600202016040518060400160405290816000820180546117cc9061558d565b80601f01602080910402602001604051908101604052809291908181526020018280546117f89061558d565b80156118455780601f1061181a57610100808354040283529160200191611845565b820191906000526020600020905b81548152906001019060200180831161182857829003601f168201915b505050505081526020016001820160009054906101000a900473ffffffffffffffffffffffffffffffffffffffff1673ffffffffffffffffffffffffffffffffffffffff1673ffffffffffffffffffffffffffffffffffffffff168152505081526020019060010190611799565b50505050815260200160068201805480602002602001604051908101604052809291908181526020016000905b8282101561198c5783829060005260206000200180546118ff9061558d565b80601f016020809104026020016040519081016040528092919081815260200182805461192b9061558d565b80156119785780601f1061194d57610100808354040283529160200191611978565b820191906000526020600020905b81548152906001019060200180831161195b57829003601f168201915b5050505050815260200190600101906118e0565b50505050815250508383806119a0906153fb565b9450815181106119b3576119b2615307565b5b602002602001018190525080806119c9906153fb565b9150506115ba565b5060005b8460a0015151811015611efa57600360008873ffffffffffffffffffffffffffffffffffffffff1673ffffffffffffffffffffffffffffffffffffffff16815260200190815260200160002060008660a001518381518110611a3a57611a39615307565b5b602002602001015173ffffffffffffffffffffffffffffffffffffffff1673ffffffffffffffffffffffffffffffffffffffff16815260200190815260200160002060009054906101000a900460ff1615611ee75760005b600260008760a001518481518110611aad57611aac615307565b5b602002602001015173ffffffffffffffffffffffffffffffffffffffff1673ffffffffffffffffffffffffffffffffffffffff16815260200190815260200160002080549050811015611ee557600260008760a001518481518110611b1557611b14615307565b5b602002602001015173ffffffffffffffffffffffffffffffffffffffff1673ffffffffffffffffffffffffffffffffffffffff1681526020019081526020016000208181548110611b6957611b68615307565b5b90600052602060002090600702016040518060e0016040529081600082015481526020016001820160009054906101000a900473ffffffffffffffffffffffffffffffffffffffff1673ffffffffffffffffffffffffffffffffffffffff1673ffffffffffffffffffffffffffffffffffffffff168152602001600282018054611bf29061558d565b80601f0160208091040260200160405190810160405280929190818152602001828054611c1e9061558d565b8015611c6b5780601f10611c4057610100808354040283529160200191611c6b565b820191906000526020600020905b815481529060010190602001808311611c4e57829003601f168201915b50505050508152602001600382015481526020016004820154815260200160058201805480602002602001604051908101604052809291908181526020016000905b82821015611dc75783829060005260206000209060020201604051806040016040529081600082018054611ce09061558d565b80601f0160208091040260200160405190810160405280929190818152602001828054611d0c9061558d565b8015611d595780601f10611d2e57610100808354040283529160200191611d59565b820191906000526020600020905b815481529060010190602001808311611d3c57829003601f168201915b505050505081526020016001820160009054906101000a900473ffffffffffffffffffffffffffffffffffffffff1673ffffffffffffffffffffffffffffffffffffffff1673ffffffffffffffffffffffffffffffffffffffff168152505081526020019060010190611cad565b50505050815260200160068201805480602002602001604051908101604052809291908181526020016000905b82821015611ea0578382906000526020600020018054611e139061558d565b80601f0160208091040260200160405190810160405280929190818152602001828054611e3f9061558d565b8015611e8c5780601f10611e6157610100808354040283529160200191611e8c565b820191906000526020600020905b815481529060010190602001808311611e6f57829003601f168201915b505050505081526020019060010190611df4565b5050505081525050848480611eb4906153fb565b955081518110611ec757611ec6615307565b5b60200260200101819052508080611edd906153fb565b915050611a92565b505b8080611ef2906153fb565b9150506119d5565b5060005b600184611f0b9190615615565b811015612010576000600182611f2191906155bf565b90505b84811015611ffc57838181518110611f3f57611f3e615307565b5b602002602001015160600151848381518110611f5e57611f5d615307565b5b6020026020010151606001511015611fe9576000848381518110611f8557611f84615307565b5b60200260200101519050848281518110611fa257611fa1615307565b5b6020026020010151858481518110611fbd57611fbc615307565b5b602002602001018190525080858381518110611fdc57611fdb615307565b5b6020026020010181905250505b8080611ff4906153fb565b915050611f24565b508080612008906153fb565b915050611efe565b5081945050505050919050565b600160003373ffffffffffffffffffffffffffffffffffffffff1673ffffffffffffffffffffffffffffffffffffffff16815260200190815260200160002060009054906101000a900460ff166120a9576040517f08c379a00000000000000000000000000000000000000000000000000000000081526004016120a09061520f565b60405180910390fd5b6000600260003373ffffffffffffffffffffffffffffffffffffffff1673ffffffffffffffffffffffffffffffffffffffff1681526020019081526020016000208054905090506000600260003373ffffffffffffffffffffffffffffffffffffffff1673ffffffffffffffffffffffffffffffffffffffff1681526020019081526020016000206001816001815401808255809150500390600052602060002090600702019050818160000181905550338160010160006101000a81548173ffffffffffffffffffffffffffffffffffffffff021916908373ffffffffffffffffffffffffffffffffffffffff160217905550838160020190805190602001906121b5929190613f58565b5042816003018190555060008160040181905550828160060190805190602001906121e1929190614140565b50600660008154809291906121f5906153fb565b91905055503373ffffffffffffffffffffffffffffffffffffffff167f227d44868fd91794465aa9733e53308aaf7503a80920f790d5060691fe03a3e7836040516122409190614d28565b60405180910390a250505050565b6122566141a0565b600160008373ffffffffffffffffffffffffffffffffffffffff1673ffffffffffffffffffffffffffffffffffffffff16815260200190815260200160002060009054906101000a900460ff166122e2576040517f08c379a00000000000000000000000000000000000000000000000000000000081526004016122d99061520f565b60405180910390fd5b6000808373ffffffffffffffffffffffffffffffffffffffff1673ffffffffffffffffffffffffffffffffffffffff1681526020019081526020016000206040518060c001604052908160008201805461233b9061558d565b80601f01602080910402602001604051908101604052809291908181526020018280546123679061558d565b80156123b45780601f10612389576101008083540402835291602001916123b4565b820191906000526020600020905b81548152906001019060200180831161239757829003601f168201915b505050505081526020016001820180546123cd9061558d565b80601f01602080910402602001604051908101604052809291908181526020018280546123f99061558d565b80156124465780601f1061241b57610100808354040283529160200191612446565b820191906000526020600020905b81548152906001019060200180831161242957829003601f168201915b505050505081526020016002820160009054906101000a900473ffffffffffffffffffffffffffffffffffffffff1673ffffffffffffffffffffffffffffffffffffffff1673ffffffffffffffffffffffffffffffffffffffff1681526020016003820180546124b59061558d565b80601f01602080910402602001604051908101604052809291908181526020018280546124e19061558d565b801561252e5780601f106125035761010080835404028352916020019161252e565b820191906000526020600020905b81548152906001019060200180831161251157829003601f168201915b5050505050815260200160048201548152602001600582018054806020026020016040519081016040528092919081815260200182805480156125c657602002820191906000526020600020905b8160009054906101000a900473ffffffffffffffffffffffffffffffffffffffff1673ffffffffffffffffffffffffffffffffffffffff168152602001906001019080831161257c575b5050505050815250509050919050565b6060600160008373ffffffffffffffffffffffffffffffffffffffff1673ffffffffffffffffffffffffffffffffffffffff16815260200190815260200160002060009054906101000a900460ff16612664576040517f08c379a000000000000000000000000000000000000000000000000000000000815260040161265b9061520f565b60405180910390fd5b600260008373ffffffffffffffffffffffffffffffffffffffff1673ffffffffffffffffffffffffffffffffffffffff168152602001908152602001600020805480602002602001604051908101604052809291908181526020016000905b82821015612a1b57838290600052602060002090600702016040518060e0016040529081600082015481526020016001820160009054906101000a900473ffffffffffffffffffffffffffffffffffffffff1673ffffffffffffffffffffffffffffffffffffffff1673ffffffffffffffffffffffffffffffffffffffff1681526020016002820180546127569061558d565b80601f01602080910402602001604051908101604052809291908181526020018280546127829061558d565b80156127cf5780601f106127a4576101008083540402835291602001916127cf565b820191906000526020600020905b8154815290600101906020018083116127b257829003601f168201915b50505050508152602001600382015481526020016004820154815260200160058201805480602002602001604051908101604052809291908181526020016000905b8282101561292b57838290600052602060002090600202016040518060400160405290816000820180546128449061558d565b80601f01602080910402602001604051908101604052809291908181526020018280546128709061558d565b80156128bd5780601f10612892576101008083540402835291602001916128bd565b820191906000526020600020905b8154815290600101906020018083116128a057829003601f168201915b505050505081526020016001820160009054906101000a900473ffffffffffffffffffffffffffffffffffffffff1673ffffffffffffffffffffffffffffffffffffffff1673ffffffffffffffffffffffffffffffffffffffff168152505081526020019060010190612811565b50505050815260200160068201805480602002602001604051908101604052809291908181526020016000905b82821015612a045783829060005260206000200180546129779061558d565b80601f01602080910402602001604051908101604052809291908181526020018280546129a39061558d565b80156129f05780601f106129c5576101008083540402835291602001916129f0565b820191906000526020600020905b8154815290600101906020018083116129d357829003601f168201915b505050505081526020019060010190612958565b5050505081525050815260200190600101906126c3565b505050509050919050565b6000600160008373ffffffffffffffffffffffffffffffffffffffff1673ffffffffffffffffffffffffffffffffffffffff16815260200190815260200160002060009054906101000a900460ff16612ab4576040517f08c379a0000000000000000000000000000000000000000000000000000000008152600401612aab9061520f565b60405180910390fd5b600260008373ffffffffffffffffffffffffffffffffffffffff1673ffffffffffffffffffffffffffffffffffffffff168152602001908152602001600020805490509050919050565b6004602052826000526040600020602052816000526040600020602052806000526040600020600092509250509054906101000a900460ff1681565b6060600160003373ffffffffffffffffffffffffffffffffffffffff1673ffffffffffffffffffffffffffffffffffffffff16815260200190815260200160002060009054906101000a900460ff16612bc8576040517f08c379a0000000000000000000000000000000000000000000000000000000008152600401612bbf9061520f565b60405180910390fd5b600160008373ffffffffffffffffffffffffffffffffffffffff1673ffffffffffffffffffffffffffffffffffffffff16815260200190815260200160002060009054906101000a900460ff16612c54576040517f08c379a0000000000000000000000000000000000000000000000000000000008152600401612c4b90615695565b60405180910390fd5b600560003373ffffffffffffffffffffffffffffffffffffffff1673ffffffffffffffffffffffffffffffffffffffff16815260200190815260200160002060008373ffffffffffffffffffffffffffffffffffffffff1673ffffffffffffffffffffffffffffffffffffffff168152602001908152602001600020805480602002602001604051908101604052809291908181526020016000905b82821015612e8557838290600052602060002090600502016040518060a00160405290816000820160009054906101000a900473ffffffffffffffffffffffffffffffffffffffff1673ffffffffffffffffffffffffffffffffffffffff1673ffffffffffffffffffffffffffffffffffffffff1681526020016001820160009054906101000a900473ffffffffffffffffffffffffffffffffffffffff1673ffffffffffffffffffffffffffffffffffffffff1673ffffffffffffffffffffffffffffffffffffffff168152602001600282018054612dcf9061558d565b80601f0160208091040260200160405190810160405280929190818152602001828054612dfb9061558d565b8015612e485780601f10612e1d57610100808354040283529160200191612e48565b820191906000526020600020905b815481529060010190602001808311612e2b57829003601f168201915b505050505081526020016003820160009054906101000a900460ff1615151515815260200160048201548152505081526020019060010190612cf0565b505050509050919050565b600160003373ffffffffffffffffffffffffffffffffffffffff1673ffffffffffffffffffffffffffffffffffffffff16815260200190815260200160002060009054906101000a900460ff16612f1c576040517f08c379a0000000000000000000000000000000000000000000000000000000008152600401612f139061520f565b60405180910390fd5b61010081511115612f62576040517f08c379a0000000000000000000000000000000000000000000000000000000008152600401612f5990615701565b60405180910390fd5b60008060003373ffffffffffffffffffffffffffffffffffffffff1673ffffffffffffffffffffffffffffffffffffffff168152602001908152602001600020905082816001019080519060200190612fbc929190613f58565b5081816003019080519060200190612fd5929190613f58565b503373ffffffffffffffffffffffffffffffffffffffff167f6eb3a1c6a4675ba92d44e090515b1ceea358f26565d2854df0c99c3f5eaf9850848460405161301e929190615721565b60405180910390a2505050565b600160003373ffffffffffffffffffffffffffffffffffffffff1673ffffffffffffffffffffffffffffffffffffffff16815260200190815260200160002060009054906101000a900460ff166130b7576040517f08c379a00000000000000000000000000000000000000000000000000000000081526004016130ae9061520f565b60405180910390fd5b600160008273ffffffffffffffffffffffffffffffffffffffff1673ffffffffffffffffffffffffffffffffffffffff16815260200190815260200160002060009054906101000a900460ff16613143576040517f08c379a000000000000000000000000000000000000000000000000000000000815260040161313a90615695565b60405180910390fd5b600360003373ffffffffffffffffffffffffffffffffffffffff1673ffffffffffffffffffffffffffffffffffffffff16815260200190815260200160002060008273ffffffffffffffffffffffffffffffffffffffff1673ffffffffffffffffffffffffffffffffffffffff16815260200190815260200160002060009054906101000a900460ff1615600360003373ffffffffffffffffffffffffffffffffffffffff1673ffffffffffffffffffffffffffffffffffffffff16815260200190815260200160002060008373ffffffffffffffffffffffffffffffffffffffff1673ffffffffffffffffffffffffffffffffffffffff16815260200190815260200160002060006101000a81548160ff02191690831515021790555050565b600160003373ffffffffffffffffffffffffffffffffffffffff1673ffffffffffffffffffffffffffffffffffffffff16815260200190815260200160002060009054906101000a900460ff166132f0576040517f08c379a00000000000000000000000000000000000000000000000000000000081526004016132e79061520f565b60405180910390fd5b600260008373ffffffffffffffffffffffffffffffffffffffff1673ffffffffffffffffffffffffffffffffffffffff168152602001908152602001600020805490508110613374576040517f08c379a000000000000000000000000000000000000000000000000000000000815260040161336b9061527b565b60405180910390fd5b600460008373ffffffffffffffffffffffffffffffffffffffff1673ffffffffffffffffffffffffffffffffffffffff168152602001908152602001600020600082815260200190815260200160002060003373ffffffffffffffffffffffffffffffffffffffff1673ffffffffffffffffffffffffffffffffffffffff16815260200190815260200160002060009054906101000a900460ff161561349157600260008373ffffffffffffffffffffffffffffffffffffffff1673ffffffffffffffffffffffffffffffffffffffff168152602001908152602001600020818154811061346557613464615307565b5b90600052602060002090600702016004016000815480929190613487906153d1565b919050555061350a565b600260008373ffffffffffffffffffffffffffffffffffffffff1673ffffffffffffffffffffffffffffffffffffffff16815260200190815260200160002081815481106134e2576134e1615307565b5b90600052602060002090600702016004016000815480929190613504906153fb565b91905055505b600460008373ffffffffffffffffffffffffffffffffffffffff1673ffffffffffffffffffffffffffffffffffffffff168152602001908152602001600020600082815260200190815260200160002060003373ffffffffffffffffffffffffffffffffffffffff1673ffffffffffffffffffffffffffffffffffffffff16815260200190815260200160002060009054906101000a900460ff1615600460008473ffffffffffffffffffffffffffffffffffffffff1673ffffffffffffffffffffffffffffffffffffffff168152602001908152602001600020600083815260200190815260200160002060003373ffffffffffffffffffffffffffffffffffffffff1673ffffffffffffffffffffffffffffffffffffffff16815260200190815260200160002060006101000a81548160ff0219169083151502179055505050565b600160003373ffffffffffffffffffffffffffffffffffffffff1673ffffffffffffffffffffffffffffffffffffffff16815260200190815260200160002060009054906101000a900460ff1680156136f05750600160008473ffffffffffffffffffffffffffffffffffffffff1673ffffffffffffffffffffffffffffffffffffffff16815260200190815260200160002060009054906101000a900460ff165b61372f576040517f08c379a0000000000000000000000000000000000000000000000000000000008152600401613726906157a4565b60405180910390fd5b60008282905011613775576040517f08c379a000000000000000000000000000000000000000000000000000000000815260040161376c90615810565b60405180910390fd5b60006040518060a001604052803373ffffffffffffffffffffffffffffffffffffffff1681526020018573ffffffffffffffffffffffffffffffffffffffff16815260200184848080601f016020809104026020016040519081016040528093929190818152602001838380828437600081840152601f19601f820116905080830192505050505050508152602001600015158152602001428152509050600560003373ffffffffffffffffffffffffffffffffffffffff1673ffffffffffffffffffffffffffffffffffffffff16815260200190815260200160002060008573ffffffffffffffffffffffffffffffffffffffff1673ffffffffffffffffffffffffffffffffffffffff16815260200190815260200160002081908060018154018082558091505060019003906000526020600020906005020160009091909190915060008201518160000160006101000a81548173ffffffffffffffffffffffffffffffffffffffff021916908373ffffffffffffffffffffffffffffffffffffffff16021790555060208201518160010160006101000a81548173ffffffffffffffffffffffffffffffffffffffff021916908373ffffffffffffffffffffffffffffffffffffffff1602179055506040820151816002019080519060200190613963929190613f58565b5060608201518160030160006101000a81548160ff021916908315150217905550608082015181600401555050600560008573ffffffffffffffffffffffffffffffffffffffff1673ffffffffffffffffffffffffffffffffffffffff16815260200190815260200160002060003373ffffffffffffffffffffffffffffffffffffffff1673ffffffffffffffffffffffffffffffffffffffff16815260200190815260200160002081908060018154018082558091505060019003906000526020600020906005020160009091909190915060008201518160000160006101000a81548173ffffffffffffffffffffffffffffffffffffffff021916908373ffffffffffffffffffffffffffffffffffffffff16021790555060208201518160010160006101000a81548173ffffffffffffffffffffffffffffffffffffffff021916908373ffffffffffffffffffffffffffffffffffffffff1602179055506040820151816002019080519060200190613ae0929190613f58565b5060608201518160030160006101000a81548160ff0219169083151502179055506080820151816004015550508373ffffffffffffffffffffffffffffffffffffffff163373ffffffffffffffffffffffffffffffffffffffff167fc0e964a89ae4af54eaf553b02f07849ce6ddc028e52aec665236032bdd33a5228585604051613b6c92919061585d565b60405180910390a350505050565b60606000600780549050905060008167ffffffffffffffff811115613ba257613ba1614341565b5b604051908082528060200260200182016040528015613bdb57816020015b613bc86141a0565b815260200190600190039081613bc05790505b50905060005b82811015613f455760008060078381548110613c0057613bff615307565b5b9060005260206000200160009054906101000a900473ffffffffffffffffffffffffffffffffffffffff1673ffffffffffffffffffffffffffffffffffffffff1673ffffffffffffffffffffffffffffffffffffffff1681526020019081526020016000206040518060c0016040529081600082018054613c809061558d565b80601f0160208091040260200160405190810160405280929190818152602001828054613cac9061558d565b8015613cf95780601f10613cce57610100808354040283529160200191613cf9565b820191906000526020600020905b815481529060010190602001808311613cdc57829003601f168201915b50505050508152602001600182018054613d129061558d565b80601f0160208091040260200160405190810160405280929190818152602001828054613d3e9061558d565b8015613d8b5780601f10613d6057610100808354040283529160200191613d8b565b820191906000526020600020905b815481529060010190602001808311613d6e57829003601f168201915b505050505081526020016002820160009054906101000a900473ffffffffffffffffffffffffffffffffffffffff1673ffffffffffffffffffffffffffffffffffffffff1673ffffffffffffffffffffffffffffffffffffffff168152602001600382018054613dfa9061558d565b80601f0160208091040260200160405190810160405280929190818152602001828054613e269061558d565b8015613e735780601f10613e4857610100808354040283529160200191613e73565b820191906000526020600020905b815481529060010190602001808311613e5657829003601f168201915b505050505081526020016004820154815260200160058201805480602002602001604051908101604052809291908181526020018280548015613f0b57602002820191906000526020600020905b8160009054906101000a900473ffffffffffffffffffffffffffffffffffffffff1673ffffffffffffffffffffffffffffffffffffffff1681526020019060010190808311613ec1575b505050505081525050828281518110613f2757613f26615307565b5b60200260200101819052508080613f3d906153fb565b915050613be1565b50809250505090565b6000600654905090565b828054613f649061558d565b90600052602060002090601f016020900481019282613f865760008555613fcd565b82601f10613f9f57805160ff1916838001178555613fcd565b82800160010185558215613fcd579182015b82811115613fcc578251825591602001919060010190613fb1565b5b509050613fda91906141ef565b5090565b508054613fea9061558d565b6000825580601f10613ffc575061401b565b601f01602090049060005260206000209081019061401a91906141ef565b5b50565b508054600082556002029060005260206000209081019061403f919061420c565b50565b5080546000825590600052602060002090810190614060919061425a565b50565b8280548282559060005260206000209081019282156140dc579160200282015b828111156140db5782518260006101000a81548173ffffffffffffffffffffffffffffffffffffffff021916908373ffffffffffffffffffffffffffffffffffffffff16021790555091602001919060010190614083565b5b5090506140e991906141ef565b5090565b6040518060e0016040528060008152602001600073ffffffffffffffffffffffffffffffffffffffff16815260200160608152602001600081526020016000815260200160608152602001606081525090565b82805482825590600052602060002090810192821561418f579160200282015b8281111561418e57825182908051906020019061417e929190613f58565b5091602001919060010190614160565b5b50905061419c919061425a565b5090565b6040518060c001604052806060815260200160608152602001600073ffffffffffffffffffffffffffffffffffffffff1681526020016060815260200160008019168152602001606081525090565b5b808211156142085760008160009055506001016141f0565b5090565b5b8082111561425657600080820160006142269190613fde565b6001820160006101000a81549073ffffffffffffffffffffffffffffffffffffffff02191690555060020161420d565b5090565b5b8082111561427a57600081816142719190613fde565b5060010161425b565b5090565b6000604051905090565b600080fd5b600080fd5b600073ffffffffffffffffffffffffffffffffffffffff82169050919050565b60006142bd82614292565b9050919050565b6142cd816142b2565b81146142d857600080fd5b50565b6000813590506142ea816142c4565b92915050565b6000819050919050565b614303816142f0565b811461430e57600080fd5b50565b600081359050614320816142fa565b92915050565b600080fd5b600080fd5b6000601f19601f8301169050919050565b7f4e487b7100000000000000000000000000000000000000000000000000000000600052604160045260246000fd5b61437982614330565b810181811067ffffffffffffffff8211171561439857614397614341565b5b80604052505050565b60006143ab61427e565b90506143b78282614370565b919050565b600067ffffffffffffffff8211156143d7576143d6614341565b5b6143e082614330565b9050602081019050919050565b82818337600083830152505050565b600061440f61440a846143bc565b6143a1565b90508281526020810184848401111561442b5761442a61432b565b5b6144368482856143ed565b509392505050565b600082601f83011261445357614452614326565b5b81356144638482602086016143fc565b91505092915050565b60008060006060848603121561448557614484614288565b5b6000614493868287016142db565b93505060206144a486828701614311565b925050604084013567ffffffffffffffff8111156144c5576144c461428d565b5b6144d18682870161443e565b9150509250925092565b6000602082840312156144f1576144f0614288565b5b60006144ff84828501614311565b91505092915050565b600081519050919050565b600082825260208201905092915050565b6000819050602082019050919050565b61453d816142b2565b82525050565b600061454f8383614534565b60208301905092915050565b6000602082019050919050565b600061457382614508565b61457d8185614513565b935061458883614524565b8060005b838110156145b95781516145a08882614543565b97506145ab8361455b565b92505060018101905061458c565b5085935050505092915050565b600060208201905081810360008301526145e08184614568565b905092915050565b600080604083850312156145ff576145fe614288565b5b600083013567ffffffffffffffff81111561461d5761461c61428d565b5b6146298582860161443e565b925050602083013567ffffffffffffffff81111561464a5761464961428d565b5b6146568582860161443e565b9150509250929050565b60006020828403121561467657614675614288565b5b6000614684848285016142db565b91505092915050565b600081519050919050565b600082825260208201905092915050565b6000819050602082019050919050565b6146c2816142f0565b82525050565b600081519050919050565b600082825260208201905092915050565b60005b838110156147025780820151818401526020810190506146e7565b83811115614711576000848401525b50505050565b6000614722826146c8565b61472c81856146d3565b935061473c8185602086016146e4565b61474581614330565b840191505092915050565b600081519050919050565b600082825260208201905092915050565b6000819050602082019050919050565b600060408301600083015184820360008601526147998282614717565b91505060208301516147ae6020860182614534565b508091505092915050565b60006147c5838361477c565b905092915050565b6000602082019050919050565b60006147e582614750565b6147ef818561475b565b9350836020820285016148018561476c565b8060005b8581101561483d578484038952815161481e85826147b9565b9450614829836147cd565b925060208a01995050600181019050614805565b50829750879550505050505092915050565b600081519050919050565b600082825260208201905092915050565b6000819050602082019050919050565b60006148878383614717565b905092915050565b6000602082019050919050565b60006148a78261484f565b6148b1818561485a565b9350836020820285016148c38561486b565b8060005b858110156148ff57848403895281516148e0858261487b565b94506148eb8361488f565b925060208a019950506001810190506148c7565b50829750879550505050505092915050565b600060e08301600083015161492960008601826146b9565b50602083015161493c6020860182614534565b50604083015184820360408601526149548282614717565b915050606083015161496960608601826146b9565b50608083015161497c60808601826146b9565b5060a083015184820360a086015261499482826147da565b91505060c083015184820360c08601526149ae828261489c565b9150508091505092915050565b60006149c78383614911565b905092915050565b6000602082019050919050565b60006149e78261468d565b6149f18185614698565b935083602082028501614a03856146a9565b8060005b85811015614a3f5784840389528151614a2085826149bb565b9450614a2b836149cf565b925060208a01995050600181019050614a07565b50829750879550505050505092915050565b60006020820190508181036000830152614a6b81846149dc565b905092915050565b600067ffffffffffffffff821115614a8e57614a8d614341565b5b602082029050602081019050919050565b600080fd5b6000614ab7614ab284614a73565b6143a1565b90508083825260208201905060208402830185811115614ada57614ad9614a9f565b5b835b81811015614b2157803567ffffffffffffffff811115614aff57614afe614326565b5b808601614b0c898261443e565b85526020850194505050602081019050614adc565b5050509392505050565b600082601f830112614b4057614b3f614326565b5b8135614b50848260208601614aa4565b91505092915050565b60008060408385031215614b7057614b6f614288565b5b600083013567ffffffffffffffff811115614b8e57614b8d61428d565b5b614b9a8582860161443e565b925050602083013567ffffffffffffffff811115614bbb57614bba61428d565b5b614bc785828601614b2b565b9150509250929050565b6000819050919050565b614be481614bd1565b82525050565b600082825260208201905092915050565b6000614c0682614508565b614c108185614bea565b9350614c1b83614524565b8060005b83811015614c4c578151614c338882614543565b9750614c3e8361455b565b925050600181019050614c1f565b5085935050505092915050565b600060c0830160008301518482036000860152614c768282614717565b91505060208301518482036020860152614c908282614717565b9150506040830151614ca56040860182614534565b5060608301518482036060860152614cbd8282614717565b9150506080830151614cd26080860182614bdb565b5060a083015184820360a0860152614cea8282614bfb565b9150508091505092915050565b60006020820190508181036000830152614d118184614c59565b905092915050565b614d22816142f0565b82525050565b6000602082019050614d3d6000830184614d19565b92915050565b600080600060608486031215614d5c57614d5b614288565b5b6000614d6a868287016142db565b9350506020614d7b86828701614311565b9250506040614d8c868287016142db565b9150509250925092565b60008115159050919050565b614dab81614d96565b82525050565b6000602082019050614dc66000830184614da2565b92915050565b600081519050919050565b600082825260208201905092915050565b6000819050602082019050919050565b614e0181614d96565b82525050565b600060a083016000830151614e1f6000860182614534565b506020830151614e326020860182614534565b5060408301518482036040860152614e4a8282614717565b9150506060830151614e5f6060860182614df8565b506080830151614e7260808601826146b9565b508091505092915050565b6000614e898383614e07565b905092915050565b6000602082019050919050565b6000614ea982614dcc565b614eb38185614dd7565b935083602082028501614ec585614de8565b8060005b85811015614f015784840389528151614ee28582614e7d565b9450614eed83614e91565b925060208a01995050600181019050614ec9565b50829750879550505050505092915050565b60006020820190508181036000830152614f2d8184614e9e565b905092915050565b60008060408385031215614f4c57614f4b614288565b5b6000614f5a858286016142db565b9250506020614f6b85828601614311565b9150509250929050565b600080fd5b60008083601f840112614f9057614f8f614326565b5b8235905067ffffffffffffffff811115614fad57614fac614f75565b5b602083019150836001820283011115614fc957614fc8614a9f565b5b9250929050565b600080600060408486031215614fe957614fe8614288565b5b6000614ff7868287016142db565b935050602084013567ffffffffffffffff8111156150185761501761428d565b5b61502486828701614f7a565b92509250509250925092565b600081519050919050565b600082825260208201905092915050565b6000819050602082019050919050565b600060c08301600083015184820360008601526150798282614717565b915050602083015184820360208601526150938282614717565b91505060408301516150a86040860182614534565b50606083015184820360608601526150c08282614717565b91505060808301516150d56080860182614bdb565b5060a083015184820360a08601526150ed8282614bfb565b9150508091505092915050565b6000615106838361505c565b905092915050565b6000602082019050919050565b600061512682615030565b615130818561503b565b9350836020820285016151428561504c565b8060005b8581101561517e578484038952815161515f85826150fa565b945061516a8361510e565b925060208a01995050600181019050615146565b50829750879550505050505092915050565b600060208201905081810360008301526151aa818461511b565b905092915050565b600082825260208201905092915050565b7f55736572206e6f74207265676973746572656400000000000000000000000000600082015250565b60006151f96013836151b2565b9150615204826151c3565b602082019050919050565b60006020820190508181036000830152615228816151ec565b9050919050565b7f496e76616c696420706f73742049440000000000000000000000000000000000600082015250565b6000615265600f836151b2565b91506152708261522f565b602082019050919050565b6000602082019050818103600083015261529481615258565b9050919050565b7f436f6d6d656e742063616e6e6f7420626520656d707479000000000000000000600082015250565b60006152d16017836151b2565b91506152dc8261529b565b602082019050919050565b60006020820190508181036000830152615300816152c4565b9050919050565b7f4e487b7100000000000000000000000000000000000000000000000000000000600052603260045260246000fd5b7f4e6f742074686520706f737420617574686f7200000000000000000000000000600082015250565b600061536c6013836151b2565b915061537782615336565b602082019050919050565b6000602082019050818103600083015261539b8161535f565b9050919050565b7f4e487b7100000000000000000000000000000000000000000000000000000000600052601160045260246000fd5b60006153dc826142f0565b915060008214156153f0576153ef6153a2565b5b600182039050919050565b6000615406826142f0565b91507fffffffffffffffffffffffffffffffffffffffffffffffffffffffffffffffff821415615439576154386153a2565b5b600182019050919050565b7f5573657220616c72656164792072656769737465726564000000000000000000600082015250565b600061547a6017836151b2565b915061548582615444565b602082019050919050565b600060208201905081810360008301526154a98161546d565b9050919050565b600081905092915050565b60006154c6826146c8565b6154d081856154b0565b93506154e08185602086016146e4565b80840191505092915050565b60006154f882846154bb565b915081905092915050565b600061550e826146c8565b61551881856151b2565b93506155288185602086016146e4565b61553181614330565b840191505092915050565b600060208201905081810360008301526155568184615503565b905092915050565b7f4e487b7100000000000000000000000000000000000000000000000000000000600052602260045260246000fd5b600060028204905060018216806155a557607f821691505b602082108114156155b9576155b861555e565b5b50919050565b60006155ca826142f0565b91506155d5836142f0565b9250827fffffffffffffffffffffffffffffffffffffffffffffffffffffffffffffffff0382111561560a576156096153a2565b5b828201905092915050565b6000615620826142f0565b915061562b836142f0565b92508282101561563e5761563d6153a2565b5b828203905092915050565b7f467269656e64206e6f7420726567697374657265640000000000000000000000600082015250565b600061567f6015836151b2565b915061568a82615649565b602082019050919050565b600060208201905081810360008301526156ae81615672565b9050919050565b7f42696f20697320746f6f206c6f6e670000000000000000000000000000000000600082015250565b60006156eb600f836151b2565b91506156f6826156b5565b602082019050919050565b6000602082019050818103600083015261571a816156de565b9050919050565b6000604082019050818103600083015261573b8185615503565b9050818103602083015261574f8184615503565b90509392505050565b7f426f7468207573657273206d7573742062652072656769737465726564000000600082015250565b600061578e601d836151b2565b915061579982615758565b602082019050919050565b600060208201905081810360008301526157bd81615781565b9050919050565b7f4d6573736167652063616e6e6f7420626520656d707479000000000000000000600082015250565b60006157fa6017836151b2565b9150615805826157c4565b602082019050919050565b60006020820190508181036000830152615829816157ed565b9050919050565b600061583c83856151b2565b93506158498385846143ed565b61585283614330565b840190509392505050565b60006020820190508181036000830152615878818486615830565b9050939250505056fe68747470733a2f2f7265732e636c6f7564696e6172792e636f6d2f646a306772766162632f696d6167652f75706c6f61642f76313732313033363231322f617661746172732f6462777479776d77656a337762746c3675617a732e706e67a264697066735822122064c72ccbbc8c941596e4070e8d327acfa9802f353d46e57013e40f17f17064f764736f6c63430008090033",
  "linkReferences": {},
  "deployedLinkReferences": {}
}