{
  "_format": "hh-sol-artifact-1",
  "contractName": "Dacebook",
  "sourceName": "contracts/Dacebook.sol",
  "abi": [
    {
      "anonymous": false,
      "inputs": [
        {
          "indexed": true,
          "internalType": "address",
          "name": "user",
          "type": "address"
        },
        {
          "indexed": true,
          "internalType": "address",
          "name": "friend",
          "type": "address"
        },
        {
          "indexed": false,
          "internalType": "bool",
          "name": "isNowFriend",
          "type": "bool"
        }
      ],
      "name": "FriendshipToggled",
      "type": "event"
    },
    {
      "anonymous": false,
      "inputs": [
        {
          "indexed": true,
          "internalType": "address",
          "name": "sender",
          "type": "address"
        },
        {
          "indexed": true,
          "internalType": "address",
          "name": "receiver",
          "type": "address"
        },
        {
          "indexed": false,
          "internalType": "string",
          "name": "content",
          "type": "string"
        }
      ],
      "name": "NewMessage",
      "type": "event"
    },
    {
      "anonymous": false,
      "inputs": [
        {
          "indexed": true,
          "internalType": "address",
          "name": "author",
          "type": "address"
        },
        {
          "indexed": false,
          "internalType": "uint256",
          "name": "postId",
          "type": "uint256"
        }
      ],
      "name": "NewPost",
      "type": "event"
    },
    {
      "anonymous": false,
      "inputs": [
        {
          "indexed": true,
          "internalType": "address",
          "name": "author",
          "type": "address"
        },
        {
          "indexed": false,
          "internalType": "uint256",
          "name": "postId",
          "type": "uint256"
        }
      ],
      "name": "PostDeleted",
      "type": "event"
    },
    {
      "anonymous": false,
      "inputs": [
        {
          "indexed": true,
          "internalType": "address",
          "name": "user",
          "type": "address"
        },
        {
          "indexed": false,
          "internalType": "uint256",
          "name": "postId",
          "type": "uint256"
        },
        {
          "indexed": false,
          "internalType": "bool",
          "name": "liked",
          "type": "bool"
        }
      ],
      "name": "PostLiked",
      "type": "event"
    },
    {
      "anonymous": false,
      "inputs": [
        {
          "indexed": true,
          "internalType": "address",
          "name": "userAddress",
          "type": "address"
        },
        {
          "indexed": false,
          "internalType": "string",
          "name": "profilePic",
          "type": "string"
        },
        {
          "indexed": false,
          "internalType": "string",
          "name": "bio",
          "type": "string"
        }
      ],
      "name": "ProfileUpdated",
      "type": "event"
    },
    {
      "anonymous": false,
      "inputs": [
        {
          "indexed": true,
          "internalType": "address",
          "name": "userAddress",
          "type": "address"
        },
        {
          "indexed": false,
          "internalType": "string",
          "name": "name",
          "type": "string"
        }
      ],
      "name": "UserRegistered",
      "type": "event"
    },
    {
      "inputs": [
        {
          "internalType": "address",
          "name": "_author",
          "type": "address"
        },
        {
          "internalType": "uint256",
          "name": "_postId",
          "type": "uint256"
        },
        {
          "internalType": "string",
          "name": "_comment",
          "type": "string"
        }
      ],
      "name": "commentOnPost",
      "outputs": [],
      "stateMutability": "nonpayable",
      "type": "function"
    },
    {
      "inputs": [
        {
          "internalType": "string",
          "name": "_content",
          "type": "string"
        },
        {
          "internalType": "string[]",
          "name": "_uploads",
          "type": "string[]"
        }
      ],
      "name": "createPost",
      "outputs": [],
      "stateMutability": "nonpayable",
      "type": "function"
    },
    {
      "inputs": [
        {
          "internalType": "address",
          "name": "msg_sender",
          "type": "address"
        }
      ],
      "name": "getAllUsers",
      "outputs": [
        {
          "components": [
            {
              "internalType": "string",
              "name": "name",
              "type": "string"
            },
            {
              "internalType": "string",
              "name": "profilePic",
              "type": "string"
            },
            {
              "internalType": "address",
              "name": "userAddress",
              "type": "address"
            },
            {
              "internalType": "string",
              "name": "bio",
              "type": "string"
            },
            {
              "internalType": "bytes32",
              "name": "passwordHash",
              "type": "bytes32"
            },
            {
              "internalType": "address[]",
              "name": "friends",
              "type": "address[]"
            }
          ],
          "internalType": "struct Dacebook.User[]",
          "name": "",
          "type": "tuple[]"
        }
      ],
      "stateMutability": "view",
      "type": "function"
    },
    {
      "inputs": [
        {
          "internalType": "address",
          "name": "msg_sender",
          "type": "address"
        },
        {
          "internalType": "address",
          "name": "_with",
          "type": "address"
        }
      ],
      "name": "getConversation",
      "outputs": [
        {
          "components": [
            {
              "internalType": "address",
              "name": "sender",
              "type": "address"
            },
            {
              "internalType": "string",
              "name": "content",
              "type": "string"
            },
            {
              "internalType": "bool",
              "name": "file",
              "type": "bool"
            },
            {
              "internalType": "uint256",
              "name": "timestamp",
              "type": "uint256"
            }
          ],
          "internalType": "struct Dacebook.Message[]",
          "name": "sentMessages",
          "type": "tuple[]"
        },
        {
          "components": [
            {
              "internalType": "address",
              "name": "sender",
              "type": "address"
            },
            {
              "internalType": "string",
              "name": "content",
              "type": "string"
            },
            {
              "internalType": "bool",
              "name": "file",
              "type": "bool"
            },
            {
              "internalType": "uint256",
              "name": "timestamp",
              "type": "uint256"
            }
          ],
          "internalType": "struct Dacebook.Message[]",
          "name": "receivedMessages",
          "type": "tuple[]"
        }
      ],
      "stateMutability": "view",
      "type": "function"
    },
    {
      "inputs": [
        {
          "internalType": "address",
          "name": "msg_sender",
          "type": "address"
        }
      ],
      "name": "getFriends",
      "outputs": [
        {
          "internalType": "address[]",
          "name": "",
          "type": "address[]"
        }
      ],
      "stateMutability": "view",
      "type": "function"
    },
    {
      "inputs": [
        {
          "internalType": "address",
          "name": "_user",
          "type": "address"
        }
      ],
      "name": "getPostCount",
      "outputs": [
        {
          "internalType": "uint256",
          "name": "",
          "type": "uint256"
        }
      ],
      "stateMutability": "view",
      "type": "function"
    },
    {
      "inputs": [
        {
          "internalType": "address",
          "name": "_user",
          "type": "address"
        }
      ],
      "name": "getPosts",
      "outputs": [
        {
          "components": [
            {
              "internalType": "uint256",
              "name": "id",
              "type": "uint256"
            },
            {
              "components": [
                {
                  "internalType": "string",
                  "name": "name",
                  "type": "string"
                },
                {
                  "internalType": "string",
                  "name": "profilePic",
                  "type": "string"
                },
                {
                  "internalType": "address",
                  "name": "userAddress",
                  "type": "address"
                },
                {
                  "internalType": "string",
                  "name": "bio",
                  "type": "string"
                },
                {
                  "internalType": "bytes32",
                  "name": "passwordHash",
                  "type": "bytes32"
                },
                {
                  "internalType": "address[]",
                  "name": "friends",
                  "type": "address[]"
                }
              ],
              "internalType": "struct Dacebook.User",
              "name": "author",
              "type": "tuple"
            },
            {
              "internalType": "string",
              "name": "content",
              "type": "string"
            },
            {
              "internalType": "uint256",
              "name": "timestamp",
              "type": "uint256"
            },
            {
              "internalType": "uint256",
              "name": "likes",
              "type": "uint256"
            },
            {
              "components": [
                {
                  "internalType": "string",
                  "name": "text",
                  "type": "string"
                },
                {
                  "internalType": "address",
                  "name": "userAddress",
                  "type": "address"
                }
              ],
              "internalType": "struct Dacebook.Comment[]",
              "name": "comments",
              "type": "tuple[]"
            },
            {
              "internalType": "string[]",
              "name": "uploads",
              "type": "string[]"
            }
          ],
          "internalType": "struct Dacebook.Post[]",
          "name": "",
          "type": "tuple[]"
        }
      ],
      "stateMutability": "view",
      "type": "function"
    },
    {
      "inputs": [],
      "name": "getTotalPostCount",
      "outputs": [
        {
          "internalType": "uint256",
          "name": "",
          "type": "uint256"
        }
      ],
      "stateMutability": "view",
      "type": "function"
    },
    {
      "inputs": [
        {
          "internalType": "address",
          "name": "_user",
          "type": "address"
        }
      ],
      "name": "getUserPosts",
      "outputs": [
        {
          "components": [
            {
              "internalType": "uint256",
              "name": "id",
              "type": "uint256"
            },
            {
              "components": [
                {
                  "internalType": "string",
                  "name": "name",
                  "type": "string"
                },
                {
                  "internalType": "string",
                  "name": "profilePic",
                  "type": "string"
                },
                {
                  "internalType": "address",
                  "name": "userAddress",
                  "type": "address"
                },
                {
                  "internalType": "string",
                  "name": "bio",
                  "type": "string"
                },
                {
                  "internalType": "bytes32",
                  "name": "passwordHash",
                  "type": "bytes32"
                },
                {
                  "internalType": "address[]",
                  "name": "friends",
                  "type": "address[]"
                }
              ],
              "internalType": "struct Dacebook.User",
              "name": "author",
              "type": "tuple"
            },
            {
              "internalType": "string",
              "name": "content",
              "type": "string"
            },
            {
              "internalType": "uint256",
              "name": "timestamp",
              "type": "uint256"
            },
            {
              "internalType": "uint256",
              "name": "likes",
              "type": "uint256"
            },
            {
              "components": [
                {
                  "internalType": "string",
                  "name": "text",
                  "type": "string"
                },
                {
                  "internalType": "address",
                  "name": "userAddress",
                  "type": "address"
                }
              ],
              "internalType": "struct Dacebook.Comment[]",
              "name": "comments",
              "type": "tuple[]"
            },
            {
              "internalType": "string[]",
              "name": "uploads",
              "type": "string[]"
            }
          ],
          "internalType": "struct Dacebook.Post[]",
          "name": "",
          "type": "tuple[]"
        }
      ],
      "stateMutability": "view",
      "type": "function"
    },
    {
      "inputs": [
        {
          "internalType": "address",
          "name": "_user",
          "type": "address"
        }
      ],
      "name": "getUserProfile",
      "outputs": [
        {
          "components": [
            {
              "internalType": "string",
              "name": "name",
              "type": "string"
            },
            {
              "internalType": "string",
              "name": "profilePic",
              "type": "string"
            },
            {
              "internalType": "address",
              "name": "userAddress",
              "type": "address"
            },
            {
              "internalType": "string",
              "name": "bio",
              "type": "string"
            },
            {
              "internalType": "bytes32",
              "name": "passwordHash",
              "type": "bytes32"
            },
            {
              "internalType": "address[]",
              "name": "friends",
              "type": "address[]"
            }
          ],
          "internalType": "struct Dacebook.User",
          "name": "",
          "type": "tuple"
        }
      ],
      "stateMutability": "view",
      "type": "function"
    },
    {
      "inputs": [
        {
          "internalType": "address",
          "name": "",
          "type": "address"
        },
        {
          "internalType": "uint256",
          "name": "",
          "type": "uint256"
        },
        {
          "internalType": "address",
          "name": "",
          "type": "address"
        }
      ],
      "name": "isLiked",
      "outputs": [
        {
          "internalType": "bool",
          "name": "",
          "type": "bool"
        }
      ],
      "stateMutability": "view",
      "type": "function"
    },
    {
      "inputs": [
        {
          "internalType": "string",
          "name": "_name",
          "type": "string"
        },
        {
          "internalType": "string",
          "name": "_password",
          "type": "string"
        }
      ],
      "name": "register",
      "outputs": [],
      "stateMutability": "nonpayable",
      "type": "function"
    },
    {
      "inputs": [
        {
          "internalType": "address",
          "name": "_to",
          "type": "address"
        },
        {
          "internalType": "string",
          "name": "_content",
          "type": "string"
        },
        {
          "internalType": "bool",
          "name": "_file",
          "type": "bool"
        }
      ],
      "name": "sendMessage",
      "outputs": [],
      "stateMutability": "nonpayable",
      "type": "function"
    },
    {
      "inputs": [
        {
          "internalType": "address",
          "name": "_friend",
          "type": "address"
        }
      ],
      "name": "toggleFriend",
      "outputs": [],
      "stateMutability": "nonpayable",
      "type": "function"
    },
    {
      "inputs": [
        {
          "internalType": "address",
          "name": "_author",
          "type": "address"
        },
        {
          "internalType": "uint256",
          "name": "_postId",
          "type": "uint256"
        }
      ],
      "name": "toggleLikeonPost",
      "outputs": [],
      "stateMutability": "nonpayable",
      "type": "function"
    },
    {
      "inputs": [
        {
          "internalType": "string",
          "name": "_profilePic",
          "type": "string"
        },
        {
          "internalType": "string",
          "name": "_bio",
          "type": "string"
        }
      ],
      "name": "updateProfile",
      "outputs": [],
      "stateMutability": "nonpayable",
      "type": "function"
    }
  ],
  "bytecode": "0x6080604052600060075534801561001557600080fd5b50615fdf80620000266000396000f3fe608060405234801561001057600080fd5b50600436106101005760003560e01c8063987ee15611610097578063c9d3cc6a11610066578063c9d3cc6a146102f6578063d9806cd514610312578063db2598f01461032e578063efbe84691461034a57610100565b8063987ee156146102365780639a2194a914610266578063a4c7fafa14610296578063b0ed7a7f146102c657610100565b80634674f060116100d35780634674f0601461019e5780634caf9d0b146101ba57806352374f7a146101ea5780635cbb7caa1461020657610100565b8063012d18b91461010557806314b419c914610121578063375eed27146101515780633ffbd47f14610182575b600080fd5b61011f600480360381019061011a9190614b46565b610368565b005b61013b60048036038101906101369190614bb5565b6105dd565b6040516101489190614ea1565b60405180910390f35b61016b60048036038101906101669190614ec3565b610a25565b604051610179929190615052565b60405180910390f35b61019c60048036038101906101979190615089565b610df7565b005b6101b860048036038101906101b3919061518d565b61116f565b005b6101d460048036038101906101cf9190614bb5565b6116d7565b6040516101e19190615535565b60405180910390f35b61020460048036038101906101ff9190615638565b612a36565b005b610220600480360381019061021b9190614bb5565b612d51565b60405161022d919061571f565b60405180910390f35b610250600480360381019061024b9190614bb5565b61308e565b60405161025d91906157df565b60405180910390f35b610280600480360381019061027b9190614bb5565b613416565b60405161028d9190615535565b60405180910390f35b6102b060048036038101906102ab9190614bb5565b613ac8565b6040516102bd9190615810565b60405180910390f35b6102e060048036038101906102db919061582b565b613ba0565b6040516102ed919061588d565b60405180910390f35b610310600480360381019061030b9190615089565b613bdc565b005b61032c60048036038101906103279190614bb5565b613e1a565b005b610348600480360381019061034391906158a8565b614053565b005b61035261443d565b60405161035f9190615810565b60405180910390f35b600160003373ffffffffffffffffffffffffffffffffffffffff1673ffffffffffffffffffffffffffffffffffffffff16815260200190815260200160002060009054906101000a900460ff166103f4576040517f08c379a00000000000000000000000000000000000000000000000000000000081526004016103eb90615945565b60405180910390fd5b600360008473ffffffffffffffffffffffffffffffffffffffff1673ffffffffffffffffffffffffffffffffffffffff168152602001908152602001600020805490508210610478576040517f08c379a000000000000000000000000000000000000000000000000000000000815260040161046f906159b1565b60405180910390fd5b60008151116104bc576040517f08c379a00000000000000000000000000000000000000000000000000000000081526004016104b390615a1d565b60405180910390fd5b600360008473ffffffffffffffffffffffffffffffffffffffff1673ffffffffffffffffffffffffffffffffffffffff168152602001908152602001600020828154811061050d5761050c615a3d565b5b90600052602060002090600c0201600a0160405180604001604052808381526020013373ffffffffffffffffffffffffffffffffffffffff168152509080600181540180825580915050600190039060005260206000209060020201600090919091909150600082015181600001908051906020019061058e9291906145f6565b5060208201518160010160006101000a81548173ffffffffffffffffffffffffffffffffffffffff021916908373ffffffffffffffffffffffffffffffffffffffff1602179055505050505050565b60606000600880549050905060008167ffffffffffffffff81111561060557610604614a1b565b5b60405190808252806020026020018201604052801561063e57816020015b61062b61467c565b8152602001906001900390816106235790505b50905060005b82811015610a1a578473ffffffffffffffffffffffffffffffffffffffff166008828154811061067757610676615a3d565b5b9060005260206000200160009054906101000a900473ffffffffffffffffffffffffffffffffffffffff1673ffffffffffffffffffffffffffffffffffffffff1614610a0757600080600883815481106106d4576106d3615a3d565b5b9060005260206000200160009054906101000a900473ffffffffffffffffffffffffffffffffffffffff1673ffffffffffffffffffffffffffffffffffffffff1673ffffffffffffffffffffffffffffffffffffffff1681526020019081526020016000206040518060c001604052908160008201805461075490615a9b565b80601f016020809104026020016040519081016040528092919081815260200182805461078090615a9b565b80156107cd5780601f106107a2576101008083540402835291602001916107cd565b820191906000526020600020905b8154815290600101906020018083116107b057829003601f168201915b505050505081526020016001820180546107e690615a9b565b80601f016020809104026020016040519081016040528092919081815260200182805461081290615a9b565b801561085f5780601f106108345761010080835404028352916020019161085f565b820191906000526020600020905b81548152906001019060200180831161084257829003601f168201915b505050505081526020016002820160009054906101000a900473ffffffffffffffffffffffffffffffffffffffff1673ffffffffffffffffffffffffffffffffffffffff1673ffffffffffffffffffffffffffffffffffffffff1681526020016003820180546108ce90615a9b565b80601f01602080910402602001604051908101604052809291908181526020018280546108fa90615a9b565b80156109475780601f1061091c57610100808354040283529160200191610947565b820191906000526020600020905b81548152906001019060200180831161092a57829003601f168201915b5050505050815260200160048201548152602001600582018054806020026020016040519081016040528092919081815260200182805480156109df57602002820191906000526020600020905b8160009054906101000a900473ffffffffffffffffffffffffffffffffffffffff1673ffffffffffffffffffffffffffffffffffffffff1681526020019060010190808311610995575b5050505050815250508282815181106109fb576109fa615a3d565b5b60200260200101819052505b8080610a1290615afc565b915050610644565b508092505050919050565b606080600260008573ffffffffffffffffffffffffffffffffffffffff1673ffffffffffffffffffffffffffffffffffffffff16815260200190815260200160002060008473ffffffffffffffffffffffffffffffffffffffff1673ffffffffffffffffffffffffffffffffffffffff168152602001908152602001600020600201805480602002602001604051908101604052809291908181526020016000905b82821015610c0657838290600052602060002090600402016040518060800160405290816000820160009054906101000a900473ffffffffffffffffffffffffffffffffffffffff1673ffffffffffffffffffffffffffffffffffffffff1673ffffffffffffffffffffffffffffffffffffffff168152602001600182018054610b5090615a9b565b80601f0160208091040260200160405190810160405280929190818152602001828054610b7c90615a9b565b8015610bc95780601f10610b9e57610100808354040283529160200191610bc9565b820191906000526020600020905b815481529060010190602001808311610bac57829003601f168201915b505050505081526020016002820160009054906101000a900460ff1615151515815260200160038201548152505081526020019060010190610ac7565b505050509150600260008473ffffffffffffffffffffffffffffffffffffffff1673ffffffffffffffffffffffffffffffffffffffff16815260200190815260200160002060008573ffffffffffffffffffffffffffffffffffffffff1673ffffffffffffffffffffffffffffffffffffffff168152602001908152602001600020600201805480602002602001604051908101604052809291908181526020016000905b82821015610dea57838290600052602060002090600402016040518060800160405290816000820160009054906101000a900473ffffffffffffffffffffffffffffffffffffffff1673ffffffffffffffffffffffffffffffffffffffff1673ffffffffffffffffffffffffffffffffffffffff168152602001600182018054610d3490615a9b565b80601f0160208091040260200160405190810160405280929190818152602001828054610d6090615a9b565b8015610dad5780601f10610d8257610100808354040283529160200191610dad565b820191906000526020600020905b815481529060010190602001808311610d9057829003601f168201915b505050505081526020016002820160009054906101000a900460ff1615151515815260200160038201548152505081526020019060010190610cab565b5050505090509250929050565b600160003373ffffffffffffffffffffffffffffffffffffffff1673ffffffffffffffffffffffffffffffffffffffff16815260200190815260200160002060009054906101000a900460ff1615610e84576040517f08c379a0000000000000000000000000000000000000000000000000000000008152600401610e7b90615b91565b60405180910390fd5b6040518060c001604052808381526020016040518060800160405280605e8152602001615f4c605e913981526020013373ffffffffffffffffffffffffffffffffffffffff16815260200160405180602001604052806000815250815260200182604051602001610ef59190615bed565b604051602081830303815290604052805190602001208152602001600067ffffffffffffffff811115610f2b57610f2a614a1b565b5b604051908082528060200260200182016040528015610f595781602001602082028036833780820191505090505b508152506000803373ffffffffffffffffffffffffffffffffffffffff1673ffffffffffffffffffffffffffffffffffffffff1681526020019081526020016000206000820151816000019080519060200190610fb79291906145f6565b506020820151816001019080519060200190610fd49291906145f6565b5060408201518160020160006101000a81548173ffffffffffffffffffffffffffffffffffffffff021916908373ffffffffffffffffffffffffffffffffffffffff16021790555060608201518160030190805190602001906110389291906145f6565b506080820151816004015560a082015181600501908051906020019061105f9291906146cb565b5090505060018060003373ffffffffffffffffffffffffffffffffffffffff1673ffffffffffffffffffffffffffffffffffffffff16815260200190815260200160002060006101000a81548160ff0219169083151502179055506008339080600181540180825580915050600190039060005260206000200160009091909190916101000a81548173ffffffffffffffffffffffffffffffffffffffff021916908373ffffffffffffffffffffffffffffffffffffffff1602179055503373ffffffffffffffffffffffffffffffffffffffff167f48cac28ad4dc618e15f4c2dd5e97751182f166de97b25618318b2112aa951a2f836040516111639190615c3d565b60405180910390a25050565b600160008573ffffffffffffffffffffffffffffffffffffffff1673ffffffffffffffffffffffffffffffffffffffff16815260200190815260200160002060009054906101000a900460ff166111fb576040517f08c379a00000000000000000000000000000000000000000000000000000000081526004016111f290615cab565b60405180910390fd5b60008383905011611241576040517f08c379a000000000000000000000000000000000000000000000000000000000815260040161123890615d17565b60405180910390fd5b600060405180608001604052803373ffffffffffffffffffffffffffffffffffffffff16815260200185858080601f016020809104026020016040519081016040528093929190818152602001838380828437600081840152601f19601f82011690508083019250505050505050815260200183151581526020014281525090506001600460003373ffffffffffffffffffffffffffffffffffffffff1673ffffffffffffffffffffffffffffffffffffffff16815260200190815260200160002060008773ffffffffffffffffffffffffffffffffffffffff1673ffffffffffffffffffffffffffffffffffffffff16815260200190815260200160002060006101000a81548160ff0219169083151502179055506001600460008773ffffffffffffffffffffffffffffffffffffffff1673ffffffffffffffffffffffffffffffffffffffff16815260200190815260200160002060003373ffffffffffffffffffffffffffffffffffffffff1673ffffffffffffffffffffffffffffffffffffffff16815260200190815260200160002060006101000a81548160ff0219169083151502179055506000803373ffffffffffffffffffffffffffffffffffffffff1673ffffffffffffffffffffffffffffffffffffffff168152602001908152602001600020600501859080600181540180825580915050600190039060005260206000200160009091909190916101000a81548173ffffffffffffffffffffffffffffffffffffffff021916908373ffffffffffffffffffffffffffffffffffffffff1602179055506000808673ffffffffffffffffffffffffffffffffffffffff1673ffffffffffffffffffffffffffffffffffffffff168152602001908152602001600020600501339080600181540180825580915050600190039060005260206000200160009091909190916101000a81548173ffffffffffffffffffffffffffffffffffffffff021916908373ffffffffffffffffffffffffffffffffffffffff160217905550600260003373ffffffffffffffffffffffffffffffffffffffff1673ffffffffffffffffffffffffffffffffffffffff16815260200190815260200160002060008673ffffffffffffffffffffffffffffffffffffffff1673ffffffffffffffffffffffffffffffffffffffff16815260200190815260200160002060020181908060018154018082558091505060019003906000526020600020906004020160009091909190915060008201518160000160006101000a81548173ffffffffffffffffffffffffffffffffffffffff021916908373ffffffffffffffffffffffffffffffffffffffff160217905550602082015181600101908051906020019061163c9291906145f6565b5060408201518160020160006101000a81548160ff0219169083151502179055506060820151816003015550508473ffffffffffffffffffffffffffffffffffffffff163373ffffffffffffffffffffffffffffffffffffffff167fc0e964a89ae4af54eaf553b02f07849ce6ddc028e52aec665236032bdd33a52286866040516116c8929190615d64565b60405180910390a35050505050565b6060600160008373ffffffffffffffffffffffffffffffffffffffff1673ffffffffffffffffffffffffffffffffffffffff16815260200190815260200160002060009054906101000a900460ff16611765576040517f08c379a000000000000000000000000000000000000000000000000000000000815260040161175c90615945565b60405180910390fd5b60008060008473ffffffffffffffffffffffffffffffffffffffff1673ffffffffffffffffffffffffffffffffffffffff1681526020019081526020016000206040518060c00160405290816000820180546117c090615a9b565b80601f01602080910402602001604051908101604052809291908181526020018280546117ec90615a9b565b80156118395780601f1061180e57610100808354040283529160200191611839565b820191906000526020600020905b81548152906001019060200180831161181c57829003601f168201915b5050505050815260200160018201805461185290615a9b565b80601f016020809104026020016040519081016040528092919081815260200182805461187e90615a9b565b80156118cb5780601f106118a0576101008083540402835291602001916118cb565b820191906000526020600020905b8154815290600101906020018083116118ae57829003601f168201915b505050505081526020016002820160009054906101000a900473ffffffffffffffffffffffffffffffffffffffff1673ffffffffffffffffffffffffffffffffffffffff1673ffffffffffffffffffffffffffffffffffffffff16815260200160038201805461193a90615a9b565b80601f016020809104026020016040519081016040528092919081815260200182805461196690615a9b565b80156119b35780601f10611988576101008083540402835291602001916119b3565b820191906000526020600020905b81548152906001019060200180831161199657829003601f168201915b505050505081526020016004820154815260200160058201805480602002602001604051908101604052809291908181526020018280548015611a4b57602002820191906000526020600020905b8160009054906101000a900473ffffffffffffffffffffffffffffffffffffffff1673ffffffffffffffffffffffffffffffffffffffff1681526020019060010190808311611a01575b50505050508152505090506000600360008573ffffffffffffffffffffffffffffffffffffffff1673ffffffffffffffffffffffffffffffffffffffff16815260200190815260200160002080549050905060005b8260a0015151811015611bdc57600460008673ffffffffffffffffffffffffffffffffffffffff1673ffffffffffffffffffffffffffffffffffffffff16815260200190815260200160002060008460a001518381518110611b0557611b04615a3d565b5b602002602001015173ffffffffffffffffffffffffffffffffffffffff1673ffffffffffffffffffffffffffffffffffffffff16815260200190815260200160002060009054906101000a900460ff1615611bc957600360008460a001518381518110611b7557611b74615a3d565b5b602002602001015173ffffffffffffffffffffffffffffffffffffffff1673ffffffffffffffffffffffffffffffffffffffff1681526020019081526020016000208054905082611bc69190615d88565b91505b8080611bd490615afc565b915050611aa0565b5060008167ffffffffffffffff811115611bf957611bf8614a1b565b5b604051908082528060200260200182016040528015611c3257816020015b611c1f614755565b815260200190600190039081611c175790505b5090506000805b600360008873ffffffffffffffffffffffffffffffffffffffff1673ffffffffffffffffffffffffffffffffffffffff168152602001908152602001600020805490508110156122b257600360008873ffffffffffffffffffffffffffffffffffffffff1673ffffffffffffffffffffffffffffffffffffffff1681526020019081526020016000208181548110611cd457611cd3615a3d565b5b90600052602060002090600c02016040518060e001604052908160008201548152602001600182016040518060c0016040529081600082018054611d1790615a9b565b80601f0160208091040260200160405190810160405280929190818152602001828054611d4390615a9b565b8015611d905780601f10611d6557610100808354040283529160200191611d90565b820191906000526020600020905b815481529060010190602001808311611d7357829003601f168201915b50505050508152602001600182018054611da990615a9b565b80601f0160208091040260200160405190810160405280929190818152602001828054611dd590615a9b565b8015611e225780601f10611df757610100808354040283529160200191611e22565b820191906000526020600020905b815481529060010190602001808311611e0557829003601f168201915b505050505081526020016002820160009054906101000a900473ffffffffffffffffffffffffffffffffffffffff1673ffffffffffffffffffffffffffffffffffffffff1673ffffffffffffffffffffffffffffffffffffffff168152602001600382018054611e9190615a9b565b80601f0160208091040260200160405190810160405280929190818152602001828054611ebd90615a9b565b8015611f0a5780601f10611edf57610100808354040283529160200191611f0a565b820191906000526020600020905b815481529060010190602001808311611eed57829003601f168201915b505050505081526020016004820154815260200160058201805480602002602001604051908101604052809291908181526020018280548015611fa257602002820191906000526020600020905b8160009054906101000a900473ffffffffffffffffffffffffffffffffffffffff1673ffffffffffffffffffffffffffffffffffffffff1681526020019060010190808311611f58575b5050505050815250508152602001600782018054611fbf90615a9b565b80601f0160208091040260200160405190810160405280929190818152602001828054611feb90615a9b565b80156120385780601f1061200d57610100808354040283529160200191612038565b820191906000526020600020905b81548152906001019060200180831161201b57829003601f168201915b505050505081526020016008820154815260200160098201548152602001600a8201805480602002602001604051908101604052809291908181526020016000905b8282101561219457838290600052602060002090600202016040518060400160405290816000820180546120ad90615a9b565b80601f01602080910402602001604051908101604052809291908181526020018280546120d990615a9b565b80156121265780601f106120fb57610100808354040283529160200191612126565b820191906000526020600020905b81548152906001019060200180831161210957829003601f168201915b505050505081526020016001820160009054906101000a900473ffffffffffffffffffffffffffffffffffffffff1673ffffffffffffffffffffffffffffffffffffffff1673ffffffffffffffffffffffffffffffffffffffff16815250508152602001906001019061207a565b505050508152602001600b8201805480602002602001604051908101604052809291908181526020016000905b8282101561226d5783829060005260206000200180546121e090615a9b565b80601f016020809104026020016040519081016040528092919081815260200182805461220c90615a9b565b80156122595780601f1061222e57610100808354040283529160200191612259565b820191906000526020600020905b81548152906001019060200180831161223c57829003601f168201915b5050505050815260200190600101906121c1565b505050508152505083838061228190615afc565b94508151811061229457612293615a3d565b5b602002602001018190525080806122aa90615afc565b915050611c39565b5060005b8460a0015151811015612a115760008560a0015182815181106122dc576122db615a3d565b5b60200260200101519050600460008973ffffffffffffffffffffffffffffffffffffffff1673ffffffffffffffffffffffffffffffffffffffff16815260200190815260200160002060008273ffffffffffffffffffffffffffffffffffffffff1673ffffffffffffffffffffffffffffffffffffffff16815260200190815260200160002060009054906101000a900460ff16156129fd576000600360008373ffffffffffffffffffffffffffffffffffffffff1673ffffffffffffffffffffffffffffffffffffffff168152602001908152602001600020805480602002602001604051908101604052809291908181526020016000905b8282101561299057838290600052602060002090600c02016040518060e001604052908160008201548152602001600182016040518060c001604052908160008201805461242390615a9b565b80601f016020809104026020016040519081016040528092919081815260200182805461244f90615a9b565b801561249c5780601f106124715761010080835404028352916020019161249c565b820191906000526020600020905b81548152906001019060200180831161247f57829003601f168201915b505050505081526020016001820180546124b590615a9b565b80601f01602080910402602001604051908101604052809291908181526020018280546124e190615a9b565b801561252e5780601f106125035761010080835404028352916020019161252e565b820191906000526020600020905b81548152906001019060200180831161251157829003601f168201915b505050505081526020016002820160009054906101000a900473ffffffffffffffffffffffffffffffffffffffff1673ffffffffffffffffffffffffffffffffffffffff1673ffffffffffffffffffffffffffffffffffffffff16815260200160038201805461259d90615a9b565b80601f01602080910402602001604051908101604052809291908181526020018280546125c990615a9b565b80156126165780601f106125eb57610100808354040283529160200191612616565b820191906000526020600020905b8154815290600101906020018083116125f957829003601f168201915b5050505050815260200160048201548152602001600582018054806020026020016040519081016040528092919081815260200182805480156126ae57602002820191906000526020600020905b8160009054906101000a900473ffffffffffffffffffffffffffffffffffffffff1673ffffffffffffffffffffffffffffffffffffffff1681526020019060010190808311612664575b50505050508152505081526020016007820180546126cb90615a9b565b80601f01602080910402602001604051908101604052809291908181526020018280546126f790615a9b565b80156127445780601f1061271957610100808354040283529160200191612744565b820191906000526020600020905b81548152906001019060200180831161272757829003601f168201915b505050505081526020016008820154815260200160098201548152602001600a8201805480602002602001604051908101604052809291908181526020016000905b828210156128a057838290600052602060002090600202016040518060400160405290816000820180546127b990615a9b565b80601f01602080910402602001604051908101604052809291908181526020018280546127e590615a9b565b80156128325780601f1061280757610100808354040283529160200191612832565b820191906000526020600020905b81548152906001019060200180831161281557829003601f168201915b505050505081526020016001820160009054906101000a900473ffffffffffffffffffffffffffffffffffffffff1673ffffffffffffffffffffffffffffffffffffffff1673ffffffffffffffffffffffffffffffffffffffff168152505081526020019060010190612786565b505050508152602001600b8201805480602002602001604051908101604052809291908181526020016000905b828210156129795783829060005260206000200180546128ec90615a9b565b80601f016020809104026020016040519081016040528092919081815260200182805461291890615a9b565b80156129655780601f1061293a57610100808354040283529160200191612965565b820191906000526020600020905b81548152906001019060200180831161294857829003601f168201915b5050505050815260200190600101906128cd565b5050505081525050815260200190600101906123d6565b50505050905060005b81518110156129fa578181815181106129b5576129b4615a3d565b5b60200260200101518686806129c990615afc565b9750815181106129dc576129db615a3d565b5b602002602001018190525080806129f290615afc565b915050612999565b50505b508080612a0990615afc565b9150506122b6565b50612a2a826000600186612a259190615dde565b614447565b81945050505050919050565b600160003373ffffffffffffffffffffffffffffffffffffffff1673ffffffffffffffffffffffffffffffffffffffff16815260200190815260200160002060009054906101000a900460ff16612ac2576040517f08c379a0000000000000000000000000000000000000000000000000000000008152600401612ab990615945565b60405180910390fd5b6000600360003373ffffffffffffffffffffffffffffffffffffffff1673ffffffffffffffffffffffffffffffffffffffff1681526020019081526020016000208054905090506000600360003373ffffffffffffffffffffffffffffffffffffffff1673ffffffffffffffffffffffffffffffffffffffff1681526020019081526020016000206001816001815401808255809150500390600052602060002090600c020190508181600001819055506000803373ffffffffffffffffffffffffffffffffffffffff1673ffffffffffffffffffffffffffffffffffffffff168152602001908152602001600020816001016000820181600001908054612bc990615a9b565b612bd4929190614798565b506001820181600101908054612be990615a9b565b612bf4929190614798565b506002820160009054906101000a900473ffffffffffffffffffffffffffffffffffffffff168160020160006101000a81548173ffffffffffffffffffffffffffffffffffffffff021916908373ffffffffffffffffffffffffffffffffffffffff1602179055506003820181600301908054612c7090615a9b565b612c7b929190614798565b50600482015481600401556005820181600501908054612c9c929190614825565b5090505083816007019080519060200190612cb89291906145f6565b50428160080181905550600081600901819055508281600b019080519060200190612ce4929190614877565b5060076000815480929190612cf890615afc565b91905055503373ffffffffffffffffffffffffffffffffffffffff167f227d44868fd91794465aa9733e53308aaf7503a80920f790d5060691fe03a3e783604051612d439190615810565b60405180910390a250505050565b606060008060008473ffffffffffffffffffffffffffffffffffffffff1673ffffffffffffffffffffffffffffffffffffffff168152602001908152602001600020600501805480602002602001604051908101604052809291908181526020018280548015612e1657602002820191906000526020600020905b8160009054906101000a900473ffffffffffffffffffffffffffffffffffffffff1673ffffffffffffffffffffffffffffffffffffffff1681526020019060010190808311612dcc575b505050505090506000805b8251811015612ef557600460008673ffffffffffffffffffffffffffffffffffffffff1673ffffffffffffffffffffffffffffffffffffffff1681526020019081526020016000206000848381518110612e7e57612e7d615a3d565b5b602002602001015173ffffffffffffffffffffffffffffffffffffffff1673ffffffffffffffffffffffffffffffffffffffff16815260200190815260200160002060009054906101000a900460ff1615612ee2578180612ede90615afc565b9250505b8080612eed90615afc565b915050612e21565b5060008167ffffffffffffffff811115612f1257612f11614a1b565b5b604051908082528060200260200182016040528015612f405781602001602082028036833780820191505090505b5090506000805b845181101561308157600460008873ffffffffffffffffffffffffffffffffffffffff1673ffffffffffffffffffffffffffffffffffffffff1681526020019081526020016000206000868381518110612fa457612fa3615a3d565b5b602002602001015173ffffffffffffffffffffffffffffffffffffffff1673ffffffffffffffffffffffffffffffffffffffff16815260200190815260200160002060009054906101000a900460ff161561306e5784818151811061300c5761300b615a3d565b5b602002602001015183838061302090615afc565b94508151811061303357613032615a3d565b5b602002602001019073ffffffffffffffffffffffffffffffffffffffff16908173ffffffffffffffffffffffffffffffffffffffff16815250505b808061307990615afc565b915050612f47565b5081945050505050919050565b61309661467c565b600160008373ffffffffffffffffffffffffffffffffffffffff1673ffffffffffffffffffffffffffffffffffffffff16815260200190815260200160002060009054906101000a900460ff16613122576040517f08c379a000000000000000000000000000000000000000000000000000000000815260040161311990615945565b60405180910390fd5b6000808373ffffffffffffffffffffffffffffffffffffffff1673ffffffffffffffffffffffffffffffffffffffff1681526020019081526020016000206040518060c001604052908160008201805461317b90615a9b565b80601f01602080910402602001604051908101604052809291908181526020018280546131a790615a9b565b80156131f45780601f106131c9576101008083540402835291602001916131f4565b820191906000526020600020905b8154815290600101906020018083116131d757829003601f168201915b5050505050815260200160018201805461320d90615a9b565b80601f016020809104026020016040519081016040528092919081815260200182805461323990615a9b565b80156132865780601f1061325b57610100808354040283529160200191613286565b820191906000526020600020905b81548152906001019060200180831161326957829003601f168201915b505050505081526020016002820160009054906101000a900473ffffffffffffffffffffffffffffffffffffffff1673ffffffffffffffffffffffffffffffffffffffff1673ffffffffffffffffffffffffffffffffffffffff1681526020016003820180546132f590615a9b565b80601f016020809104026020016040519081016040528092919081815260200182805461332190615a9b565b801561336e5780601f106133435761010080835404028352916020019161336e565b820191906000526020600020905b81548152906001019060200180831161335157829003601f168201915b50505050508152602001600482015481526020016005820180548060200260200160405190810160405280929190818152602001828054801561340657602002820191906000526020600020905b8160009054906101000a900473ffffffffffffffffffffffffffffffffffffffff1673ffffffffffffffffffffffffffffffffffffffff16815260200190600101908083116133bc575b5050505050815250509050919050565b6060600160008373ffffffffffffffffffffffffffffffffffffffff1673ffffffffffffffffffffffffffffffffffffffff16815260200190815260200160002060009054906101000a900460ff166134a4576040517f08c379a000000000000000000000000000000000000000000000000000000000815260040161349b90615945565b60405180910390fd5b600360008373ffffffffffffffffffffffffffffffffffffffff1673ffffffffffffffffffffffffffffffffffffffff168152602001908152602001600020805480602002602001604051908101604052809291908181526020016000905b82821015613abd57838290600052602060002090600c02016040518060e001604052908160008201548152602001600182016040518060c001604052908160008201805461355090615a9b565b80601f016020809104026020016040519081016040528092919081815260200182805461357c90615a9b565b80156135c95780601f1061359e576101008083540402835291602001916135c9565b820191906000526020600020905b8154815290600101906020018083116135ac57829003601f168201915b505050505081526020016001820180546135e290615a9b565b80601f016020809104026020016040519081016040528092919081815260200182805461360e90615a9b565b801561365b5780601f106136305761010080835404028352916020019161365b565b820191906000526020600020905b81548152906001019060200180831161363e57829003601f168201915b505050505081526020016002820160009054906101000a900473ffffffffffffffffffffffffffffffffffffffff1673ffffffffffffffffffffffffffffffffffffffff1673ffffffffffffffffffffffffffffffffffffffff1681526020016003820180546136ca90615a9b565b80601f01602080910402602001604051908101604052809291908181526020018280546136f690615a9b565b80156137435780601f1061371857610100808354040283529160200191613743565b820191906000526020600020905b81548152906001019060200180831161372657829003601f168201915b5050505050815260200160048201548152602001600582018054806020026020016040519081016040528092919081815260200182805480156137db57602002820191906000526020600020905b8160009054906101000a900473ffffffffffffffffffffffffffffffffffffffff1673ffffffffffffffffffffffffffffffffffffffff1681526020019060010190808311613791575b50505050508152505081526020016007820180546137f890615a9b565b80601f016020809104026020016040519081016040528092919081815260200182805461382490615a9b565b80156138715780601f1061384657610100808354040283529160200191613871565b820191906000526020600020905b81548152906001019060200180831161385457829003601f168201915b505050505081526020016008820154815260200160098201548152602001600a8201805480602002602001604051908101604052809291908181526020016000905b828210156139cd57838290600052602060002090600202016040518060400160405290816000820180546138e690615a9b565b80601f016020809104026020016040519081016040528092919081815260200182805461391290615a9b565b801561395f5780601f106139345761010080835404028352916020019161395f565b820191906000526020600020905b81548152906001019060200180831161394257829003601f168201915b505050505081526020016001820160009054906101000a900473ffffffffffffffffffffffffffffffffffffffff1673ffffffffffffffffffffffffffffffffffffffff1673ffffffffffffffffffffffffffffffffffffffff1681525050815260200190600101906138b3565b505050508152602001600b8201805480602002602001604051908101604052809291908181526020016000905b82821015613aa6578382906000526020600020018054613a1990615a9b565b80601f0160208091040260200160405190810160405280929190818152602001828054613a4590615a9b565b8015613a925780601f10613a6757610100808354040283529160200191613a92565b820191906000526020600020905b815481529060010190602001808311613a7557829003601f168201915b5050505050815260200190600101906139fa565b505050508152505081526020019060010190613503565b505050509050919050565b6000600160008373ffffffffffffffffffffffffffffffffffffffff1673ffffffffffffffffffffffffffffffffffffffff16815260200190815260200160002060009054906101000a900460ff16613b56576040517f08c379a0000000000000000000000000000000000000000000000000000000008152600401613b4d90615945565b60405180910390fd5b600360008373ffffffffffffffffffffffffffffffffffffffff1673ffffffffffffffffffffffffffffffffffffffff168152602001908152602001600020805490509050919050565b6005602052826000526040600020602052816000526040600020602052806000526040600020600092509250509054906101000a900460ff1681565b600160003373ffffffffffffffffffffffffffffffffffffffff1673ffffffffffffffffffffffffffffffffffffffff16815260200190815260200160002060009054906101000a900460ff16613c68576040517f08c379a0000000000000000000000000000000000000000000000000000000008152600401613c5f90615945565b60405180910390fd5b61010081511115613cae576040517f08c379a0000000000000000000000000000000000000000000000000000000008152600401613ca590615e5e565b60405180910390fd5b60008060003373ffffffffffffffffffffffffffffffffffffffff1673ffffffffffffffffffffffffffffffffffffffff16815260200190815260200160002090506000600360003373ffffffffffffffffffffffffffffffffffffffff1673ffffffffffffffffffffffffffffffffffffffff168152602001908152602001600020905060005b8180549050811015613d915784828281548110613d5657613d55615a3d565b5b90600052602060002090600c02016001016001019080519060200190613d7d9291906145f6565b508080613d8990615afc565b915050613d36565b5083826001019080519060200190613daa9291906145f6565b5082826003019080519060200190613dc39291906145f6565b503373ffffffffffffffffffffffffffffffffffffffff167f6eb3a1c6a4675ba92d44e090515b1ceea358f26565d2854df0c99c3f5eaf98508585604051613e0c929190615e7e565b60405180910390a250505050565b600160003373ffffffffffffffffffffffffffffffffffffffff1673ffffffffffffffffffffffffffffffffffffffff16815260200190815260200160002060009054906101000a900460ff16613ea6576040517f08c379a0000000000000000000000000000000000000000000000000000000008152600401613e9d90615945565b60405180910390fd5b600160008273ffffffffffffffffffffffffffffffffffffffff1673ffffffffffffffffffffffffffffffffffffffff16815260200190815260200160002060009054906101000a900460ff16613f32576040517f08c379a0000000000000000000000000000000000000000000000000000000008152600401613f2990615f01565b60405180910390fd5b600460003373ffffffffffffffffffffffffffffffffffffffff1673ffffffffffffffffffffffffffffffffffffffff16815260200190815260200160002060008273ffffffffffffffffffffffffffffffffffffffff1673ffffffffffffffffffffffffffffffffffffffff16815260200190815260200160002060009054906101000a900460ff1615600460003373ffffffffffffffffffffffffffffffffffffffff1673ffffffffffffffffffffffffffffffffffffffff16815260200190815260200160002060008373ffffffffffffffffffffffffffffffffffffffff1673ffffffffffffffffffffffffffffffffffffffff16815260200190815260200160002060006101000a81548160ff02191690831515021790555050565b600160003373ffffffffffffffffffffffffffffffffffffffff1673ffffffffffffffffffffffffffffffffffffffff16815260200190815260200160002060009054906101000a900460ff166140df576040517f08c379a00000000000000000000000000000000000000000000000000000000081526004016140d690615945565b60405180910390fd5b600360008373ffffffffffffffffffffffffffffffffffffffff1673ffffffffffffffffffffffffffffffffffffffff168152602001908152602001600020805490508110614163576040517f08c379a000000000000000000000000000000000000000000000000000000000815260040161415a906159b1565b60405180910390fd5b600560008373ffffffffffffffffffffffffffffffffffffffff1673ffffffffffffffffffffffffffffffffffffffff168152602001908152602001600020600082815260200190815260200160002060003373ffffffffffffffffffffffffffffffffffffffff1673ffffffffffffffffffffffffffffffffffffffff16815260200190815260200160002060009054906101000a900460ff161561428057600360008373ffffffffffffffffffffffffffffffffffffffff1673ffffffffffffffffffffffffffffffffffffffff168152602001908152602001600020818154811061425457614253615a3d565b5b90600052602060002090600c0201600901600081548092919061427690615f21565b91905055506142f9565b600360008373ffffffffffffffffffffffffffffffffffffffff1673ffffffffffffffffffffffffffffffffffffffff16815260200190815260200160002081815481106142d1576142d0615a3d565b5b90600052602060002090600c020160090160008154809291906142f390615afc565b91905055505b600560008373ffffffffffffffffffffffffffffffffffffffff1673ffffffffffffffffffffffffffffffffffffffff168152602001908152602001600020600082815260200190815260200160002060003373ffffffffffffffffffffffffffffffffffffffff1673ffffffffffffffffffffffffffffffffffffffff16815260200190815260200160002060009054906101000a900460ff1615600560008473ffffffffffffffffffffffffffffffffffffffff1673ffffffffffffffffffffffffffffffffffffffff168152602001908152602001600020600083815260200190815260200160002060003373ffffffffffffffffffffffffffffffffffffffff1673ffffffffffffffffffffffffffffffffffffffff16815260200190815260200160002060006101000a81548160ff0219169083151502179055505050565b6000600754905090565b808210614453576145f1565b600083828151811061446857614467615a3d565b5b6020026020010151606001519050600083905060008490505b83811015614543578286828151811061449d5761449c615a3d565b5b6020026020010151606001511115614530578581815181106144c2576144c1615a3d565b5b60200260200101518683815181106144dd576144dc615a3d565b5b60200260200101518784815181106144f8576144f7615a3d565b5b6020026020010188848151811061451257614511615a3d565b5b602002602001018290528290525050818061452c90615afc565b9250505b808061453b90615afc565b915050614481565b5084838151811061455757614556615a3d565b5b602002602001015185828151811061457257614571615a3d565b5b602002602001015186838151811061458d5761458c615a3d565b5b602002602001018786815181106145a7576145a6615a3d565b5b60200260200101829052829052505060008111156145d7576145d685856001846145d19190615dde565b614447565b5b6145ee856001836145e89190615d88565b85614447565b50505b505050565b82805461460290615a9b565b90600052602060002090601f016020900481019282614624576000855561466b565b82601f1061463d57805160ff191683800117855561466b565b8280016001018555821561466b579182015b8281111561466a57825182559160200191906001019061464f565b5b50905061467891906148d7565b5090565b6040518060c001604052806060815260200160608152602001600073ffffffffffffffffffffffffffffffffffffffff1681526020016060815260200160008019168152602001606081525090565b828054828255906000526020600020908101928215614744579160200282015b828111156147435782518260006101000a81548173ffffffffffffffffffffffffffffffffffffffff021916908373ffffffffffffffffffffffffffffffffffffffff160217905550916020019190600101906146eb565b5b50905061475191906148d7565b5090565b6040518060e001604052806000815260200161476f61467c565b815260200160608152602001600081526020016000815260200160608152602001606081525090565b8280546147a490615a9b565b90600052602060002090601f0160209004810192826147c65760008555614814565b82601f106147d75780548555614814565b8280016001018555821561481457600052602060002091601f016020900482015b828111156148135782548255916001019190600101906147f8565b5b50905061482191906148d7565b5090565b8280548282559060005260206000209081019282156148665760005260206000209182015b8281111561486557825482559160010191906001019061484a565b5b50905061487391906148d7565b5090565b8280548282559060005260206000209081019282156148c6579160200282015b828111156148c55782518290805190602001906148b59291906145f6565b5091602001919060010190614897565b5b5090506148d391906148f4565b5090565b5b808211156148f05760008160009055506001016148d8565b5090565b5b80821115614914576000818161490b9190614918565b506001016148f5565b5090565b50805461492490615a9b565b6000825580601f106149365750614955565b601f01602090049060005260206000209081019061495491906148d7565b5b50565b6000604051905090565b600080fd5b600080fd5b600073ffffffffffffffffffffffffffffffffffffffff82169050919050565b60006149978261496c565b9050919050565b6149a78161498c565b81146149b257600080fd5b50565b6000813590506149c48161499e565b92915050565b6000819050919050565b6149dd816149ca565b81146149e857600080fd5b50565b6000813590506149fa816149d4565b92915050565b600080fd5b600080fd5b6000601f19601f8301169050919050565b7f4e487b7100000000000000000000000000000000000000000000000000000000600052604160045260246000fd5b614a5382614a0a565b810181811067ffffffffffffffff82111715614a7257614a71614a1b565b5b80604052505050565b6000614a85614958565b9050614a918282614a4a565b919050565b600067ffffffffffffffff821115614ab157614ab0614a1b565b5b614aba82614a0a565b9050602081019050919050565b82818337600083830152505050565b6000614ae9614ae484614a96565b614a7b565b905082815260208101848484011115614b0557614b04614a05565b5b614b10848285614ac7565b509392505050565b600082601f830112614b2d57614b2c614a00565b5b8135614b3d848260208601614ad6565b91505092915050565b600080600060608486031215614b5f57614b5e614962565b5b6000614b6d868287016149b5565b9350506020614b7e868287016149eb565b925050604084013567ffffffffffffffff811115614b9f57614b9e614967565b5b614bab86828701614b18565b9150509250925092565b600060208284031215614bcb57614bca614962565b5b6000614bd9848285016149b5565b91505092915050565b600081519050919050565b600082825260208201905092915050565b6000819050602082019050919050565b600081519050919050565b600082825260208201905092915050565b60005b83811015614c48578082015181840152602081019050614c2d565b83811115614c57576000848401525b50505050565b6000614c6882614c0e565b614c728185614c19565b9350614c82818560208601614c2a565b614c8b81614a0a565b840191505092915050565b614c9f8161498c565b82525050565b6000819050919050565b614cb881614ca5565b82525050565b600081519050919050565b600082825260208201905092915050565b6000819050602082019050919050565b6000614cf68383614c96565b60208301905092915050565b6000602082019050919050565b6000614d1a82614cbe565b614d248185614cc9565b9350614d2f83614cda565b8060005b83811015614d60578151614d478882614cea565b9750614d5283614d02565b925050600181019050614d33565b5085935050505092915050565b600060c0830160008301518482036000860152614d8a8282614c5d565b91505060208301518482036020860152614da48282614c5d565b9150506040830151614db96040860182614c96565b5060608301518482036060860152614dd18282614c5d565b9150506080830151614de66080860182614caf565b5060a083015184820360a0860152614dfe8282614d0f565b9150508091505092915050565b6000614e178383614d6d565b905092915050565b6000602082019050919050565b6000614e3782614be2565b614e418185614bed565b935083602082028501614e5385614bfe565b8060005b85811015614e8f5784840389528151614e708582614e0b565b9450614e7b83614e1f565b925060208a01995050600181019050614e57565b50829750879550505050505092915050565b60006020820190508181036000830152614ebb8184614e2c565b905092915050565b60008060408385031215614eda57614ed9614962565b5b6000614ee8858286016149b5565b9250506020614ef9858286016149b5565b9150509250929050565b600081519050919050565b600082825260208201905092915050565b6000819050602082019050919050565b60008115159050919050565b614f4481614f2f565b82525050565b614f53816149ca565b82525050565b6000608083016000830151614f716000860182614c96565b5060208301518482036020860152614f898282614c5d565b9150506040830151614f9e6040860182614f3b565b506060830151614fb16060860182614f4a565b508091505092915050565b6000614fc88383614f59565b905092915050565b6000602082019050919050565b6000614fe882614f03565b614ff28185614f0e565b93508360208202850161500485614f1f565b8060005b8581101561504057848403895281516150218582614fbc565b945061502c83614fd0565b925060208a01995050600181019050615008565b50829750879550505050505092915050565b6000604082019050818103600083015261506c8185614fdd565b905081810360208301526150808184614fdd565b90509392505050565b600080604083850312156150a05761509f614962565b5b600083013567ffffffffffffffff8111156150be576150bd614967565b5b6150ca85828601614b18565b925050602083013567ffffffffffffffff8111156150eb576150ea614967565b5b6150f785828601614b18565b9150509250929050565b600080fd5b600080fd5b60008083601f84011261512157615120614a00565b5b8235905067ffffffffffffffff81111561513e5761513d615101565b5b60208301915083600182028301111561515a57615159615106565b5b9250929050565b61516a81614f2f565b811461517557600080fd5b50565b60008135905061518781615161565b92915050565b600080600080606085870312156151a7576151a6614962565b5b60006151b5878288016149b5565b945050602085013567ffffffffffffffff8111156151d6576151d5614967565b5b6151e28782880161510b565b935093505060406151f587828801615178565b91505092959194509250565b600081519050919050565b600082825260208201905092915050565b6000819050602082019050919050565b600081519050919050565b600082825260208201905092915050565b6000819050602082019050919050565b600060408301600083015184820360008601526152768282614c5d565b915050602083015161528b6020860182614c96565b508091505092915050565b60006152a28383615259565b905092915050565b6000602082019050919050565b60006152c28261522d565b6152cc8185615238565b9350836020820285016152de85615249565b8060005b8581101561531a57848403895281516152fb8582615296565b9450615306836152aa565b925060208a019950506001810190506152e2565b50829750879550505050505092915050565b600081519050919050565b600082825260208201905092915050565b6000819050602082019050919050565b60006153648383614c5d565b905092915050565b6000602082019050919050565b60006153848261532c565b61538e8185615337565b9350836020820285016153a085615348565b8060005b858110156153dc57848403895281516153bd8582615358565b94506153c88361536c565b925060208a019950506001810190506153a4565b50829750879550505050505092915050565b600060e0830160008301516154066000860182614f4a565b506020830151848203602086015261541e8282614d6d565b915050604083015184820360408601526154388282614c5d565b915050606083015161544d6060860182614f4a565b5060808301516154606080860182614f4a565b5060a083015184820360a086015261547882826152b7565b91505060c083015184820360c08601526154928282615379565b9150508091505092915050565b60006154ab83836153ee565b905092915050565b6000602082019050919050565b60006154cb82615201565b6154d5818561520c565b9350836020820285016154e78561521d565b8060005b858110156155235784840389528151615504858261549f565b945061550f836154b3565b925060208a019950506001810190506154eb565b50829750879550505050505092915050565b6000602082019050818103600083015261554f81846154c0565b905092915050565b600067ffffffffffffffff82111561557257615571614a1b565b5b602082029050602081019050919050565b600061559661559184615557565b614a7b565b905080838252602082019050602084028301858111156155b9576155b8615106565b5b835b8181101561560057803567ffffffffffffffff8111156155de576155dd614a00565b5b8086016155eb8982614b18565b855260208501945050506020810190506155bb565b5050509392505050565b600082601f83011261561f5761561e614a00565b5b813561562f848260208601615583565b91505092915050565b6000806040838503121561564f5761564e614962565b5b600083013567ffffffffffffffff81111561566d5761566c614967565b5b61567985828601614b18565b925050602083013567ffffffffffffffff81111561569a57615699614967565b5b6156a68582860161560a565b9150509250929050565b600082825260208201905092915050565b60006156cc82614cbe565b6156d681856156b0565b93506156e183614cda565b8060005b838110156157125781516156f98882614cea565b975061570483614d02565b9250506001810190506156e5565b5085935050505092915050565b6000602082019050818103600083015261573981846156c1565b905092915050565b600060c083016000830151848203600086015261575e8282614c5d565b915050602083015184820360208601526157788282614c5d565b915050604083015161578d6040860182614c96565b50606083015184820360608601526157a58282614c5d565b91505060808301516157ba6080860182614caf565b5060a083015184820360a08601526157d28282614d0f565b9150508091505092915050565b600060208201905081810360008301526157f98184615741565b905092915050565b61580a816149ca565b82525050565b60006020820190506158256000830184615801565b92915050565b60008060006060848603121561584457615843614962565b5b6000615852868287016149b5565b9350506020615863868287016149eb565b9250506040615874868287016149b5565b9150509250925092565b61588781614f2f565b82525050565b60006020820190506158a2600083018461587e565b92915050565b600080604083850312156158bf576158be614962565b5b60006158cd858286016149b5565b92505060206158de858286016149eb565b9150509250929050565b600082825260208201905092915050565b7f55736572206e6f74207265676973746572656400000000000000000000000000600082015250565b600061592f6013836158e8565b915061593a826158f9565b602082019050919050565b6000602082019050818103600083015261595e81615922565b9050919050565b7f496e76616c696420706f73742049440000000000000000000000000000000000600082015250565b600061599b600f836158e8565b91506159a682615965565b602082019050919050565b600060208201905081810360008301526159ca8161598e565b9050919050565b7f436f6d6d656e742063616e6e6f7420626520656d707479000000000000000000600082015250565b6000615a076017836158e8565b9150615a12826159d1565b602082019050919050565b60006020820190508181036000830152615a36816159fa565b9050919050565b7f4e487b7100000000000000000000000000000000000000000000000000000000600052603260045260246000fd5b7f4e487b7100000000000000000000000000000000000000000000000000000000600052602260045260246000fd5b60006002820490506001821680615ab357607f821691505b60208210811415615ac757615ac6615a6c565b5b50919050565b7f4e487b7100000000000000000000000000000000000000000000000000000000600052601160045260246000fd5b6000615b07826149ca565b91507fffffffffffffffffffffffffffffffffffffffffffffffffffffffffffffffff821415615b3a57615b39615acd565b5b600182019050919050565b7f5573657220616c72656164792072656769737465726564000000000000000000600082015250565b6000615b7b6017836158e8565b9150615b8682615b45565b602082019050919050565b60006020820190508181036000830152615baa81615b6e565b9050919050565b600081905092915050565b6000615bc782614c0e565b615bd18185615bb1565b9350615be1818560208601614c2a565b80840191505092915050565b6000615bf98284615bbc565b915081905092915050565b6000615c0f82614c0e565b615c1981856158e8565b9350615c29818560208601614c2a565b615c3281614a0a565b840191505092915050565b60006020820190508181036000830152615c578184615c04565b905092915050565b7f5265636569766572206e6f742072656769737465726564000000000000000000600082015250565b6000615c956017836158e8565b9150615ca082615c5f565b602082019050919050565b60006020820190508181036000830152615cc481615c88565b9050919050565b7f4d6573736167652063616e6e6f7420626520656d707479000000000000000000600082015250565b6000615d016017836158e8565b9150615d0c82615ccb565b602082019050919050565b60006020820190508181036000830152615d3081615cf4565b9050919050565b6000615d4383856158e8565b9350615d50838584614ac7565b615d5983614a0a565b840190509392505050565b60006020820190508181036000830152615d7f818486615d37565b90509392505050565b6000615d93826149ca565b9150615d9e836149ca565b9250827fffffffffffffffffffffffffffffffffffffffffffffffffffffffffffffffff03821115615dd357615dd2615acd565b5b828201905092915050565b6000615de9826149ca565b9150615df4836149ca565b925082821015615e0757615e06615acd565b5b828203905092915050565b7f42696f20697320746f6f206c6f6e670000000000000000000000000000000000600082015250565b6000615e48600f836158e8565b9150615e5382615e12565b602082019050919050565b60006020820190508181036000830152615e7781615e3b565b9050919050565b60006040820190508181036000830152615e988185615c04565b90508181036020830152615eac8184615c04565b90509392505050565b7f467269656e64206e6f7420726567697374657265640000000000000000000000600082015250565b6000615eeb6015836158e8565b9150615ef682615eb5565b602082019050919050565b60006020820190508181036000830152615f1a81615ede565b9050919050565b6000615f2c826149ca565b91506000821415615f4057615f3f615acd565b5b60018203905091905056fe68747470733a2f2f7265732e636c6f7564696e6172792e636f6d2f646a306772766162632f696d6167652f75706c6f61642f76313732313033363231322f617661746172732f6462777479776d77656a337762746c3675617a732e706e67a26469706673582212205ee76088e8b18c9666c3c101d5447a6b0079dce16924dd8009dbedbc13890b1d64736f6c63430008090033",
  "linkReferences": {},
  "deployedLinkReferences": {}
}